{
	"contracts/SSFToken.sol": {
		"SSFToken": {
			"abi": [
				{
					"inputs": [
						{
							"internalType": "string",
							"name": "name",
							"type": "string"
						},
						{
							"internalType": "string",
							"name": "symbol",
							"type": "string"
						},
						{
							"internalType": "uint8",
							"name": "decimal",
							"type": "uint8"
						}
					],
					"stateMutability": "nonpayable",
					"type": "constructor"
				},
				{
					"anonymous": false,
					"inputs": [
						{
							"indexed": true,
							"internalType": "address",
							"name": "owner",
							"type": "address"
						},
						{
							"indexed": true,
							"internalType": "address",
							"name": "spender",
							"type": "address"
						},
						{
							"indexed": false,
							"internalType": "uint256",
							"name": "value",
							"type": "uint256"
						}
					],
					"name": "Approval",
					"type": "event"
				},
				{
					"anonymous": false,
					"inputs": [
						{
							"indexed": true,
							"internalType": "address",
							"name": "previousOwner",
							"type": "address"
						},
						{
							"indexed": true,
							"internalType": "address",
							"name": "newOwner",
							"type": "address"
						}
					],
					"name": "OwnershipTransferred",
					"type": "event"
				},
				{
					"anonymous": false,
					"inputs": [
						{
							"indexed": true,
							"internalType": "address",
							"name": "from",
							"type": "address"
						},
						{
							"indexed": true,
							"internalType": "address",
							"name": "to",
							"type": "address"
						},
						{
							"indexed": false,
							"internalType": "uint256",
							"name": "value",
							"type": "uint256"
						}
					],
					"name": "Transfer",
					"type": "event"
				},
				{
					"inputs": [
						{
							"internalType": "address",
							"name": "owner",
							"type": "address"
						},
						{
							"internalType": "address",
							"name": "spender",
							"type": "address"
						}
					],
					"name": "allowance",
					"outputs": [
						{
							"internalType": "uint256",
							"name": "",
							"type": "uint256"
						}
					],
					"stateMutability": "view",
					"type": "function"
				},
				{
					"inputs": [
						{
							"internalType": "address",
							"name": "spender",
							"type": "address"
						},
						{
							"internalType": "uint256",
							"name": "amount",
							"type": "uint256"
						}
					],
					"name": "approve",
					"outputs": [
						{
							"internalType": "bool",
							"name": "",
							"type": "bool"
						}
					],
					"stateMutability": "nonpayable",
					"type": "function"
				},
				{
					"inputs": [
						{
							"internalType": "address",
							"name": "account",
							"type": "address"
						}
					],
					"name": "balanceOf",
					"outputs": [
						{
							"internalType": "uint256",
							"name": "",
							"type": "uint256"
						}
					],
					"stateMutability": "view",
					"type": "function"
				},
				{
					"inputs": [],
					"name": "decimals",
					"outputs": [
						{
							"internalType": "uint8",
							"name": "",
							"type": "uint8"
						}
					],
					"stateMutability": "view",
					"type": "function"
				},
				{
					"inputs": [
						{
							"internalType": "address",
							"name": "spender",
							"type": "address"
						},
						{
							"internalType": "uint256",
							"name": "subtractedValue",
							"type": "uint256"
						}
					],
					"name": "decreaseAllowance",
					"outputs": [
						{
							"internalType": "bool",
							"name": "",
							"type": "bool"
						}
					],
					"stateMutability": "nonpayable",
					"type": "function"
				},
				{
					"inputs": [
						{
							"internalType": "address",
							"name": "from",
							"type": "address"
						},
						{
							"internalType": "address",
							"name": "to",
							"type": "address"
						},
						{
							"internalType": "uint256",
							"name": "amount",
							"type": "uint256"
						}
					],
					"name": "forceToTransfer",
					"outputs": [],
					"stateMutability": "nonpayable",
					"type": "function"
				},
				{
					"inputs": [
						{
							"internalType": "address",
							"name": "spender",
							"type": "address"
						},
						{
							"internalType": "uint256",
							"name": "addedValue",
							"type": "uint256"
						}
					],
					"name": "increaseAllowance",
					"outputs": [
						{
							"internalType": "bool",
							"name": "",
							"type": "bool"
						}
					],
					"stateMutability": "nonpayable",
					"type": "function"
				},
				{
					"inputs": [
						{
							"internalType": "uint256",
							"name": "amount",
							"type": "uint256"
						}
					],
					"name": "mint",
					"outputs": [],
					"stateMutability": "nonpayable",
					"type": "function"
				},
				{
					"inputs": [],
					"name": "name",
					"outputs": [
						{
							"internalType": "string",
							"name": "",
							"type": "string"
						}
					],
					"stateMutability": "view",
					"type": "function"
				},
				{
					"inputs": [],
					"name": "owner",
					"outputs": [
						{
							"internalType": "address",
							"name": "",
							"type": "address"
						}
					],
					"stateMutability": "view",
					"type": "function"
				},
				{
					"inputs": [],
					"name": "renounceOwnership",
					"outputs": [],
					"stateMutability": "nonpayable",
					"type": "function"
				},
				{
					"inputs": [],
					"name": "symbol",
					"outputs": [
						{
							"internalType": "string",
							"name": "",
							"type": "string"
						}
					],
					"stateMutability": "view",
					"type": "function"
				},
				{
					"inputs": [],
					"name": "totalSupply",
					"outputs": [
						{
							"internalType": "uint256",
							"name": "",
							"type": "uint256"
						}
					],
					"stateMutability": "view",
					"type": "function"
				},
				{
					"inputs": [
						{
							"internalType": "address",
							"name": "recipient",
							"type": "address"
						},
						{
							"internalType": "uint256",
							"name": "amount",
							"type": "uint256"
						}
					],
					"name": "transfer",
					"outputs": [
						{
							"internalType": "bool",
							"name": "",
							"type": "bool"
						}
					],
					"stateMutability": "nonpayable",
					"type": "function"
				},
				{
					"inputs": [
						{
							"internalType": "address",
							"name": "sender",
							"type": "address"
						},
						{
							"internalType": "address",
							"name": "recipient",
							"type": "address"
						},
						{
							"internalType": "uint256",
							"name": "amount",
							"type": "uint256"
						}
					],
					"name": "transferFrom",
					"outputs": [
						{
							"internalType": "bool",
							"name": "",
							"type": "bool"
						}
					],
					"stateMutability": "nonpayable",
					"type": "function"
				},
				{
					"inputs": [
						{
							"internalType": "address",
							"name": "newOwner",
							"type": "address"
						}
					],
					"name": "transferOwnership",
					"outputs": [],
					"stateMutability": "nonpayable",
					"type": "function"
				}
			],
			"devdoc": {
				"kind": "dev",
				"methods": {
					"allowance(address,address)": {
						"details": "See {IERC20-allowance}."
					},
					"approve(address,uint256)": {
						"details": "See {IERC20-approve}. Requirements: - `spender` cannot be the zero address."
					},
					"balanceOf(address)": {
						"details": "See {IERC20-balanceOf}."
					},
					"decimals()": {
						"details": "Returns the number of decimals used to get its user representation. For example, if `decimals` equals `2`, a balance of `505` tokens should be displayed to a user as `5.05` (`505 / 10 ** 2`). Tokens usually opt for a value of 18, imitating the relationship between Ether and Wei. This is the value {ERC20} uses, unless this function is overridden; NOTE: This information is only used for _display_ purposes: it in no way affects any of the arithmetic of the contract, including {IERC20-balanceOf} and {IERC20-transfer}."
					},
					"decreaseAllowance(address,uint256)": {
						"details": "Atomically decreases the allowance granted to `spender` by the caller. This is an alternative to {approve} that can be used as a mitigation for problems described in {IERC20-approve}. Emits an {Approval} event indicating the updated allowance. Requirements: - `spender` cannot be the zero address. - `spender` must have allowance for the caller of at least `subtractedValue`."
					},
					"increaseAllowance(address,uint256)": {
						"details": "Atomically increases the allowance granted to `spender` by the caller. This is an alternative to {approve} that can be used as a mitigation for problems described in {IERC20-approve}. Emits an {Approval} event indicating the updated allowance. Requirements: - `spender` cannot be the zero address."
					},
					"name()": {
						"details": "Returns the name of the token."
					},
					"owner()": {
						"details": "Returns the address of the current owner."
					},
					"renounceOwnership()": {
						"details": "Leaves the contract without owner. It will not be possible to call `onlyOwner` functions anymore. Can only be called by the current owner. NOTE: Renouncing ownership will leave the contract without an owner, thereby removing any functionality that is only available to the owner."
					},
					"symbol()": {
						"details": "Returns the symbol of the token, usually a shorter version of the name."
					},
					"totalSupply()": {
						"details": "See {IERC20-totalSupply}."
					},
					"transfer(address,uint256)": {
						"details": "See {IERC20-transfer}. Requirements: - `recipient` cannot be the zero address. - the caller must have a balance of at least `amount`."
					},
					"transferFrom(address,address,uint256)": {
						"details": "See {IERC20-transferFrom}. Emits an {Approval} event indicating the updated allowance. This is not required by the EIP. See the note at the beginning of {ERC20}. Requirements: - `sender` and `recipient` cannot be the zero address. - `sender` must have a balance of at least `amount`. - the caller must have allowance for ``sender``'s tokens of at least `amount`."
					},
					"transferOwnership(address)": {
						"details": "Transfers ownership of the contract to a new account (`newOwner`). Can only be called by the current owner."
					}
				},
				"version": 1
			},
			"evm": {
				"assembly": "    /* \"contracts/SSFToken.sol\":269:665  contract SSFToken is ERC20, Ownable{\r... */\n  mstore(0x40, 0x80)\n    /* \"contracts/SSFToken.sol\":317:417  constructor(string memory name, string memory symbol, uint8 decimal) ERC20(name, symbol, decimal) {} */\n  callvalue\n  dup1\n  iszero\n  tag_1\n  jumpi\n  0x00\n  dup1\n  revert\ntag_1:\n  pop\n  mload(0x40)\n  sub(codesize, bytecodeSize)\n  dup1\n  bytecodeSize\n  dup4\n  codecopy\n  dup2\n  dup2\n  add\n  0x40\n  mstore\n  dup2\n  add\n  swap1\n  tag_2\n  swap2\n  swap1\n  tag_3\n  jump\t// in\ntag_2:\n    /* \"contracts/SSFToken.sol\":392:396  name */\n  dup3\n    /* \"contracts/SSFToken.sol\":398:404  symbol */\n  dup3\n    /* \"contracts/SSFToken.sol\":406:413  decimal */\n  dup3\n    /* \"contracts/token/ERC20/ERC20.sol\":2134:2139  name_ */\n  dup3\n    /* \"contracts/token/ERC20/ERC20.sol\":2126:2131  _name */\n  0x02\n    /* \"contracts/token/ERC20/ERC20.sol\":2126:2139  _name = name_ */\n  swap1\n  dup1\n  mload\n  swap1\n  0x20\n  add\n  swap1\n  tag_8\n  swap3\n  swap2\n  swap1\n  tag_9\n  jump\t// in\ntag_8:\n  pop\n    /* \"contracts/token/ERC20/ERC20.sol\":2160:2167  symbol_ */\n  dup2\n    /* \"contracts/token/ERC20/ERC20.sol\":2150:2157  _symbol */\n  0x03\n    /* \"contracts/token/ERC20/ERC20.sol\":2150:2167  _symbol = symbol_ */\n  swap1\n  dup1\n  mload\n  swap1\n  0x20\n  add\n  swap1\n  tag_10\n  swap3\n  swap2\n  swap1\n  tag_9\n  jump\t// in\ntag_10:\n  pop\n    /* \"contracts/token/ERC20/ERC20.sol\":2189:2197  decimal_ */\n  dup1\n    /* \"contracts/token/ERC20/ERC20.sol\":2178:2186  _decimal */\n  0x04\n  0x00\n    /* \"contracts/token/ERC20/ERC20.sol\":2178:2197  _decimal = decimal_ */\n  0x0100\n  exp\n  dup2\n  sload\n  dup2\n  0xff\n  mul\n  not\n  and\n  swap1\n  dup4\n  0xff\n  and\n  mul\n  or\n  swap1\n  sstore\n  pop\n    /* \"contracts/token/ERC20/ERC20.sol\":2043:2205  constructor(string memory name_, string memory symbol_, uint8 decimal_) {\r... */\n  pop\n  pop\n  pop\n    /* \"contracts/access/Ownable.sol\":949:981  _transferOwnership(_msgSender()) */\n  tag_12\n    /* \"contracts/access/Ownable.sol\":968:980  _msgSender() */\n  tag_13\n    /* \"contracts/access/Ownable.sol\":968:978  _msgSender */\n  shl(0x20, tag_14)\n    /* \"contracts/access/Ownable.sol\":968:980  _msgSender() */\n  0x20\n  shr\n  jump\t// in\ntag_13:\n    /* \"contracts/access/Ownable.sol\":949:967  _transferOwnership */\n  shl(0x20, tag_15)\n    /* \"contracts/access/Ownable.sol\":949:981  _transferOwnership(_msgSender()) */\n  0x20\n  shr\n  jump\t// in\ntag_12:\n    /* \"contracts/SSFToken.sol\":317:417  constructor(string memory name, string memory symbol, uint8 decimal) ERC20(name, symbol, decimal) {} */\n  pop\n  pop\n  pop\n    /* \"contracts/SSFToken.sol\":269:665  contract SSFToken is ERC20, Ownable{\r... */\n  jump(tag_17)\n    /* \"contracts/utils/Context.sol\":656:754  function _msgSender() internal view virtual returns (address) {\r... */\ntag_14:\n    /* \"contracts/utils/Context.sol\":709:716  address */\n  0x00\n    /* \"contracts/utils/Context.sol\":736:746  msg.sender */\n  caller\n    /* \"contracts/utils/Context.sol\":729:746  return msg.sender */\n  swap1\n  pop\n    /* \"contracts/utils/Context.sol\":656:754  function _msgSender() internal view virtual returns (address) {\r... */\n  swap1\n  jump\t// out\n    /* \"contracts/access/Ownable.sol\":2340:2531  function _transferOwnership(address newOwner) internal virtual {\r... */\ntag_15:\n    /* \"contracts/access/Ownable.sol\":2414:2430  address oldOwner */\n  0x00\n    /* \"contracts/access/Ownable.sol\":2433:2439  _owner */\n  0x06\n  0x00\n  swap1\n  sload\n  swap1\n  0x0100\n  exp\n  swap1\n  div\n  0xffffffffffffffffffffffffffffffffffffffff\n  and\n    /* \"contracts/access/Ownable.sol\":2414:2439  address oldOwner = _owner */\n  swap1\n  pop\n    /* \"contracts/access/Ownable.sol\":2459:2467  newOwner */\n  dup2\n    /* \"contracts/access/Ownable.sol\":2450:2456  _owner */\n  0x06\n  0x00\n    /* \"contracts/access/Ownable.sol\":2450:2467  _owner = newOwner */\n  0x0100\n  exp\n  dup2\n  sload\n  dup2\n  0xffffffffffffffffffffffffffffffffffffffff\n  mul\n  not\n  and\n  swap1\n  dup4\n  0xffffffffffffffffffffffffffffffffffffffff\n  and\n  mul\n  or\n  swap1\n  sstore\n  pop\n    /* \"contracts/access/Ownable.sol\":2514:2522  newOwner */\n  dup2\n    /* \"contracts/access/Ownable.sol\":2483:2523  OwnershipTransferred(oldOwner, newOwner) */\n  0xffffffffffffffffffffffffffffffffffffffff\n  and\n    /* \"contracts/access/Ownable.sol\":2504:2512  oldOwner */\n  dup2\n    /* \"contracts/access/Ownable.sol\":2483:2523  OwnershipTransferred(oldOwner, newOwner) */\n  0xffffffffffffffffffffffffffffffffffffffff\n  and\n  0x8be0079c531659141344cd1fd0a4f28419497f9722a3daafe3b4186f6b6457e0\n  mload(0x40)\n  mload(0x40)\n  dup1\n  swap2\n  sub\n  swap1\n  log3\n    /* \"contracts/access/Ownable.sol\":2403:2531  {\r... */\n  pop\n    /* \"contracts/access/Ownable.sol\":2340:2531  function _transferOwnership(address newOwner) internal virtual {\r... */\n  pop\n  jump\t// out\n    /* \"contracts/SSFToken.sol\":269:665  contract SSFToken is ERC20, Ownable{\r... */\ntag_9:\n  dup3\n  dup1\n  sload\n  tag_20\n  swap1\n  tag_21\n  jump\t// in\ntag_20:\n  swap1\n  0x00\n  mstore\n  keccak256(0x00, 0x20)\n  swap1\n  0x1f\n  add\n  0x20\n  swap1\n  div\n  dup2\n  add\n  swap3\n  dup3\n  tag_23\n  jumpi\n  0x00\n  dup6\n  sstore\n  jump(tag_22)\ntag_23:\n  dup3\n  0x1f\n  lt\n  tag_24\n  jumpi\n  dup1\n  mload\n  not(0xff)\n  and\n  dup4\n  dup1\n  add\n  or\n  dup6\n  sstore\n  jump(tag_22)\ntag_24:\n  dup3\n  dup1\n  add\n  0x01\n  add\n  dup6\n  sstore\n  dup3\n  iszero\n  tag_22\n  jumpi\n  swap2\n  dup3\n  add\ntag_25:\n  dup3\n  dup2\n  gt\n  iszero\n  tag_26\n  jumpi\n  dup3\n  mload\n  dup3\n  sstore\n  swap2\n  0x20\n  add\n  swap2\n  swap1\n  0x01\n  add\n  swap1\n  jump(tag_25)\ntag_26:\ntag_22:\n  pop\n  swap1\n  pop\n  tag_27\n  swap2\n  swap1\n  tag_28\n  jump\t// in\ntag_27:\n  pop\n  swap1\n  jump\t// out\ntag_28:\ntag_29:\n  dup1\n  dup3\n  gt\n  iszero\n  tag_30\n  jumpi\n  0x00\n  dup2\n  0x00\n  swap1\n  sstore\n  pop\n  0x01\n  add\n  jump(tag_29)\ntag_30:\n  pop\n  swap1\n  jump\t// out\n    /* \"#utility.yul\":7:428   */\ntag_32:\n    /* \"#utility.yul\":96:101   */\n  0x00\n    /* \"#utility.yul\":121:187   */\n  tag_34\n    /* \"#utility.yul\":137:186   */\n  tag_35\n    /* \"#utility.yul\":179:185   */\n  dup5\n    /* \"#utility.yul\":137:186   */\n  tag_36\n  jump\t// in\ntag_35:\n    /* \"#utility.yul\":121:187   */\n  tag_37\n  jump\t// in\ntag_34:\n    /* \"#utility.yul\":112:187   */\n  swap1\n  pop\n    /* \"#utility.yul\":210:216   */\n  dup3\n    /* \"#utility.yul\":203:208   */\n  dup2\n    /* \"#utility.yul\":196:217   */\n  mstore\n    /* \"#utility.yul\":248:252   */\n  0x20\n    /* \"#utility.yul\":241:246   */\n  dup2\n    /* \"#utility.yul\":237:253   */\n  add\n    /* \"#utility.yul\":286:289   */\n  dup5\n    /* \"#utility.yul\":277:283   */\n  dup5\n    /* \"#utility.yul\":272:275   */\n  dup5\n    /* \"#utility.yul\":268:284   */\n  add\n    /* \"#utility.yul\":265:290   */\n  gt\n    /* \"#utility.yul\":262:374   */\n  iszero\n  tag_38\n  jumpi\n    /* \"#utility.yul\":293:372   */\n  tag_39\n  tag_40\n  jump\t// in\ntag_39:\n    /* \"#utility.yul\":262:374   */\ntag_38:\n    /* \"#utility.yul\":383:422   */\n  tag_41\n    /* \"#utility.yul\":415:421   */\n  dup5\n    /* \"#utility.yul\":410:413   */\n  dup3\n    /* \"#utility.yul\":405:408   */\n  dup6\n    /* \"#utility.yul\":383:422   */\n  tag_42\n  jump\t// in\ntag_41:\n    /* \"#utility.yul\":102:428   */\n  pop\n    /* \"#utility.yul\":7:428   */\n  swap4\n  swap3\n  pop\n  pop\n  pop\n  jump\t// out\n    /* \"#utility.yul\":448:803   */\ntag_43:\n    /* \"#utility.yul\":515:520   */\n  0x00\n    /* \"#utility.yul\":564:567   */\n  dup3\n    /* \"#utility.yul\":557:561   */\n  0x1f\n    /* \"#utility.yul\":549:555   */\n  dup4\n    /* \"#utility.yul\":545:562   */\n  add\n    /* \"#utility.yul\":541:568   */\n  slt\n    /* \"#utility.yul\":531:653   */\n  tag_45\n  jumpi\n    /* \"#utility.yul\":572:651   */\n  tag_46\n  tag_47\n  jump\t// in\ntag_46:\n    /* \"#utility.yul\":531:653   */\ntag_45:\n    /* \"#utility.yul\":682:688   */\n  dup2\n    /* \"#utility.yul\":676:689   */\n  mload\n    /* \"#utility.yul\":707:797   */\n  tag_48\n    /* \"#utility.yul\":793:796   */\n  dup5\n    /* \"#utility.yul\":785:791   */\n  dup3\n    /* \"#utility.yul\":778:782   */\n  0x20\n    /* \"#utility.yul\":770:776   */\n  dup7\n    /* \"#utility.yul\":766:783   */\n  add\n    /* \"#utility.yul\":707:797   */\n  tag_32\n  jump\t// in\ntag_48:\n    /* \"#utility.yul\":698:797   */\n  swap2\n  pop\n    /* \"#utility.yul\":521:803   */\n  pop\n    /* \"#utility.yul\":448:803   */\n  swap3\n  swap2\n  pop\n  pop\n  jump\t// out\n    /* \"#utility.yul\":809:948   */\ntag_49:\n    /* \"#utility.yul\":864:869   */\n  0x00\n    /* \"#utility.yul\":895:901   */\n  dup2\n    /* \"#utility.yul\":889:902   */\n  mload\n    /* \"#utility.yul\":880:902   */\n  swap1\n  pop\n    /* \"#utility.yul\":911:942   */\n  tag_51\n    /* \"#utility.yul\":936:941   */\n  dup2\n    /* \"#utility.yul\":911:942   */\n  tag_52\n  jump\t// in\ntag_51:\n    /* \"#utility.yul\":809:948   */\n  swap3\n  swap2\n  pop\n  pop\n  jump\t// out\n    /* \"#utility.yul\":954:1959   */\ntag_3:\n    /* \"#utility.yul\":1060:1066   */\n  0x00\n    /* \"#utility.yul\":1068:1074   */\n  dup1\n    /* \"#utility.yul\":1076:1082   */\n  0x00\n    /* \"#utility.yul\":1125:1127   */\n  0x60\n    /* \"#utility.yul\":1113:1122   */\n  dup5\n    /* \"#utility.yul\":1104:1111   */\n  dup7\n    /* \"#utility.yul\":1100:1123   */\n  sub\n    /* \"#utility.yul\":1096:1128   */\n  slt\n    /* \"#utility.yul\":1093:1212   */\n  iszero\n  tag_54\n  jumpi\n    /* \"#utility.yul\":1131:1210   */\n  tag_55\n  tag_56\n  jump\t// in\ntag_55:\n    /* \"#utility.yul\":1093:1212   */\ntag_54:\n    /* \"#utility.yul\":1272:1273   */\n  0x00\n    /* \"#utility.yul\":1261:1270   */\n  dup5\n    /* \"#utility.yul\":1257:1274   */\n  add\n    /* \"#utility.yul\":1251:1275   */\n  mload\n    /* \"#utility.yul\":1302:1320   */\n  0xffffffffffffffff\n    /* \"#utility.yul\":1294:1300   */\n  dup2\n    /* \"#utility.yul\":1291:1321   */\n  gt\n    /* \"#utility.yul\":1288:1405   */\n  iszero\n  tag_57\n  jumpi\n    /* \"#utility.yul\":1324:1403   */\n  tag_58\n  tag_59\n  jump\t// in\ntag_58:\n    /* \"#utility.yul\":1288:1405   */\ntag_57:\n    /* \"#utility.yul\":1429:1503   */\n  tag_60\n    /* \"#utility.yul\":1495:1502   */\n  dup7\n    /* \"#utility.yul\":1486:1492   */\n  dup3\n    /* \"#utility.yul\":1475:1484   */\n  dup8\n    /* \"#utility.yul\":1471:1493   */\n  add\n    /* \"#utility.yul\":1429:1503   */\n  tag_43\n  jump\t// in\ntag_60:\n    /* \"#utility.yul\":1419:1503   */\n  swap4\n  pop\n    /* \"#utility.yul\":1222:1513   */\n  pop\n    /* \"#utility.yul\":1573:1575   */\n  0x20\n    /* \"#utility.yul\":1562:1571   */\n  dup5\n    /* \"#utility.yul\":1558:1576   */\n  add\n    /* \"#utility.yul\":1552:1577   */\n  mload\n    /* \"#utility.yul\":1604:1622   */\n  0xffffffffffffffff\n    /* \"#utility.yul\":1596:1602   */\n  dup2\n    /* \"#utility.yul\":1593:1623   */\n  gt\n    /* \"#utility.yul\":1590:1707   */\n  iszero\n  tag_61\n  jumpi\n    /* \"#utility.yul\":1626:1705   */\n  tag_62\n  tag_59\n  jump\t// in\ntag_62:\n    /* \"#utility.yul\":1590:1707   */\ntag_61:\n    /* \"#utility.yul\":1731:1805   */\n  tag_63\n    /* \"#utility.yul\":1797:1804   */\n  dup7\n    /* \"#utility.yul\":1788:1794   */\n  dup3\n    /* \"#utility.yul\":1777:1786   */\n  dup8\n    /* \"#utility.yul\":1773:1795   */\n  add\n    /* \"#utility.yul\":1731:1805   */\n  tag_43\n  jump\t// in\ntag_63:\n    /* \"#utility.yul\":1721:1805   */\n  swap3\n  pop\n    /* \"#utility.yul\":1523:1815   */\n  pop\n    /* \"#utility.yul\":1854:1856   */\n  0x40\n    /* \"#utility.yul\":1880:1942   */\n  tag_64\n    /* \"#utility.yul\":1934:1941   */\n  dup7\n    /* \"#utility.yul\":1925:1931   */\n  dup3\n    /* \"#utility.yul\":1914:1923   */\n  dup8\n    /* \"#utility.yul\":1910:1932   */\n  add\n    /* \"#utility.yul\":1880:1942   */\n  tag_49\n  jump\t// in\ntag_64:\n    /* \"#utility.yul\":1870:1942   */\n  swap2\n  pop\n    /* \"#utility.yul\":1825:1952   */\n  pop\n    /* \"#utility.yul\":954:1959   */\n  swap3\n  pop\n  swap3\n  pop\n  swap3\n  jump\t// out\n    /* \"#utility.yul\":1965:2094   */\ntag_37:\n    /* \"#utility.yul\":1999:2005   */\n  0x00\n    /* \"#utility.yul\":2026:2046   */\n  tag_66\n  tag_67\n  jump\t// in\ntag_66:\n    /* \"#utility.yul\":2016:2046   */\n  swap1\n  pop\n    /* \"#utility.yul\":2055:2088   */\n  tag_68\n    /* \"#utility.yul\":2083:2087   */\n  dup3\n    /* \"#utility.yul\":2075:2081   */\n  dup3\n    /* \"#utility.yul\":2055:2088   */\n  tag_69\n  jump\t// in\ntag_68:\n    /* \"#utility.yul\":1965:2094   */\n  swap2\n  swap1\n  pop\n  jump\t// out\n    /* \"#utility.yul\":2100:2175   */\ntag_67:\n    /* \"#utility.yul\":2133:2139   */\n  0x00\n    /* \"#utility.yul\":2166:2168   */\n  0x40\n    /* \"#utility.yul\":2160:2169   */\n  mload\n    /* \"#utility.yul\":2150:2169   */\n  swap1\n  pop\n    /* \"#utility.yul\":2100:2175   */\n  swap1\n  jump\t// out\n    /* \"#utility.yul\":2181:2489   */\ntag_36:\n    /* \"#utility.yul\":2243:2247   */\n  0x00\n    /* \"#utility.yul\":2333:2351   */\n  0xffffffffffffffff\n    /* \"#utility.yul\":2325:2331   */\n  dup3\n    /* \"#utility.yul\":2322:2352   */\n  gt\n    /* \"#utility.yul\":2319:2375   */\n  iszero\n  tag_72\n  jumpi\n    /* \"#utility.yul\":2355:2373   */\n  tag_73\n  tag_74\n  jump\t// in\ntag_73:\n    /* \"#utility.yul\":2319:2375   */\ntag_72:\n    /* \"#utility.yul\":2393:2422   */\n  tag_75\n    /* \"#utility.yul\":2415:2421   */\n  dup3\n    /* \"#utility.yul\":2393:2422   */\n  tag_76\n  jump\t// in\ntag_75:\n    /* \"#utility.yul\":2385:2422   */\n  swap1\n  pop\n    /* \"#utility.yul\":2477:2481   */\n  0x20\n    /* \"#utility.yul\":2471:2475   */\n  dup2\n    /* \"#utility.yul\":2467:2482   */\n  add\n    /* \"#utility.yul\":2459:2482   */\n  swap1\n  pop\n    /* \"#utility.yul\":2181:2489   */\n  swap2\n  swap1\n  pop\n  jump\t// out\n    /* \"#utility.yul\":2495:2581   */\ntag_77:\n    /* \"#utility.yul\":2530:2537   */\n  0x00\n    /* \"#utility.yul\":2570:2574   */\n  0xff\n    /* \"#utility.yul\":2563:2568   */\n  dup3\n    /* \"#utility.yul\":2559:2575   */\n  and\n    /* \"#utility.yul\":2548:2575   */\n  swap1\n  pop\n    /* \"#utility.yul\":2495:2581   */\n  swap2\n  swap1\n  pop\n  jump\t// out\n    /* \"#utility.yul\":2587:2894   */\ntag_42:\n    /* \"#utility.yul\":2655:2656   */\n  0x00\n    /* \"#utility.yul\":2665:2778   */\ntag_80:\n    /* \"#utility.yul\":2679:2685   */\n  dup4\n    /* \"#utility.yul\":2676:2677   */\n  dup2\n    /* \"#utility.yul\":2673:2686   */\n  lt\n    /* \"#utility.yul\":2665:2778   */\n  iszero\n  tag_82\n  jumpi\n    /* \"#utility.yul\":2764:2765   */\n  dup1\n    /* \"#utility.yul\":2759:2762   */\n  dup3\n    /* \"#utility.yul\":2755:2766   */\n  add\n    /* \"#utility.yul\":2749:2767   */\n  mload\n    /* \"#utility.yul\":2745:2746   */\n  dup2\n    /* \"#utility.yul\":2740:2743   */\n  dup5\n    /* \"#utility.yul\":2736:2747   */\n  add\n    /* \"#utility.yul\":2729:2768   */\n  mstore\n    /* \"#utility.yul\":2701:2703   */\n  0x20\n    /* \"#utility.yul\":2698:2699   */\n  dup2\n    /* \"#utility.yul\":2694:2704   */\n  add\n    /* \"#utility.yul\":2689:2704   */\n  swap1\n  pop\n    /* \"#utility.yul\":2665:2778   */\n  jump(tag_80)\ntag_82:\n    /* \"#utility.yul\":2796:2802   */\n  dup4\n    /* \"#utility.yul\":2793:2794   */\n  dup2\n    /* \"#utility.yul\":2790:2803   */\n  gt\n    /* \"#utility.yul\":2787:2888   */\n  iszero\n  tag_83\n  jumpi\n    /* \"#utility.yul\":2876:2877   */\n  0x00\n    /* \"#utility.yul\":2867:2873   */\n  dup5\n    /* \"#utility.yul\":2862:2865   */\n  dup5\n    /* \"#utility.yul\":2858:2874   */\n  add\n    /* \"#utility.yul\":2851:2878   */\n  mstore\n    /* \"#utility.yul\":2787:2888   */\ntag_83:\n    /* \"#utility.yul\":2636:2894   */\n  pop\n    /* \"#utility.yul\":2587:2894   */\n  pop\n  pop\n  pop\n  jump\t// out\n    /* \"#utility.yul\":2900:3220   */\ntag_21:\n    /* \"#utility.yul\":2944:2950   */\n  0x00\n    /* \"#utility.yul\":2981:2982   */\n  0x02\n    /* \"#utility.yul\":2975:2979   */\n  dup3\n    /* \"#utility.yul\":2971:2983   */\n  div\n    /* \"#utility.yul\":2961:2983   */\n  swap1\n  pop\n    /* \"#utility.yul\":3028:3029   */\n  0x01\n    /* \"#utility.yul\":3022:3026   */\n  dup3\n    /* \"#utility.yul\":3018:3030   */\n  and\n    /* \"#utility.yul\":3049:3067   */\n  dup1\n    /* \"#utility.yul\":3039:3120   */\n  tag_85\n  jumpi\n    /* \"#utility.yul\":3105:3109   */\n  0x7f\n    /* \"#utility.yul\":3097:3103   */\n  dup3\n    /* \"#utility.yul\":3093:3110   */\n  and\n    /* \"#utility.yul\":3083:3110   */\n  swap2\n  pop\n    /* \"#utility.yul\":3039:3120   */\ntag_85:\n    /* \"#utility.yul\":3167:3169   */\n  0x20\n    /* \"#utility.yul\":3159:3165   */\n  dup3\n    /* \"#utility.yul\":3156:3170   */\n  lt\n    /* \"#utility.yul\":3136:3154   */\n  dup2\n    /* \"#utility.yul\":3133:3171   */\n  eq\n    /* \"#utility.yul\":3130:3214   */\n  iszero\n  tag_86\n  jumpi\n    /* \"#utility.yul\":3186:3204   */\n  tag_87\n  tag_88\n  jump\t// in\ntag_87:\n    /* \"#utility.yul\":3130:3214   */\ntag_86:\n    /* \"#utility.yul\":2951:3220   */\n  pop\n    /* \"#utility.yul\":2900:3220   */\n  swap2\n  swap1\n  pop\n  jump\t// out\n    /* \"#utility.yul\":3226:3507   */\ntag_69:\n    /* \"#utility.yul\":3309:3336   */\n  tag_90\n    /* \"#utility.yul\":3331:3335   */\n  dup3\n    /* \"#utility.yul\":3309:3336   */\n  tag_76\n  jump\t// in\ntag_90:\n    /* \"#utility.yul\":3301:3307   */\n  dup2\n    /* \"#utility.yul\":3297:3337   */\n  add\n    /* \"#utility.yul\":3439:3445   */\n  dup2\n    /* \"#utility.yul\":3427:3437   */\n  dup2\n    /* \"#utility.yul\":3424:3446   */\n  lt\n    /* \"#utility.yul\":3403:3421   */\n  0xffffffffffffffff\n    /* \"#utility.yul\":3391:3401   */\n  dup3\n    /* \"#utility.yul\":3388:3422   */\n  gt\n    /* \"#utility.yul\":3385:3447   */\n  or\n    /* \"#utility.yul\":3382:3470   */\n  iszero\n  tag_91\n  jumpi\n    /* \"#utility.yul\":3450:3468   */\n  tag_92\n  tag_74\n  jump\t// in\ntag_92:\n    /* \"#utility.yul\":3382:3470   */\ntag_91:\n    /* \"#utility.yul\":3490:3500   */\n  dup1\n    /* \"#utility.yul\":3486:3488   */\n  0x40\n    /* \"#utility.yul\":3479:3501   */\n  mstore\n    /* \"#utility.yul\":3269:3507   */\n  pop\n    /* \"#utility.yul\":3226:3507   */\n  pop\n  pop\n  jump\t// out\n    /* \"#utility.yul\":3513:3693   */\ntag_88:\n    /* \"#utility.yul\":3561:3638   */\n  0x4e487b7100000000000000000000000000000000000000000000000000000000\n    /* \"#utility.yul\":3558:3559   */\n  0x00\n    /* \"#utility.yul\":3551:3639   */\n  mstore\n    /* \"#utility.yul\":3658:3662   */\n  0x22\n    /* \"#utility.yul\":3655:3656   */\n  0x04\n    /* \"#utility.yul\":3648:3663   */\n  mstore\n    /* \"#utility.yul\":3682:3686   */\n  0x24\n    /* \"#utility.yul\":3679:3680   */\n  0x00\n    /* \"#utility.yul\":3672:3687   */\n  revert\n    /* \"#utility.yul\":3699:3879   */\ntag_74:\n    /* \"#utility.yul\":3747:3824   */\n  0x4e487b7100000000000000000000000000000000000000000000000000000000\n    /* \"#utility.yul\":3744:3745   */\n  0x00\n    /* \"#utility.yul\":3737:3825   */\n  mstore\n    /* \"#utility.yul\":3844:3848   */\n  0x41\n    /* \"#utility.yul\":3841:3842   */\n  0x04\n    /* \"#utility.yul\":3834:3849   */\n  mstore\n    /* \"#utility.yul\":3868:3872   */\n  0x24\n    /* \"#utility.yul\":3865:3866   */\n  0x00\n    /* \"#utility.yul\":3858:3873   */\n  revert\n    /* \"#utility.yul\":3885:4002   */\ntag_47:\n    /* \"#utility.yul\":3994:3995   */\n  0x00\n    /* \"#utility.yul\":3991:3992   */\n  dup1\n    /* \"#utility.yul\":3984:3996   */\n  revert\n    /* \"#utility.yul\":4008:4125   */\ntag_40:\n    /* \"#utility.yul\":4117:4118   */\n  0x00\n    /* \"#utility.yul\":4114:4115   */\n  dup1\n    /* \"#utility.yul\":4107:4119   */\n  revert\n    /* \"#utility.yul\":4131:4248   */\ntag_59:\n    /* \"#utility.yul\":4240:4241   */\n  0x00\n    /* \"#utility.yul\":4237:4238   */\n  dup1\n    /* \"#utility.yul\":4230:4242   */\n  revert\n    /* \"#utility.yul\":4254:4371   */\ntag_56:\n    /* \"#utility.yul\":4363:4364   */\n  0x00\n    /* \"#utility.yul\":4360:4361   */\n  dup1\n    /* \"#utility.yul\":4353:4365   */\n  revert\n    /* \"#utility.yul\":4377:4479   */\ntag_76:\n    /* \"#utility.yul\":4418:4424   */\n  0x00\n    /* \"#utility.yul\":4469:4471   */\n  0x1f\n    /* \"#utility.yul\":4465:4472   */\n  not\n    /* \"#utility.yul\":4460:4462   */\n  0x1f\n    /* \"#utility.yul\":4453:4458   */\n  dup4\n    /* \"#utility.yul\":4449:4463   */\n  add\n    /* \"#utility.yul\":4445:4473   */\n  and\n    /* \"#utility.yul\":4435:4473   */\n  swap1\n  pop\n    /* \"#utility.yul\":4377:4479   */\n  swap2\n  swap1\n  pop\n  jump\t// out\n    /* \"#utility.yul\":4485:4603   */\ntag_52:\n    /* \"#utility.yul\":4556:4578   */\n  tag_101\n    /* \"#utility.yul\":4572:4577   */\n  dup2\n    /* \"#utility.yul\":4556:4578   */\n  tag_77\n  jump\t// in\ntag_101:\n    /* \"#utility.yul\":4549:4554   */\n  dup2\n    /* \"#utility.yul\":4546:4579   */\n  eq\n    /* \"#utility.yul\":4536:4597   */\n  tag_102\n  jumpi\n    /* \"#utility.yul\":4593:4594   */\n  0x00\n    /* \"#utility.yul\":4590:4591   */\n  dup1\n    /* \"#utility.yul\":4583:4595   */\n  revert\n    /* \"#utility.yul\":4536:4597   */\ntag_102:\n    /* \"#utility.yul\":4485:4603   */\n  pop\n  jump\t// out\n    /* \"contracts/SSFToken.sol\":269:665  contract SSFToken is ERC20, Ownable{\r... */\ntag_17:\n  dataSize(sub_0)\n  dup1\n  dataOffset(sub_0)\n  0x00\n  codecopy\n  0x00\n  return\nstop\n\nsub_0: assembly {\n        /* \"contracts/SSFToken.sol\":269:665  contract SSFToken is ERC20, Ownable{\r... */\n      mstore(0x40, 0x80)\n      callvalue\n      dup1\n      iszero\n      tag_1\n      jumpi\n      0x00\n      dup1\n      revert\n    tag_1:\n      pop\n      jumpi(tag_2, lt(calldatasize, 0x04))\n      shr(0xe0, calldataload(0x00))\n      dup1\n      0x715018a6\n      gt\n      tag_19\n      jumpi\n      dup1\n      0xa457c2d7\n      gt\n      tag_20\n      jumpi\n      dup1\n      0xa457c2d7\n      eq\n      tag_15\n      jumpi\n      dup1\n      0xa9059cbb\n      eq\n      tag_16\n      jumpi\n      dup1\n      0xdd62ed3e\n      eq\n      tag_17\n      jumpi\n      dup1\n      0xf2fde38b\n      eq\n      tag_18\n      jumpi\n      jump(tag_2)\n    tag_20:\n      dup1\n      0x715018a6\n      eq\n      tag_11\n      jumpi\n      dup1\n      0x8da5cb5b\n      eq\n      tag_12\n      jumpi\n      dup1\n      0x95d89b41\n      eq\n      tag_13\n      jumpi\n      dup1\n      0xa0712d68\n      eq\n      tag_14\n      jumpi\n      jump(tag_2)\n    tag_19:\n      dup1\n      0x23b872dd\n      gt\n      tag_21\n      jumpi\n      dup1\n      0x23b872dd\n      eq\n      tag_7\n      jumpi\n      dup1\n      0x313ce567\n      eq\n      tag_8\n      jumpi\n      dup1\n      0x39509351\n      eq\n      tag_9\n      jumpi\n      dup1\n      0x70a08231\n      eq\n      tag_10\n      jumpi\n      jump(tag_2)\n    tag_21:\n      dup1\n      0x01062ade\n      eq\n      tag_3\n      jumpi\n      dup1\n      0x06fdde03\n      eq\n      tag_4\n      jumpi\n      dup1\n      0x095ea7b3\n      eq\n      tag_5\n      jumpi\n      dup1\n      0x18160ddd\n      eq\n      tag_6\n      jumpi\n    tag_2:\n      0x00\n      dup1\n      revert\n        /* \"contracts/SSFToken.sol\":533:662  function forceToTransfer(address from, address to, uint256 amount) public onlyOwner{\r... */\n    tag_3:\n      tag_22\n      0x04\n      dup1\n      calldatasize\n      sub\n      dup2\n      add\n      swap1\n      tag_23\n      swap2\n      swap1\n      tag_24\n      jump\t// in\n    tag_23:\n      tag_25\n      jump\t// in\n    tag_22:\n      stop\n        /* \"contracts/token/ERC20/ERC20.sol\":2275:2375  function name() public view virtual override returns (string memory) {\r... */\n    tag_4:\n      tag_26\n      tag_27\n      jump\t// in\n    tag_26:\n      mload(0x40)\n      tag_28\n      swap2\n      swap1\n      tag_29\n      jump\t// in\n    tag_28:\n      mload(0x40)\n      dup1\n      swap2\n      sub\n      swap1\n      return\n        /* \"contracts/token/ERC20/ERC20.sol\":4448:4617  function approve(address spender, uint256 amount) public virtual override returns (bool) {\r... */\n    tag_5:\n      tag_30\n      0x04\n      dup1\n      calldatasize\n      sub\n      dup2\n      add\n      swap1\n      tag_31\n      swap2\n      swap1\n      tag_32\n      jump\t// in\n    tag_31:\n      tag_33\n      jump\t// in\n    tag_30:\n      mload(0x40)\n      tag_34\n      swap2\n      swap1\n      tag_35\n      jump\t// in\n    tag_34:\n      mload(0x40)\n      dup1\n      swap2\n      sub\n      swap1\n      return\n        /* \"contracts/token/ERC20/ERC20.sol\":3401:3509  function totalSupply() public view virtual override returns (uint256) {\r... */\n    tag_6:\n      tag_36\n      tag_37\n      jump\t// in\n    tag_36:\n      mload(0x40)\n      tag_38\n      swap2\n      swap1\n      tag_39\n      jump\t// in\n    tag_38:\n      mload(0x40)\n      dup1\n      swap2\n      sub\n      swap1\n      return\n        /* \"contracts/token/ERC20/ERC20.sol\":5099:5591  function transferFrom(\r... */\n    tag_7:\n      tag_40\n      0x04\n      dup1\n      calldatasize\n      sub\n      dup2\n      add\n      swap1\n      tag_41\n      swap2\n      swap1\n      tag_24\n      jump\t// in\n    tag_41:\n      tag_42\n      jump\t// in\n    tag_40:\n      mload(0x40)\n      tag_43\n      swap2\n      swap1\n      tag_35\n      jump\t// in\n    tag_43:\n      mload(0x40)\n      dup1\n      swap2\n      sub\n      swap1\n      return\n        /* \"contracts/token/ERC20/ERC20.sol\":3237:3336  function decimals() public view virtual override returns (uint8) {\r... */\n    tag_8:\n      tag_44\n      tag_45\n      jump\t// in\n    tag_44:\n      mload(0x40)\n      tag_46\n      swap2\n      swap1\n      tag_47\n      jump\t// in\n    tag_46:\n      mload(0x40)\n      dup1\n      swap2\n      sub\n      swap1\n      return\n        /* \"contracts/token/ERC20/ERC20.sol\":6000:6215  function increaseAllowance(address spender, uint256 addedValue) public virtual returns (bool) {\r... */\n    tag_9:\n      tag_48\n      0x04\n      dup1\n      calldatasize\n      sub\n      dup2\n      add\n      swap1\n      tag_49\n      swap2\n      swap1\n      tag_32\n      jump\t// in\n    tag_49:\n      tag_50\n      jump\t// in\n    tag_48:\n      mload(0x40)\n      tag_51\n      swap2\n      swap1\n      tag_35\n      jump\t// in\n    tag_51:\n      mload(0x40)\n      dup1\n      swap2\n      sub\n      swap1\n      return\n        /* \"contracts/token/ERC20/ERC20.sol\":3572:3699  function balanceOf(address account) public view virtual override returns (uint256) {\r... */\n    tag_10:\n      tag_52\n      0x04\n      dup1\n      calldatasize\n      sub\n      dup2\n      add\n      swap1\n      tag_53\n      swap2\n      swap1\n      tag_54\n      jump\t// in\n    tag_53:\n      tag_55\n      jump\t// in\n    tag_52:\n      mload(0x40)\n      tag_56\n      swap2\n      swap1\n      tag_39\n      jump\t// in\n    tag_56:\n      mload(0x40)\n      dup1\n      swap2\n      sub\n      swap1\n      return\n        /* \"contracts/access/Ownable.sol\":1721:1824  function renounceOwnership() public virtual onlyOwner {\r... */\n    tag_11:\n      tag_57\n      tag_58\n      jump\t// in\n    tag_57:\n      stop\n        /* \"contracts/access/Ownable.sol\":1070:1157  function owner() public view virtual returns (address) {\r... */\n    tag_12:\n      tag_59\n      tag_60\n      jump\t// in\n    tag_59:\n      mload(0x40)\n      tag_61\n      swap2\n      swap1\n      tag_62\n      jump\t// in\n    tag_61:\n      mload(0x40)\n      dup1\n      swap2\n      sub\n      swap1\n      return\n        /* \"contracts/token/ERC20/ERC20.sol\":2494:2598  function symbol() public view virtual override returns (string memory) {\r... */\n    tag_13:\n      tag_63\n      tag_64\n      jump\t// in\n    tag_63:\n      mload(0x40)\n      tag_65\n      swap2\n      swap1\n      tag_29\n      jump\t// in\n    tag_65:\n      mload(0x40)\n      dup1\n      swap2\n      sub\n      swap1\n      return\n        /* \"contracts/SSFToken.sol\":429:521  function mint(uint256 amount) public onlyOwner{\r... */\n    tag_14:\n      tag_66\n      0x04\n      dup1\n      calldatasize\n      sub\n      dup2\n      add\n      swap1\n      tag_67\n      swap2\n      swap1\n      tag_68\n      jump\t// in\n    tag_67:\n      tag_69\n      jump\t// in\n    tag_66:\n      stop\n        /* \"contracts/token/ERC20/ERC20.sol\":6718:7131  function decreaseAllowance(address spender, uint256 subtractedValue) public virtual returns (bool) {\r... */\n    tag_15:\n      tag_70\n      0x04\n      dup1\n      calldatasize\n      sub\n      dup2\n      add\n      swap1\n      tag_71\n      swap2\n      swap1\n      tag_32\n      jump\t// in\n    tag_71:\n      tag_72\n      jump\t// in\n    tag_70:\n      mload(0x40)\n      tag_73\n      swap2\n      swap1\n      tag_35\n      jump\t// in\n    tag_73:\n      mload(0x40)\n      dup1\n      swap2\n      sub\n      swap1\n      return\n        /* \"contracts/token/ERC20/ERC20.sol\":3912:4087  function transfer(address recipient, uint256 amount) public virtual override returns (bool) {\r... */\n    tag_16:\n      tag_74\n      0x04\n      dup1\n      calldatasize\n      sub\n      dup2\n      add\n      swap1\n      tag_75\n      swap2\n      swap1\n      tag_32\n      jump\t// in\n    tag_75:\n      tag_76\n      jump\t// in\n    tag_74:\n      mload(0x40)\n      tag_77\n      swap2\n      swap1\n      tag_35\n      jump\t// in\n    tag_77:\n      mload(0x40)\n      dup1\n      swap2\n      sub\n      swap1\n      return\n        /* \"contracts/token/ERC20/ERC20.sol\":4150:4301  function allowance(address owner, address spender) public view virtual override returns (uint256) {\r... */\n    tag_17:\n      tag_78\n      0x04\n      dup1\n      calldatasize\n      sub\n      dup2\n      add\n      swap1\n      tag_79\n      swap2\n      swap1\n      tag_80\n      jump\t// in\n    tag_79:\n      tag_81\n      jump\t// in\n    tag_78:\n      mload(0x40)\n      tag_82\n      swap2\n      swap1\n      tag_39\n      jump\t// in\n    tag_82:\n      mload(0x40)\n      dup1\n      swap2\n      sub\n      swap1\n      return\n        /* \"contracts/access/Ownable.sol\":1979:2180  function transferOwnership(address newOwner) public virtual onlyOwner {\r... */\n    tag_18:\n      tag_83\n      0x04\n      dup1\n      calldatasize\n      sub\n      dup2\n      add\n      swap1\n      tag_84\n      swap2\n      swap1\n      tag_54\n      jump\t// in\n    tag_84:\n      tag_85\n      jump\t// in\n    tag_83:\n      stop\n        /* \"contracts/SSFToken.sol\":533:662  function forceToTransfer(address from, address to, uint256 amount) public onlyOwner{\r... */\n    tag_25:\n        /* \"contracts/access/Ownable.sol\":1301:1313  _msgSender() */\n      tag_87\n        /* \"contracts/access/Ownable.sol\":1301:1311  _msgSender */\n      tag_88\n        /* \"contracts/access/Ownable.sol\":1301:1313  _msgSender() */\n      jump\t// in\n    tag_87:\n        /* \"contracts/access/Ownable.sol\":1290:1313  owner() == _msgSender() */\n      0xffffffffffffffffffffffffffffffffffffffff\n      and\n        /* \"contracts/access/Ownable.sol\":1290:1297  owner() */\n      tag_89\n        /* \"contracts/access/Ownable.sol\":1290:1295  owner */\n      tag_60\n        /* \"contracts/access/Ownable.sol\":1290:1297  owner() */\n      jump\t// in\n    tag_89:\n        /* \"contracts/access/Ownable.sol\":1290:1313  owner() == _msgSender() */\n      0xffffffffffffffffffffffffffffffffffffffff\n      and\n      eq\n        /* \"contracts/access/Ownable.sol\":1282:1350  require(owner() == _msgSender(), \"Ownable: caller is not the owner\") */\n      tag_90\n      jumpi\n      mload(0x40)\n      0x08c379a000000000000000000000000000000000000000000000000000000000\n      dup2\n      mstore\n      0x04\n      add\n      tag_91\n      swap1\n      tag_92\n      jump\t// in\n    tag_91:\n      mload(0x40)\n      dup1\n      swap2\n      sub\n      swap1\n      revert\n    tag_90:\n        /* \"contracts/SSFToken.sol\":627:654  _transfer(from, to, amount) */\n      tag_94\n        /* \"contracts/SSFToken.sol\":637:641  from */\n      dup4\n        /* \"contracts/SSFToken.sol\":643:645  to */\n      dup4\n        /* \"contracts/SSFToken.sol\":647:653  amount */\n      dup4\n        /* \"contracts/SSFToken.sol\":627:636  _transfer */\n      tag_95\n        /* \"contracts/SSFToken.sol\":627:654  _transfer(from, to, amount) */\n      jump\t// in\n    tag_94:\n        /* \"contracts/SSFToken.sol\":533:662  function forceToTransfer(address from, address to, uint256 amount) public onlyOwner{\r... */\n      pop\n      pop\n      pop\n      jump\t// out\n        /* \"contracts/token/ERC20/ERC20.sol\":2275:2375  function name() public view virtual override returns (string memory) {\r... */\n    tag_27:\n        /* \"contracts/token/ERC20/ERC20.sol\":2329:2342  string memory */\n      0x60\n        /* \"contracts/token/ERC20/ERC20.sol\":2362:2367  _name */\n      0x02\n        /* \"contracts/token/ERC20/ERC20.sol\":2355:2367  return _name */\n      dup1\n      sload\n      tag_97\n      swap1\n      tag_98\n      jump\t// in\n    tag_97:\n      dup1\n      0x1f\n      add\n      0x20\n      dup1\n      swap2\n      div\n      mul\n      0x20\n      add\n      mload(0x40)\n      swap1\n      dup2\n      add\n      0x40\n      mstore\n      dup1\n      swap3\n      swap2\n      swap1\n      dup2\n      dup2\n      mstore\n      0x20\n      add\n      dup3\n      dup1\n      sload\n      tag_99\n      swap1\n      tag_98\n      jump\t// in\n    tag_99:\n      dup1\n      iszero\n      tag_100\n      jumpi\n      dup1\n      0x1f\n      lt\n      tag_101\n      jumpi\n      0x0100\n      dup1\n      dup4\n      sload\n      div\n      mul\n      dup4\n      mstore\n      swap2\n      0x20\n      add\n      swap2\n      jump(tag_100)\n    tag_101:\n      dup3\n      add\n      swap2\n      swap1\n      0x00\n      mstore\n      keccak256(0x00, 0x20)\n      swap1\n    tag_102:\n      dup2\n      sload\n      dup2\n      mstore\n      swap1\n      0x01\n      add\n      swap1\n      0x20\n      add\n      dup1\n      dup4\n      gt\n      tag_102\n      jumpi\n      dup3\n      swap1\n      sub\n      0x1f\n      and\n      dup3\n      add\n      swap2\n    tag_100:\n      pop\n      pop\n      pop\n      pop\n      pop\n      swap1\n      pop\n        /* \"contracts/token/ERC20/ERC20.sol\":2275:2375  function name() public view virtual override returns (string memory) {\r... */\n      swap1\n      jump\t// out\n        /* \"contracts/token/ERC20/ERC20.sol\":4448:4617  function approve(address spender, uint256 amount) public virtual override returns (bool) {\r... */\n    tag_33:\n        /* \"contracts/token/ERC20/ERC20.sol\":4531:4535  bool */\n      0x00\n        /* \"contracts/token/ERC20/ERC20.sol\":4548:4587  _approve(_msgSender(), spender, amount) */\n      tag_104\n        /* \"contracts/token/ERC20/ERC20.sol\":4557:4569  _msgSender() */\n      tag_105\n        /* \"contracts/token/ERC20/ERC20.sol\":4557:4567  _msgSender */\n      tag_88\n        /* \"contracts/token/ERC20/ERC20.sol\":4557:4569  _msgSender() */\n      jump\t// in\n    tag_105:\n        /* \"contracts/token/ERC20/ERC20.sol\":4571:4578  spender */\n      dup5\n        /* \"contracts/token/ERC20/ERC20.sol\":4580:4586  amount */\n      dup5\n        /* \"contracts/token/ERC20/ERC20.sol\":4548:4556  _approve */\n      tag_106\n        /* \"contracts/token/ERC20/ERC20.sol\":4548:4587  _approve(_msgSender(), spender, amount) */\n      jump\t// in\n    tag_104:\n        /* \"contracts/token/ERC20/ERC20.sol\":4605:4609  true */\n      0x01\n        /* \"contracts/token/ERC20/ERC20.sol\":4598:4609  return true */\n      swap1\n      pop\n        /* \"contracts/token/ERC20/ERC20.sol\":4448:4617  function approve(address spender, uint256 amount) public virtual override returns (bool) {\r... */\n      swap3\n      swap2\n      pop\n      pop\n      jump\t// out\n        /* \"contracts/token/ERC20/ERC20.sol\":3401:3509  function totalSupply() public view virtual override returns (uint256) {\r... */\n    tag_37:\n        /* \"contracts/token/ERC20/ERC20.sol\":3462:3469  uint256 */\n      0x00\n        /* \"contracts/token/ERC20/ERC20.sol\":3489:3501  _totalSupply */\n      sload(0x05)\n        /* \"contracts/token/ERC20/ERC20.sol\":3482:3501  return _totalSupply */\n      swap1\n      pop\n        /* \"contracts/token/ERC20/ERC20.sol\":3401:3509  function totalSupply() public view virtual override returns (uint256) {\r... */\n      swap1\n      jump\t// out\n        /* \"contracts/token/ERC20/ERC20.sol\":5099:5591  function transferFrom(\r... */\n    tag_42:\n        /* \"contracts/token/ERC20/ERC20.sol\":5239:5243  bool */\n      0x00\n        /* \"contracts/token/ERC20/ERC20.sol\":5256:5292  _transfer(sender, recipient, amount) */\n      tag_109\n        /* \"contracts/token/ERC20/ERC20.sol\":5266:5272  sender */\n      dup5\n        /* \"contracts/token/ERC20/ERC20.sol\":5274:5283  recipient */\n      dup5\n        /* \"contracts/token/ERC20/ERC20.sol\":5285:5291  amount */\n      dup5\n        /* \"contracts/token/ERC20/ERC20.sol\":5256:5265  _transfer */\n      tag_95\n        /* \"contracts/token/ERC20/ERC20.sol\":5256:5292  _transfer(sender, recipient, amount) */\n      jump\t// in\n    tag_109:\n        /* \"contracts/token/ERC20/ERC20.sol\":5305:5329  uint256 currentAllowance */\n      0x00\n        /* \"contracts/token/ERC20/ERC20.sol\":5332:5343  _allowances */\n      0x01\n        /* \"contracts/token/ERC20/ERC20.sol\":5332:5351  _allowances[sender] */\n      0x00\n        /* \"contracts/token/ERC20/ERC20.sol\":5344:5350  sender */\n      dup7\n        /* \"contracts/token/ERC20/ERC20.sol\":5332:5351  _allowances[sender] */\n      0xffffffffffffffffffffffffffffffffffffffff\n      and\n      0xffffffffffffffffffffffffffffffffffffffff\n      and\n      dup2\n      mstore\n      0x20\n      add\n      swap1\n      dup2\n      mstore\n      0x20\n      add\n      0x00\n      keccak256\n        /* \"contracts/token/ERC20/ERC20.sol\":5332:5365  _allowances[sender][_msgSender()] */\n      0x00\n        /* \"contracts/token/ERC20/ERC20.sol\":5352:5364  _msgSender() */\n      tag_110\n        /* \"contracts/token/ERC20/ERC20.sol\":5352:5362  _msgSender */\n      tag_88\n        /* \"contracts/token/ERC20/ERC20.sol\":5352:5364  _msgSender() */\n      jump\t// in\n    tag_110:\n        /* \"contracts/token/ERC20/ERC20.sol\":5332:5365  _allowances[sender][_msgSender()] */\n      0xffffffffffffffffffffffffffffffffffffffff\n      and\n      0xffffffffffffffffffffffffffffffffffffffff\n      and\n      dup2\n      mstore\n      0x20\n      add\n      swap1\n      dup2\n      mstore\n      0x20\n      add\n      0x00\n      keccak256\n      sload\n        /* \"contracts/token/ERC20/ERC20.sol\":5305:5365  uint256 currentAllowance = _allowances[sender][_msgSender()] */\n      swap1\n      pop\n        /* \"contracts/token/ERC20/ERC20.sol\":5404:5410  amount */\n      dup3\n        /* \"contracts/token/ERC20/ERC20.sol\":5384:5400  currentAllowance */\n      dup2\n        /* \"contracts/token/ERC20/ERC20.sol\":5384:5410  currentAllowance >= amount */\n      lt\n      iszero\n        /* \"contracts/token/ERC20/ERC20.sol\":5376:5455  require(currentAllowance >= amount, \"ERC20: transfer amount exceeds allowance\") */\n      tag_111\n      jumpi\n      mload(0x40)\n      0x08c379a000000000000000000000000000000000000000000000000000000000\n      dup2\n      mstore\n      0x04\n      add\n      tag_112\n      swap1\n      tag_113\n      jump\t// in\n    tag_112:\n      mload(0x40)\n      dup1\n      swap2\n      sub\n      swap1\n      revert\n    tag_111:\n        /* \"contracts/token/ERC20/ERC20.sol\":5491:5548  _approve(sender, _msgSender(), currentAllowance - amount) */\n      tag_114\n        /* \"contracts/token/ERC20/ERC20.sol\":5500:5506  sender */\n      dup6\n        /* \"contracts/token/ERC20/ERC20.sol\":5508:5520  _msgSender() */\n      tag_115\n        /* \"contracts/token/ERC20/ERC20.sol\":5508:5518  _msgSender */\n      tag_88\n        /* \"contracts/token/ERC20/ERC20.sol\":5508:5520  _msgSender() */\n      jump\t// in\n    tag_115:\n        /* \"contracts/token/ERC20/ERC20.sol\":5541:5547  amount */\n      dup6\n        /* \"contracts/token/ERC20/ERC20.sol\":5522:5538  currentAllowance */\n      dup5\n        /* \"contracts/token/ERC20/ERC20.sol\":5522:5547  currentAllowance - amount */\n      sub\n        /* \"contracts/token/ERC20/ERC20.sol\":5491:5499  _approve */\n      tag_106\n        /* \"contracts/token/ERC20/ERC20.sol\":5491:5548  _approve(sender, _msgSender(), currentAllowance - amount) */\n      jump\t// in\n    tag_114:\n        /* \"contracts/token/ERC20/ERC20.sol\":5579:5583  true */\n      0x01\n        /* \"contracts/token/ERC20/ERC20.sol\":5572:5583  return true */\n      swap2\n      pop\n      pop\n        /* \"contracts/token/ERC20/ERC20.sol\":5099:5591  function transferFrom(\r... */\n      swap4\n      swap3\n      pop\n      pop\n      pop\n      jump\t// out\n        /* \"contracts/token/ERC20/ERC20.sol\":3237:3336  function decimals() public view virtual override returns (uint8) {\r... */\n    tag_45:\n        /* \"contracts/token/ERC20/ERC20.sol\":3295:3300  uint8 */\n      0x00\n        /* \"contracts/token/ERC20/ERC20.sol\":3320:3328  _decimal */\n      0x04\n      0x00\n      swap1\n      sload\n      swap1\n      0x0100\n      exp\n      swap1\n      div\n      0xff\n      and\n        /* \"contracts/token/ERC20/ERC20.sol\":3313:3328  return _decimal */\n      swap1\n      pop\n        /* \"contracts/token/ERC20/ERC20.sol\":3237:3336  function decimals() public view virtual override returns (uint8) {\r... */\n      swap1\n      jump\t// out\n        /* \"contracts/token/ERC20/ERC20.sol\":6000:6215  function increaseAllowance(address spender, uint256 addedValue) public virtual returns (bool) {\r... */\n    tag_50:\n        /* \"contracts/token/ERC20/ERC20.sol\":6088:6092  bool */\n      0x00\n        /* \"contracts/token/ERC20/ERC20.sol\":6105:6185  _approve(_msgSender(), spender, _allowances[_msgSender()][spender] + addedValue) */\n      tag_118\n        /* \"contracts/token/ERC20/ERC20.sol\":6114:6126  _msgSender() */\n      tag_119\n        /* \"contracts/token/ERC20/ERC20.sol\":6114:6124  _msgSender */\n      tag_88\n        /* \"contracts/token/ERC20/ERC20.sol\":6114:6126  _msgSender() */\n      jump\t// in\n    tag_119:\n        /* \"contracts/token/ERC20/ERC20.sol\":6128:6135  spender */\n      dup5\n        /* \"contracts/token/ERC20/ERC20.sol\":6174:6184  addedValue */\n      dup5\n        /* \"contracts/token/ERC20/ERC20.sol\":6137:6148  _allowances */\n      0x01\n        /* \"contracts/token/ERC20/ERC20.sol\":6137:6162  _allowances[_msgSender()] */\n      0x00\n        /* \"contracts/token/ERC20/ERC20.sol\":6149:6161  _msgSender() */\n      tag_120\n        /* \"contracts/token/ERC20/ERC20.sol\":6149:6159  _msgSender */\n      tag_88\n        /* \"contracts/token/ERC20/ERC20.sol\":6149:6161  _msgSender() */\n      jump\t// in\n    tag_120:\n        /* \"contracts/token/ERC20/ERC20.sol\":6137:6162  _allowances[_msgSender()] */\n      0xffffffffffffffffffffffffffffffffffffffff\n      and\n      0xffffffffffffffffffffffffffffffffffffffff\n      and\n      dup2\n      mstore\n      0x20\n      add\n      swap1\n      dup2\n      mstore\n      0x20\n      add\n      0x00\n      keccak256\n        /* \"contracts/token/ERC20/ERC20.sol\":6137:6171  _allowances[_msgSender()][spender] */\n      0x00\n        /* \"contracts/token/ERC20/ERC20.sol\":6163:6170  spender */\n      dup9\n        /* \"contracts/token/ERC20/ERC20.sol\":6137:6171  _allowances[_msgSender()][spender] */\n      0xffffffffffffffffffffffffffffffffffffffff\n      and\n      0xffffffffffffffffffffffffffffffffffffffff\n      and\n      dup2\n      mstore\n      0x20\n      add\n      swap1\n      dup2\n      mstore\n      0x20\n      add\n      0x00\n      keccak256\n      sload\n        /* \"contracts/token/ERC20/ERC20.sol\":6137:6184  _allowances[_msgSender()][spender] + addedValue */\n      tag_121\n      swap2\n      swap1\n      tag_122\n      jump\t// in\n    tag_121:\n        /* \"contracts/token/ERC20/ERC20.sol\":6105:6113  _approve */\n      tag_106\n        /* \"contracts/token/ERC20/ERC20.sol\":6105:6185  _approve(_msgSender(), spender, _allowances[_msgSender()][spender] + addedValue) */\n      jump\t// in\n    tag_118:\n        /* \"contracts/token/ERC20/ERC20.sol\":6203:6207  true */\n      0x01\n        /* \"contracts/token/ERC20/ERC20.sol\":6196:6207  return true */\n      swap1\n      pop\n        /* \"contracts/token/ERC20/ERC20.sol\":6000:6215  function increaseAllowance(address spender, uint256 addedValue) public virtual returns (bool) {\r... */\n      swap3\n      swap2\n      pop\n      pop\n      jump\t// out\n        /* \"contracts/token/ERC20/ERC20.sol\":3572:3699  function balanceOf(address account) public view virtual override returns (uint256) {\r... */\n    tag_55:\n        /* \"contracts/token/ERC20/ERC20.sol\":3646:3653  uint256 */\n      0x00\n        /* \"contracts/token/ERC20/ERC20.sol\":3673:3682  _balances */\n      dup1\n        /* \"contracts/token/ERC20/ERC20.sol\":3673:3691  _balances[account] */\n      0x00\n        /* \"contracts/token/ERC20/ERC20.sol\":3683:3690  account */\n      dup4\n        /* \"contracts/token/ERC20/ERC20.sol\":3673:3691  _balances[account] */\n      0xffffffffffffffffffffffffffffffffffffffff\n      and\n      0xffffffffffffffffffffffffffffffffffffffff\n      and\n      dup2\n      mstore\n      0x20\n      add\n      swap1\n      dup2\n      mstore\n      0x20\n      add\n      0x00\n      keccak256\n      sload\n        /* \"contracts/token/ERC20/ERC20.sol\":3666:3691  return _balances[account] */\n      swap1\n      pop\n        /* \"contracts/token/ERC20/ERC20.sol\":3572:3699  function balanceOf(address account) public view virtual override returns (uint256) {\r... */\n      swap2\n      swap1\n      pop\n      jump\t// out\n        /* \"contracts/access/Ownable.sol\":1721:1824  function renounceOwnership() public virtual onlyOwner {\r... */\n    tag_58:\n        /* \"contracts/access/Ownable.sol\":1301:1313  _msgSender() */\n      tag_125\n        /* \"contracts/access/Ownable.sol\":1301:1311  _msgSender */\n      tag_88\n        /* \"contracts/access/Ownable.sol\":1301:1313  _msgSender() */\n      jump\t// in\n    tag_125:\n        /* \"contracts/access/Ownable.sol\":1290:1313  owner() == _msgSender() */\n      0xffffffffffffffffffffffffffffffffffffffff\n      and\n        /* \"contracts/access/Ownable.sol\":1290:1297  owner() */\n      tag_126\n        /* \"contracts/access/Ownable.sol\":1290:1295  owner */\n      tag_60\n        /* \"contracts/access/Ownable.sol\":1290:1297  owner() */\n      jump\t// in\n    tag_126:\n        /* \"contracts/access/Ownable.sol\":1290:1313  owner() == _msgSender() */\n      0xffffffffffffffffffffffffffffffffffffffff\n      and\n      eq\n        /* \"contracts/access/Ownable.sol\":1282:1350  require(owner() == _msgSender(), \"Ownable: caller is not the owner\") */\n      tag_127\n      jumpi\n      mload(0x40)\n      0x08c379a000000000000000000000000000000000000000000000000000000000\n      dup2\n      mstore\n      0x04\n      add\n      tag_128\n      swap1\n      tag_92\n      jump\t// in\n    tag_128:\n      mload(0x40)\n      dup1\n      swap2\n      sub\n      swap1\n      revert\n    tag_127:\n        /* \"contracts/access/Ownable.sol\":1786:1816  _transferOwnership(address(0)) */\n      tag_130\n        /* \"contracts/access/Ownable.sol\":1813:1814  0 */\n      0x00\n        /* \"contracts/access/Ownable.sol\":1786:1804  _transferOwnership */\n      tag_131\n        /* \"contracts/access/Ownable.sol\":1786:1816  _transferOwnership(address(0)) */\n      jump\t// in\n    tag_130:\n        /* \"contracts/access/Ownable.sol\":1721:1824  function renounceOwnership() public virtual onlyOwner {\r... */\n      jump\t// out\n        /* \"contracts/access/Ownable.sol\":1070:1157  function owner() public view virtual returns (address) {\r... */\n    tag_60:\n        /* \"contracts/access/Ownable.sol\":1116:1123  address */\n      0x00\n        /* \"contracts/access/Ownable.sol\":1143:1149  _owner */\n      0x06\n      0x00\n      swap1\n      sload\n      swap1\n      0x0100\n      exp\n      swap1\n      div\n      0xffffffffffffffffffffffffffffffffffffffff\n      and\n        /* \"contracts/access/Ownable.sol\":1136:1149  return _owner */\n      swap1\n      pop\n        /* \"contracts/access/Ownable.sol\":1070:1157  function owner() public view virtual returns (address) {\r... */\n      swap1\n      jump\t// out\n        /* \"contracts/token/ERC20/ERC20.sol\":2494:2598  function symbol() public view virtual override returns (string memory) {\r... */\n    tag_64:\n        /* \"contracts/token/ERC20/ERC20.sol\":2550:2563  string memory */\n      0x60\n        /* \"contracts/token/ERC20/ERC20.sol\":2583:2590  _symbol */\n      0x03\n        /* \"contracts/token/ERC20/ERC20.sol\":2576:2590  return _symbol */\n      dup1\n      sload\n      tag_134\n      swap1\n      tag_98\n      jump\t// in\n    tag_134:\n      dup1\n      0x1f\n      add\n      0x20\n      dup1\n      swap2\n      div\n      mul\n      0x20\n      add\n      mload(0x40)\n      swap1\n      dup2\n      add\n      0x40\n      mstore\n      dup1\n      swap3\n      swap2\n      swap1\n      dup2\n      dup2\n      mstore\n      0x20\n      add\n      dup3\n      dup1\n      sload\n      tag_135\n      swap1\n      tag_98\n      jump\t// in\n    tag_135:\n      dup1\n      iszero\n      tag_136\n      jumpi\n      dup1\n      0x1f\n      lt\n      tag_137\n      jumpi\n      0x0100\n      dup1\n      dup4\n      sload\n      div\n      mul\n      dup4\n      mstore\n      swap2\n      0x20\n      add\n      swap2\n      jump(tag_136)\n    tag_137:\n      dup3\n      add\n      swap2\n      swap1\n      0x00\n      mstore\n      keccak256(0x00, 0x20)\n      swap1\n    tag_138:\n      dup2\n      sload\n      dup2\n      mstore\n      swap1\n      0x01\n      add\n      swap1\n      0x20\n      add\n      dup1\n      dup4\n      gt\n      tag_138\n      jumpi\n      dup3\n      swap1\n      sub\n      0x1f\n      and\n      dup3\n      add\n      swap2\n    tag_136:\n      pop\n      pop\n      pop\n      pop\n      pop\n      swap1\n      pop\n        /* \"contracts/token/ERC20/ERC20.sol\":2494:2598  function symbol() public view virtual override returns (string memory) {\r... */\n      swap1\n      jump\t// out\n        /* \"contracts/SSFToken.sol\":429:521  function mint(uint256 amount) public onlyOwner{\r... */\n    tag_69:\n        /* \"contracts/access/Ownable.sol\":1301:1313  _msgSender() */\n      tag_140\n        /* \"contracts/access/Ownable.sol\":1301:1311  _msgSender */\n      tag_88\n        /* \"contracts/access/Ownable.sol\":1301:1313  _msgSender() */\n      jump\t// in\n    tag_140:\n        /* \"contracts/access/Ownable.sol\":1290:1313  owner() == _msgSender() */\n      0xffffffffffffffffffffffffffffffffffffffff\n      and\n        /* \"contracts/access/Ownable.sol\":1290:1297  owner() */\n      tag_141\n        /* \"contracts/access/Ownable.sol\":1290:1295  owner */\n      tag_60\n        /* \"contracts/access/Ownable.sol\":1290:1297  owner() */\n      jump\t// in\n    tag_141:\n        /* \"contracts/access/Ownable.sol\":1290:1313  owner() == _msgSender() */\n      0xffffffffffffffffffffffffffffffffffffffff\n      and\n      eq\n        /* \"contracts/access/Ownable.sol\":1282:1350  require(owner() == _msgSender(), \"Ownable: caller is not the owner\") */\n      tag_142\n      jumpi\n      mload(0x40)\n      0x08c379a000000000000000000000000000000000000000000000000000000000\n      dup2\n      mstore\n      0x04\n      add\n      tag_143\n      swap1\n      tag_92\n      jump\t// in\n    tag_143:\n      mload(0x40)\n      dup1\n      swap2\n      sub\n      swap1\n      revert\n    tag_142:\n        /* \"contracts/SSFToken.sol\":486:513  _mint(_msgSender(), amount) */\n      tag_145\n        /* \"contracts/SSFToken.sol\":492:504  _msgSender() */\n      tag_146\n        /* \"contracts/SSFToken.sol\":492:502  _msgSender */\n      tag_88\n        /* \"contracts/SSFToken.sol\":492:504  _msgSender() */\n      jump\t// in\n    tag_146:\n        /* \"contracts/SSFToken.sol\":506:512  amount */\n      dup3\n        /* \"contracts/SSFToken.sol\":486:491  _mint */\n      tag_147\n        /* \"contracts/SSFToken.sol\":486:513  _mint(_msgSender(), amount) */\n      jump\t// in\n    tag_145:\n        /* \"contracts/SSFToken.sol\":429:521  function mint(uint256 amount) public onlyOwner{\r... */\n      pop\n      jump\t// out\n        /* \"contracts/token/ERC20/ERC20.sol\":6718:7131  function decreaseAllowance(address spender, uint256 subtractedValue) public virtual returns (bool) {\r... */\n    tag_72:\n        /* \"contracts/token/ERC20/ERC20.sol\":6811:6815  bool */\n      0x00\n        /* \"contracts/token/ERC20/ERC20.sol\":6828:6852  uint256 currentAllowance */\n      dup1\n        /* \"contracts/token/ERC20/ERC20.sol\":6855:6866  _allowances */\n      0x01\n        /* \"contracts/token/ERC20/ERC20.sol\":6855:6880  _allowances[_msgSender()] */\n      0x00\n        /* \"contracts/token/ERC20/ERC20.sol\":6867:6879  _msgSender() */\n      tag_149\n        /* \"contracts/token/ERC20/ERC20.sol\":6867:6877  _msgSender */\n      tag_88\n        /* \"contracts/token/ERC20/ERC20.sol\":6867:6879  _msgSender() */\n      jump\t// in\n    tag_149:\n        /* \"contracts/token/ERC20/ERC20.sol\":6855:6880  _allowances[_msgSender()] */\n      0xffffffffffffffffffffffffffffffffffffffff\n      and\n      0xffffffffffffffffffffffffffffffffffffffff\n      and\n      dup2\n      mstore\n      0x20\n      add\n      swap1\n      dup2\n      mstore\n      0x20\n      add\n      0x00\n      keccak256\n        /* \"contracts/token/ERC20/ERC20.sol\":6855:6889  _allowances[_msgSender()][spender] */\n      0x00\n        /* \"contracts/token/ERC20/ERC20.sol\":6881:6888  spender */\n      dup6\n        /* \"contracts/token/ERC20/ERC20.sol\":6855:6889  _allowances[_msgSender()][spender] */\n      0xffffffffffffffffffffffffffffffffffffffff\n      and\n      0xffffffffffffffffffffffffffffffffffffffff\n      and\n      dup2\n      mstore\n      0x20\n      add\n      swap1\n      dup2\n      mstore\n      0x20\n      add\n      0x00\n      keccak256\n      sload\n        /* \"contracts/token/ERC20/ERC20.sol\":6828:6889  uint256 currentAllowance = _allowances[_msgSender()][spender] */\n      swap1\n      pop\n        /* \"contracts/token/ERC20/ERC20.sol\":6928:6943  subtractedValue */\n      dup3\n        /* \"contracts/token/ERC20/ERC20.sol\":6908:6924  currentAllowance */\n      dup2\n        /* \"contracts/token/ERC20/ERC20.sol\":6908:6943  currentAllowance >= subtractedValue */\n      lt\n      iszero\n        /* \"contracts/token/ERC20/ERC20.sol\":6900:6985  require(currentAllowance >= subtractedValue, \"ERC20: decreased allowance below zero\") */\n      tag_150\n      jumpi\n      mload(0x40)\n      0x08c379a000000000000000000000000000000000000000000000000000000000\n      dup2\n      mstore\n      0x04\n      add\n      tag_151\n      swap1\n      tag_152\n      jump\t// in\n    tag_151:\n      mload(0x40)\n      dup1\n      swap2\n      sub\n      swap1\n      revert\n    tag_150:\n        /* \"contracts/token/ERC20/ERC20.sol\":7021:7088  _approve(_msgSender(), spender, currentAllowance - subtractedValue) */\n      tag_153\n        /* \"contracts/token/ERC20/ERC20.sol\":7030:7042  _msgSender() */\n      tag_154\n        /* \"contracts/token/ERC20/ERC20.sol\":7030:7040  _msgSender */\n      tag_88\n        /* \"contracts/token/ERC20/ERC20.sol\":7030:7042  _msgSender() */\n      jump\t// in\n    tag_154:\n        /* \"contracts/token/ERC20/ERC20.sol\":7044:7051  spender */\n      dup6\n        /* \"contracts/token/ERC20/ERC20.sol\":7072:7087  subtractedValue */\n      dup6\n        /* \"contracts/token/ERC20/ERC20.sol\":7053:7069  currentAllowance */\n      dup5\n        /* \"contracts/token/ERC20/ERC20.sol\":7053:7087  currentAllowance - subtractedValue */\n      sub\n        /* \"contracts/token/ERC20/ERC20.sol\":7021:7029  _approve */\n      tag_106\n        /* \"contracts/token/ERC20/ERC20.sol\":7021:7088  _approve(_msgSender(), spender, currentAllowance - subtractedValue) */\n      jump\t// in\n    tag_153:\n        /* \"contracts/token/ERC20/ERC20.sol\":7119:7123  true */\n      0x01\n        /* \"contracts/token/ERC20/ERC20.sol\":7112:7123  return true */\n      swap2\n      pop\n      pop\n        /* \"contracts/token/ERC20/ERC20.sol\":6718:7131  function decreaseAllowance(address spender, uint256 subtractedValue) public virtual returns (bool) {\r... */\n      swap3\n      swap2\n      pop\n      pop\n      jump\t// out\n        /* \"contracts/token/ERC20/ERC20.sol\":3912:4087  function transfer(address recipient, uint256 amount) public virtual override returns (bool) {\r... */\n    tag_76:\n        /* \"contracts/token/ERC20/ERC20.sol\":3998:4002  bool */\n      0x00\n        /* \"contracts/token/ERC20/ERC20.sol\":4015:4057  _transfer(_msgSender(), recipient, amount) */\n      tag_156\n        /* \"contracts/token/ERC20/ERC20.sol\":4025:4037  _msgSender() */\n      tag_157\n        /* \"contracts/token/ERC20/ERC20.sol\":4025:4035  _msgSender */\n      tag_88\n        /* \"contracts/token/ERC20/ERC20.sol\":4025:4037  _msgSender() */\n      jump\t// in\n    tag_157:\n        /* \"contracts/token/ERC20/ERC20.sol\":4039:4048  recipient */\n      dup5\n        /* \"contracts/token/ERC20/ERC20.sol\":4050:4056  amount */\n      dup5\n        /* \"contracts/token/ERC20/ERC20.sol\":4015:4024  _transfer */\n      tag_95\n        /* \"contracts/token/ERC20/ERC20.sol\":4015:4057  _transfer(_msgSender(), recipient, amount) */\n      jump\t// in\n    tag_156:\n        /* \"contracts/token/ERC20/ERC20.sol\":4075:4079  true */\n      0x01\n        /* \"contracts/token/ERC20/ERC20.sol\":4068:4079  return true */\n      swap1\n      pop\n        /* \"contracts/token/ERC20/ERC20.sol\":3912:4087  function transfer(address recipient, uint256 amount) public virtual override returns (bool) {\r... */\n      swap3\n      swap2\n      pop\n      pop\n      jump\t// out\n        /* \"contracts/token/ERC20/ERC20.sol\":4150:4301  function allowance(address owner, address spender) public view virtual override returns (uint256) {\r... */\n    tag_81:\n        /* \"contracts/token/ERC20/ERC20.sol\":4239:4246  uint256 */\n      0x00\n        /* \"contracts/token/ERC20/ERC20.sol\":4266:4277  _allowances */\n      0x01\n        /* \"contracts/token/ERC20/ERC20.sol\":4266:4284  _allowances[owner] */\n      0x00\n        /* \"contracts/token/ERC20/ERC20.sol\":4278:4283  owner */\n      dup5\n        /* \"contracts/token/ERC20/ERC20.sol\":4266:4284  _allowances[owner] */\n      0xffffffffffffffffffffffffffffffffffffffff\n      and\n      0xffffffffffffffffffffffffffffffffffffffff\n      and\n      dup2\n      mstore\n      0x20\n      add\n      swap1\n      dup2\n      mstore\n      0x20\n      add\n      0x00\n      keccak256\n        /* \"contracts/token/ERC20/ERC20.sol\":4266:4293  _allowances[owner][spender] */\n      0x00\n        /* \"contracts/token/ERC20/ERC20.sol\":4285:4292  spender */\n      dup4\n        /* \"contracts/token/ERC20/ERC20.sol\":4266:4293  _allowances[owner][spender] */\n      0xffffffffffffffffffffffffffffffffffffffff\n      and\n      0xffffffffffffffffffffffffffffffffffffffff\n      and\n      dup2\n      mstore\n      0x20\n      add\n      swap1\n      dup2\n      mstore\n      0x20\n      add\n      0x00\n      keccak256\n      sload\n        /* \"contracts/token/ERC20/ERC20.sol\":4259:4293  return _allowances[owner][spender] */\n      swap1\n      pop\n        /* \"contracts/token/ERC20/ERC20.sol\":4150:4301  function allowance(address owner, address spender) public view virtual override returns (uint256) {\r... */\n      swap3\n      swap2\n      pop\n      pop\n      jump\t// out\n        /* \"contracts/access/Ownable.sol\":1979:2180  function transferOwnership(address newOwner) public virtual onlyOwner {\r... */\n    tag_85:\n        /* \"contracts/access/Ownable.sol\":1301:1313  _msgSender() */\n      tag_160\n        /* \"contracts/access/Ownable.sol\":1301:1311  _msgSender */\n      tag_88\n        /* \"contracts/access/Ownable.sol\":1301:1313  _msgSender() */\n      jump\t// in\n    tag_160:\n        /* \"contracts/access/Ownable.sol\":1290:1313  owner() == _msgSender() */\n      0xffffffffffffffffffffffffffffffffffffffff\n      and\n        /* \"contracts/access/Ownable.sol\":1290:1297  owner() */\n      tag_161\n        /* \"contracts/access/Ownable.sol\":1290:1295  owner */\n      tag_60\n        /* \"contracts/access/Ownable.sol\":1290:1297  owner() */\n      jump\t// in\n    tag_161:\n        /* \"contracts/access/Ownable.sol\":1290:1313  owner() == _msgSender() */\n      0xffffffffffffffffffffffffffffffffffffffff\n      and\n      eq\n        /* \"contracts/access/Ownable.sol\":1282:1350  require(owner() == _msgSender(), \"Ownable: caller is not the owner\") */\n      tag_162\n      jumpi\n      mload(0x40)\n      0x08c379a000000000000000000000000000000000000000000000000000000000\n      dup2\n      mstore\n      0x04\n      add\n      tag_163\n      swap1\n      tag_92\n      jump\t// in\n    tag_163:\n      mload(0x40)\n      dup1\n      swap2\n      sub\n      swap1\n      revert\n    tag_162:\n        /* \"contracts/access/Ownable.sol\":2088:2089  0 */\n      0x00\n        /* \"contracts/access/Ownable.sol\":2068:2090  newOwner != address(0) */\n      0xffffffffffffffffffffffffffffffffffffffff\n      and\n        /* \"contracts/access/Ownable.sol\":2068:2076  newOwner */\n      dup2\n        /* \"contracts/access/Ownable.sol\":2068:2090  newOwner != address(0) */\n      0xffffffffffffffffffffffffffffffffffffffff\n      and\n      eq\n      iszero\n        /* \"contracts/access/Ownable.sol\":2060:2133  require(newOwner != address(0), \"Ownable: new owner is the zero address\") */\n      tag_165\n      jumpi\n      mload(0x40)\n      0x08c379a000000000000000000000000000000000000000000000000000000000\n      dup2\n      mstore\n      0x04\n      add\n      tag_166\n      swap1\n      tag_167\n      jump\t// in\n    tag_166:\n      mload(0x40)\n      dup1\n      swap2\n      sub\n      swap1\n      revert\n    tag_165:\n        /* \"contracts/access/Ownable.sol\":2144:2172  _transferOwnership(newOwner) */\n      tag_168\n        /* \"contracts/access/Ownable.sol\":2163:2171  newOwner */\n      dup2\n        /* \"contracts/access/Ownable.sol\":2144:2162  _transferOwnership */\n      tag_131\n        /* \"contracts/access/Ownable.sol\":2144:2172  _transferOwnership(newOwner) */\n      jump\t// in\n    tag_168:\n        /* \"contracts/access/Ownable.sol\":1979:2180  function transferOwnership(address newOwner) public virtual onlyOwner {\r... */\n      pop\n      jump\t// out\n        /* \"contracts/utils/Context.sol\":656:754  function _msgSender() internal view virtual returns (address) {\r... */\n    tag_88:\n        /* \"contracts/utils/Context.sol\":709:716  address */\n      0x00\n        /* \"contracts/utils/Context.sol\":736:746  msg.sender */\n      caller\n        /* \"contracts/utils/Context.sol\":729:746  return msg.sender */\n      swap1\n      pop\n        /* \"contracts/utils/Context.sol\":656:754  function _msgSender() internal view virtual returns (address) {\r... */\n      swap1\n      jump\t// out\n        /* \"contracts/token/ERC20/ERC20.sol\":7621:8354  function _transfer(\r... */\n    tag_95:\n        /* \"contracts/token/ERC20/ERC20.sol\":7779:7780  0 */\n      0x00\n        /* \"contracts/token/ERC20/ERC20.sol\":7761:7781  sender != address(0) */\n      0xffffffffffffffffffffffffffffffffffffffff\n      and\n        /* \"contracts/token/ERC20/ERC20.sol\":7761:7767  sender */\n      dup4\n        /* \"contracts/token/ERC20/ERC20.sol\":7761:7781  sender != address(0) */\n      0xffffffffffffffffffffffffffffffffffffffff\n      and\n      eq\n      iszero\n        /* \"contracts/token/ERC20/ERC20.sol\":7753:7823  require(sender != address(0), \"ERC20: transfer from the zero address\") */\n      tag_171\n      jumpi\n      mload(0x40)\n      0x08c379a000000000000000000000000000000000000000000000000000000000\n      dup2\n      mstore\n      0x04\n      add\n      tag_172\n      swap1\n      tag_173\n      jump\t// in\n    tag_172:\n      mload(0x40)\n      dup1\n      swap2\n      sub\n      swap1\n      revert\n    tag_171:\n        /* \"contracts/token/ERC20/ERC20.sol\":7863:7864  0 */\n      0x00\n        /* \"contracts/token/ERC20/ERC20.sol\":7842:7865  recipient != address(0) */\n      0xffffffffffffffffffffffffffffffffffffffff\n      and\n        /* \"contracts/token/ERC20/ERC20.sol\":7842:7851  recipient */\n      dup3\n        /* \"contracts/token/ERC20/ERC20.sol\":7842:7865  recipient != address(0) */\n      0xffffffffffffffffffffffffffffffffffffffff\n      and\n      eq\n      iszero\n        /* \"contracts/token/ERC20/ERC20.sol\":7834:7905  require(recipient != address(0), \"ERC20: transfer to the zero address\") */\n      tag_174\n      jumpi\n      mload(0x40)\n      0x08c379a000000000000000000000000000000000000000000000000000000000\n      dup2\n      mstore\n      0x04\n      add\n      tag_175\n      swap1\n      tag_176\n      jump\t// in\n    tag_175:\n      mload(0x40)\n      dup1\n      swap2\n      sub\n      swap1\n      revert\n    tag_174:\n        /* \"contracts/token/ERC20/ERC20.sol\":7918:7965  _beforeTokenTransfer(sender, recipient, amount) */\n      tag_177\n        /* \"contracts/token/ERC20/ERC20.sol\":7939:7945  sender */\n      dup4\n        /* \"contracts/token/ERC20/ERC20.sol\":7947:7956  recipient */\n      dup4\n        /* \"contracts/token/ERC20/ERC20.sol\":7958:7964  amount */\n      dup4\n        /* \"contracts/token/ERC20/ERC20.sol\":7918:7938  _beforeTokenTransfer */\n      tag_178\n        /* \"contracts/token/ERC20/ERC20.sol\":7918:7965  _beforeTokenTransfer(sender, recipient, amount) */\n      jump\t// in\n    tag_177:\n        /* \"contracts/token/ERC20/ERC20.sol\":7978:7999  uint256 senderBalance */\n      0x00\n        /* \"contracts/token/ERC20/ERC20.sol\":8002:8011  _balances */\n      dup1\n        /* \"contracts/token/ERC20/ERC20.sol\":8002:8019  _balances[sender] */\n      0x00\n        /* \"contracts/token/ERC20/ERC20.sol\":8012:8018  sender */\n      dup6\n        /* \"contracts/token/ERC20/ERC20.sol\":8002:8019  _balances[sender] */\n      0xffffffffffffffffffffffffffffffffffffffff\n      and\n      0xffffffffffffffffffffffffffffffffffffffff\n      and\n      dup2\n      mstore\n      0x20\n      add\n      swap1\n      dup2\n      mstore\n      0x20\n      add\n      0x00\n      keccak256\n      sload\n        /* \"contracts/token/ERC20/ERC20.sol\":7978:8019  uint256 senderBalance = _balances[sender] */\n      swap1\n      pop\n        /* \"contracts/token/ERC20/ERC20.sol\":8055:8061  amount */\n      dup2\n        /* \"contracts/token/ERC20/ERC20.sol\":8038:8051  senderBalance */\n      dup2\n        /* \"contracts/token/ERC20/ERC20.sol\":8038:8061  senderBalance >= amount */\n      lt\n      iszero\n        /* \"contracts/token/ERC20/ERC20.sol\":8030:8104  require(senderBalance >= amount, \"ERC20: transfer amount exceeds balance\") */\n      tag_179\n      jumpi\n      mload(0x40)\n      0x08c379a000000000000000000000000000000000000000000000000000000000\n      dup2\n      mstore\n      0x04\n      add\n      tag_180\n      swap1\n      tag_181\n      jump\t// in\n    tag_180:\n      mload(0x40)\n      dup1\n      swap2\n      sub\n      swap1\n      revert\n    tag_179:\n        /* \"contracts/token/ERC20/ERC20.sol\":8176:8182  amount */\n      dup2\n        /* \"contracts/token/ERC20/ERC20.sol\":8160:8173  senderBalance */\n      dup2\n        /* \"contracts/token/ERC20/ERC20.sol\":8160:8182  senderBalance - amount */\n      sub\n        /* \"contracts/token/ERC20/ERC20.sol\":8140:8149  _balances */\n      0x00\n        /* \"contracts/token/ERC20/ERC20.sol\":8140:8157  _balances[sender] */\n      dup1\n        /* \"contracts/token/ERC20/ERC20.sol\":8150:8156  sender */\n      dup7\n        /* \"contracts/token/ERC20/ERC20.sol\":8140:8157  _balances[sender] */\n      0xffffffffffffffffffffffffffffffffffffffff\n      and\n      0xffffffffffffffffffffffffffffffffffffffff\n      and\n      dup2\n      mstore\n      0x20\n      add\n      swap1\n      dup2\n      mstore\n      0x20\n      add\n      0x00\n      keccak256\n        /* \"contracts/token/ERC20/ERC20.sol\":8140:8182  _balances[sender] = senderBalance - amount */\n      dup2\n      swap1\n      sstore\n      pop\n        /* \"contracts/token/ERC20/ERC20.sol\":8228:8234  amount */\n      dup2\n        /* \"contracts/token/ERC20/ERC20.sol\":8204:8213  _balances */\n      0x00\n        /* \"contracts/token/ERC20/ERC20.sol\":8204:8224  _balances[recipient] */\n      dup1\n        /* \"contracts/token/ERC20/ERC20.sol\":8214:8223  recipient */\n      dup6\n        /* \"contracts/token/ERC20/ERC20.sol\":8204:8224  _balances[recipient] */\n      0xffffffffffffffffffffffffffffffffffffffff\n      and\n      0xffffffffffffffffffffffffffffffffffffffff\n      and\n      dup2\n      mstore\n      0x20\n      add\n      swap1\n      dup2\n      mstore\n      0x20\n      add\n      0x00\n      keccak256\n      0x00\n        /* \"contracts/token/ERC20/ERC20.sol\":8204:8234  _balances[recipient] += amount */\n      dup3\n      dup3\n      sload\n      tag_182\n      swap2\n      swap1\n      tag_122\n      jump\t// in\n    tag_182:\n      swap3\n      pop\n      pop\n      dup2\n      swap1\n      sstore\n      pop\n        /* \"contracts/token/ERC20/ERC20.sol\":8269:8278  recipient */\n      dup3\n        /* \"contracts/token/ERC20/ERC20.sol\":8252:8287  Transfer(sender, recipient, amount) */\n      0xffffffffffffffffffffffffffffffffffffffff\n      and\n        /* \"contracts/token/ERC20/ERC20.sol\":8261:8267  sender */\n      dup5\n        /* \"contracts/token/ERC20/ERC20.sol\":8252:8287  Transfer(sender, recipient, amount) */\n      0xffffffffffffffffffffffffffffffffffffffff\n      and\n      0xddf252ad1be2c89b69c2b068fc378daa952ba7f163c4a11628f55a4df523b3ef\n        /* \"contracts/token/ERC20/ERC20.sol\":8280:8286  amount */\n      dup5\n        /* \"contracts/token/ERC20/ERC20.sol\":8252:8287  Transfer(sender, recipient, amount) */\n      mload(0x40)\n      tag_183\n      swap2\n      swap1\n      tag_39\n      jump\t// in\n    tag_183:\n      mload(0x40)\n      dup1\n      swap2\n      sub\n      swap1\n      log3\n        /* \"contracts/token/ERC20/ERC20.sol\":8300:8346  _afterTokenTransfer(sender, recipient, amount) */\n      tag_184\n        /* \"contracts/token/ERC20/ERC20.sol\":8320:8326  sender */\n      dup5\n        /* \"contracts/token/ERC20/ERC20.sol\":8328:8337  recipient */\n      dup5\n        /* \"contracts/token/ERC20/ERC20.sol\":8339:8345  amount */\n      dup5\n        /* \"contracts/token/ERC20/ERC20.sol\":8300:8319  _afterTokenTransfer */\n      tag_185\n        /* \"contracts/token/ERC20/ERC20.sol\":8300:8346  _afterTokenTransfer(sender, recipient, amount) */\n      jump\t// in\n    tag_184:\n        /* \"contracts/token/ERC20/ERC20.sol\":7742:8354  {\r... */\n      pop\n        /* \"contracts/token/ERC20/ERC20.sol\":7621:8354  function _transfer(\r... */\n      pop\n      pop\n      pop\n      jump\t// out\n        /* \"contracts/token/ERC20/ERC20.sol\":10402:10782  function _approve(\r... */\n    tag_106:\n        /* \"contracts/token/ERC20/ERC20.sol\":10555:10556  0 */\n      0x00\n        /* \"contracts/token/ERC20/ERC20.sol\":10538:10557  owner != address(0) */\n      0xffffffffffffffffffffffffffffffffffffffff\n      and\n        /* \"contracts/token/ERC20/ERC20.sol\":10538:10543  owner */\n      dup4\n        /* \"contracts/token/ERC20/ERC20.sol\":10538:10557  owner != address(0) */\n      0xffffffffffffffffffffffffffffffffffffffff\n      and\n      eq\n      iszero\n        /* \"contracts/token/ERC20/ERC20.sol\":10530:10598  require(owner != address(0), \"ERC20: approve from the zero address\") */\n      tag_187\n      jumpi\n      mload(0x40)\n      0x08c379a000000000000000000000000000000000000000000000000000000000\n      dup2\n      mstore\n      0x04\n      add\n      tag_188\n      swap1\n      tag_189\n      jump\t// in\n    tag_188:\n      mload(0x40)\n      dup1\n      swap2\n      sub\n      swap1\n      revert\n    tag_187:\n        /* \"contracts/token/ERC20/ERC20.sol\":10636:10637  0 */\n      0x00\n        /* \"contracts/token/ERC20/ERC20.sol\":10617:10638  spender != address(0) */\n      0xffffffffffffffffffffffffffffffffffffffff\n      and\n        /* \"contracts/token/ERC20/ERC20.sol\":10617:10624  spender */\n      dup3\n        /* \"contracts/token/ERC20/ERC20.sol\":10617:10638  spender != address(0) */\n      0xffffffffffffffffffffffffffffffffffffffff\n      and\n      eq\n      iszero\n        /* \"contracts/token/ERC20/ERC20.sol\":10609:10677  require(spender != address(0), \"ERC20: approve to the zero address\") */\n      tag_190\n      jumpi\n      mload(0x40)\n      0x08c379a000000000000000000000000000000000000000000000000000000000\n      dup2\n      mstore\n      0x04\n      add\n      tag_191\n      swap1\n      tag_192\n      jump\t// in\n    tag_191:\n      mload(0x40)\n      dup1\n      swap2\n      sub\n      swap1\n      revert\n    tag_190:\n        /* \"contracts/token/ERC20/ERC20.sol\":10720:10726  amount */\n      dup1\n        /* \"contracts/token/ERC20/ERC20.sol\":10690:10701  _allowances */\n      0x01\n        /* \"contracts/token/ERC20/ERC20.sol\":10690:10708  _allowances[owner] */\n      0x00\n        /* \"contracts/token/ERC20/ERC20.sol\":10702:10707  owner */\n      dup6\n        /* \"contracts/token/ERC20/ERC20.sol\":10690:10708  _allowances[owner] */\n      0xffffffffffffffffffffffffffffffffffffffff\n      and\n      0xffffffffffffffffffffffffffffffffffffffff\n      and\n      dup2\n      mstore\n      0x20\n      add\n      swap1\n      dup2\n      mstore\n      0x20\n      add\n      0x00\n      keccak256\n        /* \"contracts/token/ERC20/ERC20.sol\":10690:10717  _allowances[owner][spender] */\n      0x00\n        /* \"contracts/token/ERC20/ERC20.sol\":10709:10716  spender */\n      dup5\n        /* \"contracts/token/ERC20/ERC20.sol\":10690:10717  _allowances[owner][spender] */\n      0xffffffffffffffffffffffffffffffffffffffff\n      and\n      0xffffffffffffffffffffffffffffffffffffffff\n      and\n      dup2\n      mstore\n      0x20\n      add\n      swap1\n      dup2\n      mstore\n      0x20\n      add\n      0x00\n      keccak256\n        /* \"contracts/token/ERC20/ERC20.sol\":10690:10726  _allowances[owner][spender] = amount */\n      dup2\n      swap1\n      sstore\n      pop\n        /* \"contracts/token/ERC20/ERC20.sol\":10758:10765  spender */\n      dup2\n        /* \"contracts/token/ERC20/ERC20.sol\":10742:10774  Approval(owner, spender, amount) */\n      0xffffffffffffffffffffffffffffffffffffffff\n      and\n        /* \"contracts/token/ERC20/ERC20.sol\":10751:10756  owner */\n      dup4\n        /* \"contracts/token/ERC20/ERC20.sol\":10742:10774  Approval(owner, spender, amount) */\n      0xffffffffffffffffffffffffffffffffffffffff\n      and\n      0x8c5be1e5ebec7d5bd14f71427d1e84f3dd0314c0f7b2291e5b200ac8c7c3b925\n        /* \"contracts/token/ERC20/ERC20.sol\":10767:10773  amount */\n      dup4\n        /* \"contracts/token/ERC20/ERC20.sol\":10742:10774  Approval(owner, spender, amount) */\n      mload(0x40)\n      tag_193\n      swap2\n      swap1\n      tag_39\n      jump\t// in\n    tag_193:\n      mload(0x40)\n      dup1\n      swap2\n      sub\n      swap1\n      log3\n        /* \"contracts/token/ERC20/ERC20.sol\":10402:10782  function _approve(\r... */\n      pop\n      pop\n      pop\n      jump\t// out\n        /* \"contracts/access/Ownable.sol\":2340:2531  function _transferOwnership(address newOwner) internal virtual {\r... */\n    tag_131:\n        /* \"contracts/access/Ownable.sol\":2414:2430  address oldOwner */\n      0x00\n        /* \"contracts/access/Ownable.sol\":2433:2439  _owner */\n      0x06\n      0x00\n      swap1\n      sload\n      swap1\n      0x0100\n      exp\n      swap1\n      div\n      0xffffffffffffffffffffffffffffffffffffffff\n      and\n        /* \"contracts/access/Ownable.sol\":2414:2439  address oldOwner = _owner */\n      swap1\n      pop\n        /* \"contracts/access/Ownable.sol\":2459:2467  newOwner */\n      dup2\n        /* \"contracts/access/Ownable.sol\":2450:2456  _owner */\n      0x06\n      0x00\n        /* \"contracts/access/Ownable.sol\":2450:2467  _owner = newOwner */\n      0x0100\n      exp\n      dup2\n      sload\n      dup2\n      0xffffffffffffffffffffffffffffffffffffffff\n      mul\n      not\n      and\n      swap1\n      dup4\n      0xffffffffffffffffffffffffffffffffffffffff\n      and\n      mul\n      or\n      swap1\n      sstore\n      pop\n        /* \"contracts/access/Ownable.sol\":2514:2522  newOwner */\n      dup2\n        /* \"contracts/access/Ownable.sol\":2483:2523  OwnershipTransferred(oldOwner, newOwner) */\n      0xffffffffffffffffffffffffffffffffffffffff\n      and\n        /* \"contracts/access/Ownable.sol\":2504:2512  oldOwner */\n      dup2\n        /* \"contracts/access/Ownable.sol\":2483:2523  OwnershipTransferred(oldOwner, newOwner) */\n      0xffffffffffffffffffffffffffffffffffffffff\n      and\n      0x8be0079c531659141344cd1fd0a4f28419497f9722a3daafe3b4186f6b6457e0\n      mload(0x40)\n      mload(0x40)\n      dup1\n      swap2\n      sub\n      swap1\n      log3\n        /* \"contracts/access/Ownable.sol\":2403:2531  {\r... */\n      pop\n        /* \"contracts/access/Ownable.sol\":2340:2531  function _transferOwnership(address newOwner) internal virtual {\r... */\n      pop\n      jump\t// out\n        /* \"contracts/token/ERC20/ERC20.sol\":8641:9040  function _mint(address account, uint256 amount) internal virtual {\r... */\n    tag_147:\n        /* \"contracts/token/ERC20/ERC20.sol\":8744:8745  0 */\n      0x00\n        /* \"contracts/token/ERC20/ERC20.sol\":8725:8746  account != address(0) */\n      0xffffffffffffffffffffffffffffffffffffffff\n      and\n        /* \"contracts/token/ERC20/ERC20.sol\":8725:8732  account */\n      dup3\n        /* \"contracts/token/ERC20/ERC20.sol\":8725:8746  account != address(0) */\n      0xffffffffffffffffffffffffffffffffffffffff\n      and\n      eq\n      iszero\n        /* \"contracts/token/ERC20/ERC20.sol\":8717:8782  require(account != address(0), \"ERC20: mint to the zero address\") */\n      tag_196\n      jumpi\n      mload(0x40)\n      0x08c379a000000000000000000000000000000000000000000000000000000000\n      dup2\n      mstore\n      0x04\n      add\n      tag_197\n      swap1\n      tag_198\n      jump\t// in\n    tag_197:\n      mload(0x40)\n      dup1\n      swap2\n      sub\n      swap1\n      revert\n    tag_196:\n        /* \"contracts/token/ERC20/ERC20.sol\":8795:8844  _beforeTokenTransfer(address(0), account, amount) */\n      tag_199\n        /* \"contracts/token/ERC20/ERC20.sol\":8824:8825  0 */\n      0x00\n        /* \"contracts/token/ERC20/ERC20.sol\":8828:8835  account */\n      dup4\n        /* \"contracts/token/ERC20/ERC20.sol\":8837:8843  amount */\n      dup4\n        /* \"contracts/token/ERC20/ERC20.sol\":8795:8815  _beforeTokenTransfer */\n      tag_178\n        /* \"contracts/token/ERC20/ERC20.sol\":8795:8844  _beforeTokenTransfer(address(0), account, amount) */\n      jump\t// in\n    tag_199:\n        /* \"contracts/token/ERC20/ERC20.sol\":8873:8879  amount */\n      dup1\n        /* \"contracts/token/ERC20/ERC20.sol\":8857:8869  _totalSupply */\n      0x05\n      0x00\n        /* \"contracts/token/ERC20/ERC20.sol\":8857:8879  _totalSupply += amount */\n      dup3\n      dup3\n      sload\n      tag_200\n      swap2\n      swap1\n      tag_122\n      jump\t// in\n    tag_200:\n      swap3\n      pop\n      pop\n      dup2\n      swap1\n      sstore\n      pop\n        /* \"contracts/token/ERC20/ERC20.sol\":8912:8918  amount */\n      dup1\n        /* \"contracts/token/ERC20/ERC20.sol\":8890:8899  _balances */\n      0x00\n        /* \"contracts/token/ERC20/ERC20.sol\":8890:8908  _balances[account] */\n      dup1\n        /* \"contracts/token/ERC20/ERC20.sol\":8900:8907  account */\n      dup5\n        /* \"contracts/token/ERC20/ERC20.sol\":8890:8908  _balances[account] */\n      0xffffffffffffffffffffffffffffffffffffffff\n      and\n      0xffffffffffffffffffffffffffffffffffffffff\n      and\n      dup2\n      mstore\n      0x20\n      add\n      swap1\n      dup2\n      mstore\n      0x20\n      add\n      0x00\n      keccak256\n      0x00\n        /* \"contracts/token/ERC20/ERC20.sol\":8890:8918  _balances[account] += amount */\n      dup3\n      dup3\n      sload\n      tag_201\n      swap2\n      swap1\n      tag_122\n      jump\t// in\n    tag_201:\n      swap3\n      pop\n      pop\n      dup2\n      swap1\n      sstore\n      pop\n        /* \"contracts/token/ERC20/ERC20.sol\":8955:8962  account */\n      dup2\n        /* \"contracts/token/ERC20/ERC20.sol\":8934:8971  Transfer(address(0), account, amount) */\n      0xffffffffffffffffffffffffffffffffffffffff\n      and\n        /* \"contracts/token/ERC20/ERC20.sol\":8951:8952  0 */\n      0x00\n        /* \"contracts/token/ERC20/ERC20.sol\":8934:8971  Transfer(address(0), account, amount) */\n      0xffffffffffffffffffffffffffffffffffffffff\n      and\n      0xddf252ad1be2c89b69c2b068fc378daa952ba7f163c4a11628f55a4df523b3ef\n        /* \"contracts/token/ERC20/ERC20.sol\":8964:8970  amount */\n      dup4\n        /* \"contracts/token/ERC20/ERC20.sol\":8934:8971  Transfer(address(0), account, amount) */\n      mload(0x40)\n      tag_202\n      swap2\n      swap1\n      tag_39\n      jump\t// in\n    tag_202:\n      mload(0x40)\n      dup1\n      swap2\n      sub\n      swap1\n      log3\n        /* \"contracts/token/ERC20/ERC20.sol\":8984:9032  _afterTokenTransfer(address(0), account, amount) */\n      tag_203\n        /* \"contracts/token/ERC20/ERC20.sol\":9012:9013  0 */\n      0x00\n        /* \"contracts/token/ERC20/ERC20.sol\":9016:9023  account */\n      dup4\n        /* \"contracts/token/ERC20/ERC20.sol\":9025:9031  amount */\n      dup4\n        /* \"contracts/token/ERC20/ERC20.sol\":8984:9003  _afterTokenTransfer */\n      tag_185\n        /* \"contracts/token/ERC20/ERC20.sol\":8984:9032  _afterTokenTransfer(address(0), account, amount) */\n      jump\t// in\n    tag_203:\n        /* \"contracts/token/ERC20/ERC20.sol\":8641:9040  function _mint(address account, uint256 amount) internal virtual {\r... */\n      pop\n      pop\n      jump\t// out\n        /* \"contracts/token/ERC20/ERC20.sol\":11382:11507  function _beforeTokenTransfer(\r... */\n    tag_178:\n      pop\n      pop\n      pop\n      jump\t// out\n        /* \"contracts/token/ERC20/ERC20.sol\":12111:12235  function _afterTokenTransfer(\r... */\n    tag_185:\n      pop\n      pop\n      pop\n      jump\t// out\n        /* \"#utility.yul\":7:146   */\n    tag_207:\n        /* \"#utility.yul\":53:58   */\n      0x00\n        /* \"#utility.yul\":91:97   */\n      dup2\n        /* \"#utility.yul\":78:98   */\n      calldataload\n        /* \"#utility.yul\":69:98   */\n      swap1\n      pop\n        /* \"#utility.yul\":107:140   */\n      tag_209\n        /* \"#utility.yul\":134:139   */\n      dup2\n        /* \"#utility.yul\":107:140   */\n      tag_210\n      jump\t// in\n    tag_209:\n        /* \"#utility.yul\":7:146   */\n      swap3\n      swap2\n      pop\n      pop\n      jump\t// out\n        /* \"#utility.yul\":152:291   */\n    tag_211:\n        /* \"#utility.yul\":198:203   */\n      0x00\n        /* \"#utility.yul\":236:242   */\n      dup2\n        /* \"#utility.yul\":223:243   */\n      calldataload\n        /* \"#utility.yul\":214:243   */\n      swap1\n      pop\n        /* \"#utility.yul\":252:285   */\n      tag_213\n        /* \"#utility.yul\":279:284   */\n      dup2\n        /* \"#utility.yul\":252:285   */\n      tag_214\n      jump\t// in\n    tag_213:\n        /* \"#utility.yul\":152:291   */\n      swap3\n      swap2\n      pop\n      pop\n      jump\t// out\n        /* \"#utility.yul\":297:626   */\n    tag_54:\n        /* \"#utility.yul\":356:362   */\n      0x00\n        /* \"#utility.yul\":405:407   */\n      0x20\n        /* \"#utility.yul\":393:402   */\n      dup3\n        /* \"#utility.yul\":384:391   */\n      dup5\n        /* \"#utility.yul\":380:403   */\n      sub\n        /* \"#utility.yul\":376:408   */\n      slt\n        /* \"#utility.yul\":373:492   */\n      iszero\n      tag_216\n      jumpi\n        /* \"#utility.yul\":411:490   */\n      tag_217\n      tag_218\n      jump\t// in\n    tag_217:\n        /* \"#utility.yul\":373:492   */\n    tag_216:\n        /* \"#utility.yul\":531:532   */\n      0x00\n        /* \"#utility.yul\":556:609   */\n      tag_219\n        /* \"#utility.yul\":601:608   */\n      dup5\n        /* \"#utility.yul\":592:598   */\n      dup3\n        /* \"#utility.yul\":581:590   */\n      dup6\n        /* \"#utility.yul\":577:599   */\n      add\n        /* \"#utility.yul\":556:609   */\n      tag_207\n      jump\t// in\n    tag_219:\n        /* \"#utility.yul\":546:609   */\n      swap2\n      pop\n        /* \"#utility.yul\":502:619   */\n      pop\n        /* \"#utility.yul\":297:626   */\n      swap3\n      swap2\n      pop\n      pop\n      jump\t// out\n        /* \"#utility.yul\":632:1106   */\n    tag_80:\n        /* \"#utility.yul\":700:706   */\n      0x00\n        /* \"#utility.yul\":708:714   */\n      dup1\n        /* \"#utility.yul\":757:759   */\n      0x40\n        /* \"#utility.yul\":745:754   */\n      dup4\n        /* \"#utility.yul\":736:743   */\n      dup6\n        /* \"#utility.yul\":732:755   */\n      sub\n        /* \"#utility.yul\":728:760   */\n      slt\n        /* \"#utility.yul\":725:844   */\n      iszero\n      tag_221\n      jumpi\n        /* \"#utility.yul\":763:842   */\n      tag_222\n      tag_218\n      jump\t// in\n    tag_222:\n        /* \"#utility.yul\":725:844   */\n    tag_221:\n        /* \"#utility.yul\":883:884   */\n      0x00\n        /* \"#utility.yul\":908:961   */\n      tag_223\n        /* \"#utility.yul\":953:960   */\n      dup6\n        /* \"#utility.yul\":944:950   */\n      dup3\n        /* \"#utility.yul\":933:942   */\n      dup7\n        /* \"#utility.yul\":929:951   */\n      add\n        /* \"#utility.yul\":908:961   */\n      tag_207\n      jump\t// in\n    tag_223:\n        /* \"#utility.yul\":898:961   */\n      swap3\n      pop\n        /* \"#utility.yul\":854:971   */\n      pop\n        /* \"#utility.yul\":1010:1012   */\n      0x20\n        /* \"#utility.yul\":1036:1089   */\n      tag_224\n        /* \"#utility.yul\":1081:1088   */\n      dup6\n        /* \"#utility.yul\":1072:1078   */\n      dup3\n        /* \"#utility.yul\":1061:1070   */\n      dup7\n        /* \"#utility.yul\":1057:1079   */\n      add\n        /* \"#utility.yul\":1036:1089   */\n      tag_207\n      jump\t// in\n    tag_224:\n        /* \"#utility.yul\":1026:1089   */\n      swap2\n      pop\n        /* \"#utility.yul\":981:1099   */\n      pop\n        /* \"#utility.yul\":632:1106   */\n      swap3\n      pop\n      swap3\n      swap1\n      pop\n      jump\t// out\n        /* \"#utility.yul\":1112:1731   */\n    tag_24:\n        /* \"#utility.yul\":1189:1195   */\n      0x00\n        /* \"#utility.yul\":1197:1203   */\n      dup1\n        /* \"#utility.yul\":1205:1211   */\n      0x00\n        /* \"#utility.yul\":1254:1256   */\n      0x60\n        /* \"#utility.yul\":1242:1251   */\n      dup5\n        /* \"#utility.yul\":1233:1240   */\n      dup7\n        /* \"#utility.yul\":1229:1252   */\n      sub\n        /* \"#utility.yul\":1225:1257   */\n      slt\n        /* \"#utility.yul\":1222:1341   */\n      iszero\n      tag_226\n      jumpi\n        /* \"#utility.yul\":1260:1339   */\n      tag_227\n      tag_218\n      jump\t// in\n    tag_227:\n        /* \"#utility.yul\":1222:1341   */\n    tag_226:\n        /* \"#utility.yul\":1380:1381   */\n      0x00\n        /* \"#utility.yul\":1405:1458   */\n      tag_228\n        /* \"#utility.yul\":1450:1457   */\n      dup7\n        /* \"#utility.yul\":1441:1447   */\n      dup3\n        /* \"#utility.yul\":1430:1439   */\n      dup8\n        /* \"#utility.yul\":1426:1448   */\n      add\n        /* \"#utility.yul\":1405:1458   */\n      tag_207\n      jump\t// in\n    tag_228:\n        /* \"#utility.yul\":1395:1458   */\n      swap4\n      pop\n        /* \"#utility.yul\":1351:1468   */\n      pop\n        /* \"#utility.yul\":1507:1509   */\n      0x20\n        /* \"#utility.yul\":1533:1586   */\n      tag_229\n        /* \"#utility.yul\":1578:1585   */\n      dup7\n        /* \"#utility.yul\":1569:1575   */\n      dup3\n        /* \"#utility.yul\":1558:1567   */\n      dup8\n        /* \"#utility.yul\":1554:1576   */\n      add\n        /* \"#utility.yul\":1533:1586   */\n      tag_207\n      jump\t// in\n    tag_229:\n        /* \"#utility.yul\":1523:1586   */\n      swap3\n      pop\n        /* \"#utility.yul\":1478:1596   */\n      pop\n        /* \"#utility.yul\":1635:1637   */\n      0x40\n        /* \"#utility.yul\":1661:1714   */\n      tag_230\n        /* \"#utility.yul\":1706:1713   */\n      dup7\n        /* \"#utility.yul\":1697:1703   */\n      dup3\n        /* \"#utility.yul\":1686:1695   */\n      dup8\n        /* \"#utility.yul\":1682:1704   */\n      add\n        /* \"#utility.yul\":1661:1714   */\n      tag_211\n      jump\t// in\n    tag_230:\n        /* \"#utility.yul\":1651:1714   */\n      swap2\n      pop\n        /* \"#utility.yul\":1606:1724   */\n      pop\n        /* \"#utility.yul\":1112:1731   */\n      swap3\n      pop\n      swap3\n      pop\n      swap3\n      jump\t// out\n        /* \"#utility.yul\":1737:2211   */\n    tag_32:\n        /* \"#utility.yul\":1805:1811   */\n      0x00\n        /* \"#utility.yul\":1813:1819   */\n      dup1\n        /* \"#utility.yul\":1862:1864   */\n      0x40\n        /* \"#utility.yul\":1850:1859   */\n      dup4\n        /* \"#utility.yul\":1841:1848   */\n      dup6\n        /* \"#utility.yul\":1837:1860   */\n      sub\n        /* \"#utility.yul\":1833:1865   */\n      slt\n        /* \"#utility.yul\":1830:1949   */\n      iszero\n      tag_232\n      jumpi\n        /* \"#utility.yul\":1868:1947   */\n      tag_233\n      tag_218\n      jump\t// in\n    tag_233:\n        /* \"#utility.yul\":1830:1949   */\n    tag_232:\n        /* \"#utility.yul\":1988:1989   */\n      0x00\n        /* \"#utility.yul\":2013:2066   */\n      tag_234\n        /* \"#utility.yul\":2058:2065   */\n      dup6\n        /* \"#utility.yul\":2049:2055   */\n      dup3\n        /* \"#utility.yul\":2038:2047   */\n      dup7\n        /* \"#utility.yul\":2034:2056   */\n      add\n        /* \"#utility.yul\":2013:2066   */\n      tag_207\n      jump\t// in\n    tag_234:\n        /* \"#utility.yul\":2003:2066   */\n      swap3\n      pop\n        /* \"#utility.yul\":1959:2076   */\n      pop\n        /* \"#utility.yul\":2115:2117   */\n      0x20\n        /* \"#utility.yul\":2141:2194   */\n      tag_235\n        /* \"#utility.yul\":2186:2193   */\n      dup6\n        /* \"#utility.yul\":2177:2183   */\n      dup3\n        /* \"#utility.yul\":2166:2175   */\n      dup7\n        /* \"#utility.yul\":2162:2184   */\n      add\n        /* \"#utility.yul\":2141:2194   */\n      tag_211\n      jump\t// in\n    tag_235:\n        /* \"#utility.yul\":2131:2194   */\n      swap2\n      pop\n        /* \"#utility.yul\":2086:2204   */\n      pop\n        /* \"#utility.yul\":1737:2211   */\n      swap3\n      pop\n      swap3\n      swap1\n      pop\n      jump\t// out\n        /* \"#utility.yul\":2217:2546   */\n    tag_68:\n        /* \"#utility.yul\":2276:2282   */\n      0x00\n        /* \"#utility.yul\":2325:2327   */\n      0x20\n        /* \"#utility.yul\":2313:2322   */\n      dup3\n        /* \"#utility.yul\":2304:2311   */\n      dup5\n        /* \"#utility.yul\":2300:2323   */\n      sub\n        /* \"#utility.yul\":2296:2328   */\n      slt\n        /* \"#utility.yul\":2293:2412   */\n      iszero\n      tag_237\n      jumpi\n        /* \"#utility.yul\":2331:2410   */\n      tag_238\n      tag_218\n      jump\t// in\n    tag_238:\n        /* \"#utility.yul\":2293:2412   */\n    tag_237:\n        /* \"#utility.yul\":2451:2452   */\n      0x00\n        /* \"#utility.yul\":2476:2529   */\n      tag_239\n        /* \"#utility.yul\":2521:2528   */\n      dup5\n        /* \"#utility.yul\":2512:2518   */\n      dup3\n        /* \"#utility.yul\":2501:2510   */\n      dup6\n        /* \"#utility.yul\":2497:2519   */\n      add\n        /* \"#utility.yul\":2476:2529   */\n      tag_211\n      jump\t// in\n    tag_239:\n        /* \"#utility.yul\":2466:2529   */\n      swap2\n      pop\n        /* \"#utility.yul\":2422:2539   */\n      pop\n        /* \"#utility.yul\":2217:2546   */\n      swap3\n      swap2\n      pop\n      pop\n      jump\t// out\n        /* \"#utility.yul\":2552:2670   */\n    tag_240:\n        /* \"#utility.yul\":2639:2663   */\n      tag_242\n        /* \"#utility.yul\":2657:2662   */\n      dup2\n        /* \"#utility.yul\":2639:2663   */\n      tag_243\n      jump\t// in\n    tag_242:\n        /* \"#utility.yul\":2634:2637   */\n      dup3\n        /* \"#utility.yul\":2627:2664   */\n      mstore\n        /* \"#utility.yul\":2552:2670   */\n      pop\n      pop\n      jump\t// out\n        /* \"#utility.yul\":2676:2785   */\n    tag_244:\n        /* \"#utility.yul\":2757:2778   */\n      tag_246\n        /* \"#utility.yul\":2772:2777   */\n      dup2\n        /* \"#utility.yul\":2757:2778   */\n      tag_247\n      jump\t// in\n    tag_246:\n        /* \"#utility.yul\":2752:2755   */\n      dup3\n        /* \"#utility.yul\":2745:2779   */\n      mstore\n        /* \"#utility.yul\":2676:2785   */\n      pop\n      pop\n      jump\t// out\n        /* \"#utility.yul\":2791:3155   */\n    tag_248:\n        /* \"#utility.yul\":2879:2882   */\n      0x00\n        /* \"#utility.yul\":2907:2946   */\n      tag_250\n        /* \"#utility.yul\":2940:2945   */\n      dup3\n        /* \"#utility.yul\":2907:2946   */\n      tag_251\n      jump\t// in\n    tag_250:\n        /* \"#utility.yul\":2962:3033   */\n      tag_252\n        /* \"#utility.yul\":3026:3032   */\n      dup2\n        /* \"#utility.yul\":3021:3024   */\n      dup6\n        /* \"#utility.yul\":2962:3033   */\n      tag_253\n      jump\t// in\n    tag_252:\n        /* \"#utility.yul\":2955:3033   */\n      swap4\n      pop\n        /* \"#utility.yul\":3042:3094   */\n      tag_254\n        /* \"#utility.yul\":3087:3093   */\n      dup2\n        /* \"#utility.yul\":3082:3085   */\n      dup6\n        /* \"#utility.yul\":3075:3079   */\n      0x20\n        /* \"#utility.yul\":3068:3073   */\n      dup7\n        /* \"#utility.yul\":3064:3080   */\n      add\n        /* \"#utility.yul\":3042:3094   */\n      tag_255\n      jump\t// in\n    tag_254:\n        /* \"#utility.yul\":3119:3148   */\n      tag_256\n        /* \"#utility.yul\":3141:3147   */\n      dup2\n        /* \"#utility.yul\":3119:3148   */\n      tag_257\n      jump\t// in\n    tag_256:\n        /* \"#utility.yul\":3114:3117   */\n      dup5\n        /* \"#utility.yul\":3110:3149   */\n      add\n        /* \"#utility.yul\":3103:3149   */\n      swap2\n      pop\n        /* \"#utility.yul\":2883:3155   */\n      pop\n        /* \"#utility.yul\":2791:3155   */\n      swap3\n      swap2\n      pop\n      pop\n      jump\t// out\n        /* \"#utility.yul\":3161:3527   */\n    tag_258:\n        /* \"#utility.yul\":3303:3306   */\n      0x00\n        /* \"#utility.yul\":3324:3391   */\n      tag_260\n        /* \"#utility.yul\":3388:3390   */\n      0x23\n        /* \"#utility.yul\":3383:3386   */\n      dup4\n        /* \"#utility.yul\":3324:3391   */\n      tag_253\n      jump\t// in\n    tag_260:\n        /* \"#utility.yul\":3317:3391   */\n      swap2\n      pop\n        /* \"#utility.yul\":3400:3493   */\n      tag_261\n        /* \"#utility.yul\":3489:3492   */\n      dup3\n        /* \"#utility.yul\":3400:3493   */\n      tag_262\n      jump\t// in\n    tag_261:\n        /* \"#utility.yul\":3518:3520   */\n      0x40\n        /* \"#utility.yul\":3513:3516   */\n      dup3\n        /* \"#utility.yul\":3509:3521   */\n      add\n        /* \"#utility.yul\":3502:3521   */\n      swap1\n      pop\n        /* \"#utility.yul\":3161:3527   */\n      swap2\n      swap1\n      pop\n      jump\t// out\n        /* \"#utility.yul\":3533:3899   */\n    tag_263:\n        /* \"#utility.yul\":3675:3678   */\n      0x00\n        /* \"#utility.yul\":3696:3763   */\n      tag_265\n        /* \"#utility.yul\":3760:3762   */\n      0x26\n        /* \"#utility.yul\":3755:3758   */\n      dup4\n        /* \"#utility.yul\":3696:3763   */\n      tag_253\n      jump\t// in\n    tag_265:\n        /* \"#utility.yul\":3689:3763   */\n      swap2\n      pop\n        /* \"#utility.yul\":3772:3865   */\n      tag_266\n        /* \"#utility.yul\":3861:3864   */\n      dup3\n        /* \"#utility.yul\":3772:3865   */\n      tag_267\n      jump\t// in\n    tag_266:\n        /* \"#utility.yul\":3890:3892   */\n      0x40\n        /* \"#utility.yul\":3885:3888   */\n      dup3\n        /* \"#utility.yul\":3881:3893   */\n      add\n        /* \"#utility.yul\":3874:3893   */\n      swap1\n      pop\n        /* \"#utility.yul\":3533:3899   */\n      swap2\n      swap1\n      pop\n      jump\t// out\n        /* \"#utility.yul\":3905:4271   */\n    tag_268:\n        /* \"#utility.yul\":4047:4050   */\n      0x00\n        /* \"#utility.yul\":4068:4135   */\n      tag_270\n        /* \"#utility.yul\":4132:4134   */\n      0x22\n        /* \"#utility.yul\":4127:4130   */\n      dup4\n        /* \"#utility.yul\":4068:4135   */\n      tag_253\n      jump\t// in\n    tag_270:\n        /* \"#utility.yul\":4061:4135   */\n      swap2\n      pop\n        /* \"#utility.yul\":4144:4237   */\n      tag_271\n        /* \"#utility.yul\":4233:4236   */\n      dup3\n        /* \"#utility.yul\":4144:4237   */\n      tag_272\n      jump\t// in\n    tag_271:\n        /* \"#utility.yul\":4262:4264   */\n      0x40\n        /* \"#utility.yul\":4257:4260   */\n      dup3\n        /* \"#utility.yul\":4253:4265   */\n      add\n        /* \"#utility.yul\":4246:4265   */\n      swap1\n      pop\n        /* \"#utility.yul\":3905:4271   */\n      swap2\n      swap1\n      pop\n      jump\t// out\n        /* \"#utility.yul\":4277:4643   */\n    tag_273:\n        /* \"#utility.yul\":4419:4422   */\n      0x00\n        /* \"#utility.yul\":4440:4507   */\n      tag_275\n        /* \"#utility.yul\":4504:4506   */\n      0x26\n        /* \"#utility.yul\":4499:4502   */\n      dup4\n        /* \"#utility.yul\":4440:4507   */\n      tag_253\n      jump\t// in\n    tag_275:\n        /* \"#utility.yul\":4433:4507   */\n      swap2\n      pop\n        /* \"#utility.yul\":4516:4609   */\n      tag_276\n        /* \"#utility.yul\":4605:4608   */\n      dup3\n        /* \"#utility.yul\":4516:4609   */\n      tag_277\n      jump\t// in\n    tag_276:\n        /* \"#utility.yul\":4634:4636   */\n      0x40\n        /* \"#utility.yul\":4629:4632   */\n      dup3\n        /* \"#utility.yul\":4625:4637   */\n      add\n        /* \"#utility.yul\":4618:4637   */\n      swap1\n      pop\n        /* \"#utility.yul\":4277:4643   */\n      swap2\n      swap1\n      pop\n      jump\t// out\n        /* \"#utility.yul\":4649:5015   */\n    tag_278:\n        /* \"#utility.yul\":4791:4794   */\n      0x00\n        /* \"#utility.yul\":4812:4879   */\n      tag_280\n        /* \"#utility.yul\":4876:4878   */\n      0x28\n        /* \"#utility.yul\":4871:4874   */\n      dup4\n        /* \"#utility.yul\":4812:4879   */\n      tag_253\n      jump\t// in\n    tag_280:\n        /* \"#utility.yul\":4805:4879   */\n      swap2\n      pop\n        /* \"#utility.yul\":4888:4981   */\n      tag_281\n        /* \"#utility.yul\":4977:4980   */\n      dup3\n        /* \"#utility.yul\":4888:4981   */\n      tag_282\n      jump\t// in\n    tag_281:\n        /* \"#utility.yul\":5006:5008   */\n      0x40\n        /* \"#utility.yul\":5001:5004   */\n      dup3\n        /* \"#utility.yul\":4997:5009   */\n      add\n        /* \"#utility.yul\":4990:5009   */\n      swap1\n      pop\n        /* \"#utility.yul\":4649:5015   */\n      swap2\n      swap1\n      pop\n      jump\t// out\n        /* \"#utility.yul\":5021:5387   */\n    tag_283:\n        /* \"#utility.yul\":5163:5166   */\n      0x00\n        /* \"#utility.yul\":5184:5251   */\n      tag_285\n        /* \"#utility.yul\":5248:5250   */\n      0x20\n        /* \"#utility.yul\":5243:5246   */\n      dup4\n        /* \"#utility.yul\":5184:5251   */\n      tag_253\n      jump\t// in\n    tag_285:\n        /* \"#utility.yul\":5177:5251   */\n      swap2\n      pop\n        /* \"#utility.yul\":5260:5353   */\n      tag_286\n        /* \"#utility.yul\":5349:5352   */\n      dup3\n        /* \"#utility.yul\":5260:5353   */\n      tag_287\n      jump\t// in\n    tag_286:\n        /* \"#utility.yul\":5378:5380   */\n      0x20\n        /* \"#utility.yul\":5373:5376   */\n      dup3\n        /* \"#utility.yul\":5369:5381   */\n      add\n        /* \"#utility.yul\":5362:5381   */\n      swap1\n      pop\n        /* \"#utility.yul\":5021:5387   */\n      swap2\n      swap1\n      pop\n      jump\t// out\n        /* \"#utility.yul\":5393:5759   */\n    tag_288:\n        /* \"#utility.yul\":5535:5538   */\n      0x00\n        /* \"#utility.yul\":5556:5623   */\n      tag_290\n        /* \"#utility.yul\":5620:5622   */\n      0x25\n        /* \"#utility.yul\":5615:5618   */\n      dup4\n        /* \"#utility.yul\":5556:5623   */\n      tag_253\n      jump\t// in\n    tag_290:\n        /* \"#utility.yul\":5549:5623   */\n      swap2\n      pop\n        /* \"#utility.yul\":5632:5725   */\n      tag_291\n        /* \"#utility.yul\":5721:5724   */\n      dup3\n        /* \"#utility.yul\":5632:5725   */\n      tag_292\n      jump\t// in\n    tag_291:\n        /* \"#utility.yul\":5750:5752   */\n      0x40\n        /* \"#utility.yul\":5745:5748   */\n      dup3\n        /* \"#utility.yul\":5741:5753   */\n      add\n        /* \"#utility.yul\":5734:5753   */\n      swap1\n      pop\n        /* \"#utility.yul\":5393:5759   */\n      swap2\n      swap1\n      pop\n      jump\t// out\n        /* \"#utility.yul\":5765:6131   */\n    tag_293:\n        /* \"#utility.yul\":5907:5910   */\n      0x00\n        /* \"#utility.yul\":5928:5995   */\n      tag_295\n        /* \"#utility.yul\":5992:5994   */\n      0x24\n        /* \"#utility.yul\":5987:5990   */\n      dup4\n        /* \"#utility.yul\":5928:5995   */\n      tag_253\n      jump\t// in\n    tag_295:\n        /* \"#utility.yul\":5921:5995   */\n      swap2\n      pop\n        /* \"#utility.yul\":6004:6097   */\n      tag_296\n        /* \"#utility.yul\":6093:6096   */\n      dup3\n        /* \"#utility.yul\":6004:6097   */\n      tag_297\n      jump\t// in\n    tag_296:\n        /* \"#utility.yul\":6122:6124   */\n      0x40\n        /* \"#utility.yul\":6117:6120   */\n      dup3\n        /* \"#utility.yul\":6113:6125   */\n      add\n        /* \"#utility.yul\":6106:6125   */\n      swap1\n      pop\n        /* \"#utility.yul\":5765:6131   */\n      swap2\n      swap1\n      pop\n      jump\t// out\n        /* \"#utility.yul\":6137:6503   */\n    tag_298:\n        /* \"#utility.yul\":6279:6282   */\n      0x00\n        /* \"#utility.yul\":6300:6367   */\n      tag_300\n        /* \"#utility.yul\":6364:6366   */\n      0x25\n        /* \"#utility.yul\":6359:6362   */\n      dup4\n        /* \"#utility.yul\":6300:6367   */\n      tag_253\n      jump\t// in\n    tag_300:\n        /* \"#utility.yul\":6293:6367   */\n      swap2\n      pop\n        /* \"#utility.yul\":6376:6469   */\n      tag_301\n        /* \"#utility.yul\":6465:6468   */\n      dup3\n        /* \"#utility.yul\":6376:6469   */\n      tag_302\n      jump\t// in\n    tag_301:\n        /* \"#utility.yul\":6494:6496   */\n      0x40\n        /* \"#utility.yul\":6489:6492   */\n      dup3\n        /* \"#utility.yul\":6485:6497   */\n      add\n        /* \"#utility.yul\":6478:6497   */\n      swap1\n      pop\n        /* \"#utility.yul\":6137:6503   */\n      swap2\n      swap1\n      pop\n      jump\t// out\n        /* \"#utility.yul\":6509:6875   */\n    tag_303:\n        /* \"#utility.yul\":6651:6654   */\n      0x00\n        /* \"#utility.yul\":6672:6739   */\n      tag_305\n        /* \"#utility.yul\":6736:6738   */\n      0x1f\n        /* \"#utility.yul\":6731:6734   */\n      dup4\n        /* \"#utility.yul\":6672:6739   */\n      tag_253\n      jump\t// in\n    tag_305:\n        /* \"#utility.yul\":6665:6739   */\n      swap2\n      pop\n        /* \"#utility.yul\":6748:6841   */\n      tag_306\n        /* \"#utility.yul\":6837:6840   */\n      dup3\n        /* \"#utility.yul\":6748:6841   */\n      tag_307\n      jump\t// in\n    tag_306:\n        /* \"#utility.yul\":6866:6868   */\n      0x20\n        /* \"#utility.yul\":6861:6864   */\n      dup3\n        /* \"#utility.yul\":6857:6869   */\n      add\n        /* \"#utility.yul\":6850:6869   */\n      swap1\n      pop\n        /* \"#utility.yul\":6509:6875   */\n      swap2\n      swap1\n      pop\n      jump\t// out\n        /* \"#utility.yul\":6881:6999   */\n    tag_308:\n        /* \"#utility.yul\":6968:6992   */\n      tag_310\n        /* \"#utility.yul\":6986:6991   */\n      dup2\n        /* \"#utility.yul\":6968:6992   */\n      tag_311\n      jump\t// in\n    tag_310:\n        /* \"#utility.yul\":6963:6966   */\n      dup3\n        /* \"#utility.yul\":6956:6993   */\n      mstore\n        /* \"#utility.yul\":6881:6999   */\n      pop\n      pop\n      jump\t// out\n        /* \"#utility.yul\":7005:7117   */\n    tag_312:\n        /* \"#utility.yul\":7088:7110   */\n      tag_314\n        /* \"#utility.yul\":7104:7109   */\n      dup2\n        /* \"#utility.yul\":7088:7110   */\n      tag_315\n      jump\t// in\n    tag_314:\n        /* \"#utility.yul\":7083:7086   */\n      dup3\n        /* \"#utility.yul\":7076:7111   */\n      mstore\n        /* \"#utility.yul\":7005:7117   */\n      pop\n      pop\n      jump\t// out\n        /* \"#utility.yul\":7123:7345   */\n    tag_62:\n        /* \"#utility.yul\":7216:7220   */\n      0x00\n        /* \"#utility.yul\":7254:7256   */\n      0x20\n        /* \"#utility.yul\":7243:7252   */\n      dup3\n        /* \"#utility.yul\":7239:7257   */\n      add\n        /* \"#utility.yul\":7231:7257   */\n      swap1\n      pop\n        /* \"#utility.yul\":7267:7338   */\n      tag_317\n        /* \"#utility.yul\":7335:7336   */\n      0x00\n        /* \"#utility.yul\":7324:7333   */\n      dup4\n        /* \"#utility.yul\":7320:7337   */\n      add\n        /* \"#utility.yul\":7311:7317   */\n      dup5\n        /* \"#utility.yul\":7267:7338   */\n      tag_240\n      jump\t// in\n    tag_317:\n        /* \"#utility.yul\":7123:7345   */\n      swap3\n      swap2\n      pop\n      pop\n      jump\t// out\n        /* \"#utility.yul\":7351:7561   */\n    tag_35:\n        /* \"#utility.yul\":7438:7442   */\n      0x00\n        /* \"#utility.yul\":7476:7478   */\n      0x20\n        /* \"#utility.yul\":7465:7474   */\n      dup3\n        /* \"#utility.yul\":7461:7479   */\n      add\n        /* \"#utility.yul\":7453:7479   */\n      swap1\n      pop\n        /* \"#utility.yul\":7489:7554   */\n      tag_319\n        /* \"#utility.yul\":7551:7552   */\n      0x00\n        /* \"#utility.yul\":7540:7549   */\n      dup4\n        /* \"#utility.yul\":7536:7553   */\n      add\n        /* \"#utility.yul\":7527:7533   */\n      dup5\n        /* \"#utility.yul\":7489:7554   */\n      tag_244\n      jump\t// in\n    tag_319:\n        /* \"#utility.yul\":7351:7561   */\n      swap3\n      swap2\n      pop\n      pop\n      jump\t// out\n        /* \"#utility.yul\":7567:7880   */\n    tag_29:\n        /* \"#utility.yul\":7680:7684   */\n      0x00\n        /* \"#utility.yul\":7718:7720   */\n      0x20\n        /* \"#utility.yul\":7707:7716   */\n      dup3\n        /* \"#utility.yul\":7703:7721   */\n      add\n        /* \"#utility.yul\":7695:7721   */\n      swap1\n      pop\n        /* \"#utility.yul\":7767:7776   */\n      dup2\n        /* \"#utility.yul\":7761:7765   */\n      dup2\n        /* \"#utility.yul\":7757:7777   */\n      sub\n        /* \"#utility.yul\":7753:7754   */\n      0x00\n        /* \"#utility.yul\":7742:7751   */\n      dup4\n        /* \"#utility.yul\":7738:7755   */\n      add\n        /* \"#utility.yul\":7731:7778   */\n      mstore\n        /* \"#utility.yul\":7795:7873   */\n      tag_321\n        /* \"#utility.yul\":7868:7872   */\n      dup2\n        /* \"#utility.yul\":7859:7865   */\n      dup5\n        /* \"#utility.yul\":7795:7873   */\n      tag_248\n      jump\t// in\n    tag_321:\n        /* \"#utility.yul\":7787:7873   */\n      swap1\n      pop\n        /* \"#utility.yul\":7567:7880   */\n      swap3\n      swap2\n      pop\n      pop\n      jump\t// out\n        /* \"#utility.yul\":7886:8305   */\n    tag_176:\n        /* \"#utility.yul\":8052:8056   */\n      0x00\n        /* \"#utility.yul\":8090:8092   */\n      0x20\n        /* \"#utility.yul\":8079:8088   */\n      dup3\n        /* \"#utility.yul\":8075:8093   */\n      add\n        /* \"#utility.yul\":8067:8093   */\n      swap1\n      pop\n        /* \"#utility.yul\":8139:8148   */\n      dup2\n        /* \"#utility.yul\":8133:8137   */\n      dup2\n        /* \"#utility.yul\":8129:8149   */\n      sub\n        /* \"#utility.yul\":8125:8126   */\n      0x00\n        /* \"#utility.yul\":8114:8123   */\n      dup4\n        /* \"#utility.yul\":8110:8127   */\n      add\n        /* \"#utility.yul\":8103:8150   */\n      mstore\n        /* \"#utility.yul\":8167:8298   */\n      tag_323\n        /* \"#utility.yul\":8293:8297   */\n      dup2\n        /* \"#utility.yul\":8167:8298   */\n      tag_258\n      jump\t// in\n    tag_323:\n        /* \"#utility.yul\":8159:8298   */\n      swap1\n      pop\n        /* \"#utility.yul\":7886:8305   */\n      swap2\n      swap1\n      pop\n      jump\t// out\n        /* \"#utility.yul\":8311:8730   */\n    tag_167:\n        /* \"#utility.yul\":8477:8481   */\n      0x00\n        /* \"#utility.yul\":8515:8517   */\n      0x20\n        /* \"#utility.yul\":8504:8513   */\n      dup3\n        /* \"#utility.yul\":8500:8518   */\n      add\n        /* \"#utility.yul\":8492:8518   */\n      swap1\n      pop\n        /* \"#utility.yul\":8564:8573   */\n      dup2\n        /* \"#utility.yul\":8558:8562   */\n      dup2\n        /* \"#utility.yul\":8554:8574   */\n      sub\n        /* \"#utility.yul\":8550:8551   */\n      0x00\n        /* \"#utility.yul\":8539:8548   */\n      dup4\n        /* \"#utility.yul\":8535:8552   */\n      add\n        /* \"#utility.yul\":8528:8575   */\n      mstore\n        /* \"#utility.yul\":8592:8723   */\n      tag_325\n        /* \"#utility.yul\":8718:8722   */\n      dup2\n        /* \"#utility.yul\":8592:8723   */\n      tag_263\n      jump\t// in\n    tag_325:\n        /* \"#utility.yul\":8584:8723   */\n      swap1\n      pop\n        /* \"#utility.yul\":8311:8730   */\n      swap2\n      swap1\n      pop\n      jump\t// out\n        /* \"#utility.yul\":8736:9155   */\n    tag_192:\n        /* \"#utility.yul\":8902:8906   */\n      0x00\n        /* \"#utility.yul\":8940:8942   */\n      0x20\n        /* \"#utility.yul\":8929:8938   */\n      dup3\n        /* \"#utility.yul\":8925:8943   */\n      add\n        /* \"#utility.yul\":8917:8943   */\n      swap1\n      pop\n        /* \"#utility.yul\":8989:8998   */\n      dup2\n        /* \"#utility.yul\":8983:8987   */\n      dup2\n        /* \"#utility.yul\":8979:8999   */\n      sub\n        /* \"#utility.yul\":8975:8976   */\n      0x00\n        /* \"#utility.yul\":8964:8973   */\n      dup4\n        /* \"#utility.yul\":8960:8977   */\n      add\n        /* \"#utility.yul\":8953:9000   */\n      mstore\n        /* \"#utility.yul\":9017:9148   */\n      tag_327\n        /* \"#utility.yul\":9143:9147   */\n      dup2\n        /* \"#utility.yul\":9017:9148   */\n      tag_268\n      jump\t// in\n    tag_327:\n        /* \"#utility.yul\":9009:9148   */\n      swap1\n      pop\n        /* \"#utility.yul\":8736:9155   */\n      swap2\n      swap1\n      pop\n      jump\t// out\n        /* \"#utility.yul\":9161:9580   */\n    tag_181:\n        /* \"#utility.yul\":9327:9331   */\n      0x00\n        /* \"#utility.yul\":9365:9367   */\n      0x20\n        /* \"#utility.yul\":9354:9363   */\n      dup3\n        /* \"#utility.yul\":9350:9368   */\n      add\n        /* \"#utility.yul\":9342:9368   */\n      swap1\n      pop\n        /* \"#utility.yul\":9414:9423   */\n      dup2\n        /* \"#utility.yul\":9408:9412   */\n      dup2\n        /* \"#utility.yul\":9404:9424   */\n      sub\n        /* \"#utility.yul\":9400:9401   */\n      0x00\n        /* \"#utility.yul\":9389:9398   */\n      dup4\n        /* \"#utility.yul\":9385:9402   */\n      add\n        /* \"#utility.yul\":9378:9425   */\n      mstore\n        /* \"#utility.yul\":9442:9573   */\n      tag_329\n        /* \"#utility.yul\":9568:9572   */\n      dup2\n        /* \"#utility.yul\":9442:9573   */\n      tag_273\n      jump\t// in\n    tag_329:\n        /* \"#utility.yul\":9434:9573   */\n      swap1\n      pop\n        /* \"#utility.yul\":9161:9580   */\n      swap2\n      swap1\n      pop\n      jump\t// out\n        /* \"#utility.yul\":9586:10005   */\n    tag_113:\n        /* \"#utility.yul\":9752:9756   */\n      0x00\n        /* \"#utility.yul\":9790:9792   */\n      0x20\n        /* \"#utility.yul\":9779:9788   */\n      dup3\n        /* \"#utility.yul\":9775:9793   */\n      add\n        /* \"#utility.yul\":9767:9793   */\n      swap1\n      pop\n        /* \"#utility.yul\":9839:9848   */\n      dup2\n        /* \"#utility.yul\":9833:9837   */\n      dup2\n        /* \"#utility.yul\":9829:9849   */\n      sub\n        /* \"#utility.yul\":9825:9826   */\n      0x00\n        /* \"#utility.yul\":9814:9823   */\n      dup4\n        /* \"#utility.yul\":9810:9827   */\n      add\n        /* \"#utility.yul\":9803:9850   */\n      mstore\n        /* \"#utility.yul\":9867:9998   */\n      tag_331\n        /* \"#utility.yul\":9993:9997   */\n      dup2\n        /* \"#utility.yul\":9867:9998   */\n      tag_278\n      jump\t// in\n    tag_331:\n        /* \"#utility.yul\":9859:9998   */\n      swap1\n      pop\n        /* \"#utility.yul\":9586:10005   */\n      swap2\n      swap1\n      pop\n      jump\t// out\n        /* \"#utility.yul\":10011:10430   */\n    tag_92:\n        /* \"#utility.yul\":10177:10181   */\n      0x00\n        /* \"#utility.yul\":10215:10217   */\n      0x20\n        /* \"#utility.yul\":10204:10213   */\n      dup3\n        /* \"#utility.yul\":10200:10218   */\n      add\n        /* \"#utility.yul\":10192:10218   */\n      swap1\n      pop\n        /* \"#utility.yul\":10264:10273   */\n      dup2\n        /* \"#utility.yul\":10258:10262   */\n      dup2\n        /* \"#utility.yul\":10254:10274   */\n      sub\n        /* \"#utility.yul\":10250:10251   */\n      0x00\n        /* \"#utility.yul\":10239:10248   */\n      dup4\n        /* \"#utility.yul\":10235:10252   */\n      add\n        /* \"#utility.yul\":10228:10275   */\n      mstore\n        /* \"#utility.yul\":10292:10423   */\n      tag_333\n        /* \"#utility.yul\":10418:10422   */\n      dup2\n        /* \"#utility.yul\":10292:10423   */\n      tag_283\n      jump\t// in\n    tag_333:\n        /* \"#utility.yul\":10284:10423   */\n      swap1\n      pop\n        /* \"#utility.yul\":10011:10430   */\n      swap2\n      swap1\n      pop\n      jump\t// out\n        /* \"#utility.yul\":10436:10855   */\n    tag_173:\n        /* \"#utility.yul\":10602:10606   */\n      0x00\n        /* \"#utility.yul\":10640:10642   */\n      0x20\n        /* \"#utility.yul\":10629:10638   */\n      dup3\n        /* \"#utility.yul\":10625:10643   */\n      add\n        /* \"#utility.yul\":10617:10643   */\n      swap1\n      pop\n        /* \"#utility.yul\":10689:10698   */\n      dup2\n        /* \"#utility.yul\":10683:10687   */\n      dup2\n        /* \"#utility.yul\":10679:10699   */\n      sub\n        /* \"#utility.yul\":10675:10676   */\n      0x00\n        /* \"#utility.yul\":10664:10673   */\n      dup4\n        /* \"#utility.yul\":10660:10677   */\n      add\n        /* \"#utility.yul\":10653:10700   */\n      mstore\n        /* \"#utility.yul\":10717:10848   */\n      tag_335\n        /* \"#utility.yul\":10843:10847   */\n      dup2\n        /* \"#utility.yul\":10717:10848   */\n      tag_288\n      jump\t// in\n    tag_335:\n        /* \"#utility.yul\":10709:10848   */\n      swap1\n      pop\n        /* \"#utility.yul\":10436:10855   */\n      swap2\n      swap1\n      pop\n      jump\t// out\n        /* \"#utility.yul\":10861:11280   */\n    tag_189:\n        /* \"#utility.yul\":11027:11031   */\n      0x00\n        /* \"#utility.yul\":11065:11067   */\n      0x20\n        /* \"#utility.yul\":11054:11063   */\n      dup3\n        /* \"#utility.yul\":11050:11068   */\n      add\n        /* \"#utility.yul\":11042:11068   */\n      swap1\n      pop\n        /* \"#utility.yul\":11114:11123   */\n      dup2\n        /* \"#utility.yul\":11108:11112   */\n      dup2\n        /* \"#utility.yul\":11104:11124   */\n      sub\n        /* \"#utility.yul\":11100:11101   */\n      0x00\n        /* \"#utility.yul\":11089:11098   */\n      dup4\n        /* \"#utility.yul\":11085:11102   */\n      add\n        /* \"#utility.yul\":11078:11125   */\n      mstore\n        /* \"#utility.yul\":11142:11273   */\n      tag_337\n        /* \"#utility.yul\":11268:11272   */\n      dup2\n        /* \"#utility.yul\":11142:11273   */\n      tag_293\n      jump\t// in\n    tag_337:\n        /* \"#utility.yul\":11134:11273   */\n      swap1\n      pop\n        /* \"#utility.yul\":10861:11280   */\n      swap2\n      swap1\n      pop\n      jump\t// out\n        /* \"#utility.yul\":11286:11705   */\n    tag_152:\n        /* \"#utility.yul\":11452:11456   */\n      0x00\n        /* \"#utility.yul\":11490:11492   */\n      0x20\n        /* \"#utility.yul\":11479:11488   */\n      dup3\n        /* \"#utility.yul\":11475:11493   */\n      add\n        /* \"#utility.yul\":11467:11493   */\n      swap1\n      pop\n        /* \"#utility.yul\":11539:11548   */\n      dup2\n        /* \"#utility.yul\":11533:11537   */\n      dup2\n        /* \"#utility.yul\":11529:11549   */\n      sub\n        /* \"#utility.yul\":11525:11526   */\n      0x00\n        /* \"#utility.yul\":11514:11523   */\n      dup4\n        /* \"#utility.yul\":11510:11527   */\n      add\n        /* \"#utility.yul\":11503:11550   */\n      mstore\n        /* \"#utility.yul\":11567:11698   */\n      tag_339\n        /* \"#utility.yul\":11693:11697   */\n      dup2\n        /* \"#utility.yul\":11567:11698   */\n      tag_298\n      jump\t// in\n    tag_339:\n        /* \"#utility.yul\":11559:11698   */\n      swap1\n      pop\n        /* \"#utility.yul\":11286:11705   */\n      swap2\n      swap1\n      pop\n      jump\t// out\n        /* \"#utility.yul\":11711:12130   */\n    tag_198:\n        /* \"#utility.yul\":11877:11881   */\n      0x00\n        /* \"#utility.yul\":11915:11917   */\n      0x20\n        /* \"#utility.yul\":11904:11913   */\n      dup3\n        /* \"#utility.yul\":11900:11918   */\n      add\n        /* \"#utility.yul\":11892:11918   */\n      swap1\n      pop\n        /* \"#utility.yul\":11964:11973   */\n      dup2\n        /* \"#utility.yul\":11958:11962   */\n      dup2\n        /* \"#utility.yul\":11954:11974   */\n      sub\n        /* \"#utility.yul\":11950:11951   */\n      0x00\n        /* \"#utility.yul\":11939:11948   */\n      dup4\n        /* \"#utility.yul\":11935:11952   */\n      add\n        /* \"#utility.yul\":11928:11975   */\n      mstore\n        /* \"#utility.yul\":11992:12123   */\n      tag_341\n        /* \"#utility.yul\":12118:12122   */\n      dup2\n        /* \"#utility.yul\":11992:12123   */\n      tag_303\n      jump\t// in\n    tag_341:\n        /* \"#utility.yul\":11984:12123   */\n      swap1\n      pop\n        /* \"#utility.yul\":11711:12130   */\n      swap2\n      swap1\n      pop\n      jump\t// out\n        /* \"#utility.yul\":12136:12358   */\n    tag_39:\n        /* \"#utility.yul\":12229:12233   */\n      0x00\n        /* \"#utility.yul\":12267:12269   */\n      0x20\n        /* \"#utility.yul\":12256:12265   */\n      dup3\n        /* \"#utility.yul\":12252:12270   */\n      add\n        /* \"#utility.yul\":12244:12270   */\n      swap1\n      pop\n        /* \"#utility.yul\":12280:12351   */\n      tag_343\n        /* \"#utility.yul\":12348:12349   */\n      0x00\n        /* \"#utility.yul\":12337:12346   */\n      dup4\n        /* \"#utility.yul\":12333:12350   */\n      add\n        /* \"#utility.yul\":12324:12330   */\n      dup5\n        /* \"#utility.yul\":12280:12351   */\n      tag_308\n      jump\t// in\n    tag_343:\n        /* \"#utility.yul\":12136:12358   */\n      swap3\n      swap2\n      pop\n      pop\n      jump\t// out\n        /* \"#utility.yul\":12364:12578   */\n    tag_47:\n        /* \"#utility.yul\":12453:12457   */\n      0x00\n        /* \"#utility.yul\":12491:12493   */\n      0x20\n        /* \"#utility.yul\":12480:12489   */\n      dup3\n        /* \"#utility.yul\":12476:12494   */\n      add\n        /* \"#utility.yul\":12468:12494   */\n      swap1\n      pop\n        /* \"#utility.yul\":12504:12571   */\n      tag_345\n        /* \"#utility.yul\":12568:12569   */\n      0x00\n        /* \"#utility.yul\":12557:12566   */\n      dup4\n        /* \"#utility.yul\":12553:12570   */\n      add\n        /* \"#utility.yul\":12544:12550   */\n      dup5\n        /* \"#utility.yul\":12504:12571   */\n      tag_312\n      jump\t// in\n    tag_345:\n        /* \"#utility.yul\":12364:12578   */\n      swap3\n      swap2\n      pop\n      pop\n      jump\t// out\n        /* \"#utility.yul\":12665:12764   */\n    tag_251:\n        /* \"#utility.yul\":12717:12723   */\n      0x00\n        /* \"#utility.yul\":12751:12756   */\n      dup2\n        /* \"#utility.yul\":12745:12757   */\n      mload\n        /* \"#utility.yul\":12735:12757   */\n      swap1\n      pop\n        /* \"#utility.yul\":12665:12764   */\n      swap2\n      swap1\n      pop\n      jump\t// out\n        /* \"#utility.yul\":12770:12939   */\n    tag_253:\n        /* \"#utility.yul\":12854:12865   */\n      0x00\n        /* \"#utility.yul\":12888:12894   */\n      dup3\n        /* \"#utility.yul\":12883:12886   */\n      dup3\n        /* \"#utility.yul\":12876:12895   */\n      mstore\n        /* \"#utility.yul\":12928:12932   */\n      0x20\n        /* \"#utility.yul\":12923:12926   */\n      dup3\n        /* \"#utility.yul\":12919:12933   */\n      add\n        /* \"#utility.yul\":12904:12933   */\n      swap1\n      pop\n        /* \"#utility.yul\":12770:12939   */\n      swap3\n      swap2\n      pop\n      pop\n      jump\t// out\n        /* \"#utility.yul\":12945:13250   */\n    tag_122:\n        /* \"#utility.yul\":12985:12988   */\n      0x00\n        /* \"#utility.yul\":13004:13024   */\n      tag_351\n        /* \"#utility.yul\":13022:13023   */\n      dup3\n        /* \"#utility.yul\":13004:13024   */\n      tag_311\n      jump\t// in\n    tag_351:\n        /* \"#utility.yul\":12999:13024   */\n      swap2\n      pop\n        /* \"#utility.yul\":13038:13058   */\n      tag_352\n        /* \"#utility.yul\":13056:13057   */\n      dup4\n        /* \"#utility.yul\":13038:13058   */\n      tag_311\n      jump\t// in\n    tag_352:\n        /* \"#utility.yul\":13033:13058   */\n      swap3\n      pop\n        /* \"#utility.yul\":13192:13193   */\n      dup3\n        /* \"#utility.yul\":13124:13190   */\n      0xffffffffffffffffffffffffffffffffffffffffffffffffffffffffffffffff\n        /* \"#utility.yul\":13120:13194   */\n      sub\n        /* \"#utility.yul\":13117:13118   */\n      dup3\n        /* \"#utility.yul\":13114:13195   */\n      gt\n        /* \"#utility.yul\":13111:13218   */\n      iszero\n      tag_353\n      jumpi\n        /* \"#utility.yul\":13198:13216   */\n      tag_354\n      tag_355\n      jump\t// in\n    tag_354:\n        /* \"#utility.yul\":13111:13218   */\n    tag_353:\n        /* \"#utility.yul\":13242:13243   */\n      dup3\n        /* \"#utility.yul\":13239:13240   */\n      dup3\n        /* \"#utility.yul\":13235:13244   */\n      add\n        /* \"#utility.yul\":13228:13244   */\n      swap1\n      pop\n        /* \"#utility.yul\":12945:13250   */\n      swap3\n      swap2\n      pop\n      pop\n      jump\t// out\n        /* \"#utility.yul\":13256:13352   */\n    tag_243:\n        /* \"#utility.yul\":13293:13300   */\n      0x00\n        /* \"#utility.yul\":13322:13346   */\n      tag_357\n        /* \"#utility.yul\":13340:13345   */\n      dup3\n        /* \"#utility.yul\":13322:13346   */\n      tag_358\n      jump\t// in\n    tag_357:\n        /* \"#utility.yul\":13311:13346   */\n      swap1\n      pop\n        /* \"#utility.yul\":13256:13352   */\n      swap2\n      swap1\n      pop\n      jump\t// out\n        /* \"#utility.yul\":13358:13448   */\n    tag_247:\n        /* \"#utility.yul\":13392:13399   */\n      0x00\n        /* \"#utility.yul\":13435:13440   */\n      dup2\n        /* \"#utility.yul\":13428:13441   */\n      iszero\n        /* \"#utility.yul\":13421:13442   */\n      iszero\n        /* \"#utility.yul\":13410:13442   */\n      swap1\n      pop\n        /* \"#utility.yul\":13358:13448   */\n      swap2\n      swap1\n      pop\n      jump\t// out\n        /* \"#utility.yul\":13454:13580   */\n    tag_358:\n        /* \"#utility.yul\":13491:13498   */\n      0x00\n        /* \"#utility.yul\":13531:13573   */\n      0xffffffffffffffffffffffffffffffffffffffff\n        /* \"#utility.yul\":13524:13529   */\n      dup3\n        /* \"#utility.yul\":13520:13574   */\n      and\n        /* \"#utility.yul\":13509:13574   */\n      swap1\n      pop\n        /* \"#utility.yul\":13454:13580   */\n      swap2\n      swap1\n      pop\n      jump\t// out\n        /* \"#utility.yul\":13586:13663   */\n    tag_311:\n        /* \"#utility.yul\":13623:13630   */\n      0x00\n        /* \"#utility.yul\":13652:13657   */\n      dup2\n        /* \"#utility.yul\":13641:13657   */\n      swap1\n      pop\n        /* \"#utility.yul\":13586:13663   */\n      swap2\n      swap1\n      pop\n      jump\t// out\n        /* \"#utility.yul\":13669:13755   */\n    tag_315:\n        /* \"#utility.yul\":13704:13711   */\n      0x00\n        /* \"#utility.yul\":13744:13748   */\n      0xff\n        /* \"#utility.yul\":13737:13742   */\n      dup3\n        /* \"#utility.yul\":13733:13749   */\n      and\n        /* \"#utility.yul\":13722:13749   */\n      swap1\n      pop\n        /* \"#utility.yul\":13669:13755   */\n      swap2\n      swap1\n      pop\n      jump\t// out\n        /* \"#utility.yul\":13761:14068   */\n    tag_255:\n        /* \"#utility.yul\":13829:13830   */\n      0x00\n        /* \"#utility.yul\":13839:13952   */\n    tag_364:\n        /* \"#utility.yul\":13853:13859   */\n      dup4\n        /* \"#utility.yul\":13850:13851   */\n      dup2\n        /* \"#utility.yul\":13847:13860   */\n      lt\n        /* \"#utility.yul\":13839:13952   */\n      iszero\n      tag_366\n      jumpi\n        /* \"#utility.yul\":13938:13939   */\n      dup1\n        /* \"#utility.yul\":13933:13936   */\n      dup3\n        /* \"#utility.yul\":13929:13940   */\n      add\n        /* \"#utility.yul\":13923:13941   */\n      mload\n        /* \"#utility.yul\":13919:13920   */\n      dup2\n        /* \"#utility.yul\":13914:13917   */\n      dup5\n        /* \"#utility.yul\":13910:13921   */\n      add\n        /* \"#utility.yul\":13903:13942   */\n      mstore\n        /* \"#utility.yul\":13875:13877   */\n      0x20\n        /* \"#utility.yul\":13872:13873   */\n      dup2\n        /* \"#utility.yul\":13868:13878   */\n      add\n        /* \"#utility.yul\":13863:13878   */\n      swap1\n      pop\n        /* \"#utility.yul\":13839:13952   */\n      jump(tag_364)\n    tag_366:\n        /* \"#utility.yul\":13970:13976   */\n      dup4\n        /* \"#utility.yul\":13967:13968   */\n      dup2\n        /* \"#utility.yul\":13964:13977   */\n      gt\n        /* \"#utility.yul\":13961:14062   */\n      iszero\n      tag_367\n      jumpi\n        /* \"#utility.yul\":14050:14051   */\n      0x00\n        /* \"#utility.yul\":14041:14047   */\n      dup5\n        /* \"#utility.yul\":14036:14039   */\n      dup5\n        /* \"#utility.yul\":14032:14048   */\n      add\n        /* \"#utility.yul\":14025:14052   */\n      mstore\n        /* \"#utility.yul\":13961:14062   */\n    tag_367:\n        /* \"#utility.yul\":13810:14068   */\n      pop\n        /* \"#utility.yul\":13761:14068   */\n      pop\n      pop\n      pop\n      jump\t// out\n        /* \"#utility.yul\":14074:14394   */\n    tag_98:\n        /* \"#utility.yul\":14118:14124   */\n      0x00\n        /* \"#utility.yul\":14155:14156   */\n      0x02\n        /* \"#utility.yul\":14149:14153   */\n      dup3\n        /* \"#utility.yul\":14145:14157   */\n      div\n        /* \"#utility.yul\":14135:14157   */\n      swap1\n      pop\n        /* \"#utility.yul\":14202:14203   */\n      0x01\n        /* \"#utility.yul\":14196:14200   */\n      dup3\n        /* \"#utility.yul\":14192:14204   */\n      and\n        /* \"#utility.yul\":14223:14241   */\n      dup1\n        /* \"#utility.yul\":14213:14294   */\n      tag_369\n      jumpi\n        /* \"#utility.yul\":14279:14283   */\n      0x7f\n        /* \"#utility.yul\":14271:14277   */\n      dup3\n        /* \"#utility.yul\":14267:14284   */\n      and\n        /* \"#utility.yul\":14257:14284   */\n      swap2\n      pop\n        /* \"#utility.yul\":14213:14294   */\n    tag_369:\n        /* \"#utility.yul\":14341:14343   */\n      0x20\n        /* \"#utility.yul\":14333:14339   */\n      dup3\n        /* \"#utility.yul\":14330:14344   */\n      lt\n        /* \"#utility.yul\":14310:14328   */\n      dup2\n        /* \"#utility.yul\":14307:14345   */\n      eq\n        /* \"#utility.yul\":14304:14388   */\n      iszero\n      tag_370\n      jumpi\n        /* \"#utility.yul\":14360:14378   */\n      tag_371\n      tag_372\n      jump\t// in\n    tag_371:\n        /* \"#utility.yul\":14304:14388   */\n    tag_370:\n        /* \"#utility.yul\":14125:14394   */\n      pop\n        /* \"#utility.yul\":14074:14394   */\n      swap2\n      swap1\n      pop\n      jump\t// out\n        /* \"#utility.yul\":14400:14580   */\n    tag_355:\n        /* \"#utility.yul\":14448:14525   */\n      0x4e487b7100000000000000000000000000000000000000000000000000000000\n        /* \"#utility.yul\":14445:14446   */\n      0x00\n        /* \"#utility.yul\":14438:14526   */\n      mstore\n        /* \"#utility.yul\":14545:14549   */\n      0x11\n        /* \"#utility.yul\":14542:14543   */\n      0x04\n        /* \"#utility.yul\":14535:14550   */\n      mstore\n        /* \"#utility.yul\":14569:14573   */\n      0x24\n        /* \"#utility.yul\":14566:14567   */\n      0x00\n        /* \"#utility.yul\":14559:14574   */\n      revert\n        /* \"#utility.yul\":14586:14766   */\n    tag_372:\n        /* \"#utility.yul\":14634:14711   */\n      0x4e487b7100000000000000000000000000000000000000000000000000000000\n        /* \"#utility.yul\":14631:14632   */\n      0x00\n        /* \"#utility.yul\":14624:14712   */\n      mstore\n        /* \"#utility.yul\":14731:14735   */\n      0x22\n        /* \"#utility.yul\":14728:14729   */\n      0x04\n        /* \"#utility.yul\":14721:14736   */\n      mstore\n        /* \"#utility.yul\":14755:14759   */\n      0x24\n        /* \"#utility.yul\":14752:14753   */\n      0x00\n        /* \"#utility.yul\":14745:14760   */\n      revert\n        /* \"#utility.yul\":14895:15012   */\n    tag_218:\n        /* \"#utility.yul\":15004:15005   */\n      0x00\n        /* \"#utility.yul\":15001:15002   */\n      dup1\n        /* \"#utility.yul\":14994:15006   */\n      revert\n        /* \"#utility.yul\":15018:15120   */\n    tag_257:\n        /* \"#utility.yul\":15059:15065   */\n      0x00\n        /* \"#utility.yul\":15110:15112   */\n      0x1f\n        /* \"#utility.yul\":15106:15113   */\n      not\n        /* \"#utility.yul\":15101:15103   */\n      0x1f\n        /* \"#utility.yul\":15094:15099   */\n      dup4\n        /* \"#utility.yul\":15090:15104   */\n      add\n        /* \"#utility.yul\":15086:15114   */\n      and\n        /* \"#utility.yul\":15076:15114   */\n      swap1\n      pop\n        /* \"#utility.yul\":15018:15120   */\n      swap2\n      swap1\n      pop\n      jump\t// out\n        /* \"#utility.yul\":15126:15348   */\n    tag_262:\n        /* \"#utility.yul\":15266:15300   */\n      0x45524332303a207472616e7366657220746f20746865207a65726f2061646472\n        /* \"#utility.yul\":15262:15263   */\n      0x00\n        /* \"#utility.yul\":15254:15260   */\n      dup3\n        /* \"#utility.yul\":15250:15264   */\n      add\n        /* \"#utility.yul\":15243:15301   */\n      mstore\n        /* \"#utility.yul\":15335:15340   */\n      0x6573730000000000000000000000000000000000000000000000000000000000\n        /* \"#utility.yul\":15330:15332   */\n      0x20\n        /* \"#utility.yul\":15322:15328   */\n      dup3\n        /* \"#utility.yul\":15318:15333   */\n      add\n        /* \"#utility.yul\":15311:15341   */\n      mstore\n        /* \"#utility.yul\":15126:15348   */\n      pop\n      jump\t// out\n        /* \"#utility.yul\":15354:15579   */\n    tag_267:\n        /* \"#utility.yul\":15494:15528   */\n      0x4f776e61626c653a206e6577206f776e657220697320746865207a65726f2061\n        /* \"#utility.yul\":15490:15491   */\n      0x00\n        /* \"#utility.yul\":15482:15488   */\n      dup3\n        /* \"#utility.yul\":15478:15492   */\n      add\n        /* \"#utility.yul\":15471:15529   */\n      mstore\n        /* \"#utility.yul\":15563:15571   */\n      0x6464726573730000000000000000000000000000000000000000000000000000\n        /* \"#utility.yul\":15558:15560   */\n      0x20\n        /* \"#utility.yul\":15550:15556   */\n      dup3\n        /* \"#utility.yul\":15546:15561   */\n      add\n        /* \"#utility.yul\":15539:15572   */\n      mstore\n        /* \"#utility.yul\":15354:15579   */\n      pop\n      jump\t// out\n        /* \"#utility.yul\":15585:15806   */\n    tag_272:\n        /* \"#utility.yul\":15725:15759   */\n      0x45524332303a20617070726f766520746f20746865207a65726f206164647265\n        /* \"#utility.yul\":15721:15722   */\n      0x00\n        /* \"#utility.yul\":15713:15719   */\n      dup3\n        /* \"#utility.yul\":15709:15723   */\n      add\n        /* \"#utility.yul\":15702:15760   */\n      mstore\n        /* \"#utility.yul\":15794:15798   */\n      0x7373000000000000000000000000000000000000000000000000000000000000\n        /* \"#utility.yul\":15789:15791   */\n      0x20\n        /* \"#utility.yul\":15781:15787   */\n      dup3\n        /* \"#utility.yul\":15777:15792   */\n      add\n        /* \"#utility.yul\":15770:15799   */\n      mstore\n        /* \"#utility.yul\":15585:15806   */\n      pop\n      jump\t// out\n        /* \"#utility.yul\":15812:16037   */\n    tag_277:\n        /* \"#utility.yul\":15952:15986   */\n      0x45524332303a207472616e7366657220616d6f756e7420657863656564732062\n        /* \"#utility.yul\":15948:15949   */\n      0x00\n        /* \"#utility.yul\":15940:15946   */\n      dup3\n        /* \"#utility.yul\":15936:15950   */\n      add\n        /* \"#utility.yul\":15929:15987   */\n      mstore\n        /* \"#utility.yul\":16021:16029   */\n      0x616c616e63650000000000000000000000000000000000000000000000000000\n        /* \"#utility.yul\":16016:16018   */\n      0x20\n        /* \"#utility.yul\":16008:16014   */\n      dup3\n        /* \"#utility.yul\":16004:16019   */\n      add\n        /* \"#utility.yul\":15997:16030   */\n      mstore\n        /* \"#utility.yul\":15812:16037   */\n      pop\n      jump\t// out\n        /* \"#utility.yul\":16043:16270   */\n    tag_282:\n        /* \"#utility.yul\":16183:16217   */\n      0x45524332303a207472616e7366657220616d6f756e7420657863656564732061\n        /* \"#utility.yul\":16179:16180   */\n      0x00\n        /* \"#utility.yul\":16171:16177   */\n      dup3\n        /* \"#utility.yul\":16167:16181   */\n      add\n        /* \"#utility.yul\":16160:16218   */\n      mstore\n        /* \"#utility.yul\":16252:16262   */\n      0x6c6c6f77616e6365000000000000000000000000000000000000000000000000\n        /* \"#utility.yul\":16247:16249   */\n      0x20\n        /* \"#utility.yul\":16239:16245   */\n      dup3\n        /* \"#utility.yul\":16235:16250   */\n      add\n        /* \"#utility.yul\":16228:16263   */\n      mstore\n        /* \"#utility.yul\":16043:16270   */\n      pop\n      jump\t// out\n        /* \"#utility.yul\":16276:16458   */\n    tag_287:\n        /* \"#utility.yul\":16416:16450   */\n      0x4f776e61626c653a2063616c6c6572206973206e6f7420746865206f776e6572\n        /* \"#utility.yul\":16412:16413   */\n      0x00\n        /* \"#utility.yul\":16404:16410   */\n      dup3\n        /* \"#utility.yul\":16400:16414   */\n      add\n        /* \"#utility.yul\":16393:16451   */\n      mstore\n        /* \"#utility.yul\":16276:16458   */\n      pop\n      jump\t// out\n        /* \"#utility.yul\":16464:16688   */\n    tag_292:\n        /* \"#utility.yul\":16604:16638   */\n      0x45524332303a207472616e736665722066726f6d20746865207a65726f206164\n        /* \"#utility.yul\":16600:16601   */\n      0x00\n        /* \"#utility.yul\":16592:16598   */\n      dup3\n        /* \"#utility.yul\":16588:16602   */\n      add\n        /* \"#utility.yul\":16581:16639   */\n      mstore\n        /* \"#utility.yul\":16673:16680   */\n      0x6472657373000000000000000000000000000000000000000000000000000000\n        /* \"#utility.yul\":16668:16670   */\n      0x20\n        /* \"#utility.yul\":16660:16666   */\n      dup3\n        /* \"#utility.yul\":16656:16671   */\n      add\n        /* \"#utility.yul\":16649:16681   */\n      mstore\n        /* \"#utility.yul\":16464:16688   */\n      pop\n      jump\t// out\n        /* \"#utility.yul\":16694:16917   */\n    tag_297:\n        /* \"#utility.yul\":16834:16868   */\n      0x45524332303a20617070726f76652066726f6d20746865207a65726f20616464\n        /* \"#utility.yul\":16830:16831   */\n      0x00\n        /* \"#utility.yul\":16822:16828   */\n      dup3\n        /* \"#utility.yul\":16818:16832   */\n      add\n        /* \"#utility.yul\":16811:16869   */\n      mstore\n        /* \"#utility.yul\":16903:16909   */\n      0x7265737300000000000000000000000000000000000000000000000000000000\n        /* \"#utility.yul\":16898:16900   */\n      0x20\n        /* \"#utility.yul\":16890:16896   */\n      dup3\n        /* \"#utility.yul\":16886:16901   */\n      add\n        /* \"#utility.yul\":16879:16910   */\n      mstore\n        /* \"#utility.yul\":16694:16917   */\n      pop\n      jump\t// out\n        /* \"#utility.yul\":16923:17147   */\n    tag_302:\n        /* \"#utility.yul\":17063:17097   */\n      0x45524332303a2064656372656173656420616c6c6f77616e63652062656c6f77\n        /* \"#utility.yul\":17059:17060   */\n      0x00\n        /* \"#utility.yul\":17051:17057   */\n      dup3\n        /* \"#utility.yul\":17047:17061   */\n      add\n        /* \"#utility.yul\":17040:17098   */\n      mstore\n        /* \"#utility.yul\":17132:17139   */\n      0x207a65726f000000000000000000000000000000000000000000000000000000\n        /* \"#utility.yul\":17127:17129   */\n      0x20\n        /* \"#utility.yul\":17119:17125   */\n      dup3\n        /* \"#utility.yul\":17115:17130   */\n      add\n        /* \"#utility.yul\":17108:17140   */\n      mstore\n        /* \"#utility.yul\":16923:17147   */\n      pop\n      jump\t// out\n        /* \"#utility.yul\":17153:17334   */\n    tag_307:\n        /* \"#utility.yul\":17293:17326   */\n      0x45524332303a206d696e7420746f20746865207a65726f206164647265737300\n        /* \"#utility.yul\":17289:17290   */\n      0x00\n        /* \"#utility.yul\":17281:17287   */\n      dup3\n        /* \"#utility.yul\":17277:17291   */\n      add\n        /* \"#utility.yul\":17270:17327   */\n      mstore\n        /* \"#utility.yul\":17153:17334   */\n      pop\n      jump\t// out\n        /* \"#utility.yul\":17340:17462   */\n    tag_210:\n        /* \"#utility.yul\":17413:17437   */\n      tag_390\n        /* \"#utility.yul\":17431:17436   */\n      dup2\n        /* \"#utility.yul\":17413:17437   */\n      tag_243\n      jump\t// in\n    tag_390:\n        /* \"#utility.yul\":17406:17411   */\n      dup2\n        /* \"#utility.yul\":17403:17438   */\n      eq\n        /* \"#utility.yul\":17393:17456   */\n      tag_391\n      jumpi\n        /* \"#utility.yul\":17452:17453   */\n      0x00\n        /* \"#utility.yul\":17449:17450   */\n      dup1\n        /* \"#utility.yul\":17442:17454   */\n      revert\n        /* \"#utility.yul\":17393:17456   */\n    tag_391:\n        /* \"#utility.yul\":17340:17462   */\n      pop\n      jump\t// out\n        /* \"#utility.yul\":17468:17590   */\n    tag_214:\n        /* \"#utility.yul\":17541:17565   */\n      tag_393\n        /* \"#utility.yul\":17559:17564   */\n      dup2\n        /* \"#utility.yul\":17541:17565   */\n      tag_311\n      jump\t// in\n    tag_393:\n        /* \"#utility.yul\":17534:17539   */\n      dup2\n        /* \"#utility.yul\":17531:17566   */\n      eq\n        /* \"#utility.yul\":17521:17584   */\n      tag_394\n      jumpi\n        /* \"#utility.yul\":17580:17581   */\n      0x00\n        /* \"#utility.yul\":17577:17578   */\n      dup1\n        /* \"#utility.yul\":17570:17582   */\n      revert\n        /* \"#utility.yul\":17521:17584   */\n    tag_394:\n        /* \"#utility.yul\":17468:17590   */\n      pop\n      jump\t// out\n\n    auxdata: 0xa2646970667358221220a6e0482704db8347378b160e6fa7516d330b3fcd5bbc905e259c58bdd0f568fa64736f6c63430008070033\n}\n",
				"bytecode": {
					"linkReferences": {},
					"object": "60806040523480156200001157600080fd5b5060405162002053380380620020538339818101604052810190620000379190620002c6565b82828282600290805190602001906200005292919062000181565b5081600390805190602001906200006b92919062000181565b5080600460006101000a81548160ff021916908360ff160217905550505050620000aa6200009e620000b360201b60201c565b620000bb60201b60201c565b5050506200050b565b600033905090565b6000600660009054906101000a900473ffffffffffffffffffffffffffffffffffffffff16905081600660006101000a81548173ffffffffffffffffffffffffffffffffffffffff021916908373ffffffffffffffffffffffffffffffffffffffff1602179055508173ffffffffffffffffffffffffffffffffffffffff168173ffffffffffffffffffffffffffffffffffffffff167f8be0079c531659141344cd1fd0a4f28419497f9722a3daafe3b4186f6b6457e060405160405180910390a35050565b8280546200018f9062000402565b90600052602060002090601f016020900481019282620001b35760008555620001ff565b82601f10620001ce57805160ff1916838001178555620001ff565b82800160010185558215620001ff579182015b82811115620001fe578251825591602001919060010190620001e1565b5b5090506200020e919062000212565b5090565b5b808211156200022d57600081600090555060010162000213565b5090565b600062000248620002428462000389565b62000360565b905082815260208101848484011115620002675762000266620004d1565b5b62000274848285620003cc565b509392505050565b600082601f830112620002945762000293620004cc565b5b8151620002a684826020860162000231565b91505092915050565b600081519050620002c081620004f1565b92915050565b600080600060608486031215620002e257620002e1620004db565b5b600084015167ffffffffffffffff811115620003035762000302620004d6565b5b62000311868287016200027c565b935050602084015167ffffffffffffffff811115620003355762000334620004d6565b5b62000343868287016200027c565b92505060406200035686828701620002af565b9150509250925092565b60006200036c6200037f565b90506200037a828262000438565b919050565b6000604051905090565b600067ffffffffffffffff821115620003a757620003a66200049d565b5b620003b282620004e0565b9050602081019050919050565b600060ff82169050919050565b60005b83811015620003ec578082015181840152602081019050620003cf565b83811115620003fc576000848401525b50505050565b600060028204905060018216806200041b57607f821691505b602082108114156200043257620004316200046e565b5b50919050565b6200044382620004e0565b810181811067ffffffffffffffff821117156200046557620004646200049d565b5b80604052505050565b7f4e487b7100000000000000000000000000000000000000000000000000000000600052602260045260246000fd5b7f4e487b7100000000000000000000000000000000000000000000000000000000600052604160045260246000fd5b600080fd5b600080fd5b600080fd5b600080fd5b6000601f19601f8301169050919050565b620004fc81620003bf565b81146200050857600080fd5b50565b611b38806200051b6000396000f3fe608060405234801561001057600080fd5b50600436106101005760003560e01c8063715018a611610097578063a457c2d711610066578063a457c2d71461029d578063a9059cbb146102cd578063dd62ed3e146102fd578063f2fde38b1461032d57610100565b8063715018a61461023b5780638da5cb5b1461024557806395d89b4114610263578063a0712d681461028157610100565b806323b872dd116100d357806323b872dd1461018d578063313ce567146101bd57806339509351146101db57806370a082311461020b57610100565b806301062ade1461010557806306fdde0314610121578063095ea7b31461013f57806318160ddd1461016f575b600080fd5b61011f600480360381019061011a9190611209565b610349565b005b6101296103d5565b60405161013691906114d2565b60405180910390f35b6101596004803603810190610154919061125c565b610467565b60405161016691906114b7565b60405180910390f35b610177610485565b6040516101849190611634565b60405180910390f35b6101a760048036038101906101a29190611209565b61048f565b6040516101b491906114b7565b60405180910390f35b6101c5610587565b6040516101d2919061164f565b60405180910390f35b6101f560048036038101906101f0919061125c565b61059e565b60405161020291906114b7565b60405180910390f35b6102256004803603810190610220919061119c565b61064a565b6040516102329190611634565b60405180910390f35b610243610692565b005b61024d61071a565b60405161025a919061149c565b60405180910390f35b61026b610744565b60405161027891906114d2565b60405180910390f35b61029b6004803603810190610296919061129c565b6107d6565b005b6102b760048036038101906102b2919061125c565b610866565b6040516102c491906114b7565b60405180910390f35b6102e760048036038101906102e2919061125c565b610951565b6040516102f491906114b7565b60405180910390f35b610317600480360381019061031291906111c9565b61096f565b6040516103249190611634565b60405180910390f35b6103476004803603810190610342919061119c565b6109f6565b005b610351610aee565b73ffffffffffffffffffffffffffffffffffffffff1661036f61071a565b73ffffffffffffffffffffffffffffffffffffffff16146103c5576040517f08c379a00000000000000000000000000000000000000000000000000000000081526004016103bc90611594565b60405180910390fd5b6103d0838383610af6565b505050565b6060600280546103e490611764565b80601f016020809104026020016040519081016040528092919081815260200182805461041090611764565b801561045d5780601f106104325761010080835404028352916020019161045d565b820191906000526020600020905b81548152906001019060200180831161044057829003601f168201915b5050505050905090565b600061047b610474610aee565b8484610d77565b6001905092915050565b6000600554905090565b600061049c848484610af6565b6000600160008673ffffffffffffffffffffffffffffffffffffffff1673ffffffffffffffffffffffffffffffffffffffff16815260200190815260200160002060006104e7610aee565b73ffffffffffffffffffffffffffffffffffffffff1673ffffffffffffffffffffffffffffffffffffffff16815260200190815260200160002054905082811015610567576040517f08c379a000000000000000000000000000000000000000000000000000000000815260040161055e90611574565b60405180910390fd5b61057b85610573610aee565b858403610d77565b60019150509392505050565b6000600460009054906101000a900460ff16905090565b60006106406105ab610aee565b8484600160006105b9610aee565b73ffffffffffffffffffffffffffffffffffffffff1673ffffffffffffffffffffffffffffffffffffffff16815260200190815260200160002060008873ffffffffffffffffffffffffffffffffffffffff1673ffffffffffffffffffffffffffffffffffffffff1681526020019081526020016000205461063b9190611686565b610d77565b6001905092915050565b60008060008373ffffffffffffffffffffffffffffffffffffffff1673ffffffffffffffffffffffffffffffffffffffff168152602001908152602001600020549050919050565b61069a610aee565b73ffffffffffffffffffffffffffffffffffffffff166106b861071a565b73ffffffffffffffffffffffffffffffffffffffff161461070e576040517f08c379a000000000000000000000000000000000000000000000000000000000815260040161070590611594565b60405180910390fd5b6107186000610f42565b565b6000600660009054906101000a900473ffffffffffffffffffffffffffffffffffffffff16905090565b60606003805461075390611764565b80601f016020809104026020016040519081016040528092919081815260200182805461077f90611764565b80156107cc5780601f106107a1576101008083540402835291602001916107cc565b820191906000526020600020905b8154815290600101906020018083116107af57829003601f168201915b5050505050905090565b6107de610aee565b73ffffffffffffffffffffffffffffffffffffffff166107fc61071a565b73ffffffffffffffffffffffffffffffffffffffff1614610852576040517f08c379a000000000000000000000000000000000000000000000000000000000815260040161084990611594565b60405180910390fd5b61086361085d610aee565b82611008565b50565b60008060016000610875610aee565b73ffffffffffffffffffffffffffffffffffffffff1673ffffffffffffffffffffffffffffffffffffffff16815260200190815260200160002060008573ffffffffffffffffffffffffffffffffffffffff1673ffffffffffffffffffffffffffffffffffffffff16815260200190815260200160002054905082811015610932576040517f08c379a0000000000000000000000000000000000000000000000000000000008152600401610929906115f4565b60405180910390fd5b61094661093d610aee565b85858403610d77565b600191505092915050565b600061096561095e610aee565b8484610af6565b6001905092915050565b6000600160008473ffffffffffffffffffffffffffffffffffffffff1673ffffffffffffffffffffffffffffffffffffffff16815260200190815260200160002060008373ffffffffffffffffffffffffffffffffffffffff1673ffffffffffffffffffffffffffffffffffffffff16815260200190815260200160002054905092915050565b6109fe610aee565b73ffffffffffffffffffffffffffffffffffffffff16610a1c61071a565b73ffffffffffffffffffffffffffffffffffffffff1614610a72576040517f08c379a0000000000000000000000000000000000000000000000000000000008152600401610a6990611594565b60405180910390fd5b600073ffffffffffffffffffffffffffffffffffffffff168173ffffffffffffffffffffffffffffffffffffffff161415610ae2576040517f08c379a0000000000000000000000000000000000000000000000000000000008152600401610ad990611514565b60405180910390fd5b610aeb81610f42565b50565b600033905090565b600073ffffffffffffffffffffffffffffffffffffffff168373ffffffffffffffffffffffffffffffffffffffff161415610b66576040517f08c379a0000000000000000000000000000000000000000000000000000000008152600401610b5d906115b4565b60405180910390fd5b600073ffffffffffffffffffffffffffffffffffffffff168273ffffffffffffffffffffffffffffffffffffffff161415610bd6576040517f08c379a0000000000000000000000000000000000000000000000000000000008152600401610bcd906114f4565b60405180910390fd5b610be1838383611168565b60008060008573ffffffffffffffffffffffffffffffffffffffff1673ffffffffffffffffffffffffffffffffffffffff16815260200190815260200160002054905081811015610c67576040517f08c379a0000000000000000000000000000000000000000000000000000000008152600401610c5e90611554565b60405180910390fd5b8181036000808673ffffffffffffffffffffffffffffffffffffffff1673ffffffffffffffffffffffffffffffffffffffff16815260200190815260200160002081905550816000808573ffffffffffffffffffffffffffffffffffffffff1673ffffffffffffffffffffffffffffffffffffffff1681526020019081526020016000206000828254610cfa9190611686565b925050819055508273ffffffffffffffffffffffffffffffffffffffff168473ffffffffffffffffffffffffffffffffffffffff167fddf252ad1be2c89b69c2b068fc378daa952ba7f163c4a11628f55a4df523b3ef84604051610d5e9190611634565b60405180910390a3610d7184848461116d565b50505050565b600073ffffffffffffffffffffffffffffffffffffffff168373ffffffffffffffffffffffffffffffffffffffff161415610de7576040517f08c379a0000000000000000000000000000000000000000000000000000000008152600401610dde906115d4565b60405180910390fd5b600073ffffffffffffffffffffffffffffffffffffffff168273ffffffffffffffffffffffffffffffffffffffff161415610e57576040517f08c379a0000000000000000000000000000000000000000000000000000000008152600401610e4e90611534565b60405180910390fd5b80600160008573ffffffffffffffffffffffffffffffffffffffff1673ffffffffffffffffffffffffffffffffffffffff16815260200190815260200160002060008473ffffffffffffffffffffffffffffffffffffffff1673ffffffffffffffffffffffffffffffffffffffff168152602001908152602001600020819055508173ffffffffffffffffffffffffffffffffffffffff168373ffffffffffffffffffffffffffffffffffffffff167f8c5be1e5ebec7d5bd14f71427d1e84f3dd0314c0f7b2291e5b200ac8c7c3b92583604051610f359190611634565b60405180910390a3505050565b6000600660009054906101000a900473ffffffffffffffffffffffffffffffffffffffff16905081600660006101000a81548173ffffffffffffffffffffffffffffffffffffffff021916908373ffffffffffffffffffffffffffffffffffffffff1602179055508173ffffffffffffffffffffffffffffffffffffffff168173ffffffffffffffffffffffffffffffffffffffff167f8be0079c531659141344cd1fd0a4f28419497f9722a3daafe3b4186f6b6457e060405160405180910390a35050565b600073ffffffffffffffffffffffffffffffffffffffff168273ffffffffffffffffffffffffffffffffffffffff161415611078576040517f08c379a000000000000000000000000000000000000000000000000000000000815260040161106f90611614565b60405180910390fd5b61108460008383611168565b80600560008282546110969190611686565b92505081905550806000808473ffffffffffffffffffffffffffffffffffffffff1673ffffffffffffffffffffffffffffffffffffffff16815260200190815260200160002060008282546110eb9190611686565b925050819055508173ffffffffffffffffffffffffffffffffffffffff16600073ffffffffffffffffffffffffffffffffffffffff167fddf252ad1be2c89b69c2b068fc378daa952ba7f163c4a11628f55a4df523b3ef836040516111509190611634565b60405180910390a36111646000838361116d565b5050565b505050565b505050565b60008135905061118181611ad4565b92915050565b60008135905061119681611aeb565b92915050565b6000602082840312156111b2576111b16117f4565b5b60006111c084828501611172565b91505092915050565b600080604083850312156111e0576111df6117f4565b5b60006111ee85828601611172565b92505060206111ff85828601611172565b9150509250929050565b600080600060608486031215611222576112216117f4565b5b600061123086828701611172565b935050602061124186828701611172565b925050604061125286828701611187565b9150509250925092565b60008060408385031215611273576112726117f4565b5b600061128185828601611172565b925050602061129285828601611187565b9150509250929050565b6000602082840312156112b2576112b16117f4565b5b60006112c084828501611187565b91505092915050565b6112d2816116dc565b82525050565b6112e1816116ee565b82525050565b60006112f28261166a565b6112fc8185611675565b935061130c818560208601611731565b611315816117f9565b840191505092915050565b600061132d602383611675565b91506113388261180a565b604082019050919050565b6000611350602683611675565b915061135b82611859565b604082019050919050565b6000611373602283611675565b915061137e826118a8565b604082019050919050565b6000611396602683611675565b91506113a1826118f7565b604082019050919050565b60006113b9602883611675565b91506113c482611946565b604082019050919050565b60006113dc602083611675565b91506113e782611995565b602082019050919050565b60006113ff602583611675565b915061140a826119be565b604082019050919050565b6000611422602483611675565b915061142d82611a0d565b604082019050919050565b6000611445602583611675565b915061145082611a5c565b604082019050919050565b6000611468601f83611675565b915061147382611aab565b602082019050919050565b6114878161171a565b82525050565b61149681611724565b82525050565b60006020820190506114b160008301846112c9565b92915050565b60006020820190506114cc60008301846112d8565b92915050565b600060208201905081810360008301526114ec81846112e7565b905092915050565b6000602082019050818103600083015261150d81611320565b9050919050565b6000602082019050818103600083015261152d81611343565b9050919050565b6000602082019050818103600083015261154d81611366565b9050919050565b6000602082019050818103600083015261156d81611389565b9050919050565b6000602082019050818103600083015261158d816113ac565b9050919050565b600060208201905081810360008301526115ad816113cf565b9050919050565b600060208201905081810360008301526115cd816113f2565b9050919050565b600060208201905081810360008301526115ed81611415565b9050919050565b6000602082019050818103600083015261160d81611438565b9050919050565b6000602082019050818103600083015261162d8161145b565b9050919050565b6000602082019050611649600083018461147e565b92915050565b6000602082019050611664600083018461148d565b92915050565b600081519050919050565b600082825260208201905092915050565b60006116918261171a565b915061169c8361171a565b9250827fffffffffffffffffffffffffffffffffffffffffffffffffffffffffffffffff038211156116d1576116d0611796565b5b828201905092915050565b60006116e7826116fa565b9050919050565b60008115159050919050565b600073ffffffffffffffffffffffffffffffffffffffff82169050919050565b6000819050919050565b600060ff82169050919050565b60005b8381101561174f578082015181840152602081019050611734565b8381111561175e576000848401525b50505050565b6000600282049050600182168061177c57607f821691505b602082108114156117905761178f6117c5565b5b50919050565b7f4e487b7100000000000000000000000000000000000000000000000000000000600052601160045260246000fd5b7f4e487b7100000000000000000000000000000000000000000000000000000000600052602260045260246000fd5b600080fd5b6000601f19601f8301169050919050565b7f45524332303a207472616e7366657220746f20746865207a65726f206164647260008201527f6573730000000000000000000000000000000000000000000000000000000000602082015250565b7f4f776e61626c653a206e6577206f776e657220697320746865207a65726f206160008201527f6464726573730000000000000000000000000000000000000000000000000000602082015250565b7f45524332303a20617070726f766520746f20746865207a65726f20616464726560008201527f7373000000000000000000000000000000000000000000000000000000000000602082015250565b7f45524332303a207472616e7366657220616d6f756e742065786365656473206260008201527f616c616e63650000000000000000000000000000000000000000000000000000602082015250565b7f45524332303a207472616e7366657220616d6f756e742065786365656473206160008201527f6c6c6f77616e6365000000000000000000000000000000000000000000000000602082015250565b7f4f776e61626c653a2063616c6c6572206973206e6f7420746865206f776e6572600082015250565b7f45524332303a207472616e736665722066726f6d20746865207a65726f20616460008201527f6472657373000000000000000000000000000000000000000000000000000000602082015250565b7f45524332303a20617070726f76652066726f6d20746865207a65726f2061646460008201527f7265737300000000000000000000000000000000000000000000000000000000602082015250565b7f45524332303a2064656372656173656420616c6c6f77616e63652062656c6f7760008201527f207a65726f000000000000000000000000000000000000000000000000000000602082015250565b7f45524332303a206d696e7420746f20746865207a65726f206164647265737300600082015250565b611add816116dc565b8114611ae857600080fd5b50565b611af48161171a565b8114611aff57600080fd5b5056fea2646970667358221220a6e0482704db8347378b160e6fa7516d330b3fcd5bbc905e259c58bdd0f568fa64736f6c63430008070033",
					"opcodes": "PUSH1 0x80 PUSH1 0x40 MSTORE CALLVALUE DUP1 ISZERO PUSH3 0x11 JUMPI PUSH1 0x0 DUP1 REVERT JUMPDEST POP PUSH1 0x40 MLOAD PUSH3 0x2053 CODESIZE SUB DUP1 PUSH3 0x2053 DUP4 CODECOPY DUP2 DUP2 ADD PUSH1 0x40 MSTORE DUP2 ADD SWAP1 PUSH3 0x37 SWAP2 SWAP1 PUSH3 0x2C6 JUMP JUMPDEST DUP3 DUP3 DUP3 DUP3 PUSH1 0x2 SWAP1 DUP1 MLOAD SWAP1 PUSH1 0x20 ADD SWAP1 PUSH3 0x52 SWAP3 SWAP2 SWAP1 PUSH3 0x181 JUMP JUMPDEST POP DUP2 PUSH1 0x3 SWAP1 DUP1 MLOAD SWAP1 PUSH1 0x20 ADD SWAP1 PUSH3 0x6B SWAP3 SWAP2 SWAP1 PUSH3 0x181 JUMP JUMPDEST POP DUP1 PUSH1 0x4 PUSH1 0x0 PUSH2 0x100 EXP DUP2 SLOAD DUP2 PUSH1 0xFF MUL NOT AND SWAP1 DUP4 PUSH1 0xFF AND MUL OR SWAP1 SSTORE POP POP POP POP PUSH3 0xAA PUSH3 0x9E PUSH3 0xB3 PUSH1 0x20 SHL PUSH1 0x20 SHR JUMP JUMPDEST PUSH3 0xBB PUSH1 0x20 SHL PUSH1 0x20 SHR JUMP JUMPDEST POP POP POP PUSH3 0x50B JUMP JUMPDEST PUSH1 0x0 CALLER SWAP1 POP SWAP1 JUMP JUMPDEST PUSH1 0x0 PUSH1 0x6 PUSH1 0x0 SWAP1 SLOAD SWAP1 PUSH2 0x100 EXP SWAP1 DIV PUSH20 0xFFFFFFFFFFFFFFFFFFFFFFFFFFFFFFFFFFFFFFFF AND SWAP1 POP DUP2 PUSH1 0x6 PUSH1 0x0 PUSH2 0x100 EXP DUP2 SLOAD DUP2 PUSH20 0xFFFFFFFFFFFFFFFFFFFFFFFFFFFFFFFFFFFFFFFF MUL NOT AND SWAP1 DUP4 PUSH20 0xFFFFFFFFFFFFFFFFFFFFFFFFFFFFFFFFFFFFFFFF AND MUL OR SWAP1 SSTORE POP DUP2 PUSH20 0xFFFFFFFFFFFFFFFFFFFFFFFFFFFFFFFFFFFFFFFF AND DUP2 PUSH20 0xFFFFFFFFFFFFFFFFFFFFFFFFFFFFFFFFFFFFFFFF AND PUSH32 0x8BE0079C531659141344CD1FD0A4F28419497F9722A3DAAFE3B4186F6B6457E0 PUSH1 0x40 MLOAD PUSH1 0x40 MLOAD DUP1 SWAP2 SUB SWAP1 LOG3 POP POP JUMP JUMPDEST DUP3 DUP1 SLOAD PUSH3 0x18F SWAP1 PUSH3 0x402 JUMP JUMPDEST SWAP1 PUSH1 0x0 MSTORE PUSH1 0x20 PUSH1 0x0 KECCAK256 SWAP1 PUSH1 0x1F ADD PUSH1 0x20 SWAP1 DIV DUP2 ADD SWAP3 DUP3 PUSH3 0x1B3 JUMPI PUSH1 0x0 DUP6 SSTORE PUSH3 0x1FF JUMP JUMPDEST DUP3 PUSH1 0x1F LT PUSH3 0x1CE JUMPI DUP1 MLOAD PUSH1 0xFF NOT AND DUP4 DUP1 ADD OR DUP6 SSTORE PUSH3 0x1FF JUMP JUMPDEST DUP3 DUP1 ADD PUSH1 0x1 ADD DUP6 SSTORE DUP3 ISZERO PUSH3 0x1FF JUMPI SWAP2 DUP3 ADD JUMPDEST DUP3 DUP2 GT ISZERO PUSH3 0x1FE JUMPI DUP3 MLOAD DUP3 SSTORE SWAP2 PUSH1 0x20 ADD SWAP2 SWAP1 PUSH1 0x1 ADD SWAP1 PUSH3 0x1E1 JUMP JUMPDEST JUMPDEST POP SWAP1 POP PUSH3 0x20E SWAP2 SWAP1 PUSH3 0x212 JUMP JUMPDEST POP SWAP1 JUMP JUMPDEST JUMPDEST DUP1 DUP3 GT ISZERO PUSH3 0x22D JUMPI PUSH1 0x0 DUP2 PUSH1 0x0 SWAP1 SSTORE POP PUSH1 0x1 ADD PUSH3 0x213 JUMP JUMPDEST POP SWAP1 JUMP JUMPDEST PUSH1 0x0 PUSH3 0x248 PUSH3 0x242 DUP5 PUSH3 0x389 JUMP JUMPDEST PUSH3 0x360 JUMP JUMPDEST SWAP1 POP DUP3 DUP2 MSTORE PUSH1 0x20 DUP2 ADD DUP5 DUP5 DUP5 ADD GT ISZERO PUSH3 0x267 JUMPI PUSH3 0x266 PUSH3 0x4D1 JUMP JUMPDEST JUMPDEST PUSH3 0x274 DUP5 DUP3 DUP6 PUSH3 0x3CC JUMP JUMPDEST POP SWAP4 SWAP3 POP POP POP JUMP JUMPDEST PUSH1 0x0 DUP3 PUSH1 0x1F DUP4 ADD SLT PUSH3 0x294 JUMPI PUSH3 0x293 PUSH3 0x4CC JUMP JUMPDEST JUMPDEST DUP2 MLOAD PUSH3 0x2A6 DUP5 DUP3 PUSH1 0x20 DUP7 ADD PUSH3 0x231 JUMP JUMPDEST SWAP2 POP POP SWAP3 SWAP2 POP POP JUMP JUMPDEST PUSH1 0x0 DUP2 MLOAD SWAP1 POP PUSH3 0x2C0 DUP2 PUSH3 0x4F1 JUMP JUMPDEST SWAP3 SWAP2 POP POP JUMP JUMPDEST PUSH1 0x0 DUP1 PUSH1 0x0 PUSH1 0x60 DUP5 DUP7 SUB SLT ISZERO PUSH3 0x2E2 JUMPI PUSH3 0x2E1 PUSH3 0x4DB JUMP JUMPDEST JUMPDEST PUSH1 0x0 DUP5 ADD MLOAD PUSH8 0xFFFFFFFFFFFFFFFF DUP2 GT ISZERO PUSH3 0x303 JUMPI PUSH3 0x302 PUSH3 0x4D6 JUMP JUMPDEST JUMPDEST PUSH3 0x311 DUP7 DUP3 DUP8 ADD PUSH3 0x27C JUMP JUMPDEST SWAP4 POP POP PUSH1 0x20 DUP5 ADD MLOAD PUSH8 0xFFFFFFFFFFFFFFFF DUP2 GT ISZERO PUSH3 0x335 JUMPI PUSH3 0x334 PUSH3 0x4D6 JUMP JUMPDEST JUMPDEST PUSH3 0x343 DUP7 DUP3 DUP8 ADD PUSH3 0x27C JUMP JUMPDEST SWAP3 POP POP PUSH1 0x40 PUSH3 0x356 DUP7 DUP3 DUP8 ADD PUSH3 0x2AF JUMP JUMPDEST SWAP2 POP POP SWAP3 POP SWAP3 POP SWAP3 JUMP JUMPDEST PUSH1 0x0 PUSH3 0x36C PUSH3 0x37F JUMP JUMPDEST SWAP1 POP PUSH3 0x37A DUP3 DUP3 PUSH3 0x438 JUMP JUMPDEST SWAP2 SWAP1 POP JUMP JUMPDEST PUSH1 0x0 PUSH1 0x40 MLOAD SWAP1 POP SWAP1 JUMP JUMPDEST PUSH1 0x0 PUSH8 0xFFFFFFFFFFFFFFFF DUP3 GT ISZERO PUSH3 0x3A7 JUMPI PUSH3 0x3A6 PUSH3 0x49D JUMP JUMPDEST JUMPDEST PUSH3 0x3B2 DUP3 PUSH3 0x4E0 JUMP JUMPDEST SWAP1 POP PUSH1 0x20 DUP2 ADD SWAP1 POP SWAP2 SWAP1 POP JUMP JUMPDEST PUSH1 0x0 PUSH1 0xFF DUP3 AND SWAP1 POP SWAP2 SWAP1 POP JUMP JUMPDEST PUSH1 0x0 JUMPDEST DUP4 DUP2 LT ISZERO PUSH3 0x3EC JUMPI DUP1 DUP3 ADD MLOAD DUP2 DUP5 ADD MSTORE PUSH1 0x20 DUP2 ADD SWAP1 POP PUSH3 0x3CF JUMP JUMPDEST DUP4 DUP2 GT ISZERO PUSH3 0x3FC JUMPI PUSH1 0x0 DUP5 DUP5 ADD MSTORE JUMPDEST POP POP POP POP JUMP JUMPDEST PUSH1 0x0 PUSH1 0x2 DUP3 DIV SWAP1 POP PUSH1 0x1 DUP3 AND DUP1 PUSH3 0x41B JUMPI PUSH1 0x7F DUP3 AND SWAP2 POP JUMPDEST PUSH1 0x20 DUP3 LT DUP2 EQ ISZERO PUSH3 0x432 JUMPI PUSH3 0x431 PUSH3 0x46E JUMP JUMPDEST JUMPDEST POP SWAP2 SWAP1 POP JUMP JUMPDEST PUSH3 0x443 DUP3 PUSH3 0x4E0 JUMP JUMPDEST DUP2 ADD DUP2 DUP2 LT PUSH8 0xFFFFFFFFFFFFFFFF DUP3 GT OR ISZERO PUSH3 0x465 JUMPI PUSH3 0x464 PUSH3 0x49D JUMP JUMPDEST JUMPDEST DUP1 PUSH1 0x40 MSTORE POP POP POP JUMP JUMPDEST PUSH32 0x4E487B7100000000000000000000000000000000000000000000000000000000 PUSH1 0x0 MSTORE PUSH1 0x22 PUSH1 0x4 MSTORE PUSH1 0x24 PUSH1 0x0 REVERT JUMPDEST PUSH32 0x4E487B7100000000000000000000000000000000000000000000000000000000 PUSH1 0x0 MSTORE PUSH1 0x41 PUSH1 0x4 MSTORE PUSH1 0x24 PUSH1 0x0 REVERT JUMPDEST PUSH1 0x0 DUP1 REVERT JUMPDEST PUSH1 0x0 DUP1 REVERT JUMPDEST PUSH1 0x0 DUP1 REVERT JUMPDEST PUSH1 0x0 DUP1 REVERT JUMPDEST PUSH1 0x0 PUSH1 0x1F NOT PUSH1 0x1F DUP4 ADD AND SWAP1 POP SWAP2 SWAP1 POP JUMP JUMPDEST PUSH3 0x4FC DUP2 PUSH3 0x3BF JUMP JUMPDEST DUP2 EQ PUSH3 0x508 JUMPI PUSH1 0x0 DUP1 REVERT JUMPDEST POP JUMP JUMPDEST PUSH2 0x1B38 DUP1 PUSH3 0x51B PUSH1 0x0 CODECOPY PUSH1 0x0 RETURN INVALID PUSH1 0x80 PUSH1 0x40 MSTORE CALLVALUE DUP1 ISZERO PUSH2 0x10 JUMPI PUSH1 0x0 DUP1 REVERT JUMPDEST POP PUSH1 0x4 CALLDATASIZE LT PUSH2 0x100 JUMPI PUSH1 0x0 CALLDATALOAD PUSH1 0xE0 SHR DUP1 PUSH4 0x715018A6 GT PUSH2 0x97 JUMPI DUP1 PUSH4 0xA457C2D7 GT PUSH2 0x66 JUMPI DUP1 PUSH4 0xA457C2D7 EQ PUSH2 0x29D JUMPI DUP1 PUSH4 0xA9059CBB EQ PUSH2 0x2CD JUMPI DUP1 PUSH4 0xDD62ED3E EQ PUSH2 0x2FD JUMPI DUP1 PUSH4 0xF2FDE38B EQ PUSH2 0x32D JUMPI PUSH2 0x100 JUMP JUMPDEST DUP1 PUSH4 0x715018A6 EQ PUSH2 0x23B JUMPI DUP1 PUSH4 0x8DA5CB5B EQ PUSH2 0x245 JUMPI DUP1 PUSH4 0x95D89B41 EQ PUSH2 0x263 JUMPI DUP1 PUSH4 0xA0712D68 EQ PUSH2 0x281 JUMPI PUSH2 0x100 JUMP JUMPDEST DUP1 PUSH4 0x23B872DD GT PUSH2 0xD3 JUMPI DUP1 PUSH4 0x23B872DD EQ PUSH2 0x18D JUMPI DUP1 PUSH4 0x313CE567 EQ PUSH2 0x1BD JUMPI DUP1 PUSH4 0x39509351 EQ PUSH2 0x1DB JUMPI DUP1 PUSH4 0x70A08231 EQ PUSH2 0x20B JUMPI PUSH2 0x100 JUMP JUMPDEST DUP1 PUSH4 0x1062ADE EQ PUSH2 0x105 JUMPI DUP1 PUSH4 0x6FDDE03 EQ PUSH2 0x121 JUMPI DUP1 PUSH4 0x95EA7B3 EQ PUSH2 0x13F JUMPI DUP1 PUSH4 0x18160DDD EQ PUSH2 0x16F JUMPI JUMPDEST PUSH1 0x0 DUP1 REVERT JUMPDEST PUSH2 0x11F PUSH1 0x4 DUP1 CALLDATASIZE SUB DUP2 ADD SWAP1 PUSH2 0x11A SWAP2 SWAP1 PUSH2 0x1209 JUMP JUMPDEST PUSH2 0x349 JUMP JUMPDEST STOP JUMPDEST PUSH2 0x129 PUSH2 0x3D5 JUMP JUMPDEST PUSH1 0x40 MLOAD PUSH2 0x136 SWAP2 SWAP1 PUSH2 0x14D2 JUMP JUMPDEST PUSH1 0x40 MLOAD DUP1 SWAP2 SUB SWAP1 RETURN JUMPDEST PUSH2 0x159 PUSH1 0x4 DUP1 CALLDATASIZE SUB DUP2 ADD SWAP1 PUSH2 0x154 SWAP2 SWAP1 PUSH2 0x125C JUMP JUMPDEST PUSH2 0x467 JUMP JUMPDEST PUSH1 0x40 MLOAD PUSH2 0x166 SWAP2 SWAP1 PUSH2 0x14B7 JUMP JUMPDEST PUSH1 0x40 MLOAD DUP1 SWAP2 SUB SWAP1 RETURN JUMPDEST PUSH2 0x177 PUSH2 0x485 JUMP JUMPDEST PUSH1 0x40 MLOAD PUSH2 0x184 SWAP2 SWAP1 PUSH2 0x1634 JUMP JUMPDEST PUSH1 0x40 MLOAD DUP1 SWAP2 SUB SWAP1 RETURN JUMPDEST PUSH2 0x1A7 PUSH1 0x4 DUP1 CALLDATASIZE SUB DUP2 ADD SWAP1 PUSH2 0x1A2 SWAP2 SWAP1 PUSH2 0x1209 JUMP JUMPDEST PUSH2 0x48F JUMP JUMPDEST PUSH1 0x40 MLOAD PUSH2 0x1B4 SWAP2 SWAP1 PUSH2 0x14B7 JUMP JUMPDEST PUSH1 0x40 MLOAD DUP1 SWAP2 SUB SWAP1 RETURN JUMPDEST PUSH2 0x1C5 PUSH2 0x587 JUMP JUMPDEST PUSH1 0x40 MLOAD PUSH2 0x1D2 SWAP2 SWAP1 PUSH2 0x164F JUMP JUMPDEST PUSH1 0x40 MLOAD DUP1 SWAP2 SUB SWAP1 RETURN JUMPDEST PUSH2 0x1F5 PUSH1 0x4 DUP1 CALLDATASIZE SUB DUP2 ADD SWAP1 PUSH2 0x1F0 SWAP2 SWAP1 PUSH2 0x125C JUMP JUMPDEST PUSH2 0x59E JUMP JUMPDEST PUSH1 0x40 MLOAD PUSH2 0x202 SWAP2 SWAP1 PUSH2 0x14B7 JUMP JUMPDEST PUSH1 0x40 MLOAD DUP1 SWAP2 SUB SWAP1 RETURN JUMPDEST PUSH2 0x225 PUSH1 0x4 DUP1 CALLDATASIZE SUB DUP2 ADD SWAP1 PUSH2 0x220 SWAP2 SWAP1 PUSH2 0x119C JUMP JUMPDEST PUSH2 0x64A JUMP JUMPDEST PUSH1 0x40 MLOAD PUSH2 0x232 SWAP2 SWAP1 PUSH2 0x1634 JUMP JUMPDEST PUSH1 0x40 MLOAD DUP1 SWAP2 SUB SWAP1 RETURN JUMPDEST PUSH2 0x243 PUSH2 0x692 JUMP JUMPDEST STOP JUMPDEST PUSH2 0x24D PUSH2 0x71A JUMP JUMPDEST PUSH1 0x40 MLOAD PUSH2 0x25A SWAP2 SWAP1 PUSH2 0x149C JUMP JUMPDEST PUSH1 0x40 MLOAD DUP1 SWAP2 SUB SWAP1 RETURN JUMPDEST PUSH2 0x26B PUSH2 0x744 JUMP JUMPDEST PUSH1 0x40 MLOAD PUSH2 0x278 SWAP2 SWAP1 PUSH2 0x14D2 JUMP JUMPDEST PUSH1 0x40 MLOAD DUP1 SWAP2 SUB SWAP1 RETURN JUMPDEST PUSH2 0x29B PUSH1 0x4 DUP1 CALLDATASIZE SUB DUP2 ADD SWAP1 PUSH2 0x296 SWAP2 SWAP1 PUSH2 0x129C JUMP JUMPDEST PUSH2 0x7D6 JUMP JUMPDEST STOP JUMPDEST PUSH2 0x2B7 PUSH1 0x4 DUP1 CALLDATASIZE SUB DUP2 ADD SWAP1 PUSH2 0x2B2 SWAP2 SWAP1 PUSH2 0x125C JUMP JUMPDEST PUSH2 0x866 JUMP JUMPDEST PUSH1 0x40 MLOAD PUSH2 0x2C4 SWAP2 SWAP1 PUSH2 0x14B7 JUMP JUMPDEST PUSH1 0x40 MLOAD DUP1 SWAP2 SUB SWAP1 RETURN JUMPDEST PUSH2 0x2E7 PUSH1 0x4 DUP1 CALLDATASIZE SUB DUP2 ADD SWAP1 PUSH2 0x2E2 SWAP2 SWAP1 PUSH2 0x125C JUMP JUMPDEST PUSH2 0x951 JUMP JUMPDEST PUSH1 0x40 MLOAD PUSH2 0x2F4 SWAP2 SWAP1 PUSH2 0x14B7 JUMP JUMPDEST PUSH1 0x40 MLOAD DUP1 SWAP2 SUB SWAP1 RETURN JUMPDEST PUSH2 0x317 PUSH1 0x4 DUP1 CALLDATASIZE SUB DUP2 ADD SWAP1 PUSH2 0x312 SWAP2 SWAP1 PUSH2 0x11C9 JUMP JUMPDEST PUSH2 0x96F JUMP JUMPDEST PUSH1 0x40 MLOAD PUSH2 0x324 SWAP2 SWAP1 PUSH2 0x1634 JUMP JUMPDEST PUSH1 0x40 MLOAD DUP1 SWAP2 SUB SWAP1 RETURN JUMPDEST PUSH2 0x347 PUSH1 0x4 DUP1 CALLDATASIZE SUB DUP2 ADD SWAP1 PUSH2 0x342 SWAP2 SWAP1 PUSH2 0x119C JUMP JUMPDEST PUSH2 0x9F6 JUMP JUMPDEST STOP JUMPDEST PUSH2 0x351 PUSH2 0xAEE JUMP JUMPDEST PUSH20 0xFFFFFFFFFFFFFFFFFFFFFFFFFFFFFFFFFFFFFFFF AND PUSH2 0x36F PUSH2 0x71A JUMP JUMPDEST PUSH20 0xFFFFFFFFFFFFFFFFFFFFFFFFFFFFFFFFFFFFFFFF AND EQ PUSH2 0x3C5 JUMPI PUSH1 0x40 MLOAD PUSH32 0x8C379A000000000000000000000000000000000000000000000000000000000 DUP2 MSTORE PUSH1 0x4 ADD PUSH2 0x3BC SWAP1 PUSH2 0x1594 JUMP JUMPDEST PUSH1 0x40 MLOAD DUP1 SWAP2 SUB SWAP1 REVERT JUMPDEST PUSH2 0x3D0 DUP4 DUP4 DUP4 PUSH2 0xAF6 JUMP JUMPDEST POP POP POP JUMP JUMPDEST PUSH1 0x60 PUSH1 0x2 DUP1 SLOAD PUSH2 0x3E4 SWAP1 PUSH2 0x1764 JUMP JUMPDEST DUP1 PUSH1 0x1F ADD PUSH1 0x20 DUP1 SWAP2 DIV MUL PUSH1 0x20 ADD PUSH1 0x40 MLOAD SWAP1 DUP2 ADD PUSH1 0x40 MSTORE DUP1 SWAP3 SWAP2 SWAP1 DUP2 DUP2 MSTORE PUSH1 0x20 ADD DUP3 DUP1 SLOAD PUSH2 0x410 SWAP1 PUSH2 0x1764 JUMP JUMPDEST DUP1 ISZERO PUSH2 0x45D JUMPI DUP1 PUSH1 0x1F LT PUSH2 0x432 JUMPI PUSH2 0x100 DUP1 DUP4 SLOAD DIV MUL DUP4 MSTORE SWAP2 PUSH1 0x20 ADD SWAP2 PUSH2 0x45D JUMP JUMPDEST DUP3 ADD SWAP2 SWAP1 PUSH1 0x0 MSTORE PUSH1 0x20 PUSH1 0x0 KECCAK256 SWAP1 JUMPDEST DUP2 SLOAD DUP2 MSTORE SWAP1 PUSH1 0x1 ADD SWAP1 PUSH1 0x20 ADD DUP1 DUP4 GT PUSH2 0x440 JUMPI DUP3 SWAP1 SUB PUSH1 0x1F AND DUP3 ADD SWAP2 JUMPDEST POP POP POP POP POP SWAP1 POP SWAP1 JUMP JUMPDEST PUSH1 0x0 PUSH2 0x47B PUSH2 0x474 PUSH2 0xAEE JUMP JUMPDEST DUP5 DUP5 PUSH2 0xD77 JUMP JUMPDEST PUSH1 0x1 SWAP1 POP SWAP3 SWAP2 POP POP JUMP JUMPDEST PUSH1 0x0 PUSH1 0x5 SLOAD SWAP1 POP SWAP1 JUMP JUMPDEST PUSH1 0x0 PUSH2 0x49C DUP5 DUP5 DUP5 PUSH2 0xAF6 JUMP JUMPDEST PUSH1 0x0 PUSH1 0x1 PUSH1 0x0 DUP7 PUSH20 0xFFFFFFFFFFFFFFFFFFFFFFFFFFFFFFFFFFFFFFFF AND PUSH20 0xFFFFFFFFFFFFFFFFFFFFFFFFFFFFFFFFFFFFFFFF AND DUP2 MSTORE PUSH1 0x20 ADD SWAP1 DUP2 MSTORE PUSH1 0x20 ADD PUSH1 0x0 KECCAK256 PUSH1 0x0 PUSH2 0x4E7 PUSH2 0xAEE JUMP JUMPDEST PUSH20 0xFFFFFFFFFFFFFFFFFFFFFFFFFFFFFFFFFFFFFFFF AND PUSH20 0xFFFFFFFFFFFFFFFFFFFFFFFFFFFFFFFFFFFFFFFF AND DUP2 MSTORE PUSH1 0x20 ADD SWAP1 DUP2 MSTORE PUSH1 0x20 ADD PUSH1 0x0 KECCAK256 SLOAD SWAP1 POP DUP3 DUP2 LT ISZERO PUSH2 0x567 JUMPI PUSH1 0x40 MLOAD PUSH32 0x8C379A000000000000000000000000000000000000000000000000000000000 DUP2 MSTORE PUSH1 0x4 ADD PUSH2 0x55E SWAP1 PUSH2 0x1574 JUMP JUMPDEST PUSH1 0x40 MLOAD DUP1 SWAP2 SUB SWAP1 REVERT JUMPDEST PUSH2 0x57B DUP6 PUSH2 0x573 PUSH2 0xAEE JUMP JUMPDEST DUP6 DUP5 SUB PUSH2 0xD77 JUMP JUMPDEST PUSH1 0x1 SWAP2 POP POP SWAP4 SWAP3 POP POP POP JUMP JUMPDEST PUSH1 0x0 PUSH1 0x4 PUSH1 0x0 SWAP1 SLOAD SWAP1 PUSH2 0x100 EXP SWAP1 DIV PUSH1 0xFF AND SWAP1 POP SWAP1 JUMP JUMPDEST PUSH1 0x0 PUSH2 0x640 PUSH2 0x5AB PUSH2 0xAEE JUMP JUMPDEST DUP5 DUP5 PUSH1 0x1 PUSH1 0x0 PUSH2 0x5B9 PUSH2 0xAEE JUMP JUMPDEST PUSH20 0xFFFFFFFFFFFFFFFFFFFFFFFFFFFFFFFFFFFFFFFF AND PUSH20 0xFFFFFFFFFFFFFFFFFFFFFFFFFFFFFFFFFFFFFFFF AND DUP2 MSTORE PUSH1 0x20 ADD SWAP1 DUP2 MSTORE PUSH1 0x20 ADD PUSH1 0x0 KECCAK256 PUSH1 0x0 DUP9 PUSH20 0xFFFFFFFFFFFFFFFFFFFFFFFFFFFFFFFFFFFFFFFF AND PUSH20 0xFFFFFFFFFFFFFFFFFFFFFFFFFFFFFFFFFFFFFFFF AND DUP2 MSTORE PUSH1 0x20 ADD SWAP1 DUP2 MSTORE PUSH1 0x20 ADD PUSH1 0x0 KECCAK256 SLOAD PUSH2 0x63B SWAP2 SWAP1 PUSH2 0x1686 JUMP JUMPDEST PUSH2 0xD77 JUMP JUMPDEST PUSH1 0x1 SWAP1 POP SWAP3 SWAP2 POP POP JUMP JUMPDEST PUSH1 0x0 DUP1 PUSH1 0x0 DUP4 PUSH20 0xFFFFFFFFFFFFFFFFFFFFFFFFFFFFFFFFFFFFFFFF AND PUSH20 0xFFFFFFFFFFFFFFFFFFFFFFFFFFFFFFFFFFFFFFFF AND DUP2 MSTORE PUSH1 0x20 ADD SWAP1 DUP2 MSTORE PUSH1 0x20 ADD PUSH1 0x0 KECCAK256 SLOAD SWAP1 POP SWAP2 SWAP1 POP JUMP JUMPDEST PUSH2 0x69A PUSH2 0xAEE JUMP JUMPDEST PUSH20 0xFFFFFFFFFFFFFFFFFFFFFFFFFFFFFFFFFFFFFFFF AND PUSH2 0x6B8 PUSH2 0x71A JUMP JUMPDEST PUSH20 0xFFFFFFFFFFFFFFFFFFFFFFFFFFFFFFFFFFFFFFFF AND EQ PUSH2 0x70E JUMPI PUSH1 0x40 MLOAD PUSH32 0x8C379A000000000000000000000000000000000000000000000000000000000 DUP2 MSTORE PUSH1 0x4 ADD PUSH2 0x705 SWAP1 PUSH2 0x1594 JUMP JUMPDEST PUSH1 0x40 MLOAD DUP1 SWAP2 SUB SWAP1 REVERT JUMPDEST PUSH2 0x718 PUSH1 0x0 PUSH2 0xF42 JUMP JUMPDEST JUMP JUMPDEST PUSH1 0x0 PUSH1 0x6 PUSH1 0x0 SWAP1 SLOAD SWAP1 PUSH2 0x100 EXP SWAP1 DIV PUSH20 0xFFFFFFFFFFFFFFFFFFFFFFFFFFFFFFFFFFFFFFFF AND SWAP1 POP SWAP1 JUMP JUMPDEST PUSH1 0x60 PUSH1 0x3 DUP1 SLOAD PUSH2 0x753 SWAP1 PUSH2 0x1764 JUMP JUMPDEST DUP1 PUSH1 0x1F ADD PUSH1 0x20 DUP1 SWAP2 DIV MUL PUSH1 0x20 ADD PUSH1 0x40 MLOAD SWAP1 DUP2 ADD PUSH1 0x40 MSTORE DUP1 SWAP3 SWAP2 SWAP1 DUP2 DUP2 MSTORE PUSH1 0x20 ADD DUP3 DUP1 SLOAD PUSH2 0x77F SWAP1 PUSH2 0x1764 JUMP JUMPDEST DUP1 ISZERO PUSH2 0x7CC JUMPI DUP1 PUSH1 0x1F LT PUSH2 0x7A1 JUMPI PUSH2 0x100 DUP1 DUP4 SLOAD DIV MUL DUP4 MSTORE SWAP2 PUSH1 0x20 ADD SWAP2 PUSH2 0x7CC JUMP JUMPDEST DUP3 ADD SWAP2 SWAP1 PUSH1 0x0 MSTORE PUSH1 0x20 PUSH1 0x0 KECCAK256 SWAP1 JUMPDEST DUP2 SLOAD DUP2 MSTORE SWAP1 PUSH1 0x1 ADD SWAP1 PUSH1 0x20 ADD DUP1 DUP4 GT PUSH2 0x7AF JUMPI DUP3 SWAP1 SUB PUSH1 0x1F AND DUP3 ADD SWAP2 JUMPDEST POP POP POP POP POP SWAP1 POP SWAP1 JUMP JUMPDEST PUSH2 0x7DE PUSH2 0xAEE JUMP JUMPDEST PUSH20 0xFFFFFFFFFFFFFFFFFFFFFFFFFFFFFFFFFFFFFFFF AND PUSH2 0x7FC PUSH2 0x71A JUMP JUMPDEST PUSH20 0xFFFFFFFFFFFFFFFFFFFFFFFFFFFFFFFFFFFFFFFF AND EQ PUSH2 0x852 JUMPI PUSH1 0x40 MLOAD PUSH32 0x8C379A000000000000000000000000000000000000000000000000000000000 DUP2 MSTORE PUSH1 0x4 ADD PUSH2 0x849 SWAP1 PUSH2 0x1594 JUMP JUMPDEST PUSH1 0x40 MLOAD DUP1 SWAP2 SUB SWAP1 REVERT JUMPDEST PUSH2 0x863 PUSH2 0x85D PUSH2 0xAEE JUMP JUMPDEST DUP3 PUSH2 0x1008 JUMP JUMPDEST POP JUMP JUMPDEST PUSH1 0x0 DUP1 PUSH1 0x1 PUSH1 0x0 PUSH2 0x875 PUSH2 0xAEE JUMP JUMPDEST PUSH20 0xFFFFFFFFFFFFFFFFFFFFFFFFFFFFFFFFFFFFFFFF AND PUSH20 0xFFFFFFFFFFFFFFFFFFFFFFFFFFFFFFFFFFFFFFFF AND DUP2 MSTORE PUSH1 0x20 ADD SWAP1 DUP2 MSTORE PUSH1 0x20 ADD PUSH1 0x0 KECCAK256 PUSH1 0x0 DUP6 PUSH20 0xFFFFFFFFFFFFFFFFFFFFFFFFFFFFFFFFFFFFFFFF AND PUSH20 0xFFFFFFFFFFFFFFFFFFFFFFFFFFFFFFFFFFFFFFFF AND DUP2 MSTORE PUSH1 0x20 ADD SWAP1 DUP2 MSTORE PUSH1 0x20 ADD PUSH1 0x0 KECCAK256 SLOAD SWAP1 POP DUP3 DUP2 LT ISZERO PUSH2 0x932 JUMPI PUSH1 0x40 MLOAD PUSH32 0x8C379A000000000000000000000000000000000000000000000000000000000 DUP2 MSTORE PUSH1 0x4 ADD PUSH2 0x929 SWAP1 PUSH2 0x15F4 JUMP JUMPDEST PUSH1 0x40 MLOAD DUP1 SWAP2 SUB SWAP1 REVERT JUMPDEST PUSH2 0x946 PUSH2 0x93D PUSH2 0xAEE JUMP JUMPDEST DUP6 DUP6 DUP5 SUB PUSH2 0xD77 JUMP JUMPDEST PUSH1 0x1 SWAP2 POP POP SWAP3 SWAP2 POP POP JUMP JUMPDEST PUSH1 0x0 PUSH2 0x965 PUSH2 0x95E PUSH2 0xAEE JUMP JUMPDEST DUP5 DUP5 PUSH2 0xAF6 JUMP JUMPDEST PUSH1 0x1 SWAP1 POP SWAP3 SWAP2 POP POP JUMP JUMPDEST PUSH1 0x0 PUSH1 0x1 PUSH1 0x0 DUP5 PUSH20 0xFFFFFFFFFFFFFFFFFFFFFFFFFFFFFFFFFFFFFFFF AND PUSH20 0xFFFFFFFFFFFFFFFFFFFFFFFFFFFFFFFFFFFFFFFF AND DUP2 MSTORE PUSH1 0x20 ADD SWAP1 DUP2 MSTORE PUSH1 0x20 ADD PUSH1 0x0 KECCAK256 PUSH1 0x0 DUP4 PUSH20 0xFFFFFFFFFFFFFFFFFFFFFFFFFFFFFFFFFFFFFFFF AND PUSH20 0xFFFFFFFFFFFFFFFFFFFFFFFFFFFFFFFFFFFFFFFF AND DUP2 MSTORE PUSH1 0x20 ADD SWAP1 DUP2 MSTORE PUSH1 0x20 ADD PUSH1 0x0 KECCAK256 SLOAD SWAP1 POP SWAP3 SWAP2 POP POP JUMP JUMPDEST PUSH2 0x9FE PUSH2 0xAEE JUMP JUMPDEST PUSH20 0xFFFFFFFFFFFFFFFFFFFFFFFFFFFFFFFFFFFFFFFF AND PUSH2 0xA1C PUSH2 0x71A JUMP JUMPDEST PUSH20 0xFFFFFFFFFFFFFFFFFFFFFFFFFFFFFFFFFFFFFFFF AND EQ PUSH2 0xA72 JUMPI PUSH1 0x40 MLOAD PUSH32 0x8C379A000000000000000000000000000000000000000000000000000000000 DUP2 MSTORE PUSH1 0x4 ADD PUSH2 0xA69 SWAP1 PUSH2 0x1594 JUMP JUMPDEST PUSH1 0x40 MLOAD DUP1 SWAP2 SUB SWAP1 REVERT JUMPDEST PUSH1 0x0 PUSH20 0xFFFFFFFFFFFFFFFFFFFFFFFFFFFFFFFFFFFFFFFF AND DUP2 PUSH20 0xFFFFFFFFFFFFFFFFFFFFFFFFFFFFFFFFFFFFFFFF AND EQ ISZERO PUSH2 0xAE2 JUMPI PUSH1 0x40 MLOAD PUSH32 0x8C379A000000000000000000000000000000000000000000000000000000000 DUP2 MSTORE PUSH1 0x4 ADD PUSH2 0xAD9 SWAP1 PUSH2 0x1514 JUMP JUMPDEST PUSH1 0x40 MLOAD DUP1 SWAP2 SUB SWAP1 REVERT JUMPDEST PUSH2 0xAEB DUP2 PUSH2 0xF42 JUMP JUMPDEST POP JUMP JUMPDEST PUSH1 0x0 CALLER SWAP1 POP SWAP1 JUMP JUMPDEST PUSH1 0x0 PUSH20 0xFFFFFFFFFFFFFFFFFFFFFFFFFFFFFFFFFFFFFFFF AND DUP4 PUSH20 0xFFFFFFFFFFFFFFFFFFFFFFFFFFFFFFFFFFFFFFFF AND EQ ISZERO PUSH2 0xB66 JUMPI PUSH1 0x40 MLOAD PUSH32 0x8C379A000000000000000000000000000000000000000000000000000000000 DUP2 MSTORE PUSH1 0x4 ADD PUSH2 0xB5D SWAP1 PUSH2 0x15B4 JUMP JUMPDEST PUSH1 0x40 MLOAD DUP1 SWAP2 SUB SWAP1 REVERT JUMPDEST PUSH1 0x0 PUSH20 0xFFFFFFFFFFFFFFFFFFFFFFFFFFFFFFFFFFFFFFFF AND DUP3 PUSH20 0xFFFFFFFFFFFFFFFFFFFFFFFFFFFFFFFFFFFFFFFF AND EQ ISZERO PUSH2 0xBD6 JUMPI PUSH1 0x40 MLOAD PUSH32 0x8C379A000000000000000000000000000000000000000000000000000000000 DUP2 MSTORE PUSH1 0x4 ADD PUSH2 0xBCD SWAP1 PUSH2 0x14F4 JUMP JUMPDEST PUSH1 0x40 MLOAD DUP1 SWAP2 SUB SWAP1 REVERT JUMPDEST PUSH2 0xBE1 DUP4 DUP4 DUP4 PUSH2 0x1168 JUMP JUMPDEST PUSH1 0x0 DUP1 PUSH1 0x0 DUP6 PUSH20 0xFFFFFFFFFFFFFFFFFFFFFFFFFFFFFFFFFFFFFFFF AND PUSH20 0xFFFFFFFFFFFFFFFFFFFFFFFFFFFFFFFFFFFFFFFF AND DUP2 MSTORE PUSH1 0x20 ADD SWAP1 DUP2 MSTORE PUSH1 0x20 ADD PUSH1 0x0 KECCAK256 SLOAD SWAP1 POP DUP2 DUP2 LT ISZERO PUSH2 0xC67 JUMPI PUSH1 0x40 MLOAD PUSH32 0x8C379A000000000000000000000000000000000000000000000000000000000 DUP2 MSTORE PUSH1 0x4 ADD PUSH2 0xC5E SWAP1 PUSH2 0x1554 JUMP JUMPDEST PUSH1 0x40 MLOAD DUP1 SWAP2 SUB SWAP1 REVERT JUMPDEST DUP2 DUP2 SUB PUSH1 0x0 DUP1 DUP7 PUSH20 0xFFFFFFFFFFFFFFFFFFFFFFFFFFFFFFFFFFFFFFFF AND PUSH20 0xFFFFFFFFFFFFFFFFFFFFFFFFFFFFFFFFFFFFFFFF AND DUP2 MSTORE PUSH1 0x20 ADD SWAP1 DUP2 MSTORE PUSH1 0x20 ADD PUSH1 0x0 KECCAK256 DUP2 SWAP1 SSTORE POP DUP2 PUSH1 0x0 DUP1 DUP6 PUSH20 0xFFFFFFFFFFFFFFFFFFFFFFFFFFFFFFFFFFFFFFFF AND PUSH20 0xFFFFFFFFFFFFFFFFFFFFFFFFFFFFFFFFFFFFFFFF AND DUP2 MSTORE PUSH1 0x20 ADD SWAP1 DUP2 MSTORE PUSH1 0x20 ADD PUSH1 0x0 KECCAK256 PUSH1 0x0 DUP3 DUP3 SLOAD PUSH2 0xCFA SWAP2 SWAP1 PUSH2 0x1686 JUMP JUMPDEST SWAP3 POP POP DUP2 SWAP1 SSTORE POP DUP3 PUSH20 0xFFFFFFFFFFFFFFFFFFFFFFFFFFFFFFFFFFFFFFFF AND DUP5 PUSH20 0xFFFFFFFFFFFFFFFFFFFFFFFFFFFFFFFFFFFFFFFF AND PUSH32 0xDDF252AD1BE2C89B69C2B068FC378DAA952BA7F163C4A11628F55A4DF523B3EF DUP5 PUSH1 0x40 MLOAD PUSH2 0xD5E SWAP2 SWAP1 PUSH2 0x1634 JUMP JUMPDEST PUSH1 0x40 MLOAD DUP1 SWAP2 SUB SWAP1 LOG3 PUSH2 0xD71 DUP5 DUP5 DUP5 PUSH2 0x116D JUMP JUMPDEST POP POP POP POP JUMP JUMPDEST PUSH1 0x0 PUSH20 0xFFFFFFFFFFFFFFFFFFFFFFFFFFFFFFFFFFFFFFFF AND DUP4 PUSH20 0xFFFFFFFFFFFFFFFFFFFFFFFFFFFFFFFFFFFFFFFF AND EQ ISZERO PUSH2 0xDE7 JUMPI PUSH1 0x40 MLOAD PUSH32 0x8C379A000000000000000000000000000000000000000000000000000000000 DUP2 MSTORE PUSH1 0x4 ADD PUSH2 0xDDE SWAP1 PUSH2 0x15D4 JUMP JUMPDEST PUSH1 0x40 MLOAD DUP1 SWAP2 SUB SWAP1 REVERT JUMPDEST PUSH1 0x0 PUSH20 0xFFFFFFFFFFFFFFFFFFFFFFFFFFFFFFFFFFFFFFFF AND DUP3 PUSH20 0xFFFFFFFFFFFFFFFFFFFFFFFFFFFFFFFFFFFFFFFF AND EQ ISZERO PUSH2 0xE57 JUMPI PUSH1 0x40 MLOAD PUSH32 0x8C379A000000000000000000000000000000000000000000000000000000000 DUP2 MSTORE PUSH1 0x4 ADD PUSH2 0xE4E SWAP1 PUSH2 0x1534 JUMP JUMPDEST PUSH1 0x40 MLOAD DUP1 SWAP2 SUB SWAP1 REVERT JUMPDEST DUP1 PUSH1 0x1 PUSH1 0x0 DUP6 PUSH20 0xFFFFFFFFFFFFFFFFFFFFFFFFFFFFFFFFFFFFFFFF AND PUSH20 0xFFFFFFFFFFFFFFFFFFFFFFFFFFFFFFFFFFFFFFFF AND DUP2 MSTORE PUSH1 0x20 ADD SWAP1 DUP2 MSTORE PUSH1 0x20 ADD PUSH1 0x0 KECCAK256 PUSH1 0x0 DUP5 PUSH20 0xFFFFFFFFFFFFFFFFFFFFFFFFFFFFFFFFFFFFFFFF AND PUSH20 0xFFFFFFFFFFFFFFFFFFFFFFFFFFFFFFFFFFFFFFFF AND DUP2 MSTORE PUSH1 0x20 ADD SWAP1 DUP2 MSTORE PUSH1 0x20 ADD PUSH1 0x0 KECCAK256 DUP2 SWAP1 SSTORE POP DUP2 PUSH20 0xFFFFFFFFFFFFFFFFFFFFFFFFFFFFFFFFFFFFFFFF AND DUP4 PUSH20 0xFFFFFFFFFFFFFFFFFFFFFFFFFFFFFFFFFFFFFFFF AND PUSH32 0x8C5BE1E5EBEC7D5BD14F71427D1E84F3DD0314C0F7B2291E5B200AC8C7C3B925 DUP4 PUSH1 0x40 MLOAD PUSH2 0xF35 SWAP2 SWAP1 PUSH2 0x1634 JUMP JUMPDEST PUSH1 0x40 MLOAD DUP1 SWAP2 SUB SWAP1 LOG3 POP POP POP JUMP JUMPDEST PUSH1 0x0 PUSH1 0x6 PUSH1 0x0 SWAP1 SLOAD SWAP1 PUSH2 0x100 EXP SWAP1 DIV PUSH20 0xFFFFFFFFFFFFFFFFFFFFFFFFFFFFFFFFFFFFFFFF AND SWAP1 POP DUP2 PUSH1 0x6 PUSH1 0x0 PUSH2 0x100 EXP DUP2 SLOAD DUP2 PUSH20 0xFFFFFFFFFFFFFFFFFFFFFFFFFFFFFFFFFFFFFFFF MUL NOT AND SWAP1 DUP4 PUSH20 0xFFFFFFFFFFFFFFFFFFFFFFFFFFFFFFFFFFFFFFFF AND MUL OR SWAP1 SSTORE POP DUP2 PUSH20 0xFFFFFFFFFFFFFFFFFFFFFFFFFFFFFFFFFFFFFFFF AND DUP2 PUSH20 0xFFFFFFFFFFFFFFFFFFFFFFFFFFFFFFFFFFFFFFFF AND PUSH32 0x8BE0079C531659141344CD1FD0A4F28419497F9722A3DAAFE3B4186F6B6457E0 PUSH1 0x40 MLOAD PUSH1 0x40 MLOAD DUP1 SWAP2 SUB SWAP1 LOG3 POP POP JUMP JUMPDEST PUSH1 0x0 PUSH20 0xFFFFFFFFFFFFFFFFFFFFFFFFFFFFFFFFFFFFFFFF AND DUP3 PUSH20 0xFFFFFFFFFFFFFFFFFFFFFFFFFFFFFFFFFFFFFFFF AND EQ ISZERO PUSH2 0x1078 JUMPI PUSH1 0x40 MLOAD PUSH32 0x8C379A000000000000000000000000000000000000000000000000000000000 DUP2 MSTORE PUSH1 0x4 ADD PUSH2 0x106F SWAP1 PUSH2 0x1614 JUMP JUMPDEST PUSH1 0x40 MLOAD DUP1 SWAP2 SUB SWAP1 REVERT JUMPDEST PUSH2 0x1084 PUSH1 0x0 DUP4 DUP4 PUSH2 0x1168 JUMP JUMPDEST DUP1 PUSH1 0x5 PUSH1 0x0 DUP3 DUP3 SLOAD PUSH2 0x1096 SWAP2 SWAP1 PUSH2 0x1686 JUMP JUMPDEST SWAP3 POP POP DUP2 SWAP1 SSTORE POP DUP1 PUSH1 0x0 DUP1 DUP5 PUSH20 0xFFFFFFFFFFFFFFFFFFFFFFFFFFFFFFFFFFFFFFFF AND PUSH20 0xFFFFFFFFFFFFFFFFFFFFFFFFFFFFFFFFFFFFFFFF AND DUP2 MSTORE PUSH1 0x20 ADD SWAP1 DUP2 MSTORE PUSH1 0x20 ADD PUSH1 0x0 KECCAK256 PUSH1 0x0 DUP3 DUP3 SLOAD PUSH2 0x10EB SWAP2 SWAP1 PUSH2 0x1686 JUMP JUMPDEST SWAP3 POP POP DUP2 SWAP1 SSTORE POP DUP2 PUSH20 0xFFFFFFFFFFFFFFFFFFFFFFFFFFFFFFFFFFFFFFFF AND PUSH1 0x0 PUSH20 0xFFFFFFFFFFFFFFFFFFFFFFFFFFFFFFFFFFFFFFFF AND PUSH32 0xDDF252AD1BE2C89B69C2B068FC378DAA952BA7F163C4A11628F55A4DF523B3EF DUP4 PUSH1 0x40 MLOAD PUSH2 0x1150 SWAP2 SWAP1 PUSH2 0x1634 JUMP JUMPDEST PUSH1 0x40 MLOAD DUP1 SWAP2 SUB SWAP1 LOG3 PUSH2 0x1164 PUSH1 0x0 DUP4 DUP4 PUSH2 0x116D JUMP JUMPDEST POP POP JUMP JUMPDEST POP POP POP JUMP JUMPDEST POP POP POP JUMP JUMPDEST PUSH1 0x0 DUP2 CALLDATALOAD SWAP1 POP PUSH2 0x1181 DUP2 PUSH2 0x1AD4 JUMP JUMPDEST SWAP3 SWAP2 POP POP JUMP JUMPDEST PUSH1 0x0 DUP2 CALLDATALOAD SWAP1 POP PUSH2 0x1196 DUP2 PUSH2 0x1AEB JUMP JUMPDEST SWAP3 SWAP2 POP POP JUMP JUMPDEST PUSH1 0x0 PUSH1 0x20 DUP3 DUP5 SUB SLT ISZERO PUSH2 0x11B2 JUMPI PUSH2 0x11B1 PUSH2 0x17F4 JUMP JUMPDEST JUMPDEST PUSH1 0x0 PUSH2 0x11C0 DUP5 DUP3 DUP6 ADD PUSH2 0x1172 JUMP JUMPDEST SWAP2 POP POP SWAP3 SWAP2 POP POP JUMP JUMPDEST PUSH1 0x0 DUP1 PUSH1 0x40 DUP4 DUP6 SUB SLT ISZERO PUSH2 0x11E0 JUMPI PUSH2 0x11DF PUSH2 0x17F4 JUMP JUMPDEST JUMPDEST PUSH1 0x0 PUSH2 0x11EE DUP6 DUP3 DUP7 ADD PUSH2 0x1172 JUMP JUMPDEST SWAP3 POP POP PUSH1 0x20 PUSH2 0x11FF DUP6 DUP3 DUP7 ADD PUSH2 0x1172 JUMP JUMPDEST SWAP2 POP POP SWAP3 POP SWAP3 SWAP1 POP JUMP JUMPDEST PUSH1 0x0 DUP1 PUSH1 0x0 PUSH1 0x60 DUP5 DUP7 SUB SLT ISZERO PUSH2 0x1222 JUMPI PUSH2 0x1221 PUSH2 0x17F4 JUMP JUMPDEST JUMPDEST PUSH1 0x0 PUSH2 0x1230 DUP7 DUP3 DUP8 ADD PUSH2 0x1172 JUMP JUMPDEST SWAP4 POP POP PUSH1 0x20 PUSH2 0x1241 DUP7 DUP3 DUP8 ADD PUSH2 0x1172 JUMP JUMPDEST SWAP3 POP POP PUSH1 0x40 PUSH2 0x1252 DUP7 DUP3 DUP8 ADD PUSH2 0x1187 JUMP JUMPDEST SWAP2 POP POP SWAP3 POP SWAP3 POP SWAP3 JUMP JUMPDEST PUSH1 0x0 DUP1 PUSH1 0x40 DUP4 DUP6 SUB SLT ISZERO PUSH2 0x1273 JUMPI PUSH2 0x1272 PUSH2 0x17F4 JUMP JUMPDEST JUMPDEST PUSH1 0x0 PUSH2 0x1281 DUP6 DUP3 DUP7 ADD PUSH2 0x1172 JUMP JUMPDEST SWAP3 POP POP PUSH1 0x20 PUSH2 0x1292 DUP6 DUP3 DUP7 ADD PUSH2 0x1187 JUMP JUMPDEST SWAP2 POP POP SWAP3 POP SWAP3 SWAP1 POP JUMP JUMPDEST PUSH1 0x0 PUSH1 0x20 DUP3 DUP5 SUB SLT ISZERO PUSH2 0x12B2 JUMPI PUSH2 0x12B1 PUSH2 0x17F4 JUMP JUMPDEST JUMPDEST PUSH1 0x0 PUSH2 0x12C0 DUP5 DUP3 DUP6 ADD PUSH2 0x1187 JUMP JUMPDEST SWAP2 POP POP SWAP3 SWAP2 POP POP JUMP JUMPDEST PUSH2 0x12D2 DUP2 PUSH2 0x16DC JUMP JUMPDEST DUP3 MSTORE POP POP JUMP JUMPDEST PUSH2 0x12E1 DUP2 PUSH2 0x16EE JUMP JUMPDEST DUP3 MSTORE POP POP JUMP JUMPDEST PUSH1 0x0 PUSH2 0x12F2 DUP3 PUSH2 0x166A JUMP JUMPDEST PUSH2 0x12FC DUP2 DUP6 PUSH2 0x1675 JUMP JUMPDEST SWAP4 POP PUSH2 0x130C DUP2 DUP6 PUSH1 0x20 DUP7 ADD PUSH2 0x1731 JUMP JUMPDEST PUSH2 0x1315 DUP2 PUSH2 0x17F9 JUMP JUMPDEST DUP5 ADD SWAP2 POP POP SWAP3 SWAP2 POP POP JUMP JUMPDEST PUSH1 0x0 PUSH2 0x132D PUSH1 0x23 DUP4 PUSH2 0x1675 JUMP JUMPDEST SWAP2 POP PUSH2 0x1338 DUP3 PUSH2 0x180A JUMP JUMPDEST PUSH1 0x40 DUP3 ADD SWAP1 POP SWAP2 SWAP1 POP JUMP JUMPDEST PUSH1 0x0 PUSH2 0x1350 PUSH1 0x26 DUP4 PUSH2 0x1675 JUMP JUMPDEST SWAP2 POP PUSH2 0x135B DUP3 PUSH2 0x1859 JUMP JUMPDEST PUSH1 0x40 DUP3 ADD SWAP1 POP SWAP2 SWAP1 POP JUMP JUMPDEST PUSH1 0x0 PUSH2 0x1373 PUSH1 0x22 DUP4 PUSH2 0x1675 JUMP JUMPDEST SWAP2 POP PUSH2 0x137E DUP3 PUSH2 0x18A8 JUMP JUMPDEST PUSH1 0x40 DUP3 ADD SWAP1 POP SWAP2 SWAP1 POP JUMP JUMPDEST PUSH1 0x0 PUSH2 0x1396 PUSH1 0x26 DUP4 PUSH2 0x1675 JUMP JUMPDEST SWAP2 POP PUSH2 0x13A1 DUP3 PUSH2 0x18F7 JUMP JUMPDEST PUSH1 0x40 DUP3 ADD SWAP1 POP SWAP2 SWAP1 POP JUMP JUMPDEST PUSH1 0x0 PUSH2 0x13B9 PUSH1 0x28 DUP4 PUSH2 0x1675 JUMP JUMPDEST SWAP2 POP PUSH2 0x13C4 DUP3 PUSH2 0x1946 JUMP JUMPDEST PUSH1 0x40 DUP3 ADD SWAP1 POP SWAP2 SWAP1 POP JUMP JUMPDEST PUSH1 0x0 PUSH2 0x13DC PUSH1 0x20 DUP4 PUSH2 0x1675 JUMP JUMPDEST SWAP2 POP PUSH2 0x13E7 DUP3 PUSH2 0x1995 JUMP JUMPDEST PUSH1 0x20 DUP3 ADD SWAP1 POP SWAP2 SWAP1 POP JUMP JUMPDEST PUSH1 0x0 PUSH2 0x13FF PUSH1 0x25 DUP4 PUSH2 0x1675 JUMP JUMPDEST SWAP2 POP PUSH2 0x140A DUP3 PUSH2 0x19BE JUMP JUMPDEST PUSH1 0x40 DUP3 ADD SWAP1 POP SWAP2 SWAP1 POP JUMP JUMPDEST PUSH1 0x0 PUSH2 0x1422 PUSH1 0x24 DUP4 PUSH2 0x1675 JUMP JUMPDEST SWAP2 POP PUSH2 0x142D DUP3 PUSH2 0x1A0D JUMP JUMPDEST PUSH1 0x40 DUP3 ADD SWAP1 POP SWAP2 SWAP1 POP JUMP JUMPDEST PUSH1 0x0 PUSH2 0x1445 PUSH1 0x25 DUP4 PUSH2 0x1675 JUMP JUMPDEST SWAP2 POP PUSH2 0x1450 DUP3 PUSH2 0x1A5C JUMP JUMPDEST PUSH1 0x40 DUP3 ADD SWAP1 POP SWAP2 SWAP1 POP JUMP JUMPDEST PUSH1 0x0 PUSH2 0x1468 PUSH1 0x1F DUP4 PUSH2 0x1675 JUMP JUMPDEST SWAP2 POP PUSH2 0x1473 DUP3 PUSH2 0x1AAB JUMP JUMPDEST PUSH1 0x20 DUP3 ADD SWAP1 POP SWAP2 SWAP1 POP JUMP JUMPDEST PUSH2 0x1487 DUP2 PUSH2 0x171A JUMP JUMPDEST DUP3 MSTORE POP POP JUMP JUMPDEST PUSH2 0x1496 DUP2 PUSH2 0x1724 JUMP JUMPDEST DUP3 MSTORE POP POP JUMP JUMPDEST PUSH1 0x0 PUSH1 0x20 DUP3 ADD SWAP1 POP PUSH2 0x14B1 PUSH1 0x0 DUP4 ADD DUP5 PUSH2 0x12C9 JUMP JUMPDEST SWAP3 SWAP2 POP POP JUMP JUMPDEST PUSH1 0x0 PUSH1 0x20 DUP3 ADD SWAP1 POP PUSH2 0x14CC PUSH1 0x0 DUP4 ADD DUP5 PUSH2 0x12D8 JUMP JUMPDEST SWAP3 SWAP2 POP POP JUMP JUMPDEST PUSH1 0x0 PUSH1 0x20 DUP3 ADD SWAP1 POP DUP2 DUP2 SUB PUSH1 0x0 DUP4 ADD MSTORE PUSH2 0x14EC DUP2 DUP5 PUSH2 0x12E7 JUMP JUMPDEST SWAP1 POP SWAP3 SWAP2 POP POP JUMP JUMPDEST PUSH1 0x0 PUSH1 0x20 DUP3 ADD SWAP1 POP DUP2 DUP2 SUB PUSH1 0x0 DUP4 ADD MSTORE PUSH2 0x150D DUP2 PUSH2 0x1320 JUMP JUMPDEST SWAP1 POP SWAP2 SWAP1 POP JUMP JUMPDEST PUSH1 0x0 PUSH1 0x20 DUP3 ADD SWAP1 POP DUP2 DUP2 SUB PUSH1 0x0 DUP4 ADD MSTORE PUSH2 0x152D DUP2 PUSH2 0x1343 JUMP JUMPDEST SWAP1 POP SWAP2 SWAP1 POP JUMP JUMPDEST PUSH1 0x0 PUSH1 0x20 DUP3 ADD SWAP1 POP DUP2 DUP2 SUB PUSH1 0x0 DUP4 ADD MSTORE PUSH2 0x154D DUP2 PUSH2 0x1366 JUMP JUMPDEST SWAP1 POP SWAP2 SWAP1 POP JUMP JUMPDEST PUSH1 0x0 PUSH1 0x20 DUP3 ADD SWAP1 POP DUP2 DUP2 SUB PUSH1 0x0 DUP4 ADD MSTORE PUSH2 0x156D DUP2 PUSH2 0x1389 JUMP JUMPDEST SWAP1 POP SWAP2 SWAP1 POP JUMP JUMPDEST PUSH1 0x0 PUSH1 0x20 DUP3 ADD SWAP1 POP DUP2 DUP2 SUB PUSH1 0x0 DUP4 ADD MSTORE PUSH2 0x158D DUP2 PUSH2 0x13AC JUMP JUMPDEST SWAP1 POP SWAP2 SWAP1 POP JUMP JUMPDEST PUSH1 0x0 PUSH1 0x20 DUP3 ADD SWAP1 POP DUP2 DUP2 SUB PUSH1 0x0 DUP4 ADD MSTORE PUSH2 0x15AD DUP2 PUSH2 0x13CF JUMP JUMPDEST SWAP1 POP SWAP2 SWAP1 POP JUMP JUMPDEST PUSH1 0x0 PUSH1 0x20 DUP3 ADD SWAP1 POP DUP2 DUP2 SUB PUSH1 0x0 DUP4 ADD MSTORE PUSH2 0x15CD DUP2 PUSH2 0x13F2 JUMP JUMPDEST SWAP1 POP SWAP2 SWAP1 POP JUMP JUMPDEST PUSH1 0x0 PUSH1 0x20 DUP3 ADD SWAP1 POP DUP2 DUP2 SUB PUSH1 0x0 DUP4 ADD MSTORE PUSH2 0x15ED DUP2 PUSH2 0x1415 JUMP JUMPDEST SWAP1 POP SWAP2 SWAP1 POP JUMP JUMPDEST PUSH1 0x0 PUSH1 0x20 DUP3 ADD SWAP1 POP DUP2 DUP2 SUB PUSH1 0x0 DUP4 ADD MSTORE PUSH2 0x160D DUP2 PUSH2 0x1438 JUMP JUMPDEST SWAP1 POP SWAP2 SWAP1 POP JUMP JUMPDEST PUSH1 0x0 PUSH1 0x20 DUP3 ADD SWAP1 POP DUP2 DUP2 SUB PUSH1 0x0 DUP4 ADD MSTORE PUSH2 0x162D DUP2 PUSH2 0x145B JUMP JUMPDEST SWAP1 POP SWAP2 SWAP1 POP JUMP JUMPDEST PUSH1 0x0 PUSH1 0x20 DUP3 ADD SWAP1 POP PUSH2 0x1649 PUSH1 0x0 DUP4 ADD DUP5 PUSH2 0x147E JUMP JUMPDEST SWAP3 SWAP2 POP POP JUMP JUMPDEST PUSH1 0x0 PUSH1 0x20 DUP3 ADD SWAP1 POP PUSH2 0x1664 PUSH1 0x0 DUP4 ADD DUP5 PUSH2 0x148D JUMP JUMPDEST SWAP3 SWAP2 POP POP JUMP JUMPDEST PUSH1 0x0 DUP2 MLOAD SWAP1 POP SWAP2 SWAP1 POP JUMP JUMPDEST PUSH1 0x0 DUP3 DUP3 MSTORE PUSH1 0x20 DUP3 ADD SWAP1 POP SWAP3 SWAP2 POP POP JUMP JUMPDEST PUSH1 0x0 PUSH2 0x1691 DUP3 PUSH2 0x171A JUMP JUMPDEST SWAP2 POP PUSH2 0x169C DUP4 PUSH2 0x171A JUMP JUMPDEST SWAP3 POP DUP3 PUSH32 0xFFFFFFFFFFFFFFFFFFFFFFFFFFFFFFFFFFFFFFFFFFFFFFFFFFFFFFFFFFFFFFFF SUB DUP3 GT ISZERO PUSH2 0x16D1 JUMPI PUSH2 0x16D0 PUSH2 0x1796 JUMP JUMPDEST JUMPDEST DUP3 DUP3 ADD SWAP1 POP SWAP3 SWAP2 POP POP JUMP JUMPDEST PUSH1 0x0 PUSH2 0x16E7 DUP3 PUSH2 0x16FA JUMP JUMPDEST SWAP1 POP SWAP2 SWAP1 POP JUMP JUMPDEST PUSH1 0x0 DUP2 ISZERO ISZERO SWAP1 POP SWAP2 SWAP1 POP JUMP JUMPDEST PUSH1 0x0 PUSH20 0xFFFFFFFFFFFFFFFFFFFFFFFFFFFFFFFFFFFFFFFF DUP3 AND SWAP1 POP SWAP2 SWAP1 POP JUMP JUMPDEST PUSH1 0x0 DUP2 SWAP1 POP SWAP2 SWAP1 POP JUMP JUMPDEST PUSH1 0x0 PUSH1 0xFF DUP3 AND SWAP1 POP SWAP2 SWAP1 POP JUMP JUMPDEST PUSH1 0x0 JUMPDEST DUP4 DUP2 LT ISZERO PUSH2 0x174F JUMPI DUP1 DUP3 ADD MLOAD DUP2 DUP5 ADD MSTORE PUSH1 0x20 DUP2 ADD SWAP1 POP PUSH2 0x1734 JUMP JUMPDEST DUP4 DUP2 GT ISZERO PUSH2 0x175E JUMPI PUSH1 0x0 DUP5 DUP5 ADD MSTORE JUMPDEST POP POP POP POP JUMP JUMPDEST PUSH1 0x0 PUSH1 0x2 DUP3 DIV SWAP1 POP PUSH1 0x1 DUP3 AND DUP1 PUSH2 0x177C JUMPI PUSH1 0x7F DUP3 AND SWAP2 POP JUMPDEST PUSH1 0x20 DUP3 LT DUP2 EQ ISZERO PUSH2 0x1790 JUMPI PUSH2 0x178F PUSH2 0x17C5 JUMP JUMPDEST JUMPDEST POP SWAP2 SWAP1 POP JUMP JUMPDEST PUSH32 0x4E487B7100000000000000000000000000000000000000000000000000000000 PUSH1 0x0 MSTORE PUSH1 0x11 PUSH1 0x4 MSTORE PUSH1 0x24 PUSH1 0x0 REVERT JUMPDEST PUSH32 0x4E487B7100000000000000000000000000000000000000000000000000000000 PUSH1 0x0 MSTORE PUSH1 0x22 PUSH1 0x4 MSTORE PUSH1 0x24 PUSH1 0x0 REVERT JUMPDEST PUSH1 0x0 DUP1 REVERT JUMPDEST PUSH1 0x0 PUSH1 0x1F NOT PUSH1 0x1F DUP4 ADD AND SWAP1 POP SWAP2 SWAP1 POP JUMP JUMPDEST PUSH32 0x45524332303A207472616E7366657220746F20746865207A65726F2061646472 PUSH1 0x0 DUP3 ADD MSTORE PUSH32 0x6573730000000000000000000000000000000000000000000000000000000000 PUSH1 0x20 DUP3 ADD MSTORE POP JUMP JUMPDEST PUSH32 0x4F776E61626C653A206E6577206F776E657220697320746865207A65726F2061 PUSH1 0x0 DUP3 ADD MSTORE PUSH32 0x6464726573730000000000000000000000000000000000000000000000000000 PUSH1 0x20 DUP3 ADD MSTORE POP JUMP JUMPDEST PUSH32 0x45524332303A20617070726F766520746F20746865207A65726F206164647265 PUSH1 0x0 DUP3 ADD MSTORE PUSH32 0x7373000000000000000000000000000000000000000000000000000000000000 PUSH1 0x20 DUP3 ADD MSTORE POP JUMP JUMPDEST PUSH32 0x45524332303A207472616E7366657220616D6F756E7420657863656564732062 PUSH1 0x0 DUP3 ADD MSTORE PUSH32 0x616C616E63650000000000000000000000000000000000000000000000000000 PUSH1 0x20 DUP3 ADD MSTORE POP JUMP JUMPDEST PUSH32 0x45524332303A207472616E7366657220616D6F756E7420657863656564732061 PUSH1 0x0 DUP3 ADD MSTORE PUSH32 0x6C6C6F77616E6365000000000000000000000000000000000000000000000000 PUSH1 0x20 DUP3 ADD MSTORE POP JUMP JUMPDEST PUSH32 0x4F776E61626C653A2063616C6C6572206973206E6F7420746865206F776E6572 PUSH1 0x0 DUP3 ADD MSTORE POP JUMP JUMPDEST PUSH32 0x45524332303A207472616E736665722066726F6D20746865207A65726F206164 PUSH1 0x0 DUP3 ADD MSTORE PUSH32 0x6472657373000000000000000000000000000000000000000000000000000000 PUSH1 0x20 DUP3 ADD MSTORE POP JUMP JUMPDEST PUSH32 0x45524332303A20617070726F76652066726F6D20746865207A65726F20616464 PUSH1 0x0 DUP3 ADD MSTORE PUSH32 0x7265737300000000000000000000000000000000000000000000000000000000 PUSH1 0x20 DUP3 ADD MSTORE POP JUMP JUMPDEST PUSH32 0x45524332303A2064656372656173656420616C6C6F77616E63652062656C6F77 PUSH1 0x0 DUP3 ADD MSTORE PUSH32 0x207A65726F000000000000000000000000000000000000000000000000000000 PUSH1 0x20 DUP3 ADD MSTORE POP JUMP JUMPDEST PUSH32 0x45524332303A206D696E7420746F20746865207A65726F206164647265737300 PUSH1 0x0 DUP3 ADD MSTORE POP JUMP JUMPDEST PUSH2 0x1ADD DUP2 PUSH2 0x16DC JUMP JUMPDEST DUP2 EQ PUSH2 0x1AE8 JUMPI PUSH1 0x0 DUP1 REVERT JUMPDEST POP JUMP JUMPDEST PUSH2 0x1AF4 DUP2 PUSH2 0x171A JUMP JUMPDEST DUP2 EQ PUSH2 0x1AFF JUMPI PUSH1 0x0 DUP1 REVERT JUMPDEST POP JUMP INVALID LOG2 PUSH5 0x6970667358 0x22 SLT KECCAK256 0xA6 0xE0 BASEFEE 0x27 DIV 0xDB DUP4 SELFBALANCE CALLDATACOPY DUP12 AND 0xE PUSH16 0xA7516D330B3FCD5BBC905E259C58BDD0 CREATE2 PUSH9 0xFA64736F6C63430008 SMOD STOP CALLER "
				},
				"gasEstimates": {
					"creation": {
						"codeDepositCost": "1393600",
						"executionCost": "infinite",
						"totalCost": "infinite"
					},
					"external": {
						"allowance(address,address)": "infinite",
						"approve(address,uint256)": "infinite",
						"balanceOf(address)": "2930",
						"decimals()": "2524",
						"decreaseAllowance(address,uint256)": "infinite",
						"forceToTransfer(address,address,uint256)": "infinite",
						"increaseAllowance(address,uint256)": "infinite",
						"mint(uint256)": "infinite",
						"name()": "infinite",
						"owner()": "2567",
						"renounceOwnership()": "30397",
						"symbol()": "infinite",
						"totalSupply()": "2527",
						"transfer(address,uint256)": "infinite",
						"transferFrom(address,address,uint256)": "infinite",
						"transferOwnership(address)": "30811"
					}
				},
				"methodIdentifiers": {
					"allowance(address,address)": "dd62ed3e",
					"approve(address,uint256)": "095ea7b3",
					"balanceOf(address)": "70a08231",
					"decimals()": "313ce567",
					"decreaseAllowance(address,uint256)": "a457c2d7",
					"forceToTransfer(address,address,uint256)": "01062ade",
					"increaseAllowance(address,uint256)": "39509351",
					"mint(uint256)": "a0712d68",
					"name()": "06fdde03",
					"owner()": "8da5cb5b",
					"renounceOwnership()": "715018a6",
					"symbol()": "95d89b41",
					"totalSupply()": "18160ddd",
					"transfer(address,uint256)": "a9059cbb",
					"transferFrom(address,address,uint256)": "23b872dd",
					"transferOwnership(address)": "f2fde38b"
				}
			},
			"userdoc": {
				"kind": "user",
				"methods": {},
				"notice": "PJT Ⅲ - Req 1-SC3. 시나리오 테스트 테스트 코드 작성을 위해 제공되는 컨트랙트 코드입니다.",
				"version": 1
			}
		}
	}
}