{
  "contractName": "NFTcreator",
  "abi": [
    {
      "inputs": [],
      "stateMutability": "nonpayable",
      "type": "constructor"
    },
    {
      "anonymous": false,
      "inputs": [
        {
          "indexed": true,
          "internalType": "address",
          "name": "owner",
          "type": "address"
        },
        {
          "indexed": true,
          "internalType": "address",
          "name": "approved",
          "type": "address"
        },
        {
          "indexed": true,
          "internalType": "uint256",
          "name": "tokenId",
          "type": "uint256"
        }
      ],
      "name": "Approval",
      "type": "event"
    },
    {
      "anonymous": false,
      "inputs": [
        {
          "indexed": true,
          "internalType": "address",
          "name": "owner",
          "type": "address"
        },
        {
          "indexed": true,
          "internalType": "address",
          "name": "operator",
          "type": "address"
        },
        {
          "indexed": false,
          "internalType": "bool",
          "name": "approved",
          "type": "bool"
        }
      ],
      "name": "ApprovalForAll",
      "type": "event"
    },
    {
      "anonymous": false,
      "inputs": [
        {
          "indexed": true,
          "internalType": "address",
          "name": "from",
          "type": "address"
        },
        {
          "indexed": true,
          "internalType": "address",
          "name": "to",
          "type": "address"
        },
        {
          "indexed": true,
          "internalType": "uint256",
          "name": "tokenId",
          "type": "uint256"
        }
      ],
      "name": "Transfer",
      "type": "event"
    },
    {
      "anonymous": false,
      "inputs": [
        {
          "indexed": true,
          "internalType": "uint256",
          "name": "_tokenId",
          "type": "uint256"
        },
        {
          "indexed": true,
          "internalType": "address",
          "name": "_owner",
          "type": "address"
        }
      ],
      "name": "createNFT",
      "type": "event"
    },
    {
      "inputs": [
        {
          "internalType": "address",
          "name": "to",
          "type": "address"
        },
        {
          "internalType": "uint256",
          "name": "tokenId",
          "type": "uint256"
        }
      ],
      "name": "approve",
      "outputs": [],
      "stateMutability": "nonpayable",
      "type": "function"
    },
    {
      "inputs": [
        {
          "internalType": "address",
          "name": "owner",
          "type": "address"
        }
      ],
      "name": "balanceOf",
      "outputs": [
        {
          "internalType": "uint256",
          "name": "",
          "type": "uint256"
        }
      ],
      "stateMutability": "view",
      "type": "function",
      "constant": true
    },
    {
      "inputs": [
        {
          "internalType": "uint256",
          "name": "tokenId",
          "type": "uint256"
        }
      ],
      "name": "getApproved",
      "outputs": [
        {
          "internalType": "address",
          "name": "",
          "type": "address"
        }
      ],
      "stateMutability": "view",
      "type": "function",
      "constant": true
    },
    {
      "inputs": [
        {
          "internalType": "address",
          "name": "owner",
          "type": "address"
        },
        {
          "internalType": "address",
          "name": "operator",
          "type": "address"
        }
      ],
      "name": "isApprovedForAll",
      "outputs": [
        {
          "internalType": "bool",
          "name": "",
          "type": "bool"
        }
      ],
      "stateMutability": "view",
      "type": "function",
      "constant": true
    },
    {
      "inputs": [],
      "name": "name",
      "outputs": [
        {
          "internalType": "string",
          "name": "",
          "type": "string"
        }
      ],
      "stateMutability": "view",
      "type": "function",
      "constant": true
    },
    {
      "inputs": [
        {
          "internalType": "uint256",
          "name": "tokenId",
          "type": "uint256"
        }
      ],
      "name": "ownerOf",
      "outputs": [
        {
          "internalType": "address",
          "name": "",
          "type": "address"
        }
      ],
      "stateMutability": "view",
      "type": "function",
      "constant": true
    },
    {
      "inputs": [
        {
          "internalType": "address",
          "name": "from",
          "type": "address"
        },
        {
          "internalType": "address",
          "name": "to",
          "type": "address"
        },
        {
          "internalType": "uint256",
          "name": "tokenId",
          "type": "uint256"
        }
      ],
      "name": "safeTransferFrom",
      "outputs": [],
      "stateMutability": "nonpayable",
      "type": "function"
    },
    {
      "inputs": [
        {
          "internalType": "address",
          "name": "from",
          "type": "address"
        },
        {
          "internalType": "address",
          "name": "to",
          "type": "address"
        },
        {
          "internalType": "uint256",
          "name": "tokenId",
          "type": "uint256"
        },
        {
          "internalType": "bytes",
          "name": "_data",
          "type": "bytes"
        }
      ],
      "name": "safeTransferFrom",
      "outputs": [],
      "stateMutability": "nonpayable",
      "type": "function"
    },
    {
      "inputs": [
        {
          "internalType": "address",
          "name": "operator",
          "type": "address"
        },
        {
          "internalType": "bool",
          "name": "approved",
          "type": "bool"
        }
      ],
      "name": "setApprovalForAll",
      "outputs": [],
      "stateMutability": "nonpayable",
      "type": "function"
    },
    {
      "inputs": [
        {
          "internalType": "bytes4",
          "name": "interfaceId",
          "type": "bytes4"
        }
      ],
      "name": "supportsInterface",
      "outputs": [
        {
          "internalType": "bool",
          "name": "",
          "type": "bool"
        }
      ],
      "stateMutability": "view",
      "type": "function",
      "constant": true
    },
    {
      "inputs": [],
      "name": "symbol",
      "outputs": [
        {
          "internalType": "string",
          "name": "",
          "type": "string"
        }
      ],
      "stateMutability": "view",
      "type": "function",
      "constant": true
    },
    {
      "inputs": [
        {
          "internalType": "address",
          "name": "from",
          "type": "address"
        },
        {
          "internalType": "address",
          "name": "to",
          "type": "address"
        },
        {
          "internalType": "uint256",
          "name": "tokenId",
          "type": "uint256"
        }
      ],
      "name": "transferFrom",
      "outputs": [],
      "stateMutability": "nonpayable",
      "type": "function"
    },
    {
      "inputs": [],
      "name": "current",
      "outputs": [
        {
          "internalType": "uint256",
          "name": "",
          "type": "uint256"
        }
      ],
      "stateMutability": "view",
      "type": "function",
      "constant": true
    },
    {
      "inputs": [
        {
          "internalType": "uint256",
          "name": "tokenId",
          "type": "uint256"
        }
      ],
      "name": "tokenURI",
      "outputs": [
        {
          "internalType": "string",
          "name": "",
          "type": "string"
        }
      ],
      "stateMutability": "view",
      "type": "function",
      "constant": true
    },
    {
      "inputs": [
        {
          "internalType": "address",
          "name": "to",
          "type": "address"
        },
        {
          "internalType": "string",
          "name": "_tokenURI",
          "type": "string"
        }
      ],
      "name": "create",
      "outputs": [
        {
          "internalType": "uint256",
          "name": "",
          "type": "uint256"
        }
      ],
      "stateMutability": "nonpayable",
      "type": "function"
    }
  ],
  "bytecode": "0x60806040523480156200001157600080fd5b506040518060400160405280600a81526020017f4e2d636974792d4e4654000000000000000000000000000000000000000000008152506040518060400160405280600381526020017f4e43540000000000000000000000000000000000000000000000000000000000815250816000908051906020019062000096929190620000b8565b508060019080519060200190620000af929190620000b8565b505050620001cd565b828054620000c69062000197565b90600052602060002090601f016020900481019282620000ea576000855562000136565b82601f106200010557805160ff191683800117855562000136565b8280016001018555821562000136579182015b828111156200013557825182559160200191906001019062000118565b5b50905062000145919062000149565b5090565b5b80821115620001645760008160009055506001016200014a565b5090565b7f4e487b7100000000000000000000000000000000000000000000000000000000600052602260045260246000fd5b60006002820490506001821680620001b057607f821691505b60208210811415620001c757620001c662000168565b5b50919050565b6125ca80620001dd6000396000f3fe608060405234801561001057600080fd5b50600436106100f55760003560e01c806370a0823111610097578063a22cb46511610066578063a22cb46514610298578063b88d4fde146102b4578063c87b56dd146102d0578063e985e9c514610300576100f5565b806370a08231146101fc57806395d89b411461022c5780639fa6a6e31461024a578063a15ab08d14610268576100f5565b8063095ea7b3116100d3578063095ea7b31461017857806323b872dd1461019457806342842e0e146101b05780636352211e146101cc576100f5565b806301ffc9a7146100fa57806306fdde031461012a578063081812fc14610148575b600080fd5b610114600480360381019061010f919061164b565b610330565b6040516101219190611693565b60405180910390f35b610132610412565b60405161013f9190611747565b60405180910390f35b610162600480360381019061015d919061179f565b6104a4565b60405161016f919061180d565b60405180910390f35b610192600480360381019061018d9190611854565b610529565b005b6101ae60048036038101906101a99190611894565b610641565b005b6101ca60048036038101906101c59190611894565b6106a1565b005b6101e660048036038101906101e1919061179f565b6106c1565b6040516101f3919061180d565b60405180910390f35b610216600480360381019061021191906118e7565b610773565b6040516102239190611923565b60405180910390f35b61023461082b565b6040516102419190611747565b60405180910390f35b6102526108bd565b60405161025f9190611923565b60405180910390f35b610282600480360381019061027d9190611a73565b6108c7565b60405161028f9190611923565b60405180910390f35b6102b260048036038101906102ad9190611afb565b610967565b005b6102ce60048036038101906102c99190611bdc565b61097d565b005b6102ea60048036038101906102e5919061179f565b6109df565b6040516102f79190611747565b60405180910390f35b61031a60048036038101906103159190611c5f565b610a84565b6040516103279190611693565b60405180910390f35b60007f80ac58cd000000000000000000000000000000000000000000000000000000007bffffffffffffffffffffffffffffffffffffffffffffffffffffffff1916827bffffffffffffffffffffffffffffffffffffffffffffffffffffffff191614806103fb57507f5b5e139f000000000000000000000000000000000000000000000000000000007bffffffffffffffffffffffffffffffffffffffffffffffffffffffff1916827bffffffffffffffffffffffffffffffffffffffffffffffffffffffff1916145b8061040b575061040a82610b18565b5b9050919050565b60606000805461042190611cce565b80601f016020809104026020016040519081016040528092919081815260200182805461044d90611cce565b801561049a5780601f1061046f5761010080835404028352916020019161049a565b820191906000526020600020905b81548152906001019060200180831161047d57829003601f168201915b5050505050905090565b60006104af82610b82565b6104ee576040517f08c379a00000000000000000000000000000000000000000000000000000000081526004016104e590611d72565b60405180910390fd5b6004600083815260200190815260200160002060009054906101000a900473ffffffffffffffffffffffffffffffffffffffff169050919050565b6000610534826106c1565b90508073ffffffffffffffffffffffffffffffffffffffff168373ffffffffffffffffffffffffffffffffffffffff1614156105a5576040517f08c379a000000000000000000000000000000000000000000000000000000000815260040161059c90611e04565b60405180910390fd5b8073ffffffffffffffffffffffffffffffffffffffff166105c4610bee565b73ffffffffffffffffffffffffffffffffffffffff1614806105f357506105f2816105ed610bee565b610a84565b5b610632576040517f08c379a000000000000000000000000000000000000000000000000000000000815260040161062990611e96565b60405180910390fd5b61063c8383610bf6565b505050565b61065261064c610bee565b82610caf565b610691576040517f08c379a000000000000000000000000000000000000000000000000000000000815260040161068890611f28565b60405180910390fd5b61069c838383610d8d565b505050565b6106bc8383836040518060200160405280600081525061097d565b505050565b6000806002600084815260200190815260200160002060009054906101000a900473ffffffffffffffffffffffffffffffffffffffff169050600073ffffffffffffffffffffffffffffffffffffffff168173ffffffffffffffffffffffffffffffffffffffff16141561076a576040517f08c379a000000000000000000000000000000000000000000000000000000000815260040161076190611fba565b60405180910390fd5b80915050919050565b60008073ffffffffffffffffffffffffffffffffffffffff168273ffffffffffffffffffffffffffffffffffffffff1614156107e4576040517f08c379a00000000000000000000000000000000000000000000000000000000081526004016107db9061204c565b60405180910390fd5b600360008373ffffffffffffffffffffffffffffffffffffffff1673ffffffffffffffffffffffffffffffffffffffff168152602001908152602001600020549050919050565b60606001805461083a90611cce565b80601f016020809104026020016040519081016040528092919081815260200182805461086690611cce565b80156108b35780601f10610888576101008083540402835291602001916108b3565b820191906000526020600020905b81548152906001019060200180831161089657829003601f168201915b5050505050905090565b6000600654905090565b60008060016108d46108bd565b6108de919061209b565b90508260076000838152602001908152602001600020908051906020019061090792919061153c565b50806006819055506109198482610ff4565b8373ffffffffffffffffffffffffffffffffffffffff16817f11407ed8d92a37c76ddc993ad3fce6827392297bbf8439605bef4399994f470d60405160405180910390a38091505092915050565b610979610972610bee565b83836111ce565b5050565b61098e610988610bee565b83610caf565b6109cd576040517f08c379a00000000000000000000000000000000000000000000000000000000081526004016109c490611f28565b60405180910390fd5b6109d98484848461133b565b50505050565b60606007600083815260200190815260200160002080546109ff90611cce565b80601f0160208091040260200160405190810160405280929190818152602001828054610a2b90611cce565b8015610a785780601f10610a4d57610100808354040283529160200191610a78565b820191906000526020600020905b815481529060010190602001808311610a5b57829003601f168201915b50505050509050919050565b6000600560008473ffffffffffffffffffffffffffffffffffffffff1673ffffffffffffffffffffffffffffffffffffffff16815260200190815260200160002060008373ffffffffffffffffffffffffffffffffffffffff1673ffffffffffffffffffffffffffffffffffffffff16815260200190815260200160002060009054906101000a900460ff16905092915050565b60007f01ffc9a7000000000000000000000000000000000000000000000000000000007bffffffffffffffffffffffffffffffffffffffffffffffffffffffff1916827bffffffffffffffffffffffffffffffffffffffffffffffffffffffff1916149050919050565b60008073ffffffffffffffffffffffffffffffffffffffff166002600084815260200190815260200160002060009054906101000a900473ffffffffffffffffffffffffffffffffffffffff1673ffffffffffffffffffffffffffffffffffffffff1614159050919050565b600033905090565b816004600083815260200190815260200160002060006101000a81548173ffffffffffffffffffffffffffffffffffffffff021916908373ffffffffffffffffffffffffffffffffffffffff160217905550808273ffffffffffffffffffffffffffffffffffffffff16610c69836106c1565b73ffffffffffffffffffffffffffffffffffffffff167f8c5be1e5ebec7d5bd14f71427d1e84f3dd0314c0f7b2291e5b200ac8c7c3b92560405160405180910390a45050565b6000610cba82610b82565b610cf9576040517f08c379a0000000000000000000000000000000000000000000000000000000008152600401610cf090612163565b60405180910390fd5b6000610d04836106c1565b90508073ffffffffffffffffffffffffffffffffffffffff168473ffffffffffffffffffffffffffffffffffffffff161480610d7357508373ffffffffffffffffffffffffffffffffffffffff16610d5b846104a4565b73ffffffffffffffffffffffffffffffffffffffff16145b80610d845750610d838185610a84565b5b91505092915050565b8273ffffffffffffffffffffffffffffffffffffffff16610dad826106c1565b73ffffffffffffffffffffffffffffffffffffffff1614610e03576040517f08c379a0000000000000000000000000000000000000000000000000000000008152600401610dfa906121f5565b60405180910390fd5b600073ffffffffffffffffffffffffffffffffffffffff168273ffffffffffffffffffffffffffffffffffffffff161415610e73576040517f08c379a0000000000000000000000000000000000000000000000000000000008152600401610e6a90612287565b60405180910390fd5b610e7e838383611397565b610e89600082610bf6565b6001600360008573ffffffffffffffffffffffffffffffffffffffff1673ffffffffffffffffffffffffffffffffffffffff1681526020019081526020016000206000828254610ed991906122a7565b925050819055506001600360008473ffffffffffffffffffffffffffffffffffffffff1673ffffffffffffffffffffffffffffffffffffffff1681526020019081526020016000206000828254610f30919061209b565b92505081905550816002600083815260200190815260200160002060006101000a81548173ffffffffffffffffffffffffffffffffffffffff021916908373ffffffffffffffffffffffffffffffffffffffff160217905550808273ffffffffffffffffffffffffffffffffffffffff168473ffffffffffffffffffffffffffffffffffffffff167fddf252ad1be2c89b69c2b068fc378daa952ba7f163c4a11628f55a4df523b3ef60405160405180910390a4610fef83838361139c565b505050565b600073ffffffffffffffffffffffffffffffffffffffff168273ffffffffffffffffffffffffffffffffffffffff161415611064576040517f08c379a000000000000000000000000000000000000000000000000000000000815260040161105b90612327565b60405180910390fd5b61106d81610b82565b156110ad576040517f08c379a00000000000000000000000000000000000000000000000000000000081526004016110a490612393565b60405180910390fd5b6110b960008383611397565b6001600360008473ffffffffffffffffffffffffffffffffffffffff1673ffffffffffffffffffffffffffffffffffffffff1681526020019081526020016000206000828254611109919061209b565b92505081905550816002600083815260200190815260200160002060006101000a81548173ffffffffffffffffffffffffffffffffffffffff021916908373ffffffffffffffffffffffffffffffffffffffff160217905550808273ffffffffffffffffffffffffffffffffffffffff16600073ffffffffffffffffffffffffffffffffffffffff167fddf252ad1be2c89b69c2b068fc378daa952ba7f163c4a11628f55a4df523b3ef60405160405180910390a46111ca6000838361139c565b5050565b8173ffffffffffffffffffffffffffffffffffffffff168373ffffffffffffffffffffffffffffffffffffffff16141561123d576040517f08c379a0000000000000000000000000000000000000000000000000000000008152600401611234906123ff565b60405180910390fd5b80600560008573ffffffffffffffffffffffffffffffffffffffff1673ffffffffffffffffffffffffffffffffffffffff16815260200190815260200160002060008473ffffffffffffffffffffffffffffffffffffffff1673ffffffffffffffffffffffffffffffffffffffff16815260200190815260200160002060006101000a81548160ff0219169083151502179055508173ffffffffffffffffffffffffffffffffffffffff168373ffffffffffffffffffffffffffffffffffffffff167f17307eab39ab6107e8899845ad3d59bd9653f200f220920489ca2b5937696c318360405161132e9190611693565b60405180910390a3505050565b611346848484610d8d565b611352848484846113a1565b611391576040517f08c379a000000000000000000000000000000000000000000000000000000000815260040161138890612491565b60405180910390fd5b50505050565b505050565b505050565b60006113c28473ffffffffffffffffffffffffffffffffffffffff16611529565b1561151c578373ffffffffffffffffffffffffffffffffffffffff1663150b7a026113eb610bee565b8786866040518563ffffffff1660e01b815260040161140d9493929190612506565b6020604051808303816000875af192505050801561144957506040513d601f19601f820116820180604052508101906114469190612567565b60015b6114cc573d8060008114611479576040519150601f19603f3d011682016040523d82523d6000602084013e61147e565b606091505b506000815114156114c4576040517f08c379a00000000000000000000000000000000000000000000000000000000081526004016114bb90612491565b60405180910390fd5b805181602001fd5b63150b7a0260e01b7bffffffffffffffffffffffffffffffffffffffffffffffffffffffff1916817bffffffffffffffffffffffffffffffffffffffffffffffffffffffff191614915050611521565b600190505b949350505050565b600080823b905060008111915050919050565b82805461154890611cce565b90600052602060002090601f01602090048101928261156a57600085556115b1565b82601f1061158357805160ff19168380011785556115b1565b828001600101855582156115b1579182015b828111156115b0578251825591602001919060010190611595565b5b5090506115be91906115c2565b5090565b5b808211156115db5760008160009055506001016115c3565b5090565b6000604051905090565b600080fd5b600080fd5b60007fffffffff0000000000000000000000000000000000000000000000000000000082169050919050565b611628816115f3565b811461163357600080fd5b50565b6000813590506116458161161f565b92915050565b600060208284031215611661576116606115e9565b5b600061166f84828501611636565b91505092915050565b60008115159050919050565b61168d81611678565b82525050565b60006020820190506116a86000830184611684565b92915050565b600081519050919050565b600082825260208201905092915050565b60005b838110156116e85780820151818401526020810190506116cd565b838111156116f7576000848401525b50505050565b6000601f19601f8301169050919050565b6000611719826116ae565b61172381856116b9565b93506117338185602086016116ca565b61173c816116fd565b840191505092915050565b60006020820190508181036000830152611761818461170e565b905092915050565b6000819050919050565b61177c81611769565b811461178757600080fd5b50565b60008135905061179981611773565b92915050565b6000602082840312156117b5576117b46115e9565b5b60006117c38482850161178a565b91505092915050565b600073ffffffffffffffffffffffffffffffffffffffff82169050919050565b60006117f7826117cc565b9050919050565b611807816117ec565b82525050565b600060208201905061182260008301846117fe565b92915050565b611831816117ec565b811461183c57600080fd5b50565b60008135905061184e81611828565b92915050565b6000806040838503121561186b5761186a6115e9565b5b60006118798582860161183f565b925050602061188a8582860161178a565b9150509250929050565b6000806000606084860312156118ad576118ac6115e9565b5b60006118bb8682870161183f565b93505060206118cc8682870161183f565b92505060406118dd8682870161178a565b9150509250925092565b6000602082840312156118fd576118fc6115e9565b5b600061190b8482850161183f565b91505092915050565b61191d81611769565b82525050565b60006020820190506119386000830184611914565b92915050565b600080fd5b600080fd5b7f4e487b7100000000000000000000000000000000000000000000000000000000600052604160045260246000fd5b611980826116fd565b810181811067ffffffffffffffff8211171561199f5761199e611948565b5b80604052505050565b60006119b26115df565b90506119be8282611977565b919050565b600067ffffffffffffffff8211156119de576119dd611948565b5b6119e7826116fd565b9050602081019050919050565b82818337600083830152505050565b6000611a16611a11846119c3565b6119a8565b905082815260208101848484011115611a3257611a31611943565b5b611a3d8482856119f4565b509392505050565b600082601f830112611a5a57611a5961193e565b5b8135611a6a848260208601611a03565b91505092915050565b60008060408385031215611a8a57611a896115e9565b5b6000611a988582860161183f565b925050602083013567ffffffffffffffff811115611ab957611ab86115ee565b5b611ac585828601611a45565b9150509250929050565b611ad881611678565b8114611ae357600080fd5b50565b600081359050611af581611acf565b92915050565b60008060408385031215611b1257611b116115e9565b5b6000611b208582860161183f565b9250506020611b3185828601611ae6565b9150509250929050565b600067ffffffffffffffff821115611b5657611b55611948565b5b611b5f826116fd565b9050602081019050919050565b6000611b7f611b7a84611b3b565b6119a8565b905082815260208101848484011115611b9b57611b9a611943565b5b611ba68482856119f4565b509392505050565b600082601f830112611bc357611bc261193e565b5b8135611bd3848260208601611b6c565b91505092915050565b60008060008060808587031215611bf657611bf56115e9565b5b6000611c048782880161183f565b9450506020611c158782880161183f565b9350506040611c268782880161178a565b925050606085013567ffffffffffffffff811115611c4757611c466115ee565b5b611c5387828801611bae565b91505092959194509250565b60008060408385031215611c7657611c756115e9565b5b6000611c848582860161183f565b9250506020611c958582860161183f565b9150509250929050565b7f4e487b7100000000000000000000000000000000000000000000000000000000600052602260045260246000fd5b60006002820490506001821680611ce657607f821691505b60208210811415611cfa57611cf9611c9f565b5b50919050565b7f4552433732313a20617070726f76656420717565727920666f72206e6f6e657860008201527f697374656e7420746f6b656e0000000000000000000000000000000000000000602082015250565b6000611d5c602c836116b9565b9150611d6782611d00565b604082019050919050565b60006020820190508181036000830152611d8b81611d4f565b9050919050565b7f4552433732313a20617070726f76616c20746f2063757272656e74206f776e6560008201527f7200000000000000000000000000000000000000000000000000000000000000602082015250565b6000611dee6021836116b9565b9150611df982611d92565b604082019050919050565b60006020820190508181036000830152611e1d81611de1565b9050919050565b7f4552433732313a20617070726f76652063616c6c6572206973206e6f74206f7760008201527f6e6572206e6f7220617070726f76656420666f7220616c6c0000000000000000602082015250565b6000611e806038836116b9565b9150611e8b82611e24565b604082019050919050565b60006020820190508181036000830152611eaf81611e73565b9050919050565b7f4552433732313a207472616e736665722063616c6c6572206973206e6f74206f60008201527f776e6572206e6f7220617070726f766564000000000000000000000000000000602082015250565b6000611f126031836116b9565b9150611f1d82611eb6565b604082019050919050565b60006020820190508181036000830152611f4181611f05565b9050919050565b7f4552433732313a206f776e657220717565727920666f72206e6f6e657869737460008201527f656e7420746f6b656e0000000000000000000000000000000000000000000000602082015250565b6000611fa46029836116b9565b9150611faf82611f48565b604082019050919050565b60006020820190508181036000830152611fd381611f97565b9050919050565b7f4552433732313a2062616c616e636520717565727920666f7220746865207a6560008201527f726f206164647265737300000000000000000000000000000000000000000000602082015250565b6000612036602a836116b9565b915061204182611fda565b604082019050919050565b6000602082019050818103600083015261206581612029565b9050919050565b7f4e487b7100000000000000000000000000000000000000000000000000000000600052601160045260246000fd5b60006120a682611769565b91506120b183611769565b9250827fffffffffffffffffffffffffffffffffffffffffffffffffffffffffffffffff038211156120e6576120e561206c565b5b828201905092915050565b7f4552433732313a206f70657261746f7220717565727920666f72206e6f6e657860008201527f697374656e7420746f6b656e0000000000000000000000000000000000000000602082015250565b600061214d602c836116b9565b9150612158826120f1565b604082019050919050565b6000602082019050818103600083015261217c81612140565b9050919050565b7f4552433732313a207472616e736665722066726f6d20696e636f72726563742060008201527f6f776e6572000000000000000000000000000000000000000000000000000000602082015250565b60006121df6025836116b9565b91506121ea82612183565b604082019050919050565b6000602082019050818103600083015261220e816121d2565b9050919050565b7f4552433732313a207472616e7366657220746f20746865207a65726f2061646460008201527f7265737300000000000000000000000000000000000000000000000000000000602082015250565b60006122716024836116b9565b915061227c82612215565b604082019050919050565b600060208201905081810360008301526122a081612264565b9050919050565b60006122b282611769565b91506122bd83611769565b9250828210156122d0576122cf61206c565b5b828203905092915050565b7f4552433732313a206d696e7420746f20746865207a65726f2061646472657373600082015250565b60006123116020836116b9565b915061231c826122db565b602082019050919050565b6000602082019050818103600083015261234081612304565b9050919050565b7f4552433732313a20746f6b656e20616c7265616479206d696e74656400000000600082015250565b600061237d601c836116b9565b915061238882612347565b602082019050919050565b600060208201905081810360008301526123ac81612370565b9050919050565b7f4552433732313a20617070726f766520746f2063616c6c657200000000000000600082015250565b60006123e96019836116b9565b91506123f4826123b3565b602082019050919050565b60006020820190508181036000830152612418816123dc565b9050919050565b7f4552433732313a207472616e7366657220746f206e6f6e20455243373231526560008201527f63656976657220696d706c656d656e7465720000000000000000000000000000602082015250565b600061247b6032836116b9565b91506124868261241f565b604082019050919050565b600060208201905081810360008301526124aa8161246e565b9050919050565b600081519050919050565b600082825260208201905092915050565b60006124d8826124b1565b6124e281856124bc565b93506124f28185602086016116ca565b6124fb816116fd565b840191505092915050565b600060808201905061251b60008301876117fe565b61252860208301866117fe565b6125356040830185611914565b818103606083015261254781846124cd565b905095945050505050565b6000815190506125618161161f565b92915050565b60006020828403121561257d5761257c6115e9565b5b600061258b84828501612552565b9150509291505056fea26469706673582212207394c56686c9de6b25314a90e954da575a647ebb7e95ea0112ec39b32a43d7c964736f6c634300080b0033",
  "immutableReferences": {},
  "source": "// SPDX-License-Identifier: MIT\r\npragma solidity ^0.8.4;\r\n\r\nimport \"./token/ERC721/ERC721.sol\";\r\nimport \"./token/ERC721/extensions/ERC721Enumerable.sol\";\r\n\r\n/**\r\n * PJT  -  2) NFT Creator \r\n *         .\r\n */\r\ncontract NFTcreator is ERC721 {\r\n\r\n    uint256 private _tokenIds;\r\n    mapping(uint256 => string) tokenURIs; // URI    mapping\r\n\r\n    event createNFT (uint256 indexed _tokenId, address indexed _owner);\r\n\r\n    constructor() ERC721(\"N-city-NFT\", \"NCT\") {}\r\n\r\n    function current() public view returns (uint256) {\r\n        return _tokenIds;\r\n    }\r\n\r\n    // tokenId   token  \r\n    function tokenURI(uint256 tokenId) public view override returns (string memory) {\r\n        return tokenURIs[tokenId];\r\n    }\r\n\r\n    //      tokenURI  .\r\n    //    (tokenId)  _mint() .\r\n    //    toeknURI  .  mapping  \r\n    //     .\r\n    function create(address to, string memory _tokenURI) public returns (uint256) {\r\n        // TODO\r\n        // require(msg.sender == to, \"caller is not match with nft creator(to address)\");\r\n        uint256 tokenId = current() + 1;\r\n        tokenURIs[tokenId] = _tokenURI;\r\n        _tokenIds = tokenId;\r\n        _mint(to, tokenId);\r\n        emit createNFT(tokenId, to);\r\n        return tokenId;\r\n    }\r\n}",
  "sourcePath": "C:\\Users\\SSAFY\\Desktop\\S06P22E106\\smart-contracts\\contracts\\NFTcreator.sol",
  "compiler": {
    "name": "solc",
    "version": "0.8.11+commit.d7f03943.Emscripten.clang"
  },
  "schemaVersion": "3.4.5",
  "updatedAt": "2022-03-28T01:41:15.419Z",
  "networkType": "ethereum",
  "devdoc": {
    "kind": "dev",
    "methods": {
      "approve(address,uint256)": {
        "details": "Gives permission to `to` to transfer `tokenId` token to another account. The approval is cleared when the token is transferred. Only a single account can be approved at a time, so approving the zero address clears previous approvals. Requirements: - The caller must own the token or be an approved operator. - `tokenId` must exist. Emits an {Approval} event."
      },
      "balanceOf(address)": {
        "details": "Returns the number of tokens in ``owner``'s account."
      },
      "getApproved(uint256)": {
        "details": "Returns the account approved for `tokenId` token. Requirements: - `tokenId` must exist."
      },
      "isApprovedForAll(address,address)": {
        "details": "Returns if the `operator` is allowed to manage all of the assets of `owner`. See {setApprovalForAll}"
      },
      "name()": {
        "details": "Returns the token collection name."
      },
      "ownerOf(uint256)": {
        "details": "Returns the owner of the `tokenId` token. Requirements: - `tokenId` must exist."
      },
      "safeTransferFrom(address,address,uint256)": {
        "params": {
          "from": "  ",
          "to": "  ID   ",
          "tokenId": "  uint256 ID"
        }
      },
      "symbol()": {
        "details": "Returns the token collection symbol."
      },
      "tokenURI(uint256)": {
        "details": "Returns the Uniform Resource Identifier (URI) for `tokenId` token."
      },
      "transferFrom(address,address,uint256)": {
        "params": {
          "from": "  ",
          "to": "  ID   ",
          "tokenId": "  uint256 ID"
        }
      }
    },
    "version": 1
  },
  "userdoc": {
    "kind": "user",
    "methods": {
      "safeTransferFrom(address,address,uint256)": {
        "notice": "  ID         ,  `onERC721Received`         `bytes4(keccak256(\"onERC721Received(address,address,uint256,bytes)\"))` .     . _msgSender() ,  ,  "
      },
      "transferFrom(address,address,uint256)": {
        "notice": "  ID          ,  `safeTransferFrom`   _msgSender() ,  ,   ."
      }
    },
    "notice": "PJT  -  2) NFT Creator          .",
    "version": 1
  }
}