{
  "contractName": "Sale",
  "abi": [
    {
      "inputs": [
        {
          "internalType": "address",
          "name": "_admin",
          "type": "address"
        },
        {
          "internalType": "address",
          "name": "_seller",
          "type": "address"
        },
        {
          "internalType": "uint256",
          "name": "_tokenId",
          "type": "uint256"
        },
        {
          "internalType": "uint256",
          "name": "_minPrice",
          "type": "uint256"
        },
        {
          "internalType": "uint256",
          "name": "_purchasePrice",
          "type": "uint256"
        },
        {
          "internalType": "uint256",
          "name": "startTime",
          "type": "uint256"
        },
        {
          "internalType": "uint256",
          "name": "endTime",
          "type": "uint256"
        },
        {
          "internalType": "address",
          "name": "_currencyAddress",
          "type": "address"
        },
        {
          "internalType": "address",
          "name": "_nftAddress",
          "type": "address"
        }
      ],
      "stateMutability": "nonpayable",
      "type": "constructor"
    },
    {
      "anonymous": false,
      "inputs": [
        {
          "indexed": false,
          "internalType": "address",
          "name": "bidder",
          "type": "address"
        },
        {
          "indexed": false,
          "internalType": "uint256",
          "name": "amount",
          "type": "uint256"
        }
      ],
      "name": "HighestBidIncereased",
      "type": "event"
    },
    {
      "anonymous": false,
      "inputs": [
        {
          "indexed": false,
          "internalType": "address",
          "name": "winner",
          "type": "address"
        },
        {
          "indexed": false,
          "internalType": "uint256",
          "name": "amount",
          "type": "uint256"
        }
      ],
      "name": "SaleEnded",
      "type": "event"
    },
    {
      "inputs": [],
      "name": "buyer",
      "outputs": [
        {
          "internalType": "address",
          "name": "",
          "type": "address"
        }
      ],
      "stateMutability": "view",
      "type": "function"
    },
    {
      "inputs": [],
      "name": "currencyAddress",
      "outputs": [
        {
          "internalType": "address",
          "name": "",
          "type": "address"
        }
      ],
      "stateMutability": "view",
      "type": "function"
    },
    {
      "inputs": [],
      "name": "ended",
      "outputs": [
        {
          "internalType": "bool",
          "name": "",
          "type": "bool"
        }
      ],
      "stateMutability": "view",
      "type": "function"
    },
    {
      "inputs": [],
      "name": "erc20Contract",
      "outputs": [
        {
          "internalType": "contract IERC20",
          "name": "",
          "type": "address"
        }
      ],
      "stateMutability": "view",
      "type": "function"
    },
    {
      "inputs": [],
      "name": "erc721Constract",
      "outputs": [
        {
          "internalType": "contract IERC721",
          "name": "",
          "type": "address"
        }
      ],
      "stateMutability": "view",
      "type": "function"
    },
    {
      "inputs": [],
      "name": "highestBid",
      "outputs": [
        {
          "internalType": "uint256",
          "name": "",
          "type": "uint256"
        }
      ],
      "stateMutability": "view",
      "type": "function"
    },
    {
      "inputs": [],
      "name": "highestBidder",
      "outputs": [
        {
          "internalType": "address",
          "name": "",
          "type": "address"
        }
      ],
      "stateMutability": "view",
      "type": "function"
    },
    {
      "inputs": [],
      "name": "minPrice",
      "outputs": [
        {
          "internalType": "uint256",
          "name": "",
          "type": "uint256"
        }
      ],
      "stateMutability": "view",
      "type": "function"
    },
    {
      "inputs": [],
      "name": "nftAddress",
      "outputs": [
        {
          "internalType": "address",
          "name": "",
          "type": "address"
        }
      ],
      "stateMutability": "view",
      "type": "function"
    },
    {
      "inputs": [],
      "name": "purchasePrice",
      "outputs": [
        {
          "internalType": "uint256",
          "name": "",
          "type": "uint256"
        }
      ],
      "stateMutability": "view",
      "type": "function"
    },
    {
      "inputs": [],
      "name": "saleEndTime",
      "outputs": [
        {
          "internalType": "uint256",
          "name": "",
          "type": "uint256"
        }
      ],
      "stateMutability": "view",
      "type": "function"
    },
    {
      "inputs": [],
      "name": "saleStartTime",
      "outputs": [
        {
          "internalType": "uint256",
          "name": "",
          "type": "uint256"
        }
      ],
      "stateMutability": "view",
      "type": "function"
    },
    {
      "inputs": [],
      "name": "seller",
      "outputs": [
        {
          "internalType": "address",
          "name": "",
          "type": "address"
        }
      ],
      "stateMutability": "view",
      "type": "function"
    },
    {
      "inputs": [],
      "name": "tokenId",
      "outputs": [
        {
          "internalType": "uint256",
          "name": "",
          "type": "uint256"
        }
      ],
      "stateMutability": "view",
      "type": "function"
    },
    {
      "inputs": [
        {
          "internalType": "uint256",
          "name": "bid_amount",
          "type": "uint256"
        }
      ],
      "name": "bid",
      "outputs": [],
      "stateMutability": "nonpayable",
      "type": "function"
    },
    {
      "inputs": [],
      "name": "purchase",
      "outputs": [],
      "stateMutability": "nonpayable",
      "type": "function"
    },
    {
      "inputs": [],
      "name": "confirmItem",
      "outputs": [],
      "stateMutability": "nonpayable",
      "type": "function"
    },
    {
      "inputs": [],
      "name": "cancelSales",
      "outputs": [],
      "stateMutability": "nonpayable",
      "type": "function"
    },
    {
      "inputs": [],
      "name": "getTimeLeft",
      "outputs": [
        {
          "internalType": "int256",
          "name": "",
          "type": "int256"
        }
      ],
      "stateMutability": "view",
      "type": "function"
    },
    {
      "inputs": [],
      "name": "getBlockTimeStamp",
      "outputs": [
        {
          "internalType": "uint256",
          "name": "",
          "type": "uint256"
        }
      ],
      "stateMutability": "view",
      "type": "function"
    },
    {
      "inputs": [],
      "name": "getSaleInfo",
      "outputs": [
        {
          "internalType": "uint256",
          "name": "",
          "type": "uint256"
        },
        {
          "internalType": "uint256",
          "name": "",
          "type": "uint256"
        },
        {
          "internalType": "uint256",
          "name": "",
          "type": "uint256"
        },
        {
          "internalType": "uint256",
          "name": "",
          "type": "uint256"
        },
        {
          "internalType": "uint256",
          "name": "",
          "type": "uint256"
        },
        {
          "internalType": "address",
          "name": "",
          "type": "address"
        },
        {
          "internalType": "uint256",
          "name": "",
          "type": "uint256"
        },
        {
          "internalType": "address",
          "name": "",
          "type": "address"
        },
        {
          "internalType": "address",
          "name": "",
          "type": "address"
        }
      ],
      "stateMutability": "view",
      "type": "function"
    },
    {
      "inputs": [],
      "name": "getHighestBid",
      "outputs": [
        {
          "internalType": "uint256",
          "name": "",
          "type": "uint256"
        }
      ],
      "stateMutability": "view",
      "type": "function"
    }
  ],
  "bytecode": "0x60806040523480156200001157600080fd5b5060405162000c9938038062000c998339818101604052810190620000379190620002bc565b600086116200004557600080fd5b866007819055508560058190555084600681905550876000806101000a81548173ffffffffffffffffffffffffffffffffffffffff021916908373ffffffffffffffffffffffffffffffffffffffff16021790555088600260006101000a81548173ffffffffffffffffffffffffffffffffffffffff021916908373ffffffffffffffffffffffffffffffffffffffff160217905550836003819055508260048190555081600860006101000a81548173ffffffffffffffffffffffffffffffffffffffff021916908373ffffffffffffffffffffffffffffffffffffffff16021790555080600960006101000a81548173ffffffffffffffffffffffffffffffffffffffff021916908373ffffffffffffffffffffffffffffffffffffffff1602179055506000600960146101000a81548160ff02191690831515021790555081600c60006101000a81548173ffffffffffffffffffffffffffffffffffffffff021916908373ffffffffffffffffffffffffffffffffffffffff16021790555080600d60006101000a81548173ffffffffffffffffffffffffffffffffffffffff021916908373ffffffffffffffffffffffffffffffffffffffff1602179055505050505050505050506200039b565b600080fd5b600073ffffffffffffffffffffffffffffffffffffffff82169050919050565b600062000249826200021c565b9050919050565b6200025b816200023c565b81146200026757600080fd5b50565b6000815190506200027b8162000250565b92915050565b6000819050919050565b620002968162000281565b8114620002a257600080fd5b50565b600081519050620002b6816200028b565b92915050565b60008060008060008060008060006101208a8c031215620002e257620002e162000217565b5b6000620002f28c828d016200026a565b9950506020620003058c828d016200026a565b9850506040620003188c828d01620002a5565b97505060606200032b8c828d01620002a5565b96505060806200033e8c828d01620002a5565b95505060a0620003518c828d01620002a5565b94505060c0620003648c828d01620002a5565b93505060e0620003778c828d016200026a565b9250506101006200038b8c828d016200026a565b9150509295985092959850929598565b6108ee80620003ab6000396000f3fe608060405234801561001057600080fd5b50600436106101425760003560e01c8063903e329c116100b8578063d57bde791161007c578063d57bde79146102e9578063db83694c14610307578063defd6c5f1461032d578063e45be8eb1461034b578063ed338ff114610369578063ef0a230e1461038757610142565b8063903e329c1461026757806391f9015714610271578063a8f6c9131461028f578063c7e284b8146102ad578063ca49a543146102cb57610142565b80631cbaee2d1161010a5780631cbaee2d146101c9578063454a2ab3146101e75780634979440a146102035780635bf8633a1461022157806364edfbf01461023f5780637150d8ae1461024957610142565b806308551a53146101475780630a7f463f1461016557806312fa6feb1461016f57806317d70f7c1461018d5780631c1cb323146101ab575b600080fd5b61014f6103a5565b60405161015c91906105fb565b60405180910390f35b61016d6103c9565b005b6101776103cb565b6040516101849190610631565b60405180910390f35b6101956103de565b6040516101a29190610665565b60405180910390f35b6101b36103e4565b6040516101c091906105fb565b60405180910390f35b6101d161040a565b6040516101de9190610665565b60405180910390f35b61020160048036038101906101fc91906106b1565b610410565b005b61020b610413565b6040516102189190610665565b60405180910390f35b61022961041d565b60405161023691906105fb565b60405180910390f35b610247610443565b005b610251610445565b60405161025e91906105fb565b60405180910390f35b61026f61046b565b005b61027961046d565b60405161028691906105fb565b60405180910390f35b610297610493565b6040516102a4919061073d565b60405180910390f35b6102b56104b9565b6040516102c29190610771565b60405180910390f35b6102d36104ce565b6040516102e09190610665565b60405180910390f35b6102f16104d6565b6040516102fe9190610665565b60405180910390f35b61030f6104dc565b6040516103249998979695949392919061078c565b60405180910390f35b610335610582565b6040516103429190610665565b60405180910390f35b610353610588565b6040516103609190610665565b60405180910390f35b61037161058e565b60405161037e9190610665565b60405180910390f35b61038f610594565b60405161039c919061083a565b60405180910390f35b60008054906101000a900473ffffffffffffffffffffffffffffffffffffffff1681565b565b600960149054906101000a900460ff1681565b60075481565b600860009054906101000a900473ffffffffffffffffffffffffffffffffffffffff1681565b60035481565b50565b6000600b54905090565b600960009054906101000a900473ffffffffffffffffffffffffffffffffffffffff1681565b565b600160009054906101000a900473ffffffffffffffffffffffffffffffffffffffff1681565b565b600a60009054906101000a900473ffffffffffffffffffffffffffffffffffffffff1681565b600c60009054906101000a900473ffffffffffffffffffffffffffffffffffffffff1681565b6000426004546104c99190610884565b905090565b600042905090565b600b5481565b6000806000806000806000806000600354600454600554600654600754600a60009054906101000a900473ffffffffffffffffffffffffffffffffffffffff16600b54600860009054906101000a900473ffffffffffffffffffffffffffffffffffffffff16600960009054906101000a900473ffffffffffffffffffffffffffffffffffffffff16985098509850985098509850985098509850909192939495969798565b60065481565b60055481565b60045481565b600d60009054906101000a900473ffffffffffffffffffffffffffffffffffffffff1681565b600073ffffffffffffffffffffffffffffffffffffffff82169050919050565b60006105e5826105ba565b9050919050565b6105f5816105da565b82525050565b600060208201905061061060008301846105ec565b92915050565b60008115159050919050565b61062b81610616565b82525050565b60006020820190506106466000830184610622565b92915050565b6000819050919050565b61065f8161064c565b82525050565b600060208201905061067a6000830184610656565b92915050565b600080fd5b61068e8161064c565b811461069957600080fd5b50565b6000813590506106ab81610685565b92915050565b6000602082840312156106c7576106c6610680565b5b60006106d58482850161069c565b91505092915050565b6000819050919050565b60006107036106fe6106f9846105ba565b6106de565b6105ba565b9050919050565b6000610715826106e8565b9050919050565b60006107278261070a565b9050919050565b6107378161071c565b82525050565b6000602082019050610752600083018461072e565b92915050565b6000819050919050565b61076b81610758565b82525050565b60006020820190506107866000830184610762565b92915050565b6000610120820190506107a2600083018c610656565b6107af602083018b610656565b6107bc604083018a610656565b6107c96060830189610656565b6107d66080830188610656565b6107e360a08301876105ec565b6107f060c0830186610656565b6107fd60e08301856105ec565b61080b6101008301846105ec565b9a9950505050505050505050565b60006108248261070a565b9050919050565b61083481610819565b82525050565b600060208201905061084f600083018461082b565b92915050565b7f4e487b7100000000000000000000000000000000000000000000000000000000600052601160045260246000fd5b600061088f8261064c565b915061089a8361064c565b9250828210156108ad576108ac610855565b5b82820390509291505056fea2646970667358221220927cd5b5cc2576169c6355afb8250d7b2b51da708de98bdbd8e6ec7b496576a164736f6c634300080b0033",
  "immutableReferences": {},
  "source": "// SPDX-License-Identifier: MIT\r\npragma solidity ^0.8.4;\r\n\r\nimport \"./access/Ownable.sol\";\r\nimport \"./token/ERC20/ERC20.sol\";\r\nimport \"./token/ERC721/ERC721.sol\";\r\nimport \"./NFTcreator.sol\";\r\n\r\n/**\r\n * PJT  - Req.1-SC1 SaleFactory \r\n *    ,      .\r\n */\r\n /*\r\n Sale      \r\n   NFT ERC-20     \r\n SaleFactory  Sale     Sale   NFT .\r\n  */\r\ncontract SaleFactory is Ownable {\r\n    address public admin; //     address(owner)\r\n    address[] public sales; //     Sale  \r\n    NFTcreator public NFTcreatorContract;\r\n\r\n    event NewSale(\r\n        address indexed _saleContract,\r\n        address indexed _owner,\r\n        uint256 _workId\r\n    );\r\n\r\n    constructor(address _NFTcreatorAddress) {\r\n        admin = msg.sender;\r\n        NFTcreatorContract = NFTcreator(_NFTcreatorAddress);\r\n    }\r\n\r\n    /**\r\n     * @dev   . \r\n     */\r\n    /*\r\n        Sale  .\r\n     Sale   .\r\n     Sale   .\r\n     */\r\n    function createSale(\r\n        uint256 itemId,\r\n        uint256 minPrice,\r\n        uint256 purchasePrice,\r\n        uint256 startTime,\r\n        uint256 endTime,\r\n        address currencyAddress,\r\n        address nftAddress\r\n    ) public returns (address) {\r\n        // TODO\r\n        Sale instance = new Sale(admin, msg.sender, itemId, minPrice, purchasePrice, startTime, endTime, currencyAddress, nftAddress);\r\n        //   tokenid    \r\n        NFTcreatorContract.transferFrom(msg.sender, address(instance), itemId);\r\n        // return instance;\r\n        // emit NewSale(_saleContract, _owner, _workId);\r\n        sales.push(address(instance));\r\n        emit NewSale(address(instance), msg.sender, itemId);\r\n        return address(instance);\r\n    }\r\n    \r\n    //   Sale  \r\n    function allSales() public view returns (address[] memory) {\r\n        return sales;\r\n    }\r\n}\r\n\r\n/**\r\n *  PJT  - Req.1-SC2) Sale \r\n */\r\n/**\r\n    \r\n(constructor), (bid), (purchase), (confirmItem), (cancle) \r\n   bid(), purchase() \r\n     confirmItem()   ERC-20  NFT   .\r\n */\r\ncontract Sale {\r\n    //    \r\n    address public seller; //  \r\n    address public buyer; //  \r\n    address admin; //  \r\n    uint256 public saleStartTime; //  \r\n    uint256 public saleEndTime; //  \r\n    uint256 public minPrice; //  \r\n    uint256 public purchasePrice;  //  \r\n    uint256 public tokenId; //  NFT tokenId\r\n    address public currencyAddress; //   ERC-20 \r\n    address public nftAddress; // nft creator \r\n    bool public ended; // ()\r\n\r\n    //    \r\n    address public highestBidder; //    \r\n    uint256 public highestBid;  //   \r\n\r\n    IERC20 public erc20Contract;\r\n    IERC721 public erc721Constract;\r\n\r\n    event HighestBidIncereased(address bidder, uint256 amount); //   ,  \r\n    event SaleEnded(address winner, uint256 amount);  //   \r\n\r\n\r\n    constructor(\r\n        address _admin,\r\n        address _seller,\r\n        uint256 _tokenId,\r\n        uint256 _minPrice,\r\n        uint256 _purchasePrice,\r\n        uint256 startTime,\r\n        uint256 endTime,\r\n        address _currencyAddress,\r\n        address _nftAddress\r\n    ) {\r\n        require(_minPrice > 0);\r\n        tokenId = _tokenId; \r\n        minPrice = _minPrice; \r\n        purchasePrice = _purchasePrice;\r\n        seller = _seller; \r\n        admin = _admin; \r\n        saleStartTime = startTime;\r\n        saleEndTime = endTime; \r\n        currencyAddress = _currencyAddress; \r\n        nftAddress = _nftAddress; \r\n        ended = false; \r\n        erc20Contract = IERC20(_currencyAddress);\r\n        erc721Constract = IERC721(_nftAddress);\r\n    }\r\n\r\n    /**\r\n       \r\n    -   \r\n    - Sale   \r\n    -  Sale   ERC-20     (ERC-20 approve)\r\n    -       \r\n    -      \r\n    -     \r\n       \r\n    1.     .\r\n    2. Sale   ERC-20  .\r\n     */\r\n    function bid(uint256 bid_amount) public {\r\n        // TODO\r\n    }\r\n\r\n    /**\r\n            \r\n    -   \r\n    -  Sale   \r\n    -   Sale    ERC-20       (ERC-20 approve)\r\n       \r\n    1.     .\r\n    2.  ERC-20     .\r\n    3. NFT   .\r\n    4.      .\r\n     */\r\n    function purchase() public {\r\n        // TODO \r\n    }\r\n\r\n    /**\r\n           \r\n    -    (   )\r\n    -    \r\n       \r\n    1.    .\r\n    2. NFT   .\r\n    3.      .\r\n    */\r\n    function confirmItem() public {\r\n        // TODO \r\n    }\r\n    \r\n    function cancelSales() public {\r\n        // TODO\r\n    }\r\n\r\n    function getTimeLeft() public view returns (int256) {\r\n        return (int256)(saleEndTime - block.timestamp);\r\n    }\r\n\r\n    function getBlockTimeStamp() public view returns(uint256){\r\n        return block.timestamp;\r\n    }\r\n\r\n    function getSaleInfo()\r\n        public\r\n        view\r\n        returns (\r\n            uint256,\r\n            uint256,\r\n            uint256,\r\n            uint256,\r\n            uint256,\r\n            address,\r\n            uint256,\r\n            address,\r\n            address\r\n        )\r\n    {\r\n        return (\r\n            saleStartTime,\r\n            saleEndTime,\r\n            minPrice,\r\n            purchasePrice,\r\n            tokenId,\r\n            highestBidder,\r\n            highestBid,\r\n            currencyAddress,\r\n            nftAddress\r\n        );\r\n    }\r\n\r\n    function getHighestBid() public view returns(uint256){\r\n        return highestBid;\r\n    }\r\n\r\n    // internal  private     _  .\r\n    function _end() internal {\r\n        ended = true;\r\n    }\r\n\r\n    function _getCurrencyAmount() private view returns (uint256) {\r\n        return erc20Contract.balanceOf(msg.sender);\r\n    }\r\n\r\n    // modifier       . \r\n    modifier onlySeller() {\r\n        require(msg.sender == seller, \"Sale: You are not seller.\");\r\n        _;\r\n    }\r\n\r\n    modifier onlyAfterStart() {\r\n        require(\r\n            block.timestamp >= saleStartTime,\r\n            \"Sale: This sale is not started.\"\r\n        );\r\n        _;\r\n    }\r\n}\r\n",
  "sourcePath": "C:\\Users\\SSAFY\\Desktop\\S06P22E106\\smart-contracts\\contracts\\SaleFactory.sol",
  "compiler": {
    "name": "solc",
    "version": "0.8.11+commit.d7f03943.Emscripten.clang"
  },
  "schemaVersion": "3.4.5",
  "updatedAt": "2022-03-25T06:28:23.370Z",
  "devdoc": {
    "kind": "dev",
    "methods": {},
    "version": 1
  },
  "userdoc": {
    "kind": "user",
    "methods": {
      "bid(uint256)": {
        "notice": "    -    - Sale    -  Sale   ERC-20     (ERC-20 approve) -        -       -          1.     . 2. Sale   ERC-20  ."
      },
      "confirmItem()": {
        "notice": "        -    (   ) -         1.    . 2. NFT   . 3.      ."
      },
      "purchase()": {
        "notice": "         -    -  Sale    -   Sale    ERC-20       (ERC-20 approve)     1.     . 2.  ERC-20     . 3. NFT   . 4.      ."
      }
    },
    "notice": "     (constructor), (bid), (purchase), (confirmItem), (cancle)     bid(), purchase()       confirmItem()   ERC-20  NFT   .",
    "version": 1
  }
}