{
  "contractName": "Sale",
  "abi": [
    {
      "inputs": [
        {
          "internalType": "address",
          "name": "_admin",
          "type": "address"
        },
        {
          "internalType": "address",
          "name": "_seller",
          "type": "address"
        },
        {
          "internalType": "uint256",
          "name": "_tokenId",
          "type": "uint256"
        },
        {
          "internalType": "uint256",
          "name": "_minPrice",
          "type": "uint256"
        },
        {
          "internalType": "uint256",
          "name": "_purchasePrice",
          "type": "uint256"
        },
        {
          "internalType": "uint256",
          "name": "startTime",
          "type": "uint256"
        },
        {
          "internalType": "uint256",
          "name": "endTime",
          "type": "uint256"
        },
        {
          "internalType": "address",
          "name": "_currencyAddress",
          "type": "address"
        },
        {
          "internalType": "address",
          "name": "_nftAddress",
          "type": "address"
        }
      ],
      "stateMutability": "nonpayable",
      "type": "constructor"
    },
    {
      "anonymous": false,
      "inputs": [
        {
          "indexed": false,
          "internalType": "address",
          "name": "bidder",
          "type": "address"
        },
        {
          "indexed": false,
          "internalType": "uint256",
          "name": "amount",
          "type": "uint256"
        }
      ],
      "name": "HighestBidIncereased",
      "type": "event"
    },
    {
      "anonymous": false,
      "inputs": [
        {
          "indexed": false,
          "internalType": "address",
          "name": "winner",
          "type": "address"
        },
        {
          "indexed": false,
          "internalType": "uint256",
          "name": "amount",
          "type": "uint256"
        }
      ],
      "name": "SaleEnded",
      "type": "event"
    },
    {
      "inputs": [],
      "name": "NFTcreatorContract",
      "outputs": [
        {
          "internalType": "contract NFTcreator",
          "name": "",
          "type": "address"
        }
      ],
      "stateMutability": "view",
      "type": "function"
    },
    {
      "inputs": [],
      "name": "SSFTokenContract",
      "outputs": [
        {
          "internalType": "contract SSFToken",
          "name": "",
          "type": "address"
        }
      ],
      "stateMutability": "view",
      "type": "function"
    },
    {
      "inputs": [],
      "name": "buyer",
      "outputs": [
        {
          "internalType": "address",
          "name": "",
          "type": "address"
        }
      ],
      "stateMutability": "view",
      "type": "function"
    },
    {
      "inputs": [],
      "name": "currencyAddress",
      "outputs": [
        {
          "internalType": "address",
          "name": "",
          "type": "address"
        }
      ],
      "stateMutability": "view",
      "type": "function"
    },
    {
      "inputs": [],
      "name": "ended",
      "outputs": [
        {
          "internalType": "bool",
          "name": "",
          "type": "bool"
        }
      ],
      "stateMutability": "view",
      "type": "function"
    },
    {
      "inputs": [],
      "name": "highestBid",
      "outputs": [
        {
          "internalType": "uint256",
          "name": "",
          "type": "uint256"
        }
      ],
      "stateMutability": "view",
      "type": "function"
    },
    {
      "inputs": [],
      "name": "highestBidder",
      "outputs": [
        {
          "internalType": "address",
          "name": "",
          "type": "address"
        }
      ],
      "stateMutability": "view",
      "type": "function"
    },
    {
      "inputs": [],
      "name": "minPrice",
      "outputs": [
        {
          "internalType": "uint256",
          "name": "",
          "type": "uint256"
        }
      ],
      "stateMutability": "view",
      "type": "function"
    },
    {
      "inputs": [],
      "name": "nftAddress",
      "outputs": [
        {
          "internalType": "address",
          "name": "",
          "type": "address"
        }
      ],
      "stateMutability": "view",
      "type": "function"
    },
    {
      "inputs": [],
      "name": "purchasePrice",
      "outputs": [
        {
          "internalType": "uint256",
          "name": "",
          "type": "uint256"
        }
      ],
      "stateMutability": "view",
      "type": "function"
    },
    {
      "inputs": [],
      "name": "saleEndTime",
      "outputs": [
        {
          "internalType": "uint256",
          "name": "",
          "type": "uint256"
        }
      ],
      "stateMutability": "view",
      "type": "function"
    },
    {
      "inputs": [],
      "name": "saleStartTime",
      "outputs": [
        {
          "internalType": "uint256",
          "name": "",
          "type": "uint256"
        }
      ],
      "stateMutability": "view",
      "type": "function"
    },
    {
      "inputs": [],
      "name": "seller",
      "outputs": [
        {
          "internalType": "address",
          "name": "",
          "type": "address"
        }
      ],
      "stateMutability": "view",
      "type": "function"
    },
    {
      "inputs": [],
      "name": "tokenId",
      "outputs": [
        {
          "internalType": "uint256",
          "name": "",
          "type": "uint256"
        }
      ],
      "stateMutability": "view",
      "type": "function"
    },
    {
      "inputs": [
        {
          "internalType": "uint256",
          "name": "bid_amount",
          "type": "uint256"
        }
      ],
      "name": "bid",
      "outputs": [],
      "stateMutability": "nonpayable",
      "type": "function"
    },
    {
      "inputs": [
        {
          "internalType": "uint256",
          "name": "bid_amount",
          "type": "uint256"
        }
      ],
      "name": "purchase",
      "outputs": [],
      "stateMutability": "nonpayable",
      "type": "function"
    },
    {
      "inputs": [],
      "name": "confirmItem",
      "outputs": [],
      "stateMutability": "nonpayable",
      "type": "function"
    },
    {
      "inputs": [],
      "name": "cancelSales",
      "outputs": [],
      "stateMutability": "nonpayable",
      "type": "function"
    },
    {
      "inputs": [],
      "name": "cancelAuction",
      "outputs": [],
      "stateMutability": "nonpayable",
      "type": "function"
    },
    {
      "inputs": [],
      "name": "getTimeLeft",
      "outputs": [
        {
          "internalType": "int256",
          "name": "",
          "type": "int256"
        }
      ],
      "stateMutability": "view",
      "type": "function"
    },
    {
      "inputs": [],
      "name": "getBlockTimeStamp",
      "outputs": [
        {
          "internalType": "uint256",
          "name": "",
          "type": "uint256"
        }
      ],
      "stateMutability": "view",
      "type": "function"
    },
    {
      "inputs": [],
      "name": "getSaleInfo",
      "outputs": [
        {
          "internalType": "uint256",
          "name": "",
          "type": "uint256"
        },
        {
          "internalType": "uint256",
          "name": "",
          "type": "uint256"
        },
        {
          "internalType": "uint256",
          "name": "",
          "type": "uint256"
        },
        {
          "internalType": "uint256",
          "name": "",
          "type": "uint256"
        },
        {
          "internalType": "uint256",
          "name": "",
          "type": "uint256"
        },
        {
          "internalType": "address",
          "name": "",
          "type": "address"
        },
        {
          "internalType": "uint256",
          "name": "",
          "type": "uint256"
        },
        {
          "internalType": "address",
          "name": "",
          "type": "address"
        },
        {
          "internalType": "address",
          "name": "",
          "type": "address"
        }
      ],
      "stateMutability": "view",
      "type": "function"
    },
    {
      "inputs": [],
      "name": "getHighestBid",
      "outputs": [
        {
          "internalType": "uint256",
          "name": "",
          "type": "uint256"
        }
      ],
      "stateMutability": "view",
      "type": "function"
    }
  ],
  "bytecode": "0x60806040523480156200001157600080fd5b50604051620028f8380380620028f88339818101604052810190620000379190620002bc565b600086116200004557600080fd5b866007819055508560058190555084600681905550876000806101000a81548173ffffffffffffffffffffffffffffffffffffffff021916908373ffffffffffffffffffffffffffffffffffffffff16021790555088600260006101000a81548173ffffffffffffffffffffffffffffffffffffffff021916908373ffffffffffffffffffffffffffffffffffffffff160217905550836003819055508260048190555081600860006101000a81548173ffffffffffffffffffffffffffffffffffffffff021916908373ffffffffffffffffffffffffffffffffffffffff16021790555080600960006101000a81548173ffffffffffffffffffffffffffffffffffffffff021916908373ffffffffffffffffffffffffffffffffffffffff1602179055506000600960146101000a81548160ff02191690831515021790555080600c60006101000a81548173ffffffffffffffffffffffffffffffffffffffff021916908373ffffffffffffffffffffffffffffffffffffffff16021790555081600d60006101000a81548173ffffffffffffffffffffffffffffffffffffffff021916908373ffffffffffffffffffffffffffffffffffffffff1602179055505050505050505050506200039b565b600080fd5b600073ffffffffffffffffffffffffffffffffffffffff82169050919050565b600062000249826200021c565b9050919050565b6200025b816200023c565b81146200026757600080fd5b50565b6000815190506200027b8162000250565b92915050565b6000819050919050565b620002968162000281565b8114620002a257600080fd5b50565b600081519050620002b6816200028b565b92915050565b60008060008060008060008060006101208a8c031215620002e257620002e162000217565b5b6000620002f28c828d016200026a565b9950506020620003058c828d016200026a565b9850506040620003188c828d01620002a5565b97505060606200032b8c828d01620002a5565b96505060806200033e8c828d01620002a5565b95505060a0620003518c828d01620002a5565b94505060c0620003648c828d01620002a5565b93505060e0620003778c828d016200026a565b9250506101006200038b8c828d016200026a565b9150509295985092959850929598565b61254d80620003ab6000396000f3fe608060405234801561001057600080fd5b506004361061014d5760003560e01c80637150d8ae116100c3578063d57bde791161007c578063d57bde7914610312578063db83694c14610330578063defd6c5f14610356578063e45be8eb14610374578063ed338ff114610392578063efef39a1146103b05761014d565b80637150d8ae146102865780638fa8b790146102a4578063903e329c146102ae57806391f90157146102b8578063c7e284b8146102d6578063ca49a543146102f45761014d565b80631c1cb323116101155780631c1cb323146101d45780631cbaee2d146101f2578063454a2ab3146102105780634979440a1461022c5780635bf8633a1461024a5780635ef94baf146102685761014d565b806308551a531461015257806308aab230146101705780630a7f463f1461018e57806312fa6feb1461019857806317d70f7c146101b6575b600080fd5b61015a6103cc565b6040516101679190611b31565b60405180910390f35b6101786103f0565b6040516101859190611bab565b60405180910390f35b610196610416565b005b6101a06107d3565b6040516101ad9190611be1565b60405180910390f35b6101be6107e6565b6040516101cb9190611c15565b60405180910390f35b6101dc6107ec565b6040516101e99190611b31565b60405180910390f35b6101fa610812565b6040516102079190611c15565b60405180910390f35b61022a60048036038101906102259190611c61565b610818565b005b610234610f4b565b6040516102419190611c15565b60405180910390f35b610252610f55565b60405161025f9190611b31565b60405180910390f35b610270610f7b565b60405161027d9190611caf565b60405180910390f35b61028e610fa1565b60405161029b9190611b31565b60405180910390f35b6102ac610fc7565b005b6102b66111f3565b005b6102c06113da565b6040516102cd9190611b31565b60405180910390f35b6102de611400565b6040516102eb9190611ce3565b60405180910390f35b6102fc611415565b6040516103099190611c15565b60405180910390f35b61031a61141d565b6040516103279190611c15565b60405180910390f35b610338611423565b60405161034d99989796959493929190611cfe565b60405180910390f35b61035e6114c9565b60405161036b9190611c15565b60405180910390f35b61037c6114cf565b6040516103899190611c15565b60405180910390f35b61039a6114d5565b6040516103a79190611c15565b60405180910390f35b6103ca60048036038101906103c59190611c61565b6114db565b005b60008054906101000a900473ffffffffffffffffffffffffffffffffffffffff1681565b600c60009054906101000a900473ffffffffffffffffffffffffffffffffffffffff1681565b600454421161045a576040517f08c379a000000000000000000000000000000000000000000000000000000000815260040161045190611de8565b60405180910390fd5b600a60009054906101000a900473ffffffffffffffffffffffffffffffffffffffff1673ffffffffffffffffffffffffffffffffffffffff163373ffffffffffffffffffffffffffffffffffffffff161480610501575060008054906101000a900473ffffffffffffffffffffffffffffffffffffffff1673ffffffffffffffffffffffffffffffffffffffff163373ffffffffffffffffffffffffffffffffffffffff16145b610540576040517f08c379a000000000000000000000000000000000000000000000000000000000815260040161053790611e7a565b60405180910390fd5b600c60009054906101000a900473ffffffffffffffffffffffffffffffffffffffff1673ffffffffffffffffffffffffffffffffffffffff166323b872dd30600a60009054906101000a900473ffffffffffffffffffffffffffffffffffffffff166007546040518463ffffffff1660e01b81526004016105c393929190611e9a565b600060405180830381600087803b1580156105dd57600080fd5b505af11580156105f1573d6000803e3d6000fd5b50505050600d60009054906101000a900473ffffffffffffffffffffffffffffffffffffffff1673ffffffffffffffffffffffffffffffffffffffff1663095ea7b33061063c610f4b565b6040518363ffffffff1660e01b8152600401610659929190611ed1565b6020604051808303816000875af1158015610678573d6000803e3d6000fd5b505050506040513d601f19601f8201168201806040525081019061069c9190611f26565b50600d60009054906101000a900473ffffffffffffffffffffffffffffffffffffffff1673ffffffffffffffffffffffffffffffffffffffff166323b872dd3060008054906101000a900473ffffffffffffffffffffffffffffffffffffffff16610705610f4b565b6040518463ffffffff1660e01b815260040161072393929190611e9a565b6020604051808303816000875af1158015610742573d6000803e3d6000fd5b505050506040513d601f19601f820116820180604052508101906107669190611f26565b507f349f939aaa1895cee67485b264474f0d2a1aac01083917b8ea9f96e4036cbb27600a60009054906101000a900473ffffffffffffffffffffffffffffffffffffffff166107b3610f4b565b6040516107c1929190611ed1565b60405180910390a16107d1611ad3565b565b600960149054906101000a900460ff1681565b60075481565b600860009054906101000a900473ffffffffffffffffffffffffffffffffffffffff1681565b60035481565b60008054906101000a900473ffffffffffffffffffffffffffffffffffffffff1673ffffffffffffffffffffffffffffffffffffffff163373ffffffffffffffffffffffffffffffffffffffff1614156108a7576040517f08c379a000000000000000000000000000000000000000000000000000000000815260040161089e90611f9f565b60405180910390fd5b60045442106108eb576040517f08c379a00000000000000000000000000000000000000000000000000000000081526004016108e29061200b565b60405180910390fd5b80600d60009054906101000a900473ffffffffffffffffffffffffffffffffffffffff1673ffffffffffffffffffffffffffffffffffffffff166370a08231336040518263ffffffff1660e01b81526004016109479190611b31565b602060405180830381865afa158015610964573d6000803e3d6000fd5b505050506040513d601f19601f820116820180604052508101906109889190612040565b10156109c9576040517f08c379a00000000000000000000000000000000000000000000000000000000081526004016109c0906120df565b60405180910390fd5b6000600d60009054906101000a900473ffffffffffffffffffffffffffffffffffffffff1673ffffffffffffffffffffffffffffffffffffffff1663dd62ed3e33306040518363ffffffff1660e01b8152600401610a289291906120ff565b602060405180830381865afa158015610a45573d6000803e3d6000fd5b505050506040513d601f19601f82011682018060405250810190610a699190612040565b1415610aaa576040517f08c379a0000000000000000000000000000000000000000000000000000000008152600401610aa19061219a565b60405180910390fd5b80600d60009054906101000a900473ffffffffffffffffffffffffffffffffffffffff1673ffffffffffffffffffffffffffffffffffffffff1663dd62ed3e33306040518363ffffffff1660e01b8152600401610b089291906120ff565b602060405180830381865afa158015610b25573d6000803e3d6000fd5b505050506040513d601f19601f82011682018060405250810190610b499190612040565b1015610b8a576040517f08c379a0000000000000000000000000000000000000000000000000000000008152600401610b819061222c565b60405180910390fd5b600554811015610bcf576040517f08c379a0000000000000000000000000000000000000000000000000000000008152600401610bc690612298565b60405180910390fd5b610bd7610f4b565b8111610c18576040517f08c379a0000000000000000000000000000000000000000000000000000000008152600401610c0f9061232a565b60405180910390fd5b600073ffffffffffffffffffffffffffffffffffffffff16600a60009054906101000a900473ffffffffffffffffffffffffffffffffffffffff1673ffffffffffffffffffffffffffffffffffffffff1614610dde57600d60009054906101000a900473ffffffffffffffffffffffffffffffffffffffff1673ffffffffffffffffffffffffffffffffffffffff1663095ea7b330610cb5610f4b565b6040518363ffffffff1660e01b8152600401610cd2929190611ed1565b6020604051808303816000875af1158015610cf1573d6000803e3d6000fd5b505050506040513d601f19601f82011682018060405250810190610d159190611f26565b50600d60009054906101000a900473ffffffffffffffffffffffffffffffffffffffff1673ffffffffffffffffffffffffffffffffffffffff166323b872dd30600a60009054906101000a900473ffffffffffffffffffffffffffffffffffffffff16600b546040518463ffffffff1660e01b8152600401610d9993929190611e9a565b6020604051808303816000875af1158015610db8573d6000803e3d6000fd5b505050506040513d601f19601f82011682018060405250810190610ddc9190611f26565b505b33600a60006101000a81548173ffffffffffffffffffffffffffffffffffffffff021916908373ffffffffffffffffffffffffffffffffffffffff16021790555080600b81905550600d60009054906101000a900473ffffffffffffffffffffffffffffffffffffffff1673ffffffffffffffffffffffffffffffffffffffff166323b872dd600a60009054906101000a900473ffffffffffffffffffffffffffffffffffffffff1630846040518463ffffffff1660e01b8152600401610ea793929190611e9a565b6020604051808303816000875af1158015610ec6573d6000803e3d6000fd5b505050506040513d601f19601f82011682018060405250810190610eea9190611f26565b507f9a7ee7c473e470da200bb28a0e3ee1fe516d900eaade5825f7960323b9d77740600a60009054906101000a900473ffffffffffffffffffffffffffffffffffffffff16600b54604051610f40929190611ed1565b60405180910390a150565b6000600b54905090565b600960009054906101000a900473ffffffffffffffffffffffffffffffffffffffff1681565b600d60009054906101000a900473ffffffffffffffffffffffffffffffffffffffff1681565b600160009054906101000a900473ffffffffffffffffffffffffffffffffffffffff1681565b60008054906101000a900473ffffffffffffffffffffffffffffffffffffffff1673ffffffffffffffffffffffffffffffffffffffff163373ffffffffffffffffffffffffffffffffffffffff16148061106e5750600260009054906101000a900473ffffffffffffffffffffffffffffffffffffffff1673ffffffffffffffffffffffffffffffffffffffff163373ffffffffffffffffffffffffffffffffffffffff16145b6110ad576040517f08c379a00000000000000000000000000000000000000000000000000000000081526004016110a490612396565b60405180910390fd5b600073ffffffffffffffffffffffffffffffffffffffff16600a60009054906101000a900473ffffffffffffffffffffffffffffffffffffffff1673ffffffffffffffffffffffffffffffffffffffff161461113e576040517f08c379a000000000000000000000000000000000000000000000000000000000815260040161113590612402565b60405180910390fd5b600c60009054906101000a900473ffffffffffffffffffffffffffffffffffffffff1673ffffffffffffffffffffffffffffffffffffffff166323b872dd3060008054906101000a900473ffffffffffffffffffffffffffffffffffffffff166007546040518463ffffffff1660e01b81526004016111bf93929190611e9a565b600060405180830381600087803b1580156111d957600080fd5b505af11580156111ed573d6000803e3d6000fd5b50505050565b6004544210611237576040517f08c379a000000000000000000000000000000000000000000000000000000000815260040161122e9061200b565b60405180910390fd5b60008054906101000a900473ffffffffffffffffffffffffffffffffffffffff1673ffffffffffffffffffffffffffffffffffffffff163373ffffffffffffffffffffffffffffffffffffffff1614806112de5750600260009054906101000a900473ffffffffffffffffffffffffffffffffffffffff1673ffffffffffffffffffffffffffffffffffffffff163373ffffffffffffffffffffffffffffffffffffffff16145b61131d576040517f08c379a000000000000000000000000000000000000000000000000000000000815260040161131490612396565b60405180910390fd5b600c60009054906101000a900473ffffffffffffffffffffffffffffffffffffffff1673ffffffffffffffffffffffffffffffffffffffff166323b872dd3060008054906101000a900473ffffffffffffffffffffffffffffffffffffffff166007546040518463ffffffff1660e01b815260040161139e93929190611e9a565b600060405180830381600087803b1580156113b857600080fd5b505af11580156113cc573d6000803e3d6000fd5b505050506113d8611ad3565b565b600a60009054906101000a900473ffffffffffffffffffffffffffffffffffffffff1681565b6000426004546114109190612451565b905090565b600042905090565b600b5481565b6000806000806000806000806000600354600454600554600654600754600a60009054906101000a900473ffffffffffffffffffffffffffffffffffffffff16600b54600860009054906101000a900473ffffffffffffffffffffffffffffffffffffffff16600960009054906101000a900473ffffffffffffffffffffffffffffffffffffffff16985098509850985098509850985098509850909192939495969798565b60065481565b60055481565b60045481565b60008054906101000a900473ffffffffffffffffffffffffffffffffffffffff1673ffffffffffffffffffffffffffffffffffffffff163373ffffffffffffffffffffffffffffffffffffffff16141561156a576040517f08c379a000000000000000000000000000000000000000000000000000000000815260040161156190611f9f565b60405180910390fd5b60045442106115ae576040517f08c379a00000000000000000000000000000000000000000000000000000000081526004016115a59061200b565b60405180910390fd5b80600d60009054906101000a900473ffffffffffffffffffffffffffffffffffffffff1673ffffffffffffffffffffffffffffffffffffffff166370a08231336040518263ffffffff1660e01b815260040161160a9190611b31565b602060405180830381865afa158015611627573d6000803e3d6000fd5b505050506040513d601f19601f8201168201806040525081019061164b9190612040565b101561168c576040517f08c379a0000000000000000000000000000000000000000000000000000000008152600401611683906120df565b60405180910390fd5b6000600d60009054906101000a900473ffffffffffffffffffffffffffffffffffffffff1673ffffffffffffffffffffffffffffffffffffffff1663dd62ed3e33306040518363ffffffff1660e01b81526004016116eb9291906120ff565b602060405180830381865afa158015611708573d6000803e3d6000fd5b505050506040513d601f19601f8201168201806040525081019061172c9190612040565b141561176d576040517f08c379a00000000000000000000000000000000000000000000000000000000081526004016117649061219a565b60405180910390fd5b80600d60009054906101000a900473ffffffffffffffffffffffffffffffffffffffff1673ffffffffffffffffffffffffffffffffffffffff1663dd62ed3e33306040518363ffffffff1660e01b81526004016117cb9291906120ff565b602060405180830381865afa1580156117e8573d6000803e3d6000fd5b505050506040513d601f19601f8201168201806040525081019061180c9190612040565b101561184d576040517f08c379a00000000000000000000000000000000000000000000000000000000081526004016118449061222c565b60405180910390fd5b600654811015611892576040517f08c379a0000000000000000000000000000000000000000000000000000000008152600401611889906124f7565b60405180910390fd5b33600160006101000a81548173ffffffffffffffffffffffffffffffffffffffff021916908373ffffffffffffffffffffffffffffffffffffffff160217905550600d60009054906101000a900473ffffffffffffffffffffffffffffffffffffffff1673ffffffffffffffffffffffffffffffffffffffff166323b872dd600160009054906101000a900473ffffffffffffffffffffffffffffffffffffffff1660008054906101000a900473ffffffffffffffffffffffffffffffffffffffff16846040518463ffffffff1660e01b815260040161197493929190611e9a565b6020604051808303816000875af1158015611993573d6000803e3d6000fd5b505050506040513d601f19601f820116820180604052508101906119b79190611f26565b50600c60009054906101000a900473ffffffffffffffffffffffffffffffffffffffff1673ffffffffffffffffffffffffffffffffffffffff166323b872dd30600160009054906101000a900473ffffffffffffffffffffffffffffffffffffffff166007546040518463ffffffff1660e01b8152600401611a3b93929190611e9a565b600060405180830381600087803b158015611a5557600080fd5b505af1158015611a69573d6000803e3d6000fd5b505050507f349f939aaa1895cee67485b264474f0d2a1aac01083917b8ea9f96e4036cbb27600160009054906101000a900473ffffffffffffffffffffffffffffffffffffffff1682604051611ac0929190611ed1565b60405180910390a1611ad0611ad3565b50565b6001600960146101000a81548160ff021916908315150217905550565b600073ffffffffffffffffffffffffffffffffffffffff82169050919050565b6000611b1b82611af0565b9050919050565b611b2b81611b10565b82525050565b6000602082019050611b466000830184611b22565b92915050565b6000819050919050565b6000611b71611b6c611b6784611af0565b611b4c565b611af0565b9050919050565b6000611b8382611b56565b9050919050565b6000611b9582611b78565b9050919050565b611ba581611b8a565b82525050565b6000602082019050611bc06000830184611b9c565b92915050565b60008115159050919050565b611bdb81611bc6565b82525050565b6000602082019050611bf66000830184611bd2565b92915050565b6000819050919050565b611c0f81611bfc565b82525050565b6000602082019050611c2a6000830184611c06565b92915050565b600080fd5b611c3e81611bfc565b8114611c4957600080fd5b50565b600081359050611c5b81611c35565b92915050565b600060208284031215611c7757611c76611c30565b5b6000611c8584828501611c4c565b91505092915050565b6000611c9982611b78565b9050919050565b611ca981611c8e565b82525050565b6000602082019050611cc46000830184611ca0565b92915050565b6000819050919050565b611cdd81611cca565b82525050565b6000602082019050611cf86000830184611cd4565b92915050565b600061012082019050611d14600083018c611c06565b611d21602083018b611c06565b611d2e604083018a611c06565b611d3b6060830189611c06565b611d486080830188611c06565b611d5560a0830187611b22565b611d6260c0830186611c06565b611d6f60e0830185611b22565b611d7d610100830184611b22565b9a9950505050505050505050565b600082825260208201905092915050565b7f53616c653a20546869732073616c65206973206e6f7420737461727465642e00600082015250565b6000611dd2601f83611d8b565b9150611ddd82611d9c565b602082019050919050565b60006020820190508181036000830152611e0181611dc5565b9050919050565b7f63616c6c6572206973206e6f742068696768657374426964646572206f72207360008201527f656c6c6572000000000000000000000000000000000000000000000000000000602082015250565b6000611e64602583611d8b565b9150611e6f82611e08565b604082019050919050565b60006020820190508181036000830152611e9381611e57565b9050919050565b6000606082019050611eaf6000830186611b22565b611ebc6020830185611b22565b611ec96040830184611c06565b949350505050565b6000604082019050611ee66000830185611b22565b611ef36020830184611c06565b9392505050565b611f0381611bc6565b8114611f0e57600080fd5b50565b600081519050611f2081611efa565b92915050565b600060208284031215611f3c57611f3b611c30565b5b6000611f4a84828501611f11565b91505092915050565b7f73656c6c65722063616e27742063616c6c20746869732066756e6374696f6e00600082015250565b6000611f89601f83611d8b565b9150611f9482611f53565b602082019050919050565b60006020820190508181036000830152611fb881611f7c565b9050919050565b7f53616c652074696d652068617320657870697265640000000000000000000000600082015250565b6000611ff5601583611d8b565b915061200082611fbf565b602082019050919050565b6000602082019050818103600083015261202481611fe8565b9050919050565b60008151905061203a81611c35565b92915050565b60006020828403121561205657612055611c30565b5b60006120648482850161202b565b91505092915050565b7f627579657220646f206e6f74206861766520656e6f756768204552433230207460008201527f6f6b656e00000000000000000000000000000000000000000000000000000000602082015250565b60006120c9602483611d8b565b91506120d48261206d565b604082019050919050565b600060208201905081810360008301526120f8816120bc565b9050919050565b60006040820190506121146000830185611b22565b6121216020830184611b22565b9392505050565b7f627579657220646964206e6f7420617070726f7665207468697320636f6e747260008201527f6163740000000000000000000000000000000000000000000000000000000000602082015250565b6000612184602383611d8b565b915061218f82612128565b604082019050919050565b600060208201905081810360008301526121b381612177565b9050919050565b7f63616c6c657220617070726f7665206c65737320616d6f756e74206f6620746f60008201527f6b656e0000000000000000000000000000000000000000000000000000000000602082015250565b6000612216602383611d8b565b9150612221826121ba565b604082019050919050565b6000602082019050818103600083015261224581612209565b9050919050565b7f6269645f616d6f756e74206973206c657373207468616e206d696e5072696365600082015250565b6000612282602083611d8b565b915061228d8261224c565b602082019050919050565b600060208201905081810360008301526122b181612275565b9050919050565b7f6269645f616d6f756e74206973206c657373207468616e20686967686573744260008201527f6964000000000000000000000000000000000000000000000000000000000000602082015250565b6000612314602283611d8b565b915061231f826122b8565b604082019050919050565b6000602082019050818103600083015261234381612307565b9050919050565b7f63616c6c6572206973206e6f7420617070726f76656400000000000000000000600082015250565b6000612380601683611d8b565b915061238b8261234a565b602082019050919050565b600060208201905081810360008301526123af81612373565b9050919050565b7f6269646465722065786973740000000000000000000000000000000000000000600082015250565b60006123ec600c83611d8b565b91506123f7826123b6565b602082019050919050565b6000602082019050818103600083015261241b816123df565b9050919050565b7f4e487b7100000000000000000000000000000000000000000000000000000000600052601160045260246000fd5b600061245c82611bfc565b915061246783611bfc565b92508282101561247a57612479612422565b5b828203905092915050565b7f6269645f616d6f756e74206973206c657373207468616e20707572636861736560008201527f5072696365000000000000000000000000000000000000000000000000000000602082015250565b60006124e1602583611d8b565b91506124ec82612485565b604082019050919050565b60006020820190508181036000830152612510816124d4565b905091905056fea2646970667358221220af071cddf2dc05390e6435e40c099da99d2d981918b0d59970e992c0046453a064736f6c634300080b0033",
  "immutableReferences": {},
  "source": "// SPDX-License-Identifier: MIT\r\npragma solidity ^0.8.4;\r\n\r\nimport \"./access/Ownable.sol\";\r\nimport \"./token/ERC20/ERC20.sol\";\r\nimport \"./token/ERC721/ERC721.sol\";\r\nimport \"./NFTcreator.sol\";\r\nimport \"./SSFToken.sol\";\r\n\r\n/**\r\n * PJT  - Req.1-SC1 SaleFactory \r\n *    ,      .\r\n */\r\n /*\r\n Sale      \r\n   NFT ERC-20     \r\n SaleFactory  Sale     Sale   NFT .\r\n */\r\ncontract SaleFactory is Ownable {\r\n    address public admin; //     address(owner)\r\n    address[] public sales; //     Sale  \r\n    mapping(uint256 => address) saleContractAddress; // id -> Salecontract address \r\n    NFTcreator public NFTcreatorContract;\r\n\r\n    event NewSale(\r\n        address indexed _saleContract,\r\n        address indexed _owner,\r\n        uint256 _workId\r\n    );\r\n\r\n    constructor(address _NFTcreatorAddress) {\r\n        admin = msg.sender;\r\n        NFTcreatorContract = NFTcreator(_NFTcreatorAddress);\r\n    }\r\n\r\n    /**\r\n     * @dev   . \r\n     */\r\n    /*\r\n        Sale  .\r\n     Sale   .\r\n     Sale   .\r\n     */\r\n    function createSale(\r\n        uint256 itemId,\r\n        uint256 minPrice,\r\n        uint256 purchasePrice,\r\n        uint256 startTime,\r\n        uint256 endTime,\r\n        address currencyAddress,\r\n        address nftAddress\r\n    ) public returns (address) {\r\n        // TODO\r\n        address seller = msg.sender;\r\n        Sale instance = new Sale(admin, seller, itemId, minPrice, purchasePrice, startTime, endTime, currencyAddress, nftAddress);\r\n        //   tokenid    \r\n        NFTcreatorContract.transferFrom(seller, address(instance), itemId);\r\n        // return instance;\r\n        // emit NewSale(_saleContract, _owner, _workId);\r\n        sales.push(address(instance));\r\n        saleContractAddress[itemId] = address(instance);\r\n        emit NewSale(address(instance), msg.sender, itemId);\r\n        return address(instance);\r\n    }\r\n\r\n    //   Sale  \r\n    function allSales() public view returns (address[] memory) {\r\n        return sales;\r\n    }\r\n\r\n    function getSaleContractAddress(uint256 tokenId) public view returns (address) {\r\n        require(saleContractAddress[tokenId] != address(0), \"this token is not on sale\");\r\n        return saleContractAddress[tokenId];\r\n    }\r\n}\r\n\r\n/**\r\n *  PJT  - Req.1-SC2) Sale \r\n */\r\n/**\r\n    \r\n(constructor), (bid), (purchase), (confirmItem), (cancle) \r\n   bid(), purchase() \r\n     confirmItem()   ERC-20  NFT   .\r\n */\r\ncontract Sale {\r\n    //    \r\n    address public seller; //  \r\n    address public buyer; //  \r\n    address admin; //  \r\n    uint256 public saleStartTime; //  \r\n    uint256 public saleEndTime; //  \r\n    uint256 public minPrice; //  \r\n    uint256 public purchasePrice;  //  \r\n    uint256 public tokenId; //  NFT tokenId\r\n    address public currencyAddress; //   ERC-20 \r\n    address public nftAddress; // nft creator \r\n    bool public ended; // ()\r\n\r\n    //    \r\n    address public highestBidder; //    \r\n    uint256 public highestBid;  //   \r\n\r\n    NFTcreator public NFTcreatorContract;\r\n    SSFToken public SSFTokenContract;\r\n\r\n    event HighestBidIncereased(address bidder, uint256 amount); //   ,  \r\n    event SaleEnded(address winner, uint256 amount);  //   \r\n\r\n    constructor(\r\n        address _admin,\r\n        address _seller,\r\n        uint256 _tokenId,\r\n        uint256 _minPrice,\r\n        uint256 _purchasePrice,\r\n        uint256 startTime,\r\n        uint256 endTime,\r\n        address _currencyAddress,\r\n        address _nftAddress\r\n    ) {\r\n        require(_minPrice > 0);\r\n        tokenId = _tokenId; \r\n        minPrice = _minPrice; \r\n        purchasePrice = _purchasePrice;\r\n        seller = _seller;\r\n        admin = _admin;\r\n        saleStartTime = startTime;\r\n        saleEndTime = endTime;\r\n        currencyAddress = _currencyAddress; \r\n        nftAddress = _nftAddress; \r\n        ended = false; \r\n        NFTcreatorContract = NFTcreator(_nftAddress);\r\n        SSFTokenContract = SSFToken(_currencyAddress);\r\n    }\r\n\r\n    /**\r\n       \r\n    -   \r\n    - Sale   \r\n    -  Sale   ERC-20     (ERC-20 approve)\r\n    -       \r\n    -      \r\n    -     \r\n       \r\n    1.     .\r\n    2. Sale   ERC-20  .\r\n     */\r\n    function bid(uint256 bid_amount) public {\r\n        // TODO\r\n        require(msg.sender != seller, \"seller can't call this function\");\r\n        require(block.timestamp < saleEndTime, \"Sale time has expired\");\r\n        require(SSFTokenContract.balanceOf(msg.sender) >= bid_amount, \"buyer do not have enough ERC20 token\");\r\n        require(SSFTokenContract.allowance(msg.sender, address(this)) != 0, \"buyer did not approve this contract\");\r\n        require(SSFTokenContract.allowance(msg.sender, address(this)) >= bid_amount, \"caller approve less amount of token\");\r\n        require(bid_amount >= minPrice, \"bid_amount is less than minPrice\");\r\n        require(bid_amount > getHighestBid(), \"bid_amount is less than highestBid\");\r\n        if (highestBidder != address(0)) { //    \r\n            SSFTokenContract.approve(address(this), getHighestBid());\r\n            SSFTokenContract.transferFrom(address(this), highestBidder, highestBid);\r\n        }\r\n        highestBidder = msg.sender;\r\n        highestBid = bid_amount;\r\n        SSFTokenContract.transferFrom(highestBidder, address(this), bid_amount);\r\n        emit HighestBidIncereased(highestBidder, highestBid);\r\n    }\r\n\r\n    /**\r\n            \r\n    -   \r\n    -  Sale   \r\n    -   Sale    ERC-20       (ERC-20 approve)\r\n       \r\n    1.     .\r\n    2.  ERC-20     .\r\n    3. NFT   .\r\n    4.      .\r\n     */\r\n    function purchase(uint256 bid_amount) public {\r\n        // TODO \r\n        require(msg.sender != seller, \"seller can't call this function\");\r\n        require(block.timestamp < saleEndTime, \"Sale time has expired\");\r\n        require(SSFTokenContract.balanceOf(msg.sender) >= bid_amount, \"buyer do not have enough ERC20 token\");\r\n        require(SSFTokenContract.allowance(msg.sender, address(this)) != 0, \"buyer did not approve this contract\");\r\n        require(SSFTokenContract.allowance(msg.sender, address(this)) >= bid_amount, \"caller approve less amount of token\");\r\n        require(bid_amount >= purchasePrice, \"bid_amount is less than purchasePrice\");\r\n        buyer = msg.sender;\r\n        SSFTokenContract.transferFrom(buyer, seller, bid_amount);\r\n        NFTcreatorContract.transferFrom(address(this), buyer, tokenId);\r\n        emit SaleEnded(buyer, bid_amount);\r\n        _end();\r\n    }\r\n\r\n    /**\r\n           \r\n    -    (   )\r\n    -    \r\n       \r\n    1.    .\r\n    2. NFT   .\r\n    3.      .\r\n    */\r\n    function confirmItem() public onlyAfterEnd {\r\n        // TODO \r\n        require(msg.sender == highestBidder || msg.sender == seller, \"caller is not highestBidder or seller\");\r\n        NFTcreatorContract.transferFrom(address(this), highestBidder, tokenId);\r\n        SSFTokenContract.approve(address(this), getHighestBid());\r\n        SSFTokenContract.transferFrom(address(this), seller, getHighestBid());\r\n        emit SaleEnded(highestBidder, getHighestBid());\r\n        _end(); \r\n    }\r\n    \r\n    /**\r\n            \r\n    -    \r\n    -     \r\n       \r\n    1.  .\r\n    2. NFT   .\r\n    3.     .\r\n    */\r\n    //   \r\n    function cancelSales() public {\r\n        // TODO\r\n        require(block.timestamp < saleEndTime, \"Sale time has expired\");\r\n        require(msg.sender == seller || msg.sender == admin, \"caller is not approved\");\r\n        // NFT   \r\n        NFTcreatorContract.transferFrom(address(this), seller, tokenId);\r\n        _end();\r\n    }\r\n\r\n    //   cancel (   NFT)\r\n    function cancelAuction() public {\r\n        // TODO\r\n        require(msg.sender == seller || msg.sender == admin, \"caller is not approved\");\r\n        require(highestBidder == address(0), \"bidder exist\");\r\n        // NFT   \r\n        NFTcreatorContract.transferFrom(address(this), seller, tokenId);\r\n    }\r\n\r\n    function getTimeLeft() public view returns (int256) {\r\n        return (int256)(saleEndTime - block.timestamp);\r\n    }\r\n\r\n    function getBlockTimeStamp() public view returns(uint256){\r\n        return block.timestamp;\r\n    }\r\n\r\n    function getSaleInfo()\r\n        public\r\n        view\r\n        returns (\r\n            uint256,\r\n            uint256,\r\n            uint256,\r\n            uint256,\r\n            uint256,\r\n            address,\r\n            uint256,\r\n            address,\r\n            address\r\n        )\r\n    {\r\n        return (\r\n            saleStartTime,\r\n            saleEndTime,\r\n            minPrice,\r\n            purchasePrice,\r\n            tokenId,\r\n            highestBidder,\r\n            highestBid,\r\n            currencyAddress,\r\n            nftAddress\r\n        );\r\n    }\r\n\r\n    function getHighestBid() public view returns(uint256){\r\n        return highestBid;\r\n    }\r\n\r\n    // internal  private     _  .\r\n    function _end() internal {\r\n        ended = true;\r\n    }\r\n\r\n    function _getCurrencyAmount() private view returns (uint256) {\r\n        return SSFTokenContract.balanceOf(msg.sender);\r\n    }\r\n\r\n    // modifier       . \r\n    modifier onlyAfterEnd() {\r\n        require(\r\n            block.timestamp > saleEndTime,\r\n            \"Sale: This sale is not started.\"\r\n        );\r\n        _;\r\n    }\r\n}\r\n",
  "sourcePath": "C:\\Users\\SSAFY\\Desktop\\S06P22E106\\smart-contracts\\contracts\\SaleFactory.sol",
  "compiler": {
    "name": "solc",
    "version": "0.8.11+commit.d7f03943.Emscripten.clang"
  },
  "schemaVersion": "3.4.5",
  "updatedAt": "2022-03-28T01:41:11.061Z",
  "devdoc": {
    "kind": "dev",
    "methods": {},
    "version": 1
  },
  "userdoc": {
    "kind": "user",
    "methods": {
      "bid(uint256)": {
        "notice": "    -    - Sale    -  Sale   ERC-20     (ERC-20 approve) -        -       -          1.     . 2. Sale   ERC-20  ."
      },
      "cancelSales()": {
        "notice": "         -     -          1.  . 2. NFT   . 3.     ."
      },
      "confirmItem()": {
        "notice": "        -    (   ) -         1.    . 2. NFT   . 3.      ."
      },
      "purchase(uint256)": {
        "notice": "         -    -  Sale    -   Sale    ERC-20       (ERC-20 approve)     1.     . 2.  ERC-20     . 3. NFT   . 4.      ."
      }
    },
    "notice": "     (constructor), (bid), (purchase), (confirmItem), (cancle)     bid(), purchase()       confirmItem()   ERC-20  NFT   .",
    "version": 1
  }
}