{
  "contractName": "Sale",
  "abi": [
    {
      "inputs": [
        {
          "internalType": "address",
          "name": "_admin",
          "type": "address"
        },
        {
          "internalType": "address",
          "name": "_seller",
          "type": "address"
        },
        {
          "internalType": "uint256",
          "name": "_tokenId",
          "type": "uint256"
        },
        {
          "internalType": "uint256",
          "name": "_minPrice",
          "type": "uint256"
        },
        {
          "internalType": "uint256",
          "name": "_purchasePrice",
          "type": "uint256"
        },
        {
          "internalType": "uint256",
          "name": "startTime",
          "type": "uint256"
        },
        {
          "internalType": "uint256",
          "name": "endTime",
          "type": "uint256"
        },
        {
          "internalType": "address",
          "name": "_currencyAddress",
          "type": "address"
        },
        {
          "internalType": "address",
          "name": "_nftAddress",
          "type": "address"
        }
      ],
      "stateMutability": "nonpayable",
      "type": "constructor"
    },
    {
      "anonymous": false,
      "inputs": [
        {
          "indexed": false,
          "internalType": "address",
          "name": "bidder",
          "type": "address"
        },
        {
          "indexed": false,
          "internalType": "uint256",
          "name": "amount",
          "type": "uint256"
        }
      ],
      "name": "HighestBidIncereased",
      "type": "event"
    },
    {
      "anonymous": false,
      "inputs": [
        {
          "indexed": false,
          "internalType": "address",
          "name": "winner",
          "type": "address"
        },
        {
          "indexed": false,
          "internalType": "uint256",
          "name": "amount",
          "type": "uint256"
        }
      ],
      "name": "SaleEnded",
      "type": "event"
    },
    {
      "inputs": [],
      "name": "NFTcreatorContract",
      "outputs": [
        {
          "internalType": "contract NFTcreator",
          "name": "",
          "type": "address"
        }
      ],
      "stateMutability": "view",
      "type": "function"
    },
    {
      "inputs": [],
      "name": "SSFTokenContract",
      "outputs": [
        {
          "internalType": "contract SSFToken",
          "name": "",
          "type": "address"
        }
      ],
      "stateMutability": "view",
      "type": "function"
    },
    {
      "inputs": [],
      "name": "buyer",
      "outputs": [
        {
          "internalType": "address",
          "name": "",
          "type": "address"
        }
      ],
      "stateMutability": "view",
      "type": "function"
    },
    {
      "inputs": [],
      "name": "currencyAddress",
      "outputs": [
        {
          "internalType": "address",
          "name": "",
          "type": "address"
        }
      ],
      "stateMutability": "view",
      "type": "function"
    },
    {
      "inputs": [],
      "name": "ended",
      "outputs": [
        {
          "internalType": "bool",
          "name": "",
          "type": "bool"
        }
      ],
      "stateMutability": "view",
      "type": "function"
    },
    {
      "inputs": [],
      "name": "erc20Contract",
      "outputs": [
        {
          "internalType": "contract IERC20",
          "name": "",
          "type": "address"
        }
      ],
      "stateMutability": "view",
      "type": "function"
    },
    {
      "inputs": [],
      "name": "erc721Constract",
      "outputs": [
        {
          "internalType": "contract IERC721",
          "name": "",
          "type": "address"
        }
      ],
      "stateMutability": "view",
      "type": "function"
    },
    {
      "inputs": [],
      "name": "highestBid",
      "outputs": [
        {
          "internalType": "uint256",
          "name": "",
          "type": "uint256"
        }
      ],
      "stateMutability": "view",
      "type": "function"
    },
    {
      "inputs": [],
      "name": "highestBidder",
      "outputs": [
        {
          "internalType": "address",
          "name": "",
          "type": "address"
        }
      ],
      "stateMutability": "view",
      "type": "function"
    },
    {
      "inputs": [],
      "name": "minPrice",
      "outputs": [
        {
          "internalType": "uint256",
          "name": "",
          "type": "uint256"
        }
      ],
      "stateMutability": "view",
      "type": "function"
    },
    {
      "inputs": [],
      "name": "nftAddress",
      "outputs": [
        {
          "internalType": "address",
          "name": "",
          "type": "address"
        }
      ],
      "stateMutability": "view",
      "type": "function"
    },
    {
      "inputs": [],
      "name": "purchasePrice",
      "outputs": [
        {
          "internalType": "uint256",
          "name": "",
          "type": "uint256"
        }
      ],
      "stateMutability": "view",
      "type": "function"
    },
    {
      "inputs": [],
      "name": "saleEndTime",
      "outputs": [
        {
          "internalType": "uint256",
          "name": "",
          "type": "uint256"
        }
      ],
      "stateMutability": "view",
      "type": "function"
    },
    {
      "inputs": [],
      "name": "saleStartTime",
      "outputs": [
        {
          "internalType": "uint256",
          "name": "",
          "type": "uint256"
        }
      ],
      "stateMutability": "view",
      "type": "function"
    },
    {
      "inputs": [],
      "name": "seller",
      "outputs": [
        {
          "internalType": "address",
          "name": "",
          "type": "address"
        }
      ],
      "stateMutability": "view",
      "type": "function"
    },
    {
      "inputs": [],
      "name": "tokenId",
      "outputs": [
        {
          "internalType": "uint256",
          "name": "",
          "type": "uint256"
        }
      ],
      "stateMutability": "view",
      "type": "function"
    },
    {
      "inputs": [
        {
          "internalType": "uint256",
          "name": "bid_amount",
          "type": "uint256"
        }
      ],
      "name": "bid",
      "outputs": [],
      "stateMutability": "nonpayable",
      "type": "function"
    },
    {
      "inputs": [
        {
          "internalType": "uint256",
          "name": "bid_amount",
          "type": "uint256"
        }
      ],
      "name": "purchase",
      "outputs": [],
      "stateMutability": "nonpayable",
      "type": "function"
    },
    {
      "inputs": [],
      "name": "confirmItem",
      "outputs": [],
      "stateMutability": "nonpayable",
      "type": "function"
    },
    {
      "inputs": [],
      "name": "cancelSales",
      "outputs": [],
      "stateMutability": "nonpayable",
      "type": "function"
    },
    {
      "inputs": [],
      "name": "cancelAuction",
      "outputs": [],
      "stateMutability": "nonpayable",
      "type": "function"
    },
    {
      "inputs": [],
      "name": "getTimeLeft",
      "outputs": [
        {
          "internalType": "int256",
          "name": "",
          "type": "int256"
        }
      ],
      "stateMutability": "view",
      "type": "function"
    },
    {
      "inputs": [],
      "name": "getBlockTimeStamp",
      "outputs": [
        {
          "internalType": "uint256",
          "name": "",
          "type": "uint256"
        }
      ],
      "stateMutability": "view",
      "type": "function"
    },
    {
      "inputs": [],
      "name": "getSaleInfo",
      "outputs": [
        {
          "internalType": "uint256",
          "name": "",
          "type": "uint256"
        },
        {
          "internalType": "uint256",
          "name": "",
          "type": "uint256"
        },
        {
          "internalType": "uint256",
          "name": "",
          "type": "uint256"
        },
        {
          "internalType": "uint256",
          "name": "",
          "type": "uint256"
        },
        {
          "internalType": "uint256",
          "name": "",
          "type": "uint256"
        },
        {
          "internalType": "address",
          "name": "",
          "type": "address"
        },
        {
          "internalType": "uint256",
          "name": "",
          "type": "uint256"
        },
        {
          "internalType": "address",
          "name": "",
          "type": "address"
        },
        {
          "internalType": "address",
          "name": "",
          "type": "address"
        }
      ],
      "stateMutability": "view",
      "type": "function"
    },
    {
      "inputs": [],
      "name": "getHighestBid",
      "outputs": [
        {
          "internalType": "uint256",
          "name": "",
          "type": "uint256"
        }
      ],
      "stateMutability": "view",
      "type": "function"
    }
  ],
  "bytecode": "0x60806040523480156200001157600080fd5b50604051620029283803806200292883398181016040528101906200003791906200033e565b600086116200004557600080fd5b866007819055508560058190555084600681905550876000806101000a81548173ffffffffffffffffffffffffffffffffffffffff021916908373ffffffffffffffffffffffffffffffffffffffff16021790555088600260006101000a81548173ffffffffffffffffffffffffffffffffffffffff021916908373ffffffffffffffffffffffffffffffffffffffff160217905550836003819055508260048190555081600860006101000a81548173ffffffffffffffffffffffffffffffffffffffff021916908373ffffffffffffffffffffffffffffffffffffffff16021790555080600960006101000a81548173ffffffffffffffffffffffffffffffffffffffff021916908373ffffffffffffffffffffffffffffffffffffffff1602179055506000600960146101000a81548160ff02191690831515021790555081600c60006101000a81548173ffffffffffffffffffffffffffffffffffffffff021916908373ffffffffffffffffffffffffffffffffffffffff16021790555080600d60006101000a81548173ffffffffffffffffffffffffffffffffffffffff021916908373ffffffffffffffffffffffffffffffffffffffff16021790555080600e60006101000a81548173ffffffffffffffffffffffffffffffffffffffff021916908373ffffffffffffffffffffffffffffffffffffffff16021790555081600f60006101000a81548173ffffffffffffffffffffffffffffffffffffffff021916908373ffffffffffffffffffffffffffffffffffffffff1602179055505050505050505050506200041d565b600080fd5b600073ffffffffffffffffffffffffffffffffffffffff82169050919050565b6000620002cb826200029e565b9050919050565b620002dd81620002be565b8114620002e957600080fd5b50565b600081519050620002fd81620002d2565b92915050565b6000819050919050565b620003188162000303565b81146200032457600080fd5b50565b60008151905062000338816200030d565b92915050565b60008060008060008060008060006101208a8c03121562000364576200036362000299565b5b6000620003748c828d01620002ec565b9950506020620003878c828d01620002ec565b98505060406200039a8c828d0162000327565b9750506060620003ad8c828d0162000327565b9650506080620003c08c828d0162000327565b95505060a0620003d38c828d0162000327565b94505060c0620003e68c828d0162000327565b93505060e0620003f98c828d01620002ec565b9250506101006200040d8c828d01620002ec565b9150509295985092959850929598565b6124fb806200042d6000396000f3fe608060405234801561001057600080fd5b50600436106101735760003560e01c80638fa8b790116100de578063d57bde7911610097578063e45be8eb11610071578063e45be8eb146103b8578063ed338ff1146103d6578063ef0a230e146103f4578063efef39a11461041257610173565b8063d57bde7914610356578063db83694c14610374578063defd6c5f1461039a57610173565b80638fa8b790146102ca578063903e329c146102d457806391f90157146102de578063a8f6c913146102fc578063c7e284b81461031a578063ca49a5431461033857610173565b80631cbaee2d116101305780631cbaee2d14610218578063454a2ab3146102365780634979440a146102525780635bf8633a146102705780635ef94baf1461028e5780637150d8ae146102ac57610173565b806308551a531461017857806308aab230146101965780630a7f463f146101b457806312fa6feb146101be57806317d70f7c146101dc5780631c1cb323146101fa575b600080fd5b61018061042e565b60405161018d9190611a67565b60405180910390f35b61019e610452565b6040516101ab9190611ae1565b60405180910390f35b6101bc610478565b005b6101c6610835565b6040516101d39190611b17565b60405180910390f35b6101e4610848565b6040516101f19190611b4b565b60405180910390f35b61020261084e565b60405161020f9190611a67565b60405180910390f35b610220610874565b60405161022d9190611b4b565b60405180910390f35b610250600480360381019061024b9190611b97565b61087a565b005b61025a610f13565b6040516102679190611b4b565b60405180910390f35b610278610f1d565b6040516102859190611a67565b60405180910390f35b610296610f43565b6040516102a39190611be5565b60405180910390f35b6102b4610f69565b6040516102c19190611a67565b60405180910390f35b6102d2610f8f565b005b6102dc6111bb565b005b6102e66113a2565b6040516102f39190611a67565b60405180910390f35b6103046113c8565b6040516103119190611c21565b60405180910390f35b6103226113ee565b60405161032f9190611c55565b60405180910390f35b610340611403565b60405161034d9190611b4b565b60405180910390f35b61035e61140b565b60405161036b9190611b4b565b60405180910390f35b61037c611411565b60405161039199989796959493929190611c70565b60405180910390f35b6103a26114b7565b6040516103af9190611b4b565b60405180910390f35b6103c06114bd565b6040516103cd9190611b4b565b60405180910390f35b6103de6114c3565b6040516103eb9190611b4b565b60405180910390f35b6103fc6114c9565b6040516104099190611d1e565b60405180910390f35b61042c60048036038101906104279190611b97565b6114ef565b005b60008054906101000a900473ffffffffffffffffffffffffffffffffffffffff1681565b600e60009054906101000a900473ffffffffffffffffffffffffffffffffffffffff1681565b60045442116104bc576040517f08c379a00000000000000000000000000000000000000000000000000000000081526004016104b390611d96565b60405180910390fd5b600a60009054906101000a900473ffffffffffffffffffffffffffffffffffffffff1673ffffffffffffffffffffffffffffffffffffffff163373ffffffffffffffffffffffffffffffffffffffff161480610563575060008054906101000a900473ffffffffffffffffffffffffffffffffffffffff1673ffffffffffffffffffffffffffffffffffffffff163373ffffffffffffffffffffffffffffffffffffffff16145b6105a2576040517f08c379a000000000000000000000000000000000000000000000000000000000815260040161059990611e28565b60405180910390fd5b600e60009054906101000a900473ffffffffffffffffffffffffffffffffffffffff1673ffffffffffffffffffffffffffffffffffffffff166323b872dd30600a60009054906101000a900473ffffffffffffffffffffffffffffffffffffffff166007546040518463ffffffff1660e01b815260040161062593929190611e48565b600060405180830381600087803b15801561063f57600080fd5b505af1158015610653573d6000803e3d6000fd5b50505050600f60009054906101000a900473ffffffffffffffffffffffffffffffffffffffff1673ffffffffffffffffffffffffffffffffffffffff1663095ea7b33061069e610f13565b6040518363ffffffff1660e01b81526004016106bb929190611e7f565b6020604051808303816000875af11580156106da573d6000803e3d6000fd5b505050506040513d601f19601f820116820180604052508101906106fe9190611ed4565b50600f60009054906101000a900473ffffffffffffffffffffffffffffffffffffffff1673ffffffffffffffffffffffffffffffffffffffff166323b872dd3060008054906101000a900473ffffffffffffffffffffffffffffffffffffffff16610767610f13565b6040518463ffffffff1660e01b815260040161078593929190611e48565b6020604051808303816000875af11580156107a4573d6000803e3d6000fd5b505050506040513d601f19601f820116820180604052508101906107c89190611ed4565b507f349f939aaa1895cee67485b264474f0d2a1aac01083917b8ea9f96e4036cbb27600a60009054906101000a900473ffffffffffffffffffffffffffffffffffffffff16610815610f13565b604051610823929190611e7f565b60405180910390a1610833611a09565b565b600960149054906101000a900460ff1681565b60075481565b600860009054906101000a900473ffffffffffffffffffffffffffffffffffffffff1681565b60035481565b60008054906101000a900473ffffffffffffffffffffffffffffffffffffffff1673ffffffffffffffffffffffffffffffffffffffff163373ffffffffffffffffffffffffffffffffffffffff161415610909576040517f08c379a000000000000000000000000000000000000000000000000000000000815260040161090090611f4d565b60405180910390fd5b600454421061094d576040517f08c379a000000000000000000000000000000000000000000000000000000000815260040161094490611fb9565b60405180910390fd5b6000600f60009054906101000a900473ffffffffffffffffffffffffffffffffffffffff1673ffffffffffffffffffffffffffffffffffffffff1663dd62ed3e33306040518363ffffffff1660e01b81526004016109ac929190611fd9565b602060405180830381865afa1580156109c9573d6000803e3d6000fd5b505050506040513d601f19601f820116820180604052508101906109ed9190612017565b1415610a2e576040517f08c379a0000000000000000000000000000000000000000000000000000000008152600401610a25906120b6565b60405180910390fd5b80600f60009054906101000a900473ffffffffffffffffffffffffffffffffffffffff1673ffffffffffffffffffffffffffffffffffffffff1663dd62ed3e33306040518363ffffffff1660e01b8152600401610a8c929190611fd9565b602060405180830381865afa158015610aa9573d6000803e3d6000fd5b505050506040513d601f19601f82011682018060405250810190610acd9190612017565b1015610b0e576040517f08c379a0000000000000000000000000000000000000000000000000000000008152600401610b0590612148565b60405180910390fd5b600554811015610b53576040517f08c379a0000000000000000000000000000000000000000000000000000000008152600401610b4a906121b4565b60405180910390fd5b610b5b610f13565b8111610b9c576040517f08c379a0000000000000000000000000000000000000000000000000000000008152600401610b9390612246565b60405180910390fd5b6006548110610be0576040517f08c379a0000000000000000000000000000000000000000000000000000000008152600401610bd7906122d8565b60405180910390fd5b600073ffffffffffffffffffffffffffffffffffffffff16600a60009054906101000a900473ffffffffffffffffffffffffffffffffffffffff1673ffffffffffffffffffffffffffffffffffffffff1614610da657600f60009054906101000a900473ffffffffffffffffffffffffffffffffffffffff1673ffffffffffffffffffffffffffffffffffffffff1663095ea7b330610c7d610f13565b6040518363ffffffff1660e01b8152600401610c9a929190611e7f565b6020604051808303816000875af1158015610cb9573d6000803e3d6000fd5b505050506040513d601f19601f82011682018060405250810190610cdd9190611ed4565b50600f60009054906101000a900473ffffffffffffffffffffffffffffffffffffffff1673ffffffffffffffffffffffffffffffffffffffff166323b872dd30600a60009054906101000a900473ffffffffffffffffffffffffffffffffffffffff16600b546040518463ffffffff1660e01b8152600401610d6193929190611e48565b6020604051808303816000875af1158015610d80573d6000803e3d6000fd5b505050506040513d601f19601f82011682018060405250810190610da49190611ed4565b505b33600a60006101000a81548173ffffffffffffffffffffffffffffffffffffffff021916908373ffffffffffffffffffffffffffffffffffffffff16021790555080600b81905550600f60009054906101000a900473ffffffffffffffffffffffffffffffffffffffff1673ffffffffffffffffffffffffffffffffffffffff166323b872dd600a60009054906101000a900473ffffffffffffffffffffffffffffffffffffffff1630846040518463ffffffff1660e01b8152600401610e6f93929190611e48565b6020604051808303816000875af1158015610e8e573d6000803e3d6000fd5b505050506040513d601f19601f82011682018060405250810190610eb29190611ed4565b507f9a7ee7c473e470da200bb28a0e3ee1fe516d900eaade5825f7960323b9d77740600a60009054906101000a900473ffffffffffffffffffffffffffffffffffffffff16600b54604051610f08929190611e7f565b60405180910390a150565b6000600b54905090565b600960009054906101000a900473ffffffffffffffffffffffffffffffffffffffff1681565b600f60009054906101000a900473ffffffffffffffffffffffffffffffffffffffff1681565b600160009054906101000a900473ffffffffffffffffffffffffffffffffffffffff1681565b60008054906101000a900473ffffffffffffffffffffffffffffffffffffffff1673ffffffffffffffffffffffffffffffffffffffff163373ffffffffffffffffffffffffffffffffffffffff1614806110365750600260009054906101000a900473ffffffffffffffffffffffffffffffffffffffff1673ffffffffffffffffffffffffffffffffffffffff163373ffffffffffffffffffffffffffffffffffffffff16145b611075576040517f08c379a000000000000000000000000000000000000000000000000000000000815260040161106c90612344565b60405180910390fd5b600073ffffffffffffffffffffffffffffffffffffffff16600a60009054906101000a900473ffffffffffffffffffffffffffffffffffffffff1673ffffffffffffffffffffffffffffffffffffffff1614611106576040517f08c379a00000000000000000000000000000000000000000000000000000000081526004016110fd906123b0565b60405180910390fd5b600e60009054906101000a900473ffffffffffffffffffffffffffffffffffffffff1673ffffffffffffffffffffffffffffffffffffffff166323b872dd3060008054906101000a900473ffffffffffffffffffffffffffffffffffffffff166007546040518463ffffffff1660e01b815260040161118793929190611e48565b600060405180830381600087803b1580156111a157600080fd5b505af11580156111b5573d6000803e3d6000fd5b50505050565b60045442106111ff576040517f08c379a00000000000000000000000000000000000000000000000000000000081526004016111f690611fb9565b60405180910390fd5b60008054906101000a900473ffffffffffffffffffffffffffffffffffffffff1673ffffffffffffffffffffffffffffffffffffffff163373ffffffffffffffffffffffffffffffffffffffff1614806112a65750600260009054906101000a900473ffffffffffffffffffffffffffffffffffffffff1673ffffffffffffffffffffffffffffffffffffffff163373ffffffffffffffffffffffffffffffffffffffff16145b6112e5576040517f08c379a00000000000000000000000000000000000000000000000000000000081526004016112dc90612344565b60405180910390fd5b600e60009054906101000a900473ffffffffffffffffffffffffffffffffffffffff1673ffffffffffffffffffffffffffffffffffffffff166323b872dd3060008054906101000a900473ffffffffffffffffffffffffffffffffffffffff166007546040518463ffffffff1660e01b815260040161136693929190611e48565b600060405180830381600087803b15801561138057600080fd5b505af1158015611394573d6000803e3d6000fd5b505050506113a0611a09565b565b600a60009054906101000a900473ffffffffffffffffffffffffffffffffffffffff1681565b600c60009054906101000a900473ffffffffffffffffffffffffffffffffffffffff1681565b6000426004546113fe91906123ff565b905090565b600042905090565b600b5481565b6000806000806000806000806000600354600454600554600654600754600a60009054906101000a900473ffffffffffffffffffffffffffffffffffffffff16600b54600860009054906101000a900473ffffffffffffffffffffffffffffffffffffffff16600960009054906101000a900473ffffffffffffffffffffffffffffffffffffffff16985098509850985098509850985098509850909192939495969798565b60065481565b60055481565b60045481565b600d60009054906101000a900473ffffffffffffffffffffffffffffffffffffffff1681565b60008054906101000a900473ffffffffffffffffffffffffffffffffffffffff1673ffffffffffffffffffffffffffffffffffffffff163373ffffffffffffffffffffffffffffffffffffffff16141561157e576040517f08c379a000000000000000000000000000000000000000000000000000000000815260040161157590611f4d565b60405180910390fd5b60045442106115c2576040517f08c379a00000000000000000000000000000000000000000000000000000000081526004016115b990611fb9565b60405180910390fd5b6000600f60009054906101000a900473ffffffffffffffffffffffffffffffffffffffff1673ffffffffffffffffffffffffffffffffffffffff1663dd62ed3e33306040518363ffffffff1660e01b8152600401611621929190611fd9565b602060405180830381865afa15801561163e573d6000803e3d6000fd5b505050506040513d601f19601f820116820180604052508101906116629190612017565b14156116a3576040517f08c379a000000000000000000000000000000000000000000000000000000000815260040161169a906120b6565b60405180910390fd5b80600f60009054906101000a900473ffffffffffffffffffffffffffffffffffffffff1673ffffffffffffffffffffffffffffffffffffffff1663dd62ed3e33306040518363ffffffff1660e01b8152600401611701929190611fd9565b602060405180830381865afa15801561171e573d6000803e3d6000fd5b505050506040513d601f19601f820116820180604052508101906117429190612017565b1015611783576040517f08c379a000000000000000000000000000000000000000000000000000000000815260040161177a90612148565b60405180910390fd5b6006548110156117c8576040517f08c379a00000000000000000000000000000000000000000000000000000000081526004016117bf906124a5565b60405180910390fd5b33600160006101000a81548173ffffffffffffffffffffffffffffffffffffffff021916908373ffffffffffffffffffffffffffffffffffffffff160217905550600f60009054906101000a900473ffffffffffffffffffffffffffffffffffffffff1673ffffffffffffffffffffffffffffffffffffffff166323b872dd600160009054906101000a900473ffffffffffffffffffffffffffffffffffffffff1660008054906101000a900473ffffffffffffffffffffffffffffffffffffffff16846040518463ffffffff1660e01b81526004016118aa93929190611e48565b6020604051808303816000875af11580156118c9573d6000803e3d6000fd5b505050506040513d601f19601f820116820180604052508101906118ed9190611ed4565b50600e60009054906101000a900473ffffffffffffffffffffffffffffffffffffffff1673ffffffffffffffffffffffffffffffffffffffff166323b872dd30600160009054906101000a900473ffffffffffffffffffffffffffffffffffffffff166007546040518463ffffffff1660e01b815260040161197193929190611e48565b600060405180830381600087803b15801561198b57600080fd5b505af115801561199f573d6000803e3d6000fd5b505050507f349f939aaa1895cee67485b264474f0d2a1aac01083917b8ea9f96e4036cbb27600160009054906101000a900473ffffffffffffffffffffffffffffffffffffffff16826040516119f6929190611e7f565b60405180910390a1611a06611a09565b50565b6001600960146101000a81548160ff021916908315150217905550565b600073ffffffffffffffffffffffffffffffffffffffff82169050919050565b6000611a5182611a26565b9050919050565b611a6181611a46565b82525050565b6000602082019050611a7c6000830184611a58565b92915050565b6000819050919050565b6000611aa7611aa2611a9d84611a26565b611a82565b611a26565b9050919050565b6000611ab982611a8c565b9050919050565b6000611acb82611aae565b9050919050565b611adb81611ac0565b82525050565b6000602082019050611af66000830184611ad2565b92915050565b60008115159050919050565b611b1181611afc565b82525050565b6000602082019050611b2c6000830184611b08565b92915050565b6000819050919050565b611b4581611b32565b82525050565b6000602082019050611b606000830184611b3c565b92915050565b600080fd5b611b7481611b32565b8114611b7f57600080fd5b50565b600081359050611b9181611b6b565b92915050565b600060208284031215611bad57611bac611b66565b5b6000611bbb84828501611b82565b91505092915050565b6000611bcf82611aae565b9050919050565b611bdf81611bc4565b82525050565b6000602082019050611bfa6000830184611bd6565b92915050565b6000611c0b82611aae565b9050919050565b611c1b81611c00565b82525050565b6000602082019050611c366000830184611c12565b92915050565b6000819050919050565b611c4f81611c3c565b82525050565b6000602082019050611c6a6000830184611c46565b92915050565b600061012082019050611c86600083018c611b3c565b611c93602083018b611b3c565b611ca0604083018a611b3c565b611cad6060830189611b3c565b611cba6080830188611b3c565b611cc760a0830187611a58565b611cd460c0830186611b3c565b611ce160e0830185611a58565b611cef610100830184611a58565b9a9950505050505050505050565b6000611d0882611aae565b9050919050565b611d1881611cfd565b82525050565b6000602082019050611d336000830184611d0f565b92915050565b600082825260208201905092915050565b7f53616c652074696d6520686173206e6f74206578706972656400000000000000600082015250565b6000611d80601983611d39565b9150611d8b82611d4a565b602082019050919050565b60006020820190508181036000830152611daf81611d73565b9050919050565b7f63616c6c6572206973206e6f742068696768657374426964646572206f72207360008201527f656c6c6572000000000000000000000000000000000000000000000000000000602082015250565b6000611e12602583611d39565b9150611e1d82611db6565b604082019050919050565b60006020820190508181036000830152611e4181611e05565b9050919050565b6000606082019050611e5d6000830186611a58565b611e6a6020830185611a58565b611e776040830184611b3c565b949350505050565b6000604082019050611e946000830185611a58565b611ea16020830184611b3c565b9392505050565b611eb181611afc565b8114611ebc57600080fd5b50565b600081519050611ece81611ea8565b92915050565b600060208284031215611eea57611ee9611b66565b5b6000611ef884828501611ebf565b91505092915050565b7f73656c6c65722063616e27742063616c6c20746869732066756e6374696f6e00600082015250565b6000611f37601f83611d39565b9150611f4282611f01565b602082019050919050565b60006020820190508181036000830152611f6681611f2a565b9050919050565b7f53616c652074696d652068617320657870697265640000000000000000000000600082015250565b6000611fa3601583611d39565b9150611fae82611f6d565b602082019050919050565b60006020820190508181036000830152611fd281611f96565b9050919050565b6000604082019050611fee6000830185611a58565b611ffb6020830184611a58565b9392505050565b60008151905061201181611b6b565b92915050565b60006020828403121561202d5761202c611b66565b5b600061203b84828501612002565b91505092915050565b7f627579657220646964206e6f7420617070726f7665207468697320636f6e747260008201527f6163740000000000000000000000000000000000000000000000000000000000602082015250565b60006120a0602383611d39565b91506120ab82612044565b604082019050919050565b600060208201905081810360008301526120cf81612093565b9050919050565b7f63616c6c657220617070726f7665206c65737320616d6f756e74206f6620746f60008201527f6b656e0000000000000000000000000000000000000000000000000000000000602082015250565b6000612132602383611d39565b915061213d826120d6565b604082019050919050565b6000602082019050818103600083015261216181612125565b9050919050565b7f6269645f616d6f756e74206973206c657373207468616e206d696e5072696365600082015250565b600061219e602083611d39565b91506121a982612168565b602082019050919050565b600060208201905081810360008301526121cd81612191565b9050919050565b7f6269645f616d6f756e74206973206c657373207468616e20686967686573744260008201527f6964000000000000000000000000000000000000000000000000000000000000602082015250565b6000612230602283611d39565b915061223b826121d4565b604082019050919050565b6000602082019050818103600083015261225f81612223565b9050919050565b7f6269645f616d6f756e74206973206c6172676572207468616e2070757263686160008201527f7365507269636500000000000000000000000000000000000000000000000000602082015250565b60006122c2602783611d39565b91506122cd82612266565b604082019050919050565b600060208201905081810360008301526122f1816122b5565b9050919050565b7f63616c6c6572206973206e6f7420617070726f76656400000000000000000000600082015250565b600061232e601683611d39565b9150612339826122f8565b602082019050919050565b6000602082019050818103600083015261235d81612321565b9050919050565b7f6269646465722065786973740000000000000000000000000000000000000000600082015250565b600061239a600c83611d39565b91506123a582612364565b602082019050919050565b600060208201905081810360008301526123c98161238d565b9050919050565b7f4e487b7100000000000000000000000000000000000000000000000000000000600052601160045260246000fd5b600061240a82611b32565b915061241583611b32565b925082821015612428576124276123d0565b5b828203905092915050565b7f6269645f616d6f756e74206973206c657373207468616e20707572636861736560008201527f5072696365000000000000000000000000000000000000000000000000000000602082015250565b600061248f602583611d39565b915061249a82612433565b604082019050919050565b600060208201905081810360008301526124be81612482565b905091905056fea2646970667358221220746266affddc27bbbc07d54ed9f84b109e34cda5ad7615978ff0556236ef14d164736f6c634300080b0033",
  "immutableReferences": {},
  "source": "// SPDX-License-Identifier: MIT\r\npragma solidity ^0.8.4;\r\n\r\nimport \"./access/Ownable.sol\";\r\nimport \"./token/ERC20/ERC20.sol\";\r\nimport \"./token/ERC721/ERC721.sol\";\r\nimport \"./NFTcreator.sol\";\r\nimport \"./SSFToken.sol\";\r\n\r\n/**\r\n * PJT  - Req.1-SC1 SaleFactory \r\n *    ,      .\r\n */\r\n /*\r\n Sale      \r\n   NFT ERC-20     \r\n SaleFactory  Sale     Sale   NFT .\r\n */\r\ncontract SaleFactory is Ownable {\r\n    address public admin; //     address(owner)\r\n    address[] public sales; //     Sale  \r\n    mapping(uint256 => address) saleContractAddress; // id -> Salecontract address \r\n    NFTcreator public NFTcreatorContract;\r\n\r\n    event NewSale(\r\n        address indexed _saleContract,\r\n        address indexed _owner,\r\n        uint256 _workId\r\n    );\r\n\r\n    constructor(address _NFTcreatorAddress) {\r\n        admin = msg.sender;\r\n        NFTcreatorContract = NFTcreator(_NFTcreatorAddress);\r\n    }\r\n\r\n    /**\r\n     * @dev   . \r\n     */\r\n    /*\r\n        Sale  .\r\n     Sale   .\r\n     Sale   .\r\n     */\r\n    function createSale(\r\n        uint256 itemId,\r\n        uint256 minPrice,\r\n        uint256 purchasePrice,\r\n        uint256 startTime,\r\n        uint256 endTime,\r\n        address currencyAddress,\r\n        address nftAddress\r\n    ) public returns (address) {\r\n        // TODO\r\n        address seller = msg.sender;\r\n        Sale instance = new Sale(admin, seller, itemId, minPrice, purchasePrice, startTime, endTime, currencyAddress, nftAddress);\r\n        //   tokenid    \r\n        NFTcreatorContract.transferFrom(seller, address(instance), itemId);\r\n        // return instance;\r\n        // emit NewSale(_saleContract, _owner, _workId);\r\n        sales.push(address(instance));\r\n        saleContractAddress[itemId] = address(instance);\r\n        emit NewSale(address(instance), msg.sender, itemId);\r\n        return address(instance);\r\n    }\r\n\r\n    //   Sale  \r\n    function allSales() public view returns (address[] memory) {\r\n        return sales;\r\n    }\r\n\r\n    function getSaleContractAddress(uint256 tokenId) public view returns (address) {\r\n        require(saleContractAddress[tokenId] != address(0), \"this token is not on sale\");\r\n        return saleContractAddress[tokenId];\r\n    }\r\n}\r\n\r\n/**\r\n *  PJT  - Req.1-SC2) Sale \r\n */\r\n/**\r\n    \r\n(constructor), (bid), (purchase), (confirmItem), (cancle) \r\n   bid(), purchase() \r\n     confirmItem()   ERC-20  NFT   .\r\n */\r\ncontract Sale {\r\n    //    \r\n    address public seller; //  \r\n    address public buyer; //  \r\n    address admin; //  \r\n    uint256 public saleStartTime; //  \r\n    uint256 public saleEndTime; //  \r\n    uint256 public minPrice; //  \r\n    uint256 public purchasePrice;  //  \r\n    uint256 public tokenId; //  NFT tokenId\r\n    address public currencyAddress; //   ERC-20 \r\n    address public nftAddress; // nft creator \r\n    bool public ended; // ()\r\n\r\n    //    \r\n    address public highestBidder; //    \r\n    uint256 public highestBid;  //   \r\n\r\n    IERC20 public erc20Contract;\r\n    IERC721 public erc721Constract;\r\n    NFTcreator public NFTcreatorContract;\r\n    SSFToken public SSFTokenContract;\r\n\r\n    event HighestBidIncereased(address bidder, uint256 amount); //   ,  \r\n    event SaleEnded(address winner, uint256 amount);  //   \r\n\r\n\r\n    constructor(\r\n        address _admin,\r\n        address _seller,\r\n        uint256 _tokenId,\r\n        uint256 _minPrice,\r\n        uint256 _purchasePrice,\r\n        uint256 startTime,\r\n        uint256 endTime,\r\n        address _currencyAddress,\r\n        address _nftAddress\r\n    ) {\r\n        require(_minPrice > 0);\r\n        tokenId = _tokenId; \r\n        minPrice = _minPrice; \r\n        purchasePrice = _purchasePrice;\r\n        seller = _seller;\r\n        admin = _admin;\r\n        saleStartTime = startTime;\r\n        saleEndTime = endTime;\r\n        currencyAddress = _currencyAddress; \r\n        nftAddress = _nftAddress; \r\n        ended = false; \r\n        erc20Contract = IERC20(_currencyAddress);\r\n        erc721Constract = IERC721(_nftAddress);\r\n        NFTcreatorContract = NFTcreator(_nftAddress);\r\n        SSFTokenContract = SSFToken(_currencyAddress);\r\n    }\r\n\r\n    /**\r\n       \r\n    -   \r\n    - Sale   \r\n    -  Sale   ERC-20     (ERC-20 approve)\r\n    -       \r\n    -      \r\n    -     \r\n       \r\n    1.     .\r\n    2. Sale   ERC-20  .\r\n     */\r\n    function bid(uint256 bid_amount) public {\r\n        // TODO\r\n        require(msg.sender != seller, \"seller can't call this function\");\r\n        require(block.timestamp < saleEndTime, \"Sale time has expired\");\r\n        require(SSFTokenContract.allowance(msg.sender, address(this)) != 0, \"buyer did not approve this contract\");\r\n        require(SSFTokenContract.allowance(msg.sender, address(this)) >= bid_amount, \"caller approve less amount of token\");\r\n        require(bid_amount >= minPrice, \"bid_amount is less than minPrice\");\r\n        require(bid_amount > getHighestBid(), \"bid_amount is less than highestBid\");\r\n        require(bid_amount < purchasePrice, \"bid_amount is larger than purchasePrice\");\r\n        if (highestBidder != address(0)) { //    \r\n            SSFTokenContract.approve(address(this), getHighestBid());\r\n            SSFTokenContract.transferFrom(address(this), highestBidder, highestBid);\r\n        }\r\n        highestBidder = msg.sender;\r\n        highestBid = bid_amount;\r\n        SSFTokenContract.transferFrom(highestBidder, address(this), bid_amount);\r\n        emit HighestBidIncereased(highestBidder, highestBid);\r\n    }\r\n\r\n    /**\r\n            \r\n    -   \r\n    -  Sale   \r\n    -   Sale    ERC-20       (ERC-20 approve)\r\n       \r\n    1.     .\r\n    2.  ERC-20     .\r\n    3. NFT   .\r\n    4.      .\r\n     */\r\n    function purchase(uint256 bid_amount) public {\r\n        // TODO \r\n        require(msg.sender != seller, \"seller can't call this function\");\r\n        require(block.timestamp < saleEndTime, \"Sale time has expired\");\r\n        require(SSFTokenContract.allowance(msg.sender, address(this)) != 0, \"buyer did not approve this contract\");\r\n        require(SSFTokenContract.allowance(msg.sender, address(this)) >= bid_amount, \"caller approve less amount of token\");\r\n        require(bid_amount >= purchasePrice, \"bid_amount is less than purchasePrice\");\r\n        buyer = msg.sender;\r\n        SSFTokenContract.transferFrom(buyer, seller, bid_amount);\r\n        NFTcreatorContract.transferFrom(address(this), buyer, tokenId);\r\n        emit SaleEnded(buyer, bid_amount);\r\n        _end();\r\n    }\r\n\r\n    /**\r\n           \r\n    -    (   )\r\n    -    \r\n       \r\n    1.    .\r\n    2. NFT   .\r\n    3.      .\r\n    */\r\n    function confirmItem() public {\r\n        // TODO \r\n        require(block.timestamp > saleEndTime, \"Sale time has not expired\");\r\n        require(msg.sender == highestBidder || msg.sender == seller, \"caller is not highestBidder or seller\");\r\n        NFTcreatorContract.transferFrom(address(this), highestBidder, tokenId);\r\n        SSFTokenContract.approve(address(this), getHighestBid());\r\n        SSFTokenContract.transferFrom(address(this), seller, getHighestBid());\r\n        emit SaleEnded(highestBidder, getHighestBid());\r\n        _end(); \r\n    }\r\n    \r\n    /**\r\n            \r\n    -    \r\n    -     \r\n       \r\n    1.  .\r\n    2. NFT   .\r\n    3.     .\r\n    */\r\n    //   \r\n    function cancelSales() public {\r\n        // TODO\r\n        require(block.timestamp < saleEndTime, \"Sale time has expired\");\r\n        require(msg.sender == seller || msg.sender == admin, \"caller is not approved\");\r\n        // NFT   \r\n        NFTcreatorContract.transferFrom(address(this), seller, tokenId);\r\n        _end(); \r\n    }\r\n\r\n    //   cancel (   NFT)\r\n    function cancelAuction() public {\r\n        // TODO\r\n        // require(block.timestamp > saleEndTime, \"Sale time has not expired\");\r\n        require(msg.sender == seller || msg.sender == admin, \"caller is not approved\");\r\n        require(highestBidder == address(0), \"bidder exist\");\r\n        // NFT   \r\n        NFTcreatorContract.transferFrom(address(this), seller, tokenId);\r\n    }\r\n\r\n    function getTimeLeft() public view returns (int256) {\r\n        return (int256)(saleEndTime - block.timestamp);\r\n    }\r\n\r\n    function getBlockTimeStamp() public view returns(uint256){\r\n        return block.timestamp;\r\n    }\r\n\r\n    function getSaleInfo()\r\n        public\r\n        view\r\n        returns (\r\n            uint256,\r\n            uint256,\r\n            uint256,\r\n            uint256,\r\n            uint256,\r\n            address,\r\n            uint256,\r\n            address,\r\n            address\r\n        )\r\n    {\r\n        return (\r\n            saleStartTime,\r\n            saleEndTime,\r\n            minPrice,\r\n            purchasePrice,\r\n            tokenId,\r\n            highestBidder,\r\n            highestBid,\r\n            currencyAddress,\r\n            nftAddress\r\n        );\r\n    }\r\n\r\n    function getHighestBid() public view returns(uint256){\r\n        return highestBid;\r\n    }\r\n\r\n    // internal  private     _  .\r\n    function _end() internal {\r\n        ended = true;\r\n    }\r\n\r\n    function _getCurrencyAmount() private view returns (uint256) {\r\n        return erc20Contract.balanceOf(msg.sender);\r\n    }\r\n\r\n    // modifier       . \r\n    modifier onlySeller() {\r\n        require(msg.sender == seller, \"Sale: You are not seller.\");\r\n        _;\r\n    }\r\n\r\n    modifier onlyAfterStart() {\r\n        require(\r\n            block.timestamp >= saleStartTime,\r\n            \"Sale: This sale is not started.\"\r\n        );\r\n        _;\r\n    }\r\n}\r\n",
  "sourcePath": "C:\\Users\\SSAFY\\Desktop\\S06P22E106\\smart-contracts\\contracts\\SaleFactory.sol",
  "compiler": {
    "name": "solc",
    "version": "0.8.11+commit.d7f03943.Emscripten.clang"
  },
  "schemaVersion": "3.4.5",
  "updatedAt": "2022-03-27T16:48:16.898Z",
  "devdoc": {
    "kind": "dev",
    "methods": {},
    "version": 1
  },
  "userdoc": {
    "kind": "user",
    "methods": {
      "bid(uint256)": {
        "notice": "    -    - Sale    -  Sale   ERC-20     (ERC-20 approve) -        -       -          1.     . 2. Sale   ERC-20  ."
      },
      "cancelSales()": {
        "notice": "         -     -          1.  . 2. NFT   . 3.     ."
      },
      "confirmItem()": {
        "notice": "        -    (   ) -         1.    . 2. NFT   . 3.      ."
      },
      "purchase(uint256)": {
        "notice": "         -    -  Sale    -   Sale    ERC-20       (ERC-20 approve)     1.     . 2.  ERC-20     . 3. NFT   . 4.      ."
      }
    },
    "notice": "     (constructor), (bid), (purchase), (confirmItem), (cancle)     bid(), purchase()       confirmItem()   ERC-20  NFT   .",
    "version": 1
  }
}