{
  "contractName": "SaleFactory",
  "abi": [
    {
      "inputs": [
        {
          "internalType": "address",
          "name": "_NFTcreatorAddress",
          "type": "address"
        }
      ],
      "stateMutability": "nonpayable",
      "type": "constructor"
    },
    {
      "anonymous": false,
      "inputs": [
        {
          "indexed": true,
          "internalType": "address",
          "name": "_saleContract",
          "type": "address"
        },
        {
          "indexed": true,
          "internalType": "address",
          "name": "_owner",
          "type": "address"
        },
        {
          "indexed": false,
          "internalType": "uint256",
          "name": "_workId",
          "type": "uint256"
        }
      ],
      "name": "NewSale",
      "type": "event"
    },
    {
      "anonymous": false,
      "inputs": [
        {
          "indexed": true,
          "internalType": "address",
          "name": "previousOwner",
          "type": "address"
        },
        {
          "indexed": true,
          "internalType": "address",
          "name": "newOwner",
          "type": "address"
        }
      ],
      "name": "OwnershipTransferred",
      "type": "event"
    },
    {
      "inputs": [],
      "name": "NFTcreatorContract",
      "outputs": [
        {
          "internalType": "contract NFTcreator",
          "name": "",
          "type": "address"
        }
      ],
      "stateMutability": "view",
      "type": "function",
      "constant": true
    },
    {
      "inputs": [],
      "name": "admin",
      "outputs": [
        {
          "internalType": "address",
          "name": "",
          "type": "address"
        }
      ],
      "stateMutability": "view",
      "type": "function",
      "constant": true
    },
    {
      "inputs": [],
      "name": "owner",
      "outputs": [
        {
          "internalType": "address",
          "name": "",
          "type": "address"
        }
      ],
      "stateMutability": "view",
      "type": "function",
      "constant": true
    },
    {
      "inputs": [],
      "name": "renounceOwnership",
      "outputs": [],
      "stateMutability": "nonpayable",
      "type": "function"
    },
    {
      "inputs": [
        {
          "internalType": "uint256",
          "name": "",
          "type": "uint256"
        }
      ],
      "name": "sales",
      "outputs": [
        {
          "internalType": "address",
          "name": "",
          "type": "address"
        }
      ],
      "stateMutability": "view",
      "type": "function",
      "constant": true
    },
    {
      "inputs": [
        {
          "internalType": "address",
          "name": "newOwner",
          "type": "address"
        }
      ],
      "name": "transferOwnership",
      "outputs": [],
      "stateMutability": "nonpayable",
      "type": "function"
    },
    {
      "inputs": [
        {
          "internalType": "uint256",
          "name": "itemId",
          "type": "uint256"
        },
        {
          "internalType": "uint256",
          "name": "minPrice",
          "type": "uint256"
        },
        {
          "internalType": "uint256",
          "name": "purchasePrice",
          "type": "uint256"
        },
        {
          "internalType": "uint256",
          "name": "startTime",
          "type": "uint256"
        },
        {
          "internalType": "uint256",
          "name": "endTime",
          "type": "uint256"
        },
        {
          "internalType": "address",
          "name": "currencyAddress",
          "type": "address"
        },
        {
          "internalType": "address",
          "name": "nftAddress",
          "type": "address"
        }
      ],
      "name": "createSale",
      "outputs": [
        {
          "internalType": "address",
          "name": "",
          "type": "address"
        }
      ],
      "stateMutability": "nonpayable",
      "type": "function"
    },
    {
      "inputs": [],
      "name": "allSales",
      "outputs": [
        {
          "internalType": "address[]",
          "name": "",
          "type": "address[]"
        }
      ],
      "stateMutability": "view",
      "type": "function",
      "constant": true
    }
  ],
  "bytecode": "0x60806040523480156200001157600080fd5b5060405162001bfb38038062001bfb833981810160405281019062000037919062000216565b620000576200004b620000e060201b60201c565b620000e860201b60201c565b33600160006101000a81548173ffffffffffffffffffffffffffffffffffffffff021916908373ffffffffffffffffffffffffffffffffffffffff16021790555080600360006101000a81548173ffffffffffffffffffffffffffffffffffffffff021916908373ffffffffffffffffffffffffffffffffffffffff1602179055505062000248565b600033905090565b60008060009054906101000a900473ffffffffffffffffffffffffffffffffffffffff169050816000806101000a81548173ffffffffffffffffffffffffffffffffffffffff021916908373ffffffffffffffffffffffffffffffffffffffff1602179055508173ffffffffffffffffffffffffffffffffffffffff168173ffffffffffffffffffffffffffffffffffffffff167f8be0079c531659141344cd1fd0a4f28419497f9722a3daafe3b4186f6b6457e060405160405180910390a35050565b600080fd5b600073ffffffffffffffffffffffffffffffffffffffff82169050919050565b6000620001de82620001b1565b9050919050565b620001f081620001d1565b8114620001fc57600080fd5b50565b6000815190506200021081620001e5565b92915050565b6000602082840312156200022f576200022e620001ac565b5b60006200023f84828501620001ff565b91505092915050565b6119a380620002586000396000f3fe60806040523480156200001157600080fd5b5060043610620000945760003560e01c80639aafe3c911620000635780639aafe3c9146200010b578063b5f522f71462000141578063f2fde38b1462000177578063f851a44014620001975762000094565b806308aab23014620000995780636eafecba14620000bb578063715018a614620000dd5780638da5cb5b14620000e9575b600080fd5b620000a3620001b9565b604051620000b29190620007d6565b60405180910390f35b620000c5620001df565b604051620000d49190620008d5565b60405180910390f35b620000e76200026f565b005b620000f362000300565b6040516200010291906200090a565b60405180910390f35b62000129600480360381019062000123919062000998565b62000329565b6040516200013891906200090a565b60405180910390f35b6200015f600480360381019062000159919062000a4b565b62000507565b6040516200016e91906200090a565b60405180910390f35b6200019560048036038101906200018f919062000a7d565b62000547565b005b620001a16200064b565b604051620001b091906200090a565b60405180910390f35b600360009054906101000a900473ffffffffffffffffffffffffffffffffffffffff1681565b606060028054806020026020016040519081016040528092919081815260200182805480156200026557602002820191906000526020600020905b8160009054906101000a900473ffffffffffffffffffffffffffffffffffffffff1673ffffffffffffffffffffffffffffffffffffffff16815260200190600101908083116200021a575b5050505050905090565b6200027962000671565b73ffffffffffffffffffffffffffffffffffffffff166200029962000300565b73ffffffffffffffffffffffffffffffffffffffff1614620002f2576040517f08c379a0000000000000000000000000000000000000000000000000000000008152600401620002e99062000b10565b60405180910390fd5b620002fe600062000679565b565b60008060009054906101000a900473ffffffffffffffffffffffffffffffffffffffff16905090565b600080600160009054906101000a900473ffffffffffffffffffffffffffffffffffffffff16338a8a8a8a8a8a8a60405162000365906200073d565b620003799998979695949392919062000b43565b604051809103906000f08015801562000396573d6000803e3d6000fd5b509050600360009054906101000a900473ffffffffffffffffffffffffffffffffffffffff1673ffffffffffffffffffffffffffffffffffffffff166323b872dd33838c6040518463ffffffff1660e01b8152600401620003fa9392919062000be2565b600060405180830381600087803b1580156200041557600080fd5b505af11580156200042a573d6000803e3d6000fd5b505050506002819080600181540180825580915050600190039060005260206000200160009091909190916101000a81548173ffffffffffffffffffffffffffffffffffffffff021916908373ffffffffffffffffffffffffffffffffffffffff1602179055503373ffffffffffffffffffffffffffffffffffffffff168173ffffffffffffffffffffffffffffffffffffffff167f874bdb649427dfeceaa7f10beee59a823d3e45a6814f50bc18ba2adefd058e488b604051620004f0919062000c1f565b60405180910390a380915050979650505050505050565b600281815481106200051857600080fd5b906000526020600020016000915054906101000a900473ffffffffffffffffffffffffffffffffffffffff1681565b6200055162000671565b73ffffffffffffffffffffffffffffffffffffffff166200057162000300565b73ffffffffffffffffffffffffffffffffffffffff1614620005ca576040517f08c379a0000000000000000000000000000000000000000000000000000000008152600401620005c19062000b10565b60405180910390fd5b600073ffffffffffffffffffffffffffffffffffffffff168173ffffffffffffffffffffffffffffffffffffffff1614156200063d576040517f08c379a0000000000000000000000000000000000000000000000000000000008152600401620006349062000cb2565b60405180910390fd5b620006488162000679565b50565b600160009054906101000a900473ffffffffffffffffffffffffffffffffffffffff1681565b600033905090565b60008060009054906101000a900473ffffffffffffffffffffffffffffffffffffffff169050816000806101000a81548173ffffffffffffffffffffffffffffffffffffffff021916908373ffffffffffffffffffffffffffffffffffffffff1602179055508173ffffffffffffffffffffffffffffffffffffffff168173ffffffffffffffffffffffffffffffffffffffff167f8be0079c531659141344cd1fd0a4f28419497f9722a3daafe3b4186f6b6457e060405160405180910390a35050565b610c998062000cd583390190565b600073ffffffffffffffffffffffffffffffffffffffff82169050919050565b6000819050919050565b600062000796620007906200078a846200074b565b6200076b565b6200074b565b9050919050565b6000620007aa8262000775565b9050919050565b6000620007be826200079d565b9050919050565b620007d081620007b1565b82525050565b6000602082019050620007ed6000830184620007c5565b92915050565b600081519050919050565b600082825260208201905092915050565b6000819050602082019050919050565b60006200082c826200074b565b9050919050565b6200083e816200081f565b82525050565b600062000852838362000833565b60208301905092915050565b6000602082019050919050565b60006200087882620007f3565b620008848185620007fe565b935062000891836200080f565b8060005b83811015620008c8578151620008ac888262000844565b9750620008b9836200085e565b92505060018101905062000895565b5085935050505092915050565b60006020820190508181036000830152620008f181846200086b565b905092915050565b62000904816200081f565b82525050565b6000602082019050620009216000830184620008f9565b92915050565b600080fd5b6000819050919050565b62000941816200092c565b81146200094d57600080fd5b50565b600081359050620009618162000936565b92915050565b62000972816200081f565b81146200097e57600080fd5b50565b600081359050620009928162000967565b92915050565b600080600080600080600060e0888a031215620009ba57620009b962000927565b5b6000620009ca8a828b0162000950565b9750506020620009dd8a828b0162000950565b9650506040620009f08a828b0162000950565b955050606062000a038a828b0162000950565b945050608062000a168a828b0162000950565b93505060a062000a298a828b0162000981565b92505060c062000a3c8a828b0162000981565b91505092959891949750929550565b60006020828403121562000a645762000a6362000927565b5b600062000a748482850162000950565b91505092915050565b60006020828403121562000a965762000a9562000927565b5b600062000aa68482850162000981565b91505092915050565b600082825260208201905092915050565b7f4f776e61626c653a2063616c6c6572206973206e6f7420746865206f776e6572600082015250565b600062000af860208362000aaf565b915062000b058262000ac0565b602082019050919050565b6000602082019050818103600083015262000b2b8162000ae9565b9050919050565b62000b3d816200092c565b82525050565b60006101208201905062000b5b600083018c620008f9565b62000b6a602083018b620008f9565b62000b79604083018a62000b32565b62000b88606083018962000b32565b62000b97608083018862000b32565b62000ba660a083018762000b32565b62000bb560c083018662000b32565b62000bc460e0830185620008f9565b62000bd4610100830184620008f9565b9a9950505050505050505050565b600060608201905062000bf96000830186620008f9565b62000c086020830185620008f9565b62000c17604083018462000b32565b949350505050565b600060208201905062000c36600083018462000b32565b92915050565b7f4f776e61626c653a206e6577206f776e657220697320746865207a65726f206160008201527f6464726573730000000000000000000000000000000000000000000000000000602082015250565b600062000c9a60268362000aaf565b915062000ca78262000c3c565b604082019050919050565b6000602082019050818103600083015262000ccd8162000c8b565b905091905056fe60806040523480156200001157600080fd5b5060405162000c9938038062000c998339818101604052810190620000379190620002bc565b600086116200004557600080fd5b866007819055508560058190555084600681905550876000806101000a81548173ffffffffffffffffffffffffffffffffffffffff021916908373ffffffffffffffffffffffffffffffffffffffff16021790555088600260006101000a81548173ffffffffffffffffffffffffffffffffffffffff021916908373ffffffffffffffffffffffffffffffffffffffff160217905550836003819055508260048190555081600860006101000a81548173ffffffffffffffffffffffffffffffffffffffff021916908373ffffffffffffffffffffffffffffffffffffffff16021790555080600960006101000a81548173ffffffffffffffffffffffffffffffffffffffff021916908373ffffffffffffffffffffffffffffffffffffffff1602179055506000600960146101000a81548160ff02191690831515021790555081600c60006101000a81548173ffffffffffffffffffffffffffffffffffffffff021916908373ffffffffffffffffffffffffffffffffffffffff16021790555080600d60006101000a81548173ffffffffffffffffffffffffffffffffffffffff021916908373ffffffffffffffffffffffffffffffffffffffff1602179055505050505050505050506200039b565b600080fd5b600073ffffffffffffffffffffffffffffffffffffffff82169050919050565b600062000249826200021c565b9050919050565b6200025b816200023c565b81146200026757600080fd5b50565b6000815190506200027b8162000250565b92915050565b6000819050919050565b620002968162000281565b8114620002a257600080fd5b50565b600081519050620002b6816200028b565b92915050565b60008060008060008060008060006101208a8c031215620002e257620002e162000217565b5b6000620002f28c828d016200026a565b9950506020620003058c828d016200026a565b9850506040620003188c828d01620002a5565b97505060606200032b8c828d01620002a5565b96505060806200033e8c828d01620002a5565b95505060a0620003518c828d01620002a5565b94505060c0620003648c828d01620002a5565b93505060e0620003778c828d016200026a565b9250506101006200038b8c828d016200026a565b9150509295985092959850929598565b6108ee80620003ab6000396000f3fe608060405234801561001057600080fd5b50600436106101425760003560e01c8063903e329c116100b8578063d57bde791161007c578063d57bde79146102e9578063db83694c14610307578063defd6c5f1461032d578063e45be8eb1461034b578063ed338ff114610369578063ef0a230e1461038757610142565b8063903e329c1461026757806391f9015714610271578063a8f6c9131461028f578063c7e284b8146102ad578063ca49a543146102cb57610142565b80631cbaee2d1161010a5780631cbaee2d146101c9578063454a2ab3146101e75780634979440a146102035780635bf8633a1461022157806364edfbf01461023f5780637150d8ae1461024957610142565b806308551a53146101475780630a7f463f1461016557806312fa6feb1461016f57806317d70f7c1461018d5780631c1cb323146101ab575b600080fd5b61014f6103a5565b60405161015c91906105fb565b60405180910390f35b61016d6103c9565b005b6101776103cb565b6040516101849190610631565b60405180910390f35b6101956103de565b6040516101a29190610665565b60405180910390f35b6101b36103e4565b6040516101c091906105fb565b60405180910390f35b6101d161040a565b6040516101de9190610665565b60405180910390f35b61020160048036038101906101fc91906106b1565b610410565b005b61020b610413565b6040516102189190610665565b60405180910390f35b61022961041d565b60405161023691906105fb565b60405180910390f35b610247610443565b005b610251610445565b60405161025e91906105fb565b60405180910390f35b61026f61046b565b005b61027961046d565b60405161028691906105fb565b60405180910390f35b610297610493565b6040516102a4919061073d565b60405180910390f35b6102b56104b9565b6040516102c29190610771565b60405180910390f35b6102d36104ce565b6040516102e09190610665565b60405180910390f35b6102f16104d6565b6040516102fe9190610665565b60405180910390f35b61030f6104dc565b6040516103249998979695949392919061078c565b60405180910390f35b610335610582565b6040516103429190610665565b60405180910390f35b610353610588565b6040516103609190610665565b60405180910390f35b61037161058e565b60405161037e9190610665565b60405180910390f35b61038f610594565b60405161039c919061083a565b60405180910390f35b60008054906101000a900473ffffffffffffffffffffffffffffffffffffffff1681565b565b600960149054906101000a900460ff1681565b60075481565b600860009054906101000a900473ffffffffffffffffffffffffffffffffffffffff1681565b60035481565b50565b6000600b54905090565b600960009054906101000a900473ffffffffffffffffffffffffffffffffffffffff1681565b565b600160009054906101000a900473ffffffffffffffffffffffffffffffffffffffff1681565b565b600a60009054906101000a900473ffffffffffffffffffffffffffffffffffffffff1681565b600c60009054906101000a900473ffffffffffffffffffffffffffffffffffffffff1681565b6000426004546104c99190610884565b905090565b600042905090565b600b5481565b6000806000806000806000806000600354600454600554600654600754600a60009054906101000a900473ffffffffffffffffffffffffffffffffffffffff16600b54600860009054906101000a900473ffffffffffffffffffffffffffffffffffffffff16600960009054906101000a900473ffffffffffffffffffffffffffffffffffffffff16985098509850985098509850985098509850909192939495969798565b60065481565b60055481565b60045481565b600d60009054906101000a900473ffffffffffffffffffffffffffffffffffffffff1681565b600073ffffffffffffffffffffffffffffffffffffffff82169050919050565b60006105e5826105ba565b9050919050565b6105f5816105da565b82525050565b600060208201905061061060008301846105ec565b92915050565b60008115159050919050565b61062b81610616565b82525050565b60006020820190506106466000830184610622565b92915050565b6000819050919050565b61065f8161064c565b82525050565b600060208201905061067a6000830184610656565b92915050565b600080fd5b61068e8161064c565b811461069957600080fd5b50565b6000813590506106ab81610685565b92915050565b6000602082840312156106c7576106c6610680565b5b60006106d58482850161069c565b91505092915050565b6000819050919050565b60006107036106fe6106f9846105ba565b6106de565b6105ba565b9050919050565b6000610715826106e8565b9050919050565b60006107278261070a565b9050919050565b6107378161071c565b82525050565b6000602082019050610752600083018461072e565b92915050565b6000819050919050565b61076b81610758565b82525050565b60006020820190506107866000830184610762565b92915050565b6000610120820190506107a2600083018c610656565b6107af602083018b610656565b6107bc604083018a610656565b6107c96060830189610656565b6107d66080830188610656565b6107e360a08301876105ec565b6107f060c0830186610656565b6107fd60e08301856105ec565b61080b6101008301846105ec565b9a9950505050505050505050565b60006108248261070a565b9050919050565b61083481610819565b82525050565b600060208201905061084f600083018461082b565b92915050565b7f4e487b7100000000000000000000000000000000000000000000000000000000600052601160045260246000fd5b600061088f8261064c565b915061089a8361064c565b9250828210156108ad576108ac610855565b5b82820390509291505056fea2646970667358221220927cd5b5cc2576169c6355afb8250d7b2b51da708de98bdbd8e6ec7b496576a164736f6c634300080b0033a2646970667358221220996aca9250768d68569654c1fb3eb627eb8ede49ae726f6ef078db430d4c415e64736f6c634300080b0033",
  "immutableReferences": {},
  "source": "// SPDX-License-Identifier: MIT\r\npragma solidity ^0.8.4;\r\n\r\nimport \"./access/Ownable.sol\";\r\nimport \"./token/ERC20/ERC20.sol\";\r\nimport \"./token/ERC721/ERC721.sol\";\r\nimport \"./NFTcreator.sol\";\r\n\r\n/**\r\n * PJT  - Req.1-SC1 SaleFactory \r\n *    ,      .\r\n */\r\n /*\r\n Sale      \r\n   NFT ERC-20     \r\n SaleFactory  Sale     Sale   NFT .\r\n  */\r\ncontract SaleFactory is Ownable {\r\n    address public admin; //     address(owner)\r\n    address[] public sales; //     Sale  \r\n    NFTcreator public NFTcreatorContract;\r\n\r\n    event NewSale(\r\n        address indexed _saleContract,\r\n        address indexed _owner,\r\n        uint256 _workId\r\n    );\r\n\r\n    constructor(address _NFTcreatorAddress) {\r\n        admin = msg.sender;\r\n        NFTcreatorContract = NFTcreator(_NFTcreatorAddress);\r\n    }\r\n\r\n    /**\r\n     * @dev   . \r\n     */\r\n    /*\r\n        Sale  .\r\n     Sale   .\r\n     Sale   .\r\n     */\r\n    function createSale(\r\n        uint256 itemId,\r\n        uint256 minPrice,\r\n        uint256 purchasePrice,\r\n        uint256 startTime,\r\n        uint256 endTime,\r\n        address currencyAddress,\r\n        address nftAddress\r\n    ) public returns (address) {\r\n        // TODO\r\n        Sale instance = new Sale(admin, msg.sender, itemId, minPrice, purchasePrice, startTime, endTime, currencyAddress, nftAddress);\r\n        //   tokenid    \r\n        NFTcreatorContract.transferFrom(msg.sender, address(instance), itemId);\r\n        // return instance;\r\n        // emit NewSale(_saleContract, _owner, _workId);\r\n        sales.push(address(instance));\r\n        emit NewSale(address(instance), msg.sender, itemId);\r\n        return address(instance);\r\n    }\r\n    \r\n    //   Sale  \r\n    function allSales() public view returns (address[] memory) {\r\n        return sales;\r\n    }\r\n}\r\n\r\n/**\r\n *  PJT  - Req.1-SC2) Sale \r\n */\r\n/**\r\n    \r\n(constructor), (bid), (purchase), (confirmItem), (cancle) \r\n   bid(), purchase() \r\n     confirmItem()   ERC-20  NFT   .\r\n */\r\ncontract Sale {\r\n    //    \r\n    address public seller; //  \r\n    address public buyer; //  \r\n    address admin; //  \r\n    uint256 public saleStartTime; //  \r\n    uint256 public saleEndTime; //  \r\n    uint256 public minPrice; //  \r\n    uint256 public purchasePrice;  //  \r\n    uint256 public tokenId; //  NFT tokenId\r\n    address public currencyAddress; //   ERC-20 \r\n    address public nftAddress; // nft creator \r\n    bool public ended; // ()\r\n\r\n    //    \r\n    address public highestBidder; //    \r\n    uint256 public highestBid;  //   \r\n\r\n    IERC20 public erc20Contract;\r\n    IERC721 public erc721Constract;\r\n\r\n    event HighestBidIncereased(address bidder, uint256 amount); //   ,  \r\n    event SaleEnded(address winner, uint256 amount);  //   \r\n\r\n\r\n    constructor(\r\n        address _admin,\r\n        address _seller,\r\n        uint256 _tokenId,\r\n        uint256 _minPrice,\r\n        uint256 _purchasePrice,\r\n        uint256 startTime,\r\n        uint256 endTime,\r\n        address _currencyAddress,\r\n        address _nftAddress\r\n    ) {\r\n        require(_minPrice > 0);\r\n        tokenId = _tokenId; \r\n        minPrice = _minPrice; \r\n        purchasePrice = _purchasePrice;\r\n        seller = _seller; \r\n        admin = _admin; \r\n        saleStartTime = startTime;\r\n        saleEndTime = endTime; \r\n        currencyAddress = _currencyAddress; \r\n        nftAddress = _nftAddress; \r\n        ended = false; \r\n        erc20Contract = IERC20(_currencyAddress);\r\n        erc721Constract = IERC721(_nftAddress);\r\n    }\r\n\r\n    /**\r\n       \r\n    -   \r\n    - Sale   \r\n    -  Sale   ERC-20     (ERC-20 approve)\r\n    -       \r\n    -      \r\n    -     \r\n       \r\n    1.     .\r\n    2. Sale   ERC-20  .\r\n     */\r\n    function bid(uint256 bid_amount) public {\r\n        // TODO\r\n    }\r\n\r\n    /**\r\n            \r\n    -   \r\n    -  Sale   \r\n    -   Sale    ERC-20       (ERC-20 approve)\r\n       \r\n    1.     .\r\n    2.  ERC-20     .\r\n    3. NFT   .\r\n    4.      .\r\n     */\r\n    function purchase() public {\r\n        // TODO \r\n    }\r\n\r\n    /**\r\n           \r\n    -    (   )\r\n    -    \r\n       \r\n    1.    .\r\n    2. NFT   .\r\n    3.      .\r\n    */\r\n    function confirmItem() public {\r\n        // TODO \r\n    }\r\n    \r\n    function cancelSales() public {\r\n        // TODO\r\n    }\r\n\r\n    function getTimeLeft() public view returns (int256) {\r\n        return (int256)(saleEndTime - block.timestamp);\r\n    }\r\n\r\n    function getBlockTimeStamp() public view returns(uint256){\r\n        return block.timestamp;\r\n    }\r\n\r\n    function getSaleInfo()\r\n        public\r\n        view\r\n        returns (\r\n            uint256,\r\n            uint256,\r\n            uint256,\r\n            uint256,\r\n            uint256,\r\n            address,\r\n            uint256,\r\n            address,\r\n            address\r\n        )\r\n    {\r\n        return (\r\n            saleStartTime,\r\n            saleEndTime,\r\n            minPrice,\r\n            purchasePrice,\r\n            tokenId,\r\n            highestBidder,\r\n            highestBid,\r\n            currencyAddress,\r\n            nftAddress\r\n        );\r\n    }\r\n\r\n    function getHighestBid() public view returns(uint256){\r\n        return highestBid;\r\n    }\r\n\r\n    // internal  private     _  .\r\n    function _end() internal {\r\n        ended = true;\r\n    }\r\n\r\n    function _getCurrencyAmount() private view returns (uint256) {\r\n        return erc20Contract.balanceOf(msg.sender);\r\n    }\r\n\r\n    // modifier       . \r\n    modifier onlySeller() {\r\n        require(msg.sender == seller, \"Sale: You are not seller.\");\r\n        _;\r\n    }\r\n\r\n    modifier onlyAfterStart() {\r\n        require(\r\n            block.timestamp >= saleStartTime,\r\n            \"Sale: This sale is not started.\"\r\n        );\r\n        _;\r\n    }\r\n}\r\n",
  "sourcePath": "C:\\Users\\SSAFY\\Desktop\\S06P22E106\\smart-contracts\\contracts\\SaleFactory.sol",
  "compiler": {
    "name": "solc",
    "version": "0.8.11+commit.d7f03943.Emscripten.clang"
  },
  "schemaVersion": "3.4.5",
  "updatedAt": "2022-03-25T06:28:27.246Z",
  "networkType": "ethereum",
  "devdoc": {
    "kind": "dev",
    "methods": {
      "createSale(uint256,uint256,uint256,uint256,uint256,address,address)": {
        "details": "  . "
      },
      "owner()": {
        "details": "Returns the address of the current owner."
      },
      "renounceOwnership()": {
        "details": "Leaves the contract without owner. It will not be possible to call `onlyOwner` functions anymore. Can only be called by the current owner. NOTE: Renouncing ownership will leave the contract without an owner, thereby removing any functionality that is only available to the owner."
      },
      "transferOwnership(address)": {
        "details": "Transfers ownership of the contract to a new account (`newOwner`). Can only be called by the current owner."
      }
    },
    "version": 1
  },
  "userdoc": {
    "kind": "user",
    "methods": {},
    "notice": "PJT  - Req.1-SC1 SaleFactory     ,      .",
    "version": 1
  }
}