{
  "contractName": "Sale",
  "abi": [
    {
      "inputs": [
        {
          "internalType": "address",
          "name": "_admin",
          "type": "address"
        },
        {
          "internalType": "address",
          "name": "_seller",
          "type": "address"
        },
        {
          "internalType": "uint256",
          "name": "_tokenId",
          "type": "uint256"
        },
        {
          "internalType": "uint256",
          "name": "_minPrice",
          "type": "uint256"
        },
        {
          "internalType": "uint256",
          "name": "_purchasePrice",
          "type": "uint256"
        },
        {
          "internalType": "uint256",
          "name": "startTime",
          "type": "uint256"
        },
        {
          "internalType": "uint256",
          "name": "endTime",
          "type": "uint256"
        },
        {
          "internalType": "address",
          "name": "_currencyAddress",
          "type": "address"
        },
        {
          "internalType": "address",
          "name": "_nftAddress",
          "type": "address"
        }
      ],
      "stateMutability": "nonpayable",
      "type": "constructor"
    },
    {
      "anonymous": false,
      "inputs": [
        {
          "indexed": false,
          "internalType": "address",
          "name": "bidder",
          "type": "address"
        },
        {
          "indexed": false,
          "internalType": "uint256",
          "name": "amount",
          "type": "uint256"
        }
      ],
      "name": "HighestBidIncereased",
      "type": "event"
    },
    {
      "anonymous": false,
      "inputs": [
        {
          "indexed": false,
          "internalType": "address",
          "name": "winner",
          "type": "address"
        },
        {
          "indexed": false,
          "internalType": "uint256",
          "name": "amount",
          "type": "uint256"
        }
      ],
      "name": "SaleEnded",
      "type": "event"
    },
    {
      "inputs": [],
      "name": "NFTcreatorContract",
      "outputs": [
        {
          "internalType": "contract NFTcreator",
          "name": "",
          "type": "address"
        }
      ],
      "stateMutability": "view",
      "type": "function"
    },
    {
      "inputs": [],
      "name": "buyer",
      "outputs": [
        {
          "internalType": "address",
          "name": "",
          "type": "address"
        }
      ],
      "stateMutability": "view",
      "type": "function"
    },
    {
      "inputs": [],
      "name": "currencyAddress",
      "outputs": [
        {
          "internalType": "address",
          "name": "",
          "type": "address"
        }
      ],
      "stateMutability": "view",
      "type": "function"
    },
    {
      "inputs": [],
      "name": "ended",
      "outputs": [
        {
          "internalType": "bool",
          "name": "",
          "type": "bool"
        }
      ],
      "stateMutability": "view",
      "type": "function"
    },
    {
      "inputs": [],
      "name": "erc20Contract",
      "outputs": [
        {
          "internalType": "contract IERC20",
          "name": "",
          "type": "address"
        }
      ],
      "stateMutability": "view",
      "type": "function"
    },
    {
      "inputs": [],
      "name": "erc721Constract",
      "outputs": [
        {
          "internalType": "contract IERC721",
          "name": "",
          "type": "address"
        }
      ],
      "stateMutability": "view",
      "type": "function"
    },
    {
      "inputs": [],
      "name": "highestBid",
      "outputs": [
        {
          "internalType": "uint256",
          "name": "",
          "type": "uint256"
        }
      ],
      "stateMutability": "view",
      "type": "function"
    },
    {
      "inputs": [],
      "name": "highestBidder",
      "outputs": [
        {
          "internalType": "address",
          "name": "",
          "type": "address"
        }
      ],
      "stateMutability": "view",
      "type": "function"
    },
    {
      "inputs": [],
      "name": "minPrice",
      "outputs": [
        {
          "internalType": "uint256",
          "name": "",
          "type": "uint256"
        }
      ],
      "stateMutability": "view",
      "type": "function"
    },
    {
      "inputs": [],
      "name": "nftAddress",
      "outputs": [
        {
          "internalType": "address",
          "name": "",
          "type": "address"
        }
      ],
      "stateMutability": "view",
      "type": "function"
    },
    {
      "inputs": [],
      "name": "purchasePrice",
      "outputs": [
        {
          "internalType": "uint256",
          "name": "",
          "type": "uint256"
        }
      ],
      "stateMutability": "view",
      "type": "function"
    },
    {
      "inputs": [],
      "name": "saleEndTime",
      "outputs": [
        {
          "internalType": "uint256",
          "name": "",
          "type": "uint256"
        }
      ],
      "stateMutability": "view",
      "type": "function"
    },
    {
      "inputs": [],
      "name": "saleStartTime",
      "outputs": [
        {
          "internalType": "uint256",
          "name": "",
          "type": "uint256"
        }
      ],
      "stateMutability": "view",
      "type": "function"
    },
    {
      "inputs": [],
      "name": "seller",
      "outputs": [
        {
          "internalType": "address",
          "name": "",
          "type": "address"
        }
      ],
      "stateMutability": "view",
      "type": "function"
    },
    {
      "inputs": [],
      "name": "tokenId",
      "outputs": [
        {
          "internalType": "uint256",
          "name": "",
          "type": "uint256"
        }
      ],
      "stateMutability": "view",
      "type": "function"
    },
    {
      "inputs": [
        {
          "internalType": "uint256",
          "name": "bid_amount",
          "type": "uint256"
        }
      ],
      "name": "bid",
      "outputs": [],
      "stateMutability": "nonpayable",
      "type": "function"
    },
    {
      "inputs": [],
      "name": "purchase",
      "outputs": [],
      "stateMutability": "nonpayable",
      "type": "function"
    },
    {
      "inputs": [],
      "name": "confirmItem",
      "outputs": [],
      "stateMutability": "nonpayable",
      "type": "function"
    },
    {
      "inputs": [],
      "name": "cancelSales",
      "outputs": [],
      "stateMutability": "nonpayable",
      "type": "function"
    },
    {
      "inputs": [],
      "name": "getTimeLeft",
      "outputs": [
        {
          "internalType": "int256",
          "name": "",
          "type": "int256"
        }
      ],
      "stateMutability": "view",
      "type": "function"
    },
    {
      "inputs": [],
      "name": "getBlockTimeStamp",
      "outputs": [
        {
          "internalType": "uint256",
          "name": "",
          "type": "uint256"
        }
      ],
      "stateMutability": "view",
      "type": "function"
    },
    {
      "inputs": [],
      "name": "getSaleInfo",
      "outputs": [
        {
          "internalType": "uint256",
          "name": "",
          "type": "uint256"
        },
        {
          "internalType": "uint256",
          "name": "",
          "type": "uint256"
        },
        {
          "internalType": "uint256",
          "name": "",
          "type": "uint256"
        },
        {
          "internalType": "uint256",
          "name": "",
          "type": "uint256"
        },
        {
          "internalType": "uint256",
          "name": "",
          "type": "uint256"
        },
        {
          "internalType": "address",
          "name": "",
          "type": "address"
        },
        {
          "internalType": "uint256",
          "name": "",
          "type": "uint256"
        },
        {
          "internalType": "address",
          "name": "",
          "type": "address"
        },
        {
          "internalType": "address",
          "name": "",
          "type": "address"
        }
      ],
      "stateMutability": "view",
      "type": "function"
    },
    {
      "inputs": [],
      "name": "getHighestBid",
      "outputs": [
        {
          "internalType": "uint256",
          "name": "",
          "type": "uint256"
        }
      ],
      "stateMutability": "view",
      "type": "function"
    }
  ],
  "bytecode": "0x60806040523480156200001157600080fd5b5060405162001062380380620010628339818101604052810190620000379190620002fd565b600086116200004557600080fd5b866007819055508560058190555084600681905550876000806101000a81548173ffffffffffffffffffffffffffffffffffffffff021916908373ffffffffffffffffffffffffffffffffffffffff16021790555088600260006101000a81548173ffffffffffffffffffffffffffffffffffffffff021916908373ffffffffffffffffffffffffffffffffffffffff160217905550836003819055508260048190555081600860006101000a81548173ffffffffffffffffffffffffffffffffffffffff021916908373ffffffffffffffffffffffffffffffffffffffff16021790555080600960006101000a81548173ffffffffffffffffffffffffffffffffffffffff021916908373ffffffffffffffffffffffffffffffffffffffff1602179055506000600960146101000a81548160ff02191690831515021790555081600c60006101000a81548173ffffffffffffffffffffffffffffffffffffffff021916908373ffffffffffffffffffffffffffffffffffffffff16021790555080600d60006101000a81548173ffffffffffffffffffffffffffffffffffffffff021916908373ffffffffffffffffffffffffffffffffffffffff16021790555080600e60006101000a81548173ffffffffffffffffffffffffffffffffffffffff021916908373ffffffffffffffffffffffffffffffffffffffff160217905550505050505050505050620003dc565b600080fd5b600073ffffffffffffffffffffffffffffffffffffffff82169050919050565b60006200028a826200025d565b9050919050565b6200029c816200027d565b8114620002a857600080fd5b50565b600081519050620002bc8162000291565b92915050565b6000819050919050565b620002d781620002c2565b8114620002e357600080fd5b50565b600081519050620002f781620002cc565b92915050565b60008060008060008060008060006101208a8c03121562000323576200032262000258565b5b6000620003338c828d01620002ab565b9950506020620003468c828d01620002ab565b9850506040620003598c828d01620002e6565b97505060606200036c8c828d01620002e6565b96505060806200037f8c828d01620002e6565b95505060a0620003928c828d01620002e6565b94505060c0620003a58c828d01620002e6565b93505060e0620003b88c828d01620002ab565b925050610100620003cc8c828d01620002ab565b9150509295985092959850929598565b610c7680620003ec6000396000f3fe608060405234801561001057600080fd5b506004361061014d5760003560e01c80637150d8ae116100c3578063d57bde791161007c578063d57bde7914610312578063db83694c14610330578063defd6c5f14610356578063e45be8eb14610374578063ed338ff114610392578063ef0a230e146103b05761014d565b80637150d8ae14610272578063903e329c1461029057806391f901571461029a578063a8f6c913146102b8578063c7e284b8146102d6578063ca49a543146102f45761014d565b80631c1cb323116101155780631c1cb323146101d45780631cbaee2d146101f2578063454a2ab3146102105780634979440a1461022c5780635bf8633a1461024a57806364edfbf0146102685761014d565b806308551a531461015257806308aab230146101705780630a7f463f1461018e57806312fa6feb1461019857806317d70f7c146101b6575b600080fd5b61015a6103ce565b6040516101679190610827565b60405180910390f35b6101786103f2565b60405161018591906108a1565b60405180910390f35b610196610418565b005b6101a061041a565b6040516101ad91906108d7565b60405180910390f35b6101be61042d565b6040516101cb919061090b565b60405180910390f35b6101dc610433565b6040516101e99190610827565b60405180910390f35b6101fa610459565b604051610207919061090b565b60405180910390f35b61022a60048036038101906102259190610957565b61045f565b005b610234610462565b604051610241919061090b565b60405180910390f35b61025261046c565b60405161025f9190610827565b60405180910390f35b610270610492565b005b61027a610494565b6040516102879190610827565b60405180910390f35b6102986104ba565b005b6102a2610699565b6040516102af9190610827565b60405180910390f35b6102c06106bf565b6040516102cd91906109a5565b60405180910390f35b6102de6106e5565b6040516102eb91906109d9565b60405180910390f35b6102fc6106fa565b604051610309919061090b565b60405180910390f35b61031a610702565b604051610327919061090b565b60405180910390f35b610338610708565b60405161034d999897969594939291906109f4565b60405180910390f35b61035e6107ae565b60405161036b919061090b565b60405180910390f35b61037c6107b4565b604051610389919061090b565b60405180910390f35b61039a6107ba565b6040516103a7919061090b565b60405180910390f35b6103b86107c0565b6040516103c59190610aa2565b60405180910390f35b60008054906101000a900473ffffffffffffffffffffffffffffffffffffffff1681565b600e60009054906101000a900473ffffffffffffffffffffffffffffffffffffffff1681565b565b600960149054906101000a900460ff1681565b60075481565b600860009054906101000a900473ffffffffffffffffffffffffffffffffffffffff1681565b60035481565b50565b6000600b54905090565b600960009054906101000a900473ffffffffffffffffffffffffffffffffffffffff1681565b565b600160009054906101000a900473ffffffffffffffffffffffffffffffffffffffff1681565b60045442106104fe576040517f08c379a00000000000000000000000000000000000000000000000000000000081526004016104f590610b1a565b60405180910390fd5b60008054906101000a900473ffffffffffffffffffffffffffffffffffffffff1673ffffffffffffffffffffffffffffffffffffffff163373ffffffffffffffffffffffffffffffffffffffff1614806105a55750600260009054906101000a900473ffffffffffffffffffffffffffffffffffffffff1673ffffffffffffffffffffffffffffffffffffffff163373ffffffffffffffffffffffffffffffffffffffff16145b6105e4576040517f08c379a00000000000000000000000000000000000000000000000000000000081526004016105db90610b86565b60405180910390fd5b600e60009054906101000a900473ffffffffffffffffffffffffffffffffffffffff1673ffffffffffffffffffffffffffffffffffffffff166323b872dd3060008054906101000a900473ffffffffffffffffffffffffffffffffffffffff166007546040518463ffffffff1660e01b815260040161066593929190610ba6565b600060405180830381600087803b15801561067f57600080fd5b505af1158015610693573d6000803e3d6000fd5b50505050565b600a60009054906101000a900473ffffffffffffffffffffffffffffffffffffffff1681565b600c60009054906101000a900473ffffffffffffffffffffffffffffffffffffffff1681565b6000426004546106f59190610c0c565b905090565b600042905090565b600b5481565b6000806000806000806000806000600354600454600554600654600754600a60009054906101000a900473ffffffffffffffffffffffffffffffffffffffff16600b54600860009054906101000a900473ffffffffffffffffffffffffffffffffffffffff16600960009054906101000a900473ffffffffffffffffffffffffffffffffffffffff16985098509850985098509850985098509850909192939495969798565b60065481565b60055481565b60045481565b600d60009054906101000a900473ffffffffffffffffffffffffffffffffffffffff1681565b600073ffffffffffffffffffffffffffffffffffffffff82169050919050565b6000610811826107e6565b9050919050565b61082181610806565b82525050565b600060208201905061083c6000830184610818565b92915050565b6000819050919050565b600061086761086261085d846107e6565b610842565b6107e6565b9050919050565b60006108798261084c565b9050919050565b600061088b8261086e565b9050919050565b61089b81610880565b82525050565b60006020820190506108b66000830184610892565b92915050565b60008115159050919050565b6108d1816108bc565b82525050565b60006020820190506108ec60008301846108c8565b92915050565b6000819050919050565b610905816108f2565b82525050565b600060208201905061092060008301846108fc565b92915050565b600080fd5b610934816108f2565b811461093f57600080fd5b50565b6000813590506109518161092b565b92915050565b60006020828403121561096d5761096c610926565b5b600061097b84828501610942565b91505092915050565b600061098f8261086e565b9050919050565b61099f81610984565b82525050565b60006020820190506109ba6000830184610996565b92915050565b6000819050919050565b6109d3816109c0565b82525050565b60006020820190506109ee60008301846109ca565b92915050565b600061012082019050610a0a600083018c6108fc565b610a17602083018b6108fc565b610a24604083018a6108fc565b610a3160608301896108fc565b610a3e60808301886108fc565b610a4b60a0830187610818565b610a5860c08301866108fc565b610a6560e0830185610818565b610a73610100830184610818565b9a9950505050505050505050565b6000610a8c8261086e565b9050919050565b610a9c81610a81565b82525050565b6000602082019050610ab76000830184610a93565b92915050565b600082825260208201905092915050565b7f53616c652074696d652068617320657870697265640000000000000000000000600082015250565b6000610b04601583610abd565b9150610b0f82610ace565b602082019050919050565b60006020820190508181036000830152610b3381610af7565b9050919050565b7f63616c6c6572206973206e6f7420617070726f76656400000000000000000000600082015250565b6000610b70601683610abd565b9150610b7b82610b3a565b602082019050919050565b60006020820190508181036000830152610b9f81610b63565b9050919050565b6000606082019050610bbb6000830186610818565b610bc86020830185610818565b610bd560408301846108fc565b949350505050565b7f4e487b7100000000000000000000000000000000000000000000000000000000600052601160045260246000fd5b6000610c17826108f2565b9150610c22836108f2565b925082821015610c3557610c34610bdd565b5b82820390509291505056fea2646970667358221220aaf7849339cf80c3919769aadb3ee0539615feaf27ffea025cf98483e7f58a0164736f6c634300080b0033",
  "immutableReferences": {},
  "source": "// SPDX-License-Identifier: MIT\r\npragma solidity ^0.8.4;\r\n\r\nimport \"./access/Ownable.sol\";\r\nimport \"./token/ERC20/ERC20.sol\";\r\nimport \"./token/ERC721/ERC721.sol\";\r\nimport \"./NFTcreator.sol\";\r\n\r\n/**\r\n * PJT  - Req.1-SC1 SaleFactory \r\n *    ,      .\r\n */\r\n /*\r\n Sale      \r\n   NFT ERC-20     \r\n SaleFactory  Sale     Sale   NFT .\r\n  */\r\ncontract SaleFactory is Ownable {\r\n    address public admin; //     address(owner)\r\n    address[] public sales; //     Sale  \r\n    mapping(uint256 => address) saleContractAddress; // id -> Salecontract address \r\n    NFTcreator public NFTcreatorContract;\r\n\r\n    event NewSale(\r\n        address indexed _saleContract,\r\n        address indexed _owner,\r\n        uint256 _workId\r\n    );\r\n\r\n    constructor(address _NFTcreatorAddress) {\r\n        admin = msg.sender;\r\n        NFTcreatorContract = NFTcreator(_NFTcreatorAddress);\r\n    }\r\n\r\n    /**\r\n     * @dev   . \r\n     */\r\n    /*\r\n        Sale  .\r\n     Sale   .\r\n     Sale   .\r\n     */\r\n    function createSale(\r\n        uint256 itemId,\r\n        uint256 minPrice,\r\n        uint256 purchasePrice,\r\n        uint256 startTime,\r\n        uint256 endTime,\r\n        address currencyAddress,\r\n        address nftAddress\r\n    ) public returns (address) {\r\n        // TODO\r\n        address seller = msg.sender;\r\n        Sale instance = new Sale(admin, seller, itemId, minPrice, purchasePrice, startTime, endTime, currencyAddress, nftAddress);\r\n        //   tokenid    \r\n        NFTcreatorContract.transferFrom(seller, address(instance), itemId);\r\n        // return instance;\r\n        // emit NewSale(_saleContract, _owner, _workId);\r\n        sales.push(address(instance));\r\n        saleContractAddress[itemId] = address(instance);\r\n        emit NewSale(address(instance), msg.sender, itemId);\r\n        return address(instance);\r\n    }\r\n    \r\n    //   Sale  \r\n    function allSales() public view returns (address[] memory) {\r\n        return sales;\r\n    }\r\n\r\n    function getSaleContractAddress(uint256 tokenId) public view returns (address) {\r\n        require(saleContractAddress[tokenId] != address(0), \"this token is not on sale\");\r\n        return saleContractAddress[tokenId];\r\n    }\r\n}\r\n\r\n/**\r\n *  PJT  - Req.1-SC2) Sale \r\n */\r\n/**\r\n    \r\n(constructor), (bid), (purchase), (confirmItem), (cancle) \r\n   bid(), purchase() \r\n     confirmItem()   ERC-20  NFT   .\r\n */\r\ncontract Sale {\r\n    //    \r\n    address public seller; //  \r\n    address public buyer; //  \r\n    address admin; //  \r\n    uint256 public saleStartTime; //  \r\n    uint256 public saleEndTime; //  \r\n    uint256 public minPrice; //  \r\n    uint256 public purchasePrice;  //  \r\n    uint256 public tokenId; //  NFT tokenId\r\n    address public currencyAddress; //   ERC-20 \r\n    address public nftAddress; // nft creator \r\n    bool public ended; // ()\r\n\r\n    //    \r\n    address public highestBidder; //    \r\n    uint256 public highestBid;  //   \r\n\r\n    IERC20 public erc20Contract;\r\n    IERC721 public erc721Constract;\r\n    NFTcreator public NFTcreatorContract;\r\n\r\n    event HighestBidIncereased(address bidder, uint256 amount); //   ,  \r\n    event SaleEnded(address winner, uint256 amount);  //   \r\n\r\n\r\n    constructor(\r\n        address _admin,\r\n        address _seller,\r\n        uint256 _tokenId,\r\n        uint256 _minPrice,\r\n        uint256 _purchasePrice,\r\n        uint256 startTime,\r\n        uint256 endTime,\r\n        address _currencyAddress,\r\n        address _nftAddress\r\n    ) {\r\n        require(_minPrice > 0);\r\n        tokenId = _tokenId; \r\n        minPrice = _minPrice; \r\n        purchasePrice = _purchasePrice;\r\n        seller = _seller; \r\n        admin = _admin; \r\n        saleStartTime = startTime;\r\n        saleEndTime = endTime; \r\n        currencyAddress = _currencyAddress; \r\n        nftAddress = _nftAddress; \r\n        ended = false; \r\n        erc20Contract = IERC20(_currencyAddress);\r\n        erc721Constract = IERC721(_nftAddress);\r\n        NFTcreatorContract = NFTcreator(_nftAddress);\r\n    }\r\n\r\n    /**\r\n       \r\n    -   \r\n    - Sale   \r\n    -  Sale   ERC-20     (ERC-20 approve)\r\n    -       \r\n    -      \r\n    -     \r\n       \r\n    1.     .\r\n    2. Sale   ERC-20  .\r\n     */\r\n    function bid(uint256 bid_amount) public {\r\n        // TODO\r\n    }\r\n\r\n    /**\r\n            \r\n    -   \r\n    -  Sale   \r\n    -   Sale    ERC-20       (ERC-20 approve)\r\n       \r\n    1.     .\r\n    2.  ERC-20     .\r\n    3. NFT   .\r\n    4.      .\r\n     */\r\n    function purchase() public {\r\n        // TODO \r\n    }\r\n\r\n    /**\r\n           \r\n    -    (   )\r\n    -    \r\n       \r\n    1.    .\r\n    2. NFT   .\r\n    3.      .\r\n    */\r\n    function confirmItem() public {\r\n        // TODO \r\n    }\r\n    \r\n    /**\r\n            \r\n    -    \r\n    -     \r\n       \r\n    1.  .\r\n    2. NFT   .\r\n    3.     .\r\n    */\r\n    function cancelSales() public {\r\n        // TODO\r\n        require(block.timestamp < saleEndTime, \"Sale time has expired\");\r\n        require(msg.sender == seller || msg.sender == admin, \"caller is not approved\");\r\n        // NFT   \r\n        NFTcreatorContract.transferFrom(address(this), seller, tokenId);\r\n    }\r\n\r\n    function getTimeLeft() public view returns (int256) {\r\n        return (int256)(saleEndTime - block.timestamp);\r\n    }\r\n\r\n    function getBlockTimeStamp() public view returns(uint256){\r\n        return block.timestamp;\r\n    }\r\n\r\n    function getSaleInfo()\r\n        public\r\n        view\r\n        returns (\r\n            uint256,\r\n            uint256,\r\n            uint256,\r\n            uint256,\r\n            uint256,\r\n            address,\r\n            uint256,\r\n            address,\r\n            address\r\n        )\r\n    {\r\n        return (\r\n            saleStartTime,\r\n            saleEndTime,\r\n            minPrice,\r\n            purchasePrice,\r\n            tokenId,\r\n            highestBidder,\r\n            highestBid,\r\n            currencyAddress,\r\n            nftAddress\r\n        );\r\n    }\r\n\r\n    function getHighestBid() public view returns(uint256){\r\n        return highestBid;\r\n    }\r\n\r\n    // internal  private     _  .\r\n    function _end() internal {\r\n        ended = true;\r\n    }\r\n\r\n    function _getCurrencyAmount() private view returns (uint256) {\r\n        return erc20Contract.balanceOf(msg.sender);\r\n    }\r\n\r\n    // modifier       . \r\n    modifier onlySeller() {\r\n        require(msg.sender == seller, \"Sale: You are not seller.\");\r\n        _;\r\n    }\r\n\r\n    modifier onlyAfterStart() {\r\n        require(\r\n            block.timestamp >= saleStartTime,\r\n            \"Sale: This sale is not started.\"\r\n        );\r\n        _;\r\n    }\r\n}\r\n",
  "sourcePath": "C:\\Users\\SSAFY\\Desktop\\S06P22E106\\smart-contracts\\contracts\\SaleFactory.sol",
  "compiler": {
    "name": "solc",
    "version": "0.8.11+commit.d7f03943.Emscripten.clang"
  },
  "schemaVersion": "3.4.5",
  "updatedAt": "2022-03-25T08:55:47.282Z",
  "devdoc": {
    "kind": "dev",
    "methods": {},
    "version": 1
  },
  "userdoc": {
    "kind": "user",
    "methods": {
      "bid(uint256)": {
        "notice": "    -    - Sale    -  Sale   ERC-20     (ERC-20 approve) -        -       -          1.     . 2. Sale   ERC-20  ."
      },
      "cancelSales()": {
        "notice": "         -     -          1.  . 2. NFT   . 3.     ."
      },
      "confirmItem()": {
        "notice": "        -    (   ) -         1.    . 2. NFT   . 3.      ."
      },
      "purchase()": {
        "notice": "         -    -  Sale    -   Sale    ERC-20       (ERC-20 approve)     1.     . 2.  ERC-20     . 3. NFT   . 4.      ."
      }
    },
    "notice": "     (constructor), (bid), (purchase), (confirmItem), (cancle)     bid(), purchase()       confirmItem()   ERC-20  NFT   .",
    "version": 1
  }
}