{
  "contractName": "SsafyNFT",
  "abi": [
    {
      "inputs": [],
      "stateMutability": "nonpayable",
      "type": "constructor"
    },
    {
      "inputs": [],
      "name": "current",
      "outputs": [
        {
          "internalType": "uint256",
          "name": "",
          "type": "uint256"
        }
      ],
      "stateMutability": "view",
      "type": "function",
      "constant": true
    },
    {
      "inputs": [
        {
          "internalType": "uint256",
          "name": "tokenId",
          "type": "uint256"
        }
      ],
      "name": "tokenURI",
      "outputs": [
        {
          "internalType": "string",
          "name": "",
          "type": "string"
        }
      ],
      "stateMutability": "view",
      "type": "function",
      "constant": true
    },
    {
      "inputs": [
        {
          "internalType": "address",
          "name": "to",
          "type": "address"
        },
        {
          "internalType": "string",
          "name": "_tokenURI",
          "type": "string"
        }
      ],
      "name": "create",
      "outputs": [
        {
          "internalType": "uint256",
          "name": "",
          "type": "uint256"
        }
      ],
      "stateMutability": "nonpayable",
      "type": "function"
    }
  ],
  "bytecode": "0x608060405234801561001057600080fd5b5061045d806100206000396000f3fe608060405234801561001057600080fd5b50600436106100415760003560e01c80639fa6a6e314610046578063a15ab08d14610064578063c87b56dd14610094575b600080fd5b61004e6100c4565b60405161005b91906100f5565b60405180910390f35b61007e600480360381019061007991906102c8565b6100cd565b60405161008b91906100f5565b60405180910390f35b6100ae60048036038101906100a99190610350565b6100d5565b6040516100bb9190610405565b60405180910390f35b60008054905090565b600092915050565b6060919050565b6000819050919050565b6100ef816100dc565b82525050565b600060208201905061010a60008301846100e6565b92915050565b6000604051905090565b600080fd5b600080fd5b600073ffffffffffffffffffffffffffffffffffffffff82169050919050565b600061014f82610124565b9050919050565b61015f81610144565b811461016a57600080fd5b50565b60008135905061017c81610156565b92915050565b600080fd5b600080fd5b6000601f19601f8301169050919050565b7f4e487b7100000000000000000000000000000000000000000000000000000000600052604160045260246000fd5b6101d58261018c565b810181811067ffffffffffffffff821117156101f4576101f361019d565b5b80604052505050565b6000610207610110565b905061021382826101cc565b919050565b600067ffffffffffffffff8211156102335761023261019d565b5b61023c8261018c565b9050602081019050919050565b82818337600083830152505050565b600061026b61026684610218565b6101fd565b90508281526020810184848401111561028757610286610187565b5b610292848285610249565b509392505050565b600082601f8301126102af576102ae610182565b5b81356102bf848260208601610258565b91505092915050565b600080604083850312156102df576102de61011a565b5b60006102ed8582860161016d565b925050602083013567ffffffffffffffff81111561030e5761030d61011f565b5b61031a8582860161029a565b9150509250929050565b61032d816100dc565b811461033857600080fd5b50565b60008135905061034a81610324565b92915050565b6000602082840312156103665761036561011a565b5b60006103748482850161033b565b91505092915050565b600081519050919050565b600082825260208201905092915050565b60005b838110156103b757808201518184015260208101905061039c565b838111156103c6576000848401525b50505050565b60006103d78261037d565b6103e18185610388565b93506103f1818560208601610399565b6103fa8161018c565b840191505092915050565b6000602082019050818103600083015261041f81846103cc565b90509291505056fea2646970667358221220c13e56ad5c507cf05b4621cf0d2a3973d123114f88936245dd963b66d99ee71364736f6c634300080b0033",
  "immutableReferences": {},
  "source": "// SPDX-License-Identifier: MIT\r\npragma solidity ^0.8.4;\r\n\r\nimport \"./token/ERC721/ERC721.sol\";\r\n\r\n/**\r\n * PJT  -  2) NFT Creator \r\n *         .\r\n */\r\ncontract SsafyNFT {\r\n\r\n    uint256 private _tokenIds;\r\n    mapping(uint256 => string) tokenURIs;\r\n\r\n    constructor() {\r\n        // TODO\r\n    }\r\n\r\n    function current() public view returns (uint256) {\r\n        return _tokenIds;\r\n    }\r\n\r\n    function tokenURI(uint256 tokenId) public view returns (string memory) {\r\n        // TODO\r\n    }\r\n\r\n    function create(address to, string memory _tokenURI) public returns (uint256) {\r\n        // TODO\r\n    }\r\n}",
  "sourcePath": "C:\\Users\\SSAFY\\Desktop\\S06P22E106\\smart-contracts\\contracts\\SsafyNFT.sol",
  "compiler": {
    "name": "solc",
    "version": "0.8.11+commit.d7f03943.Emscripten.clang"
  },
  "schemaVersion": "3.4.5",
  "updatedAt": "2022-03-16T21:00:19.471Z",
  "networkType": "ethereum",
  "devdoc": {
    "kind": "dev",
    "methods": {},
    "version": 1
  },
  "userdoc": {
    "kind": "user",
    "methods": {},
    "notice": "PJT  -  2) NFT Creator          .",
    "version": 1
  }
}